{
	"DeciCourt.sol": {
		"DeciCourt": {
			"abi": [
				{
					"inputs": [
						{
							"internalType": "address",
							"name": "_tokenAddress",
							"type": "address"
						},
						{
							"internalType": "uint256",
							"name": "_filingFee",
							"type": "uint256"
						},
						{
							"internalType": "uint256",
							"name": "_jurorStake",
							"type": "uint256"
						},
						{
							"internalType": "uint256",
							"name": "_jurySize",
							"type": "uint256"
						},
						{
							"internalType": "uint256",
							"name": "_commitDuration",
							"type": "uint256"
						},
						{
							"internalType": "uint256",
							"name": "_revealDuration",
							"type": "uint256"
						},
						{
							"internalType": "uint256",
							"name": "_penaltyRate",
							"type": "uint256"
						}
					],
					"stateMutability": "nonpayable",
					"type": "constructor"
				},
				{
					"anonymous": false,
					"inputs": [
						{
							"indexed": true,
							"internalType": "uint256",
							"name": "caseId",
							"type": "uint256"
						},
						{
							"indexed": true,
							"internalType": "address",
							"name": "plaintiff",
							"type": "address"
						},
						{
							"indexed": true,
							"internalType": "address",
							"name": "defendant",
							"type": "address"
						},
						{
							"indexed": false,
							"internalType": "uint256",
							"name": "filingFee",
							"type": "uint256"
						}
					],
					"name": "CaseCreated",
					"type": "event"
				},
				{
					"anonymous": false,
					"inputs": [
						{
							"indexed": true,
							"internalType": "uint256",
							"name": "caseId",
							"type": "uint256"
						},
						{
							"indexed": false,
							"internalType": "address",
							"name": "winner",
							"type": "address"
						},
						{
							"indexed": false,
							"internalType": "uint256",
							"name": "plaintiffReward",
							"type": "uint256"
						},
						{
							"indexed": false,
							"internalType": "uint256",
							"name": "defendantReward",
							"type": "uint256"
						},
						{
							"indexed": false,
							"internalType": "uint256",
							"name": "totalJurorReward",
							"type": "uint256"
						}
					],
					"name": "CaseResolved",
					"type": "event"
				},
				{
					"anonymous": false,
					"inputs": [
						{
							"indexed": true,
							"internalType": "address",
							"name": "juror",
							"type": "address"
						},
						{
							"indexed": false,
							"internalType": "uint256",
							"name": "stakeAmount",
							"type": "uint256"
						}
					],
					"name": "JurorRegistered",
					"type": "event"
				},
				{
					"anonymous": false,
					"inputs": [
						{
							"indexed": true,
							"internalType": "address",
							"name": "juror",
							"type": "address"
						}
					],
					"name": "JurorUnregistered",
					"type": "event"
				},
				{
					"anonymous": false,
					"inputs": [
						{
							"indexed": true,
							"internalType": "uint256",
							"name": "caseId",
							"type": "uint256"
						},
						{
							"indexed": true,
							"internalType": "address",
							"name": "juror",
							"type": "address"
						}
					],
					"name": "VoteCommitted",
					"type": "event"
				},
				{
					"anonymous": false,
					"inputs": [
						{
							"indexed": true,
							"internalType": "uint256",
							"name": "caseId",
							"type": "uint256"
						},
						{
							"indexed": true,
							"internalType": "address",
							"name": "juror",
							"type": "address"
						},
						{
							"indexed": false,
							"internalType": "enum DeciCourt.VoteOption",
							"name": "vote",
							"type": "uint8"
						}
					],
					"name": "VoteRevealed",
					"type": "event"
				},
				{
					"inputs": [
						{
							"internalType": "uint256",
							"name": "",
							"type": "uint256"
						}
					],
					"name": "cases",
					"outputs": [
						{
							"internalType": "uint256",
							"name": "id",
							"type": "uint256"
						},
						{
							"internalType": "address",
							"name": "plaintiff",
							"type": "address"
						},
						{
							"internalType": "address",
							"name": "defendant",
							"type": "address"
						},
						{
							"internalType": "string",
							"name": "evidenceCID",
							"type": "string"
						},
						{
							"internalType": "enum DeciCourt.CaseStatus",
							"name": "status",
							"type": "uint8"
						},
						{
							"internalType": "uint256",
							"name": "filingFee",
							"type": "uint256"
						},
						{
							"internalType": "uint256",
							"name": "plaintiffVoteCount",
							"type": "uint256"
						},
						{
							"internalType": "uint256",
							"name": "defendantVoteCount",
							"type": "uint256"
						},
						{
							"internalType": "uint256",
							"name": "creationTime",
							"type": "uint256"
						},
						{
							"internalType": "uint256",
							"name": "commitDeadline",
							"type": "uint256"
						},
						{
							"internalType": "uint256",
							"name": "revealDeadline",
							"type": "uint256"
						},
						{
							"internalType": "address",
							"name": "winner",
							"type": "address"
						}
					],
					"stateMutability": "view",
					"type": "function"
				},
				{
					"inputs": [],
					"name": "commitDuration",
					"outputs": [
						{
							"internalType": "uint256",
							"name": "",
							"type": "uint256"
						}
					],
					"stateMutability": "view",
					"type": "function"
				},
				{
					"inputs": [
						{
							"internalType": "uint256",
							"name": "_caseId",
							"type": "uint256"
						},
						{
							"internalType": "bytes32",
							"name": "_voteHash",
							"type": "bytes32"
						}
					],
					"name": "commitVote",
					"outputs": [],
					"stateMutability": "nonpayable",
					"type": "function"
				},
				{
					"inputs": [
						{
							"internalType": "address",
							"name": "_defendant",
							"type": "address"
						},
						{
							"internalType": "string",
							"name": "_evidenceCID",
							"type": "string"
						}
					],
					"name": "createCase",
					"outputs": [],
					"stateMutability": "nonpayable",
					"type": "function"
				},
				{
					"inputs": [
						{
							"internalType": "uint256",
							"name": "_caseId",
							"type": "uint256"
						}
					],
					"name": "executeVerdict",
					"outputs": [],
					"stateMutability": "nonpayable",
					"type": "function"
				},
				{
					"inputs": [],
					"name": "filingFeeAmount",
					"outputs": [
						{
							"internalType": "uint256",
							"name": "",
							"type": "uint256"
						}
					],
					"stateMutability": "view",
					"type": "function"
				},
				{
					"inputs": [],
					"name": "jurorPenaltyRate",
					"outputs": [
						{
							"internalType": "uint256",
							"name": "",
							"type": "uint256"
						}
					],
					"stateMutability": "view",
					"type": "function"
				},
				{
					"inputs": [
						{
							"internalType": "uint256",
							"name": "",
							"type": "uint256"
						}
					],
					"name": "jurorPool",
					"outputs": [
						{
							"internalType": "address",
							"name": "",
							"type": "address"
						}
					],
					"stateMutability": "view",
					"type": "function"
				},
				{
					"inputs": [],
					"name": "jurorStakeAmount",
					"outputs": [
						{
							"internalType": "uint256",
							"name": "",
							"type": "uint256"
						}
					],
					"stateMutability": "view",
					"type": "function"
				},
				{
					"inputs": [
						{
							"internalType": "address",
							"name": "",
							"type": "address"
						}
					],
					"name": "jurorsInfo",
					"outputs": [
						{
							"internalType": "bool",
							"name": "isRegistered",
							"type": "bool"
						},
						{
							"internalType": "uint256",
							"name": "stakedAmount",
							"type": "uint256"
						},
						{
							"internalType": "bool",
							"name": "isServing",
							"type": "bool"
						}
					],
					"stateMutability": "view",
					"type": "function"
				},
				{
					"inputs": [],
					"name": "jurySize",
					"outputs": [
						{
							"internalType": "uint256",
							"name": "",
							"type": "uint256"
						}
					],
					"stateMutability": "view",
					"type": "function"
				},
				{
					"inputs": [],
					"name": "juryToken",
					"outputs": [
						{
							"internalType": "contract IERC20",
							"name": "",
							"type": "address"
						}
					],
					"stateMutability": "view",
					"type": "function"
				},
				{
					"inputs": [],
					"name": "nextCaseId",
					"outputs": [
						{
							"internalType": "uint256",
							"name": "",
							"type": "uint256"
						}
					],
					"stateMutability": "view",
					"type": "function"
				},
				{
					"inputs": [],
					"name": "registerAsJuror",
					"outputs": [],
					"stateMutability": "nonpayable",
					"type": "function"
				},
				{
					"inputs": [],
					"name": "revealDuration",
					"outputs": [
						{
							"internalType": "uint256",
							"name": "",
							"type": "uint256"
						}
					],
					"stateMutability": "view",
					"type": "function"
				},
				{
					"inputs": [
						{
							"internalType": "uint256",
							"name": "_caseId",
							"type": "uint256"
						},
						{
							"internalType": "enum DeciCourt.VoteOption",
							"name": "_vote",
							"type": "uint8"
						},
						{
							"internalType": "bytes32",
							"name": "_salt",
							"type": "bytes32"
						}
					],
					"name": "revealVote",
					"outputs": [],
					"stateMutability": "nonpayable",
					"type": "function"
				},
				{
					"inputs": [],
					"name": "unregisterAsJuror",
					"outputs": [],
					"stateMutability": "nonpayable",
					"type": "function"
				}
			],
			"devdoc": {
				"kind": "dev",
				"methods": {},
				"version": 1
			},
			"evm": {
				"assembly": "    /* \"DeciCourt.sol\":237:12793  contract DeciCourt is ReentrancyGuard {... */\n  mstore(0x40, 0xa0)\n    /* \"DeciCourt.sol\":2899:3466  constructor(... */\n  callvalue\n  dup1\n  iszero\n  tag_1\n  jumpi\n  revert(0x00, 0x00)\ntag_1:\n  pop\n  mload(0x40)\n  sub(codesize, bytecodeSize)\n  dup1\n  bytecodeSize\n  dup4\n  codecopy\n  dup2\n  dup2\n  add\n  0x40\n  mstore\n  dup2\n  add\n  swap1\n  tag_2\n  swap2\n  swap1\n  tag_3\n  jump\t// in\ntag_2:\n    /* \"@openzeppelin/contracts/security/ReentrancyGuard.sol\":1716:1717  1 */\n  0x01\n    /* \"@openzeppelin/contracts/security/ReentrancyGuard.sol\":1821:1828  _status */\n  0x00\n    /* \"@openzeppelin/contracts/security/ReentrancyGuard.sol\":1821:1843  _status = _NOT_ENTERED */\n  dup2\n  swap1\n  sstore\n  pop\n    /* \"DeciCourt.sol\":3157:3170  _tokenAddress */\n  dup7\n    /* \"DeciCourt.sol\":3138:3171  juryToken = IERC20(_tokenAddress) */\n  0xffffffffffffffffffffffffffffffffffffffff\n  and\n  0x80\n  dup2\n  0xffffffffffffffffffffffffffffffffffffffff\n  and\n  dup2\n  mstore\n  pop\n  pop\n    /* \"DeciCourt.sol\":3199:3209  _filingFee */\n  dup6\n    /* \"DeciCourt.sol\":3181:3196  filingFeeAmount */\n  0x01\n    /* \"DeciCourt.sol\":3181:3209  filingFeeAmount = _filingFee */\n  dup2\n  swap1\n  sstore\n  pop\n    /* \"DeciCourt.sol\":3238:3249  _jurorStake */\n  dup5\n    /* \"DeciCourt.sol\":3219:3235  jurorStakeAmount */\n  0x02\n    /* \"DeciCourt.sol\":3219:3249  jurorStakeAmount = _jurorStake */\n  dup2\n  swap1\n  sstore\n  pop\n    /* \"DeciCourt.sol\":3270:3279  _jurySize */\n  dup4\n    /* \"DeciCourt.sol\":3259:3267  jurySize */\n  0x03\n    /* \"DeciCourt.sol\":3259:3279  jurySize = _jurySize */\n  dup2\n  swap1\n  sstore\n  pop\n    /* \"DeciCourt.sol\":3306:3321  _commitDuration */\n  dup3\n    /* \"DeciCourt.sol\":3289:3303  commitDuration */\n  0x04\n    /* \"DeciCourt.sol\":3289:3321  commitDuration = _commitDuration */\n  dup2\n  swap1\n  sstore\n  pop\n    /* \"DeciCourt.sol\":3348:3363  _revealDuration */\n  dup2\n    /* \"DeciCourt.sol\":3331:3345  revealDuration */\n  0x05\n    /* \"DeciCourt.sol\":3331:3363  revealDuration = _revealDuration */\n  dup2\n  swap1\n  sstore\n  pop\n    /* \"DeciCourt.sol\":3392:3404  _penaltyRate */\n  dup1\n    /* \"DeciCourt.sol\":3373:3389  jurorPenaltyRate */\n  0x06\n    /* \"DeciCourt.sol\":3373:3404  jurorPenaltyRate = _penaltyRate */\n  dup2\n  swap1\n  sstore\n  pop\n    /* \"DeciCourt.sol\":3458:3459  1 */\n  0x01\n    /* \"DeciCourt.sol\":3445:3455  nextCaseId */\n  0x07\n    /* \"DeciCourt.sol\":3445:3459  nextCaseId = 1 */\n  dup2\n  swap1\n  sstore\n  pop\n    /* \"DeciCourt.sol\":2899:3466  constructor(... */\n  pop\n  pop\n  pop\n  pop\n  pop\n  pop\n  pop\n    /* \"DeciCourt.sol\":237:12793  contract DeciCourt is ReentrancyGuard {... */\n  jump(tag_8)\n    /* \"#utility.yul\":88:205   */\ntag_10:\n    /* \"#utility.yul\":197:198   */\n  0x00\n    /* \"#utility.yul\":194:195   */\n  0x00\n    /* \"#utility.yul\":187:199   */\n  revert\n    /* \"#utility.yul\":334:460   */\ntag_12:\n    /* \"#utility.yul\":371:378   */\n  0x00\n    /* \"#utility.yul\":411:453   */\n  0xffffffffffffffffffffffffffffffffffffffff\n    /* \"#utility.yul\":404:409   */\n  dup3\n    /* \"#utility.yul\":400:454   */\n  and\n    /* \"#utility.yul\":389:454   */\n  swap1\n  pop\n    /* \"#utility.yul\":334:460   */\n  swap2\n  swap1\n  pop\n  jump\t// out\n    /* \"#utility.yul\":466:562   */\ntag_13:\n    /* \"#utility.yul\":503:510   */\n  0x00\n    /* \"#utility.yul\":532:556   */\n  tag_25\n    /* \"#utility.yul\":550:555   */\n  dup3\n    /* \"#utility.yul\":532:556   */\n  tag_12\n  jump\t// in\ntag_25:\n    /* \"#utility.yul\":521:556   */\n  swap1\n  pop\n    /* \"#utility.yul\":466:562   */\n  swap2\n  swap1\n  pop\n  jump\t// out\n    /* \"#utility.yul\":568:690   */\ntag_14:\n    /* \"#utility.yul\":641:665   */\n  tag_27\n    /* \"#utility.yul\":659:664   */\n  dup2\n    /* \"#utility.yul\":641:665   */\n  tag_13\n  jump\t// in\ntag_27:\n    /* \"#utility.yul\":634:639   */\n  dup2\n    /* \"#utility.yul\":631:666   */\n  eq\n    /* \"#utility.yul\":621:684   */\n  tag_28\n  jumpi\n    /* \"#utility.yul\":680:681   */\n  0x00\n    /* \"#utility.yul\":677:678   */\n  0x00\n    /* \"#utility.yul\":670:682   */\n  revert\n    /* \"#utility.yul\":621:684   */\ntag_28:\n    /* \"#utility.yul\":568:690   */\n  pop\n  jump\t// out\n    /* \"#utility.yul\":696:839   */\ntag_15:\n    /* \"#utility.yul\":753:758   */\n  0x00\n    /* \"#utility.yul\":784:790   */\n  dup2\n    /* \"#utility.yul\":778:791   */\n  mload\n    /* \"#utility.yul\":769:791   */\n  swap1\n  pop\n    /* \"#utility.yul\":800:833   */\n  tag_30\n    /* \"#utility.yul\":827:832   */\n  dup2\n    /* \"#utility.yul\":800:833   */\n  tag_14\n  jump\t// in\ntag_30:\n    /* \"#utility.yul\":696:839   */\n  swap3\n  swap2\n  pop\n  pop\n  jump\t// out\n    /* \"#utility.yul\":845:922   */\ntag_16:\n    /* \"#utility.yul\":882:889   */\n  0x00\n    /* \"#utility.yul\":911:916   */\n  dup2\n    /* \"#utility.yul\":900:916   */\n  swap1\n  pop\n    /* \"#utility.yul\":845:922   */\n  swap2\n  swap1\n  pop\n  jump\t// out\n    /* \"#utility.yul\":928:1050   */\ntag_17:\n    /* \"#utility.yul\":1001:1025   */\n  tag_33\n    /* \"#utility.yul\":1019:1024   */\n  dup2\n    /* \"#utility.yul\":1001:1025   */\n  tag_16\n  jump\t// in\ntag_33:\n    /* \"#utility.yul\":994:999   */\n  dup2\n    /* \"#utility.yul\":991:1026   */\n  eq\n    /* \"#utility.yul\":981:1044   */\n  tag_34\n  jumpi\n    /* \"#utility.yul\":1040:1041   */\n  0x00\n    /* \"#utility.yul\":1037:1038   */\n  0x00\n    /* \"#utility.yul\":1030:1042   */\n  revert\n    /* \"#utility.yul\":981:1044   */\ntag_34:\n    /* \"#utility.yul\":928:1050   */\n  pop\n  jump\t// out\n    /* \"#utility.yul\":1056:1199   */\ntag_18:\n    /* \"#utility.yul\":1113:1118   */\n  0x00\n    /* \"#utility.yul\":1144:1150   */\n  dup2\n    /* \"#utility.yul\":1138:1151   */\n  mload\n    /* \"#utility.yul\":1129:1151   */\n  swap1\n  pop\n    /* \"#utility.yul\":1160:1193   */\n  tag_36\n    /* \"#utility.yul\":1187:1192   */\n  dup2\n    /* \"#utility.yul\":1160:1193   */\n  tag_17\n  jump\t// in\ntag_36:\n    /* \"#utility.yul\":1056:1199   */\n  swap3\n  swap2\n  pop\n  pop\n  jump\t// out\n    /* \"#utility.yul\":1205:2496   */\ntag_3:\n    /* \"#utility.yul\":1329:1335   */\n  0x00\n    /* \"#utility.yul\":1337:1343   */\n  0x00\n    /* \"#utility.yul\":1345:1351   */\n  0x00\n    /* \"#utility.yul\":1353:1359   */\n  0x00\n    /* \"#utility.yul\":1361:1367   */\n  0x00\n    /* \"#utility.yul\":1369:1375   */\n  0x00\n    /* \"#utility.yul\":1377:1383   */\n  0x00\n    /* \"#utility.yul\":1426:1429   */\n  0xe0\n    /* \"#utility.yul\":1414:1423   */\n  dup9\n    /* \"#utility.yul\":1405:1412   */\n  dup11\n    /* \"#utility.yul\":1401:1424   */\n  sub\n    /* \"#utility.yul\":1397:1430   */\n  slt\n    /* \"#utility.yul\":1394:1514   */\n  iszero\n  tag_38\n  jumpi\n    /* \"#utility.yul\":1433:1512   */\n  tag_39\n  tag_10\n  jump\t// in\ntag_39:\n    /* \"#utility.yul\":1394:1514   */\ntag_38:\n    /* \"#utility.yul\":1553:1554   */\n  0x00\n    /* \"#utility.yul\":1578:1642   */\n  tag_40\n    /* \"#utility.yul\":1634:1641   */\n  dup11\n    /* \"#utility.yul\":1625:1631   */\n  dup3\n    /* \"#utility.yul\":1614:1623   */\n  dup12\n    /* \"#utility.yul\":1610:1632   */\n  add\n    /* \"#utility.yul\":1578:1642   */\n  tag_15\n  jump\t// in\ntag_40:\n    /* \"#utility.yul\":1568:1642   */\n  swap8\n  pop\n    /* \"#utility.yul\":1524:1652   */\n  pop\n    /* \"#utility.yul\":1691:1693   */\n  0x20\n    /* \"#utility.yul\":1717:1781   */\n  tag_41\n    /* \"#utility.yul\":1773:1780   */\n  dup11\n    /* \"#utility.yul\":1764:1770   */\n  dup3\n    /* \"#utility.yul\":1753:1762   */\n  dup12\n    /* \"#utility.yul\":1749:1771   */\n  add\n    /* \"#utility.yul\":1717:1781   */\n  tag_18\n  jump\t// in\ntag_41:\n    /* \"#utility.yul\":1707:1781   */\n  swap7\n  pop\n    /* \"#utility.yul\":1662:1791   */\n  pop\n    /* \"#utility.yul\":1830:1832   */\n  0x40\n    /* \"#utility.yul\":1856:1920   */\n  tag_42\n    /* \"#utility.yul\":1912:1919   */\n  dup11\n    /* \"#utility.yul\":1903:1909   */\n  dup3\n    /* \"#utility.yul\":1892:1901   */\n  dup12\n    /* \"#utility.yul\":1888:1910   */\n  add\n    /* \"#utility.yul\":1856:1920   */\n  tag_18\n  jump\t// in\ntag_42:\n    /* \"#utility.yul\":1846:1920   */\n  swap6\n  pop\n    /* \"#utility.yul\":1801:1930   */\n  pop\n    /* \"#utility.yul\":1969:1971   */\n  0x60\n    /* \"#utility.yul\":1995:2059   */\n  tag_43\n    /* \"#utility.yul\":2051:2058   */\n  dup11\n    /* \"#utility.yul\":2042:2048   */\n  dup3\n    /* \"#utility.yul\":2031:2040   */\n  dup12\n    /* \"#utility.yul\":2027:2049   */\n  add\n    /* \"#utility.yul\":1995:2059   */\n  tag_18\n  jump\t// in\ntag_43:\n    /* \"#utility.yul\":1985:2059   */\n  swap5\n  pop\n    /* \"#utility.yul\":1940:2069   */\n  pop\n    /* \"#utility.yul\":2108:2111   */\n  0x80\n    /* \"#utility.yul\":2135:2199   */\n  tag_44\n    /* \"#utility.yul\":2191:2198   */\n  dup11\n    /* \"#utility.yul\":2182:2188   */\n  dup3\n    /* \"#utility.yul\":2171:2180   */\n  dup12\n    /* \"#utility.yul\":2167:2189   */\n  add\n    /* \"#utility.yul\":2135:2199   */\n  tag_18\n  jump\t// in\ntag_44:\n    /* \"#utility.yul\":2125:2199   */\n  swap4\n  pop\n    /* \"#utility.yul\":2079:2209   */\n  pop\n    /* \"#utility.yul\":2248:2251   */\n  0xa0\n    /* \"#utility.yul\":2275:2339   */\n  tag_45\n    /* \"#utility.yul\":2331:2338   */\n  dup11\n    /* \"#utility.yul\":2322:2328   */\n  dup3\n    /* \"#utility.yul\":2311:2320   */\n  dup12\n    /* \"#utility.yul\":2307:2329   */\n  add\n    /* \"#utility.yul\":2275:2339   */\n  tag_18\n  jump\t// in\ntag_45:\n    /* \"#utility.yul\":2265:2339   */\n  swap3\n  pop\n    /* \"#utility.yul\":2219:2349   */\n  pop\n    /* \"#utility.yul\":2388:2391   */\n  0xc0\n    /* \"#utility.yul\":2415:2479   */\n  tag_46\n    /* \"#utility.yul\":2471:2478   */\n  dup11\n    /* \"#utility.yul\":2462:2468   */\n  dup3\n    /* \"#utility.yul\":2451:2460   */\n  dup12\n    /* \"#utility.yul\":2447:2469   */\n  add\n    /* \"#utility.yul\":2415:2479   */\n  tag_18\n  jump\t// in\ntag_46:\n    /* \"#utility.yul\":2405:2479   */\n  swap2\n  pop\n    /* \"#utility.yul\":2359:2489   */\n  pop\n    /* \"#utility.yul\":1205:2496   */\n  swap3\n  swap6\n  swap9\n  swap2\n  swap5\n  swap8\n  pop\n  swap3\n  swap6\n  pop\n  jump\t// out\n    /* \"DeciCourt.sol\":237:12793  contract DeciCourt is ReentrancyGuard {... */\ntag_8:\n  mload(0x80)\n  codecopy(0x00, dataOffset(sub_0), dataSize(sub_0))\n  0x00\n  assignImmutable(\"0xdf7c0ba7d2db638bc708436116cfd9aa4404715fd7f1b4176b0c05868146de8d\")\n  return(0x00, dataSize(sub_0))\nstop\n\nsub_0: assembly {\n        /* \"DeciCourt.sol\":237:12793  contract DeciCourt is ReentrancyGuard {... */\n      mstore(0x40, 0x80)\n      callvalue\n      dup1\n      iszero\n      tag_1\n      jumpi\n      revert(0x00, 0x00)\n    tag_1:\n      pop\n      jumpi(tag_2, lt(calldatasize, 0x04))\n      shr(0xe0, calldataload(0x00))\n      dup1\n      0x71929ad5\n      gt\n      tag_20\n      jumpi\n      dup1\n      0xa2febe29\n      gt\n      tag_21\n      jumpi\n      dup1\n      0xa2febe29\n      eq\n      tag_15\n      jumpi\n      dup1\n      0xb55796f3\n      eq\n      tag_16\n      jumpi\n      dup1\n      0xd496c455\n      eq\n      tag_17\n      jumpi\n      dup1\n      0xf09790dd\n      eq\n      tag_18\n      jumpi\n      dup1\n      0xf643d3d7\n      eq\n      tag_19\n      jumpi\n      jump(tag_2)\n    tag_21:\n      dup1\n      0x71929ad5\n      eq\n      tag_11\n      jumpi\n      dup1\n      0x886a6de1\n      eq\n      tag_12\n      jumpi\n      dup1\n      0x9da69180\n      eq\n      tag_13\n      jumpi\n      dup1\n      0x9eacb5b9\n      eq\n      tag_14\n      jumpi\n      jump(tag_2)\n    tag_20:\n      dup1\n      0x43bbdd3f\n      gt\n      tag_22\n      jumpi\n      dup1\n      0x43bbdd3f\n      eq\n      tag_7\n      jumpi\n      dup1\n      0x536c8c15\n      eq\n      tag_8\n      jumpi\n      dup1\n      0x6350eae8\n      eq\n      tag_9\n      jumpi\n      dup1\n      0x6f833811\n      eq\n      tag_10\n      jumpi\n      jump(tag_2)\n    tag_22:\n      dup1\n      0x059a184c\n      eq\n      tag_3\n      jumpi\n      dup1\n      0x0b05b14f\n      eq\n      tag_4\n      jumpi\n      dup1\n      0x1c204d0e\n      eq\n      tag_5\n      jumpi\n      dup1\n      0x232e0c87\n      eq\n      tag_6\n      jumpi\n    tag_2:\n      revert(0x00, 0x00)\n        /* \"DeciCourt.sol\":2456:2487  uint256 public jurorPenaltyRate */\n    tag_3:\n      tag_23\n      tag_24\n      jump\t// in\n    tag_23:\n      mload(0x40)\n      tag_25\n      swap2\n      swap1\n      tag_26\n      jump\t// in\n    tag_25:\n      mload(0x40)\n      dup1\n      swap2\n      sub\n      swap1\n      return\n        /* \"DeciCourt.sol\":7002:8180  function revealVote(uint256 _caseId, VoteOption _vote, bytes32 _salt) external {... */\n    tag_4:\n      tag_27\n      0x04\n      dup1\n      calldatasize\n      sub\n      dup2\n      add\n      swap1\n      tag_28\n      swap2\n      swap1\n      tag_29\n      jump\t// in\n    tag_28:\n      tag_30\n      jump\t// in\n    tag_27:\n      stop\n        /* \"DeciCourt.sol\":8206:11398  function executeVerdict(uint256 _caseId) external nonReentrant {... */\n    tag_5:\n      tag_31\n      0x04\n      dup1\n      calldatasize\n      sub\n      dup2\n      add\n      swap1\n      tag_32\n      swap2\n      swap1\n      tag_33\n      jump\t// in\n    tag_32:\n      tag_34\n      jump\t// in\n    tag_31:\n      stop\n        /* \"DeciCourt.sol\":2101:2131  uint256 public filingFeeAmount */\n    tag_6:\n      tag_35\n      tag_36\n      jump\t// in\n    tag_35:\n      mload(0x40)\n      tag_37\n      swap2\n      swap1\n      tag_26\n      jump\t// in\n    tag_37:\n      mload(0x40)\n      dup1\n      swap2\n      sub\n      swap1\n      return\n        /* \"DeciCourt.sol\":4333:5177  function unregisterAsJuror() external {... */\n    tag_7:\n      tag_38\n      tag_39\n      jump\t// in\n    tag_38:\n      stop\n        /* \"DeciCourt.sol\":2246:2269  uint256 public jurySize */\n    tag_8:\n      tag_40\n      tag_41\n      jump\t// in\n    tag_40:\n      mload(0x40)\n      tag_42\n      swap2\n      swap1\n      tag_26\n      jump\t// in\n    tag_42:\n      mload(0x40)\n      dup1\n      swap2\n      sub\n      swap1\n      return\n        /* \"DeciCourt.sol\":2580:2605  uint256 public nextCaseId */\n    tag_9:\n      tag_43\n      tag_44\n      jump\t// in\n    tag_43:\n      mload(0x40)\n      tag_45\n      swap2\n      swap1\n      tag_26\n      jump\t// in\n    tag_45:\n      mload(0x40)\n      dup1\n      swap2\n      sub\n      swap1\n      return\n        /* \"DeciCourt.sol\":2320:2349  uint256 public commitDuration */\n    tag_10:\n      tag_46\n      tag_47\n      jump\t// in\n    tag_46:\n      mload(0x40)\n      tag_48\n      swap2\n      swap1\n      tag_26\n      jump\t// in\n    tag_48:\n      mload(0x40)\n      dup1\n      swap2\n      sub\n      swap1\n      return\n        /* \"DeciCourt.sol\":3562:4262  function registerAsJuror() external {... */\n    tag_11:\n      tag_49\n      tag_50\n      jump\t// in\n    tag_49:\n      stop\n        /* \"DeciCourt.sol\":2388:2417  uint256 public revealDuration */\n    tag_12:\n      tag_51\n      tag_52\n      jump\t// in\n    tag_51:\n      mload(0x40)\n      tag_53\n      swap2\n      swap1\n      tag_26\n      jump\t// in\n    tag_53:\n      mload(0x40)\n      dup1\n      swap2\n      sub\n      swap1\n      return\n        /* \"DeciCourt.sol\":6387:6967  function commitVote(uint256 _caseId, bytes32 _voteHash) external {... */\n    tag_13:\n      tag_54\n      0x04\n      dup1\n      calldatasize\n      sub\n      dup2\n      add\n      swap1\n      tag_55\n      swap2\n      swap1\n      tag_56\n      jump\t// in\n    tag_55:\n      tag_57\n      jump\t// in\n    tag_54:\n      stop\n        /* \"DeciCourt.sol\":1982:2015  IERC20 public immutable juryToken */\n    tag_14:\n      tag_58\n      tag_59\n      jump\t// in\n    tag_58:\n      mload(0x40)\n      tag_60\n      swap2\n      swap1\n      tag_61\n      jump\t// in\n    tag_60:\n      mload(0x40)\n      dup1\n      swap2\n      sub\n      swap1\n      return\n        /* \"DeciCourt.sol\":5242:6352  function createCase(address _defendant, string calldata _evidenceCID) external {... */\n    tag_15:\n      tag_62\n      0x04\n      dup1\n      calldatasize\n      sub\n      dup2\n      add\n      swap1\n      tag_63\n      swap2\n      swap1\n      tag_64\n      jump\t// in\n    tag_63:\n      tag_65\n      jump\t// in\n    tag_62:\n      stop\n        /* \"DeciCourt.sol\":2818:2865  mapping(address => JurorInfo) public jurorsInfo */\n    tag_16:\n      tag_66\n      0x04\n      dup1\n      calldatasize\n      sub\n      dup2\n      add\n      swap1\n      tag_67\n      swap2\n      swap1\n      tag_68\n      jump\t// in\n    tag_67:\n      tag_69\n      jump\t// in\n    tag_66:\n      mload(0x40)\n      tag_70\n      swap4\n      swap3\n      swap2\n      swap1\n      tag_71\n      jump\t// in\n    tag_70:\n      mload(0x40)\n      dup1\n      swap2\n      sub\n      swap1\n      return\n        /* \"DeciCourt.sol\":2166:2197  uint256 public jurorStakeAmount */\n    tag_17:\n      tag_72\n      tag_73\n      jump\t// in\n    tag_72:\n      mload(0x40)\n      tag_74\n      swap2\n      swap1\n      tag_26\n      jump\t// in\n    tag_74:\n      mload(0x40)\n      dup1\n      swap2\n      sub\n      swap1\n      return\n        /* \"DeciCourt.sol\":2611:2648  mapping(uint256 => Case) public cases */\n    tag_18:\n      tag_75\n      0x04\n      dup1\n      calldatasize\n      sub\n      dup2\n      add\n      swap1\n      tag_76\n      swap2\n      swap1\n      tag_33\n      jump\t// in\n    tag_76:\n      tag_77\n      jump\t// in\n    tag_75:\n      mload(0x40)\n      tag_78\n      swap13\n      swap12\n      swap11\n      swap10\n      swap9\n      swap8\n      swap7\n      swap6\n      swap5\n      swap4\n      swap3\n      swap2\n      swap1\n      tag_79\n      jump\t// in\n    tag_78:\n      mload(0x40)\n      dup1\n      swap2\n      sub\n      swap1\n      return\n        /* \"DeciCourt.sol\":2655:2681  address[] public jurorPool */\n    tag_19:\n      tag_80\n      0x04\n      dup1\n      calldatasize\n      sub\n      dup2\n      add\n      swap1\n      tag_81\n      swap2\n      swap1\n      tag_33\n      jump\t// in\n    tag_81:\n      tag_82\n      jump\t// in\n    tag_80:\n      mload(0x40)\n      tag_83\n      swap2\n      swap1\n      tag_84\n      jump\t// in\n    tag_83:\n      mload(0x40)\n      dup1\n      swap2\n      sub\n      swap1\n      return\n        /* \"DeciCourt.sol\":2456:2487  uint256 public jurorPenaltyRate */\n    tag_24:\n      sload(0x06)\n      dup2\n      jump\t// out\n        /* \"DeciCourt.sol\":7002:8180  function revealVote(uint256 _caseId, VoteOption _vote, bytes32 _salt) external {... */\n    tag_30:\n        /* \"DeciCourt.sol\":7091:7115  Case storage currentCase */\n      0x00\n        /* \"DeciCourt.sol\":7118:7123  cases */\n      0x08\n        /* \"DeciCourt.sol\":7118:7132  cases[_caseId] */\n      0x00\n        /* \"DeciCourt.sol\":7124:7131  _caseId */\n      dup6\n        /* \"DeciCourt.sol\":7118:7132  cases[_caseId] */\n      dup2\n      mstore\n      0x20\n      add\n      swap1\n      dup2\n      mstore\n      0x20\n      add\n      0x00\n      keccak256\n        /* \"DeciCourt.sol\":7091:7132  Case storage currentCase = cases[_caseId] */\n      swap1\n      pop\n        /* \"DeciCourt.sol\":7172:7189  CaseStatus.Voting */\n      0x01\n        /* \"DeciCourt.sol\":7150:7189  currentCase.status == CaseStatus.Voting */\n      0x04\n      dup2\n      gt\n      iszero\n      tag_86\n      jumpi\n      tag_87\n      tag_88\n      jump\t// in\n    tag_87:\n    tag_86:\n        /* \"DeciCourt.sol\":7150:7161  currentCase */\n      dup2\n        /* \"DeciCourt.sol\":7150:7168  currentCase.status */\n      0x04\n      add\n      0x00\n      swap1\n      sload\n      swap1\n      0x0100\n      exp\n      swap1\n      div\n      0xff\n      and\n        /* \"DeciCourt.sol\":7150:7189  currentCase.status == CaseStatus.Voting */\n      0x04\n      dup2\n      gt\n      iszero\n      tag_89\n      jumpi\n      tag_90\n      tag_88\n      jump\t// in\n    tag_90:\n    tag_89:\n      eq\n        /* \"DeciCourt.sol\":7142:7213  require(currentCase.status == CaseStatus.Voting, \"Not in voting phase\") */\n      tag_91\n      jumpi\n      mload(0x40)\n      0x08c379a000000000000000000000000000000000000000000000000000000000\n      dup2\n      mstore\n      0x04\n      add\n      tag_92\n      swap1\n      tag_93\n      jump\t// in\n    tag_92:\n      mload(0x40)\n      dup1\n      swap2\n      sub\n      swap1\n      revert\n    tag_91:\n        /* \"DeciCourt.sol\":7249:7260  currentCase */\n      dup1\n        /* \"DeciCourt.sol\":7249:7275  currentCase.commitDeadline */\n      0x0c\n      add\n      sload\n        /* \"DeciCourt.sol\":7231:7246  block.timestamp */\n      timestamp\n        /* \"DeciCourt.sol\":7231:7275  block.timestamp > currentCase.commitDeadline */\n      gt\n        /* \"DeciCourt.sol\":7223:7306  require(block.timestamp > currentCase.commitDeadline, \"Commit phase not ended yet\") */\n      tag_94\n      jumpi\n      mload(0x40)\n      0x08c379a000000000000000000000000000000000000000000000000000000000\n      dup2\n      mstore\n      0x04\n      add\n      tag_95\n      swap1\n      tag_96\n      jump\t// in\n    tag_95:\n      mload(0x40)\n      dup1\n      swap2\n      sub\n      swap1\n      revert\n    tag_94:\n        /* \"DeciCourt.sol\":7343:7354  currentCase */\n      dup1\n        /* \"DeciCourt.sol\":7343:7369  currentCase.revealDeadline */\n      0x0d\n      add\n      sload\n        /* \"DeciCourt.sol\":7324:7339  block.timestamp */\n      timestamp\n        /* \"DeciCourt.sol\":7324:7369  block.timestamp <= currentCase.revealDeadline */\n      gt\n      iszero\n        /* \"DeciCourt.sol\":7316:7392  require(block.timestamp <= currentCase.revealDeadline, \"Reveal phase ended\") */\n      tag_97\n      jumpi\n      mload(0x40)\n      0x08c379a000000000000000000000000000000000000000000000000000000000\n      dup2\n      mstore\n      0x04\n      add\n      tag_98\n      swap1\n      tag_99\n      jump\t// in\n    tag_98:\n      mload(0x40)\n      dup1\n      swap2\n      sub\n      swap1\n      revert\n    tag_97:\n        /* \"DeciCourt.sol\":7410:7450  _isJurorForCase(currentCase, msg.sender) */\n      tag_100\n        /* \"DeciCourt.sol\":7426:7437  currentCase */\n      dup2\n        /* \"DeciCourt.sol\":7439:7449  msg.sender */\n      caller\n        /* \"DeciCourt.sol\":7410:7425  _isJurorForCase */\n      tag_101\n        /* \"DeciCourt.sol\":7410:7450  _isJurorForCase(currentCase, msg.sender) */\n      jump\t// in\n    tag_100:\n        /* \"DeciCourt.sol\":7402:7480  require(_isJurorForCase(currentCase, msg.sender), \"Not a juror for this case\") */\n      tag_102\n      jumpi\n      mload(0x40)\n      0x08c379a000000000000000000000000000000000000000000000000000000000\n      dup2\n      mstore\n      0x04\n      add\n      tag_103\n      swap1\n      tag_104\n      jump\t// in\n    tag_103:\n      mload(0x40)\n      dup1\n      swap2\n      sub\n      swap1\n      revert\n    tag_102:\n        /* \"DeciCourt.sol\":7548:7549  0 */\n      0x00\n        /* \"DeciCourt.sol\":7540:7550  bytes32(0) */\n      0x00\n      shl\n        /* \"DeciCourt.sol\":7498:7509  currentCase */\n      dup2\n        /* \"DeciCourt.sol\":7498:7524  currentCase.committedVotes */\n      0x07\n      add\n        /* \"DeciCourt.sol\":7498:7536  currentCase.committedVotes[msg.sender] */\n      0x00\n        /* \"DeciCourt.sol\":7525:7535  msg.sender */\n      caller\n        /* \"DeciCourt.sol\":7498:7536  currentCase.committedVotes[msg.sender] */\n      0xffffffffffffffffffffffffffffffffffffffff\n      and\n      0xffffffffffffffffffffffffffffffffffffffff\n      and\n      dup2\n      mstore\n      0x20\n      add\n      swap1\n      dup2\n      mstore\n      0x20\n      add\n      0x00\n      keccak256\n      sload\n        /* \"DeciCourt.sol\":7498:7550  currentCase.committedVotes[msg.sender] != bytes32(0) */\n      sub\n        /* \"DeciCourt.sol\":7490:7569  require(currentCase.committedVotes[msg.sender] != bytes32(0), \"Did not commit\") */\n      tag_105\n      jumpi\n      mload(0x40)\n      0x08c379a000000000000000000000000000000000000000000000000000000000\n      dup2\n      mstore\n      0x04\n      add\n      tag_106\n      swap1\n      tag_107\n      jump\t// in\n    tag_106:\n      mload(0x40)\n      dup1\n      swap2\n      sub\n      swap1\n      revert\n    tag_105:\n        /* \"DeciCourt.sol\":7628:7643  VoteOption.None */\n      0x00\n        /* \"DeciCourt.sol\":7587:7643  currentCase.revealedVotes[msg.sender] == VoteOption.None */\n      0x02\n      dup2\n      gt\n      iszero\n      tag_108\n      jumpi\n      tag_109\n      tag_88\n      jump\t// in\n    tag_109:\n    tag_108:\n        /* \"DeciCourt.sol\":7587:7598  currentCase */\n      dup2\n        /* \"DeciCourt.sol\":7587:7612  currentCase.revealedVotes */\n      0x08\n      add\n        /* \"DeciCourt.sol\":7587:7624  currentCase.revealedVotes[msg.sender] */\n      0x00\n        /* \"DeciCourt.sol\":7613:7623  msg.sender */\n      caller\n        /* \"DeciCourt.sol\":7587:7624  currentCase.revealedVotes[msg.sender] */\n      0xffffffffffffffffffffffffffffffffffffffff\n      and\n      0xffffffffffffffffffffffffffffffffffffffff\n      and\n      dup2\n      mstore\n      0x20\n      add\n      swap1\n      dup2\n      mstore\n      0x20\n      add\n      0x00\n      keccak256\n      0x00\n      swap1\n      sload\n      swap1\n      0x0100\n      exp\n      swap1\n      div\n      0xff\n      and\n        /* \"DeciCourt.sol\":7587:7643  currentCase.revealedVotes[msg.sender] == VoteOption.None */\n      0x02\n      dup2\n      gt\n      iszero\n      tag_110\n      jumpi\n      tag_111\n      tag_88\n      jump\t// in\n    tag_111:\n    tag_110:\n      eq\n        /* \"DeciCourt.sol\":7579:7664  require(currentCase.revealedVotes[msg.sender] == VoteOption.None, \"Already revealed\") */\n      tag_112\n      jumpi\n      mload(0x40)\n      0x08c379a000000000000000000000000000000000000000000000000000000000\n      dup2\n      mstore\n      0x04\n      add\n      tag_113\n      swap1\n      tag_114\n      jump\t// in\n    tag_113:\n      mload(0x40)\n      dup1\n      swap2\n      sub\n      swap1\n      revert\n    tag_112:\n        /* \"DeciCourt.sol\":7683:7706  bytes32 regeneratedHash */\n      0x00\n        /* \"DeciCourt.sol\":7736:7741  _vote */\n      dup4\n        /* \"DeciCourt.sol\":7743:7748  _salt */\n      dup4\n        /* \"DeciCourt.sol\":7719:7749  abi.encodePacked(_vote, _salt) */\n      add(0x20, mload(0x40))\n      tag_115\n      swap3\n      swap2\n      swap1\n      tag_116\n      jump\t// in\n    tag_115:\n      mload(0x40)\n      0x20\n      dup2\n      dup4\n      sub\n      sub\n      dup2\n      mstore\n      swap1\n      0x40\n      mstore\n        /* \"DeciCourt.sol\":7709:7750  keccak256(abi.encodePacked(_vote, _salt)) */\n      dup1\n      mload\n      swap1\n      0x20\n      add\n      keccak256\n        /* \"DeciCourt.sol\":7683:7750  bytes32 regeneratedHash = keccak256(abi.encodePacked(_vote, _salt)) */\n      swap1\n      pop\n        /* \"DeciCourt.sol\":7787:7798  currentCase */\n      dup2\n        /* \"DeciCourt.sol\":7787:7813  currentCase.committedVotes */\n      0x07\n      add\n        /* \"DeciCourt.sol\":7787:7825  currentCase.committedVotes[msg.sender] */\n      0x00\n        /* \"DeciCourt.sol\":7814:7824  msg.sender */\n      caller\n        /* \"DeciCourt.sol\":7787:7825  currentCase.committedVotes[msg.sender] */\n      0xffffffffffffffffffffffffffffffffffffffff\n      and\n      0xffffffffffffffffffffffffffffffffffffffff\n      and\n      dup2\n      mstore\n      0x20\n      add\n      swap1\n      dup2\n      mstore\n      0x20\n      add\n      0x00\n      keccak256\n      sload\n        /* \"DeciCourt.sol\":7768:7783  regeneratedHash */\n      dup2\n        /* \"DeciCourt.sol\":7768:7825  regeneratedHash == currentCase.committedVotes[msg.sender] */\n      eq\n        /* \"DeciCourt.sol\":7760:7856  require(regeneratedHash == currentCase.committedVotes[msg.sender], \"Vote does not match commit\") */\n      tag_117\n      jumpi\n      mload(0x40)\n      0x08c379a000000000000000000000000000000000000000000000000000000000\n      dup2\n      mstore\n      0x04\n      add\n      tag_118\n      swap1\n      tag_119\n      jump\t// in\n    tag_118:\n      mload(0x40)\n      dup1\n      swap2\n      sub\n      swap1\n      revert\n    tag_117:\n        /* \"DeciCourt.sol\":7907:7912  _vote */\n      dup4\n        /* \"DeciCourt.sol\":7867:7878  currentCase */\n      dup3\n        /* \"DeciCourt.sol\":7867:7892  currentCase.revealedVotes */\n      0x08\n      add\n        /* \"DeciCourt.sol\":7867:7904  currentCase.revealedVotes[msg.sender] */\n      0x00\n        /* \"DeciCourt.sol\":7893:7903  msg.sender */\n      caller\n        /* \"DeciCourt.sol\":7867:7904  currentCase.revealedVotes[msg.sender] */\n      0xffffffffffffffffffffffffffffffffffffffff\n      and\n      0xffffffffffffffffffffffffffffffffffffffff\n      and\n      dup2\n      mstore\n      0x20\n      add\n      swap1\n      dup2\n      mstore\n      0x20\n      add\n      0x00\n      keccak256\n      0x00\n        /* \"DeciCourt.sol\":7867:7912  currentCase.revealedVotes[msg.sender] = _vote */\n      0x0100\n      exp\n      dup2\n      sload\n      dup2\n      0xff\n      mul\n      not\n      and\n      swap1\n      dup4\n      0x02\n      dup2\n      gt\n      iszero\n      tag_120\n      jumpi\n      tag_121\n      tag_88\n      jump\t// in\n    tag_121:\n    tag_120:\n      mul\n      or\n      swap1\n      sstore\n      pop\n        /* \"DeciCourt.sol\":7935:7958  VoteOption.ForPlaintiff */\n      0x01\n        /* \"DeciCourt.sol\":7926:7958  _vote == VoteOption.ForPlaintiff */\n      0x02\n      dup2\n      gt\n      iszero\n      tag_122\n      jumpi\n      tag_123\n      tag_88\n      jump\t// in\n    tag_123:\n    tag_122:\n        /* \"DeciCourt.sol\":7926:7931  _vote */\n      dup5\n        /* \"DeciCourt.sol\":7926:7958  _vote == VoteOption.ForPlaintiff */\n      0x02\n      dup2\n      gt\n      iszero\n      tag_124\n      jumpi\n      tag_125\n      tag_88\n      jump\t// in\n    tag_125:\n    tag_124:\n      sub\n        /* \"DeciCourt.sol\":7922:8118  if (_vote == VoteOption.ForPlaintiff) {... */\n      tag_126\n      jumpi\n        /* \"DeciCourt.sol\":7974:7985  currentCase */\n      dup2\n        /* \"DeciCourt.sol\":7974:8004  currentCase.plaintiffVoteCount */\n      0x09\n      add\n      0x00\n        /* \"DeciCourt.sol\":7974:8006  currentCase.plaintiffVoteCount++ */\n      dup2\n      sload\n      dup1\n      swap3\n      swap2\n      swap1\n      tag_127\n      swap1\n      tag_128\n      jump\t// in\n    tag_127:\n      swap2\n      swap1\n      pop\n      sstore\n      pop\n        /* \"DeciCourt.sol\":7922:8118  if (_vote == VoteOption.ForPlaintiff) {... */\n      jump(tag_129)\n    tag_126:\n        /* \"DeciCourt.sol\":8036:8059  VoteOption.ForDefendant */\n      0x02\n        /* \"DeciCourt.sol\":8027:8059  _vote == VoteOption.ForDefendant */\n      dup1\n      dup2\n      gt\n      iszero\n      tag_130\n      jumpi\n      tag_131\n      tag_88\n      jump\t// in\n    tag_131:\n    tag_130:\n        /* \"DeciCourt.sol\":8027:8032  _vote */\n      dup5\n        /* \"DeciCourt.sol\":8027:8059  _vote == VoteOption.ForDefendant */\n      0x02\n      dup2\n      gt\n      iszero\n      tag_132\n      jumpi\n      tag_133\n      tag_88\n      jump\t// in\n    tag_133:\n    tag_132:\n      sub\n        /* \"DeciCourt.sol\":8023:8118  if (_vote == VoteOption.ForDefendant) {... */\n      tag_134\n      jumpi\n        /* \"DeciCourt.sol\":8075:8086  currentCase */\n      dup2\n        /* \"DeciCourt.sol\":8075:8105  currentCase.defendantVoteCount */\n      0x0a\n      add\n      0x00\n        /* \"DeciCourt.sol\":8075:8107  currentCase.defendantVoteCount++ */\n      dup2\n      sload\n      dup1\n      swap3\n      swap2\n      swap1\n      tag_135\n      swap1\n      tag_128\n      jump\t// in\n    tag_135:\n      swap2\n      swap1\n      pop\n      sstore\n      pop\n        /* \"DeciCourt.sol\":8023:8118  if (_vote == VoteOption.ForDefendant) {... */\n    tag_134:\n        /* \"DeciCourt.sol\":7922:8118  if (_vote == VoteOption.ForPlaintiff) {... */\n    tag_129:\n        /* \"DeciCourt.sol\":8155:8165  msg.sender */\n      caller\n        /* \"DeciCourt.sol\":8133:8173  VoteRevealed(_caseId, msg.sender, _vote) */\n      0xffffffffffffffffffffffffffffffffffffffff\n      and\n        /* \"DeciCourt.sol\":8146:8153  _caseId */\n      dup6\n        /* \"DeciCourt.sol\":8133:8173  VoteRevealed(_caseId, msg.sender, _vote) */\n      0xfb0a2a4b906424480a54d601db26ad920592115a97358d199495345723df34cb\n        /* \"DeciCourt.sol\":8167:8172  _vote */\n      dup7\n        /* \"DeciCourt.sol\":8133:8173  VoteRevealed(_caseId, msg.sender, _vote) */\n      mload(0x40)\n      tag_136\n      swap2\n      swap1\n      tag_137\n      jump\t// in\n    tag_136:\n      mload(0x40)\n      dup1\n      swap2\n      sub\n      swap1\n      log3\n        /* \"DeciCourt.sol\":7081:8180  {... */\n      pop\n      pop\n        /* \"DeciCourt.sol\":7002:8180  function revealVote(uint256 _caseId, VoteOption _vote, bytes32 _salt) external {... */\n      pop\n      pop\n      pop\n      jump\t// out\n        /* \"DeciCourt.sol\":8206:11398  function executeVerdict(uint256 _caseId) external nonReentrant {... */\n    tag_34:\n        /* \"@openzeppelin/contracts/security/ReentrancyGuard.sol\":2261:2282  _nonReentrantBefore() */\n      tag_139\n        /* \"@openzeppelin/contracts/security/ReentrancyGuard.sol\":2261:2280  _nonReentrantBefore */\n      tag_140\n        /* \"@openzeppelin/contracts/security/ReentrancyGuard.sol\":2261:2282  _nonReentrantBefore() */\n      jump\t// in\n    tag_139:\n        /* \"DeciCourt.sol\":8279:8303  Case storage currentCase */\n      0x00\n        /* \"DeciCourt.sol\":8306:8311  cases */\n      0x08\n        /* \"DeciCourt.sol\":8306:8320  cases[_caseId] */\n      0x00\n        /* \"DeciCourt.sol\":8312:8319  _caseId */\n      dup4\n        /* \"DeciCourt.sol\":8306:8320  cases[_caseId] */\n      dup2\n      mstore\n      0x20\n      add\n      swap1\n      dup2\n      mstore\n      0x20\n      add\n      0x00\n      keccak256\n        /* \"DeciCourt.sol\":8279:8320  Case storage currentCase = cases[_caseId] */\n      swap1\n      pop\n        /* \"DeciCourt.sol\":8360:8377  CaseStatus.Voting */\n      0x01\n        /* \"DeciCourt.sol\":8338:8377  currentCase.status == CaseStatus.Voting */\n      0x04\n      dup2\n      gt\n      iszero\n      tag_142\n      jumpi\n      tag_143\n      tag_88\n      jump\t// in\n    tag_143:\n    tag_142:\n        /* \"DeciCourt.sol\":8338:8349  currentCase */\n      dup2\n        /* \"DeciCourt.sol\":8338:8356  currentCase.status */\n      0x04\n      add\n      0x00\n      swap1\n      sload\n      swap1\n      0x0100\n      exp\n      swap1\n      div\n      0xff\n      and\n        /* \"DeciCourt.sol\":8338:8377  currentCase.status == CaseStatus.Voting */\n      0x04\n      dup2\n      gt\n      iszero\n      tag_144\n      jumpi\n      tag_145\n      tag_88\n      jump\t// in\n    tag_145:\n    tag_144:\n      eq\n        /* \"DeciCourt.sol\":8330:8408  require(currentCase.status == CaseStatus.Voting, \"Case not ready for verdict\") */\n      tag_146\n      jumpi\n      mload(0x40)\n      0x08c379a000000000000000000000000000000000000000000000000000000000\n      dup2\n      mstore\n      0x04\n      add\n      tag_147\n      swap1\n      tag_148\n      jump\t// in\n    tag_147:\n      mload(0x40)\n      dup1\n      swap2\n      sub\n      swap1\n      revert\n    tag_146:\n        /* \"DeciCourt.sol\":8444:8455  currentCase */\n      dup1\n        /* \"DeciCourt.sol\":8444:8470  currentCase.revealDeadline */\n      0x0d\n      add\n      sload\n        /* \"DeciCourt.sol\":8426:8441  block.timestamp */\n      timestamp\n        /* \"DeciCourt.sol\":8426:8470  block.timestamp > currentCase.revealDeadline */\n      gt\n        /* \"DeciCourt.sol\":8418:8501  require(block.timestamp > currentCase.revealDeadline, \"Reveal phase not ended yet\") */\n      tag_149\n      jumpi\n      mload(0x40)\n      0x08c379a000000000000000000000000000000000000000000000000000000000\n      dup2\n      mstore\n      0x04\n      add\n      tag_150\n      swap1\n      tag_151\n      jump\t// in\n    tag_150:\n      mload(0x40)\n      dup1\n      swap2\n      sub\n      swap1\n      revert\n    tag_149:\n        /* \"DeciCourt.sol\":8541:8561  CaseStatus.Resolving */\n      0x02\n        /* \"DeciCourt.sol\":8520:8531  currentCase */\n      dup2\n        /* \"DeciCourt.sol\":8520:8538  currentCase.status */\n      0x04\n      add\n      0x00\n        /* \"DeciCourt.sol\":8520:8561  currentCase.status = CaseStatus.Resolving */\n      0x0100\n      exp\n      dup2\n      sload\n      dup2\n      0xff\n      mul\n      not\n      and\n      swap1\n      dup4\n      0x04\n      dup2\n      gt\n      iszero\n      tag_152\n      jumpi\n      tag_153\n      tag_88\n      jump\t// in\n    tag_153:\n    tag_152:\n      mul\n      or\n      swap1\n      sstore\n      pop\n        /* \"DeciCourt.sol\":8633:8647  address winner */\n      0x00\n        /* \"DeciCourt.sol\":8684:8695  currentCase */\n      dup2\n        /* \"DeciCourt.sol\":8684:8714  currentCase.defendantVoteCount */\n      0x0a\n      add\n      sload\n        /* \"DeciCourt.sol\":8651:8662  currentCase */\n      dup3\n        /* \"DeciCourt.sol\":8651:8681  currentCase.plaintiffVoteCount */\n      0x09\n      add\n      sload\n        /* \"DeciCourt.sol\":8651:8714  currentCase.plaintiffVoteCount > currentCase.defendantVoteCount */\n      gt\n        /* \"DeciCourt.sol\":8650:8763  (currentCase.plaintiffVoteCount > currentCase.defendantVoteCount) ? currentCase.plaintiff : currentCase.defendant */\n      tag_154\n      jumpi\n        /* \"DeciCourt.sol\":8742:8753  currentCase */\n      dup2\n        /* \"DeciCourt.sol\":8742:8763  currentCase.defendant */\n      0x02\n      add\n      0x00\n      swap1\n      sload\n      swap1\n      0x0100\n      exp\n      swap1\n      div\n      0xffffffffffffffffffffffffffffffffffffffff\n      and\n        /* \"DeciCourt.sol\":8650:8763  (currentCase.plaintiffVoteCount > currentCase.defendantVoteCount) ? currentCase.plaintiff : currentCase.defendant */\n      jump(tag_155)\n    tag_154:\n        /* \"DeciCourt.sol\":8718:8729  currentCase */\n      dup2\n        /* \"DeciCourt.sol\":8718:8739  currentCase.plaintiff */\n      0x01\n      add\n      0x00\n      swap1\n      sload\n      swap1\n      0x0100\n      exp\n      swap1\n      div\n      0xffffffffffffffffffffffffffffffffffffffff\n      and\n        /* \"DeciCourt.sol\":8650:8763  (currentCase.plaintiffVoteCount > currentCase.defendantVoteCount) ? currentCase.plaintiff : currentCase.defendant */\n    tag_155:\n        /* \"DeciCourt.sol\":8633:8763  address winner = (currentCase.plaintiffVoteCount > currentCase.defendantVoteCount) ? currentCase.plaintiff : currentCase.defendant */\n      swap1\n      pop\n        /* \"DeciCourt.sol\":8794:8800  winner */\n      dup1\n        /* \"DeciCourt.sol\":8773:8784  currentCase */\n      dup3\n        /* \"DeciCourt.sol\":8773:8791  currentCase.winner */\n      0x0e\n      add\n      0x00\n        /* \"DeciCourt.sol\":8773:8800  currentCase.winner = winner */\n      0x0100\n      exp\n      dup2\n      sload\n      dup2\n      0xffffffffffffffffffffffffffffffffffffffff\n      mul\n      not\n      and\n      swap1\n      dup4\n      0xffffffffffffffffffffffffffffffffffffffff\n      and\n      mul\n      or\n      swap1\n      sstore\n      pop\n        /* \"DeciCourt.sol\":8810:8832  VoteOption winningVote */\n      0x00\n        /* \"DeciCourt.sol\":8846:8857  currentCase */\n      dup3\n        /* \"DeciCourt.sol\":8846:8867  currentCase.plaintiff */\n      0x01\n      add\n      0x00\n      swap1\n      sload\n      swap1\n      0x0100\n      exp\n      swap1\n      div\n      0xffffffffffffffffffffffffffffffffffffffff\n      and\n        /* \"DeciCourt.sol\":8836:8867  winner == currentCase.plaintiff */\n      0xffffffffffffffffffffffffffffffffffffffff\n      and\n        /* \"DeciCourt.sol\":8836:8842  winner */\n      dup3\n        /* \"DeciCourt.sol\":8836:8867  winner == currentCase.plaintiff */\n      0xffffffffffffffffffffffffffffffffffffffff\n      and\n      eq\n        /* \"DeciCourt.sol\":8835:8920  (winner == currentCase.plaintiff) ? VoteOption.ForPlaintiff : VoteOption.ForDefendant */\n      tag_156\n      jumpi\n        /* \"DeciCourt.sol\":8897:8920  VoteOption.ForDefendant */\n      0x02\n        /* \"DeciCourt.sol\":8835:8920  (winner == currentCase.plaintiff) ? VoteOption.ForPlaintiff : VoteOption.ForDefendant */\n      jump(tag_157)\n    tag_156:\n        /* \"DeciCourt.sol\":8871:8894  VoteOption.ForPlaintiff */\n      0x01\n        /* \"DeciCourt.sol\":8835:8920  (winner == currentCase.plaintiff) ? VoteOption.ForPlaintiff : VoteOption.ForDefendant */\n    tag_157:\n        /* \"DeciCourt.sol\":8810:8920  VoteOption winningVote = (winner == currentCase.plaintiff) ? VoteOption.ForPlaintiff : VoteOption.ForDefendant */\n      swap1\n      pop\n        /* \"DeciCourt.sol\":8931:8955  uint256 totalPenaltyPool */\n      0x00\n        /* \"DeciCourt.sol\":8958:8959  0 */\n      0x00\n        /* \"DeciCourt.sol\":8931:8959  uint256 totalPenaltyPool = 0 */\n      swap1\n      pop\n        /* \"DeciCourt.sol\":8969:8994  uint256 winningJurorCount */\n      0x00\n        /* \"DeciCourt.sol\":8997:8998  0 */\n      0x00\n        /* \"DeciCourt.sol\":8969:8998  uint256 winningJurorCount = 0 */\n      swap1\n      pop\n        /* \"DeciCourt.sol\":9065:9071  uint i */\n      0x00\n        /* \"DeciCourt.sol\":9074:9075  0 */\n      0x00\n        /* \"DeciCourt.sol\":9065:9075  uint i = 0 */\n      swap1\n      pop\n        /* \"DeciCourt.sol\":9060:9675  for (uint i = 0; i < currentCase.jurors.length; i++) {... */\n    tag_158:\n        /* \"DeciCourt.sol\":9081:9092  currentCase */\n      dup6\n        /* \"DeciCourt.sol\":9081:9099  currentCase.jurors */\n      0x06\n      add\n        /* \"DeciCourt.sol\":9081:9106  currentCase.jurors.length */\n      dup1\n      sload\n      swap1\n      pop\n        /* \"DeciCourt.sol\":9077:9078  i */\n      dup2\n        /* \"DeciCourt.sol\":9077:9106  i < currentCase.jurors.length */\n      lt\n        /* \"DeciCourt.sol\":9060:9675  for (uint i = 0; i < currentCase.jurors.length; i++) {... */\n      iszero\n      tag_159\n      jumpi\n        /* \"DeciCourt.sol\":9127:9144  address jurorAddr */\n      0x00\n        /* \"DeciCourt.sol\":9147:9158  currentCase */\n      dup7\n        /* \"DeciCourt.sol\":9147:9165  currentCase.jurors */\n      0x06\n      add\n        /* \"DeciCourt.sol\":9166:9167  i */\n      dup3\n        /* \"DeciCourt.sol\":9147:9168  currentCase.jurors[i] */\n      dup2\n      sload\n      dup2\n      lt\n      tag_161\n      jumpi\n      tag_162\n      tag_163\n      jump\t// in\n    tag_162:\n    tag_161:\n      swap1\n      0x00\n      mstore\n      keccak256(0x00, 0x20)\n      add\n      0x00\n      swap1\n      sload\n      swap1\n      0x0100\n      exp\n      swap1\n      div\n      0xffffffffffffffffffffffffffffffffffffffff\n      and\n        /* \"DeciCourt.sol\":9127:9168  address jurorAddr = currentCase.jurors[i] */\n      swap1\n      pop\n        /* \"DeciCourt.sol\":9182:9202  VoteOption jurorVote */\n      0x00\n        /* \"DeciCourt.sol\":9205:9216  currentCase */\n      dup8\n        /* \"DeciCourt.sol\":9205:9230  currentCase.revealedVotes */\n      0x08\n      add\n        /* \"DeciCourt.sol\":9205:9241  currentCase.revealedVotes[jurorAddr] */\n      0x00\n        /* \"DeciCourt.sol\":9231:9240  jurorAddr */\n      dup4\n        /* \"DeciCourt.sol\":9205:9241  currentCase.revealedVotes[jurorAddr] */\n      0xffffffffffffffffffffffffffffffffffffffff\n      and\n      0xffffffffffffffffffffffffffffffffffffffff\n      and\n      dup2\n      mstore\n      0x20\n      add\n      swap1\n      dup2\n      mstore\n      0x20\n      add\n      0x00\n      keccak256\n      0x00\n      swap1\n      sload\n      swap1\n      0x0100\n      exp\n      swap1\n      div\n      0xff\n      and\n        /* \"DeciCourt.sol\":9182:9241  VoteOption jurorVote = currentCase.revealedVotes[jurorAddr] */\n      swap1\n      pop\n        /* \"DeciCourt.sol\":9273:9284  winningVote */\n      dup6\n        /* \"DeciCourt.sol\":9260:9284  jurorVote == winningVote */\n      0x02\n      dup2\n      gt\n      iszero\n      tag_165\n      jumpi\n      tag_166\n      tag_88\n      jump\t// in\n    tag_166:\n    tag_165:\n        /* \"DeciCourt.sol\":9260:9269  jurorVote */\n      dup2\n        /* \"DeciCourt.sol\":9260:9284  jurorVote == winningVote */\n      0x02\n      dup2\n      gt\n      iszero\n      tag_167\n      jumpi\n      tag_168\n      tag_88\n      jump\t// in\n    tag_168:\n    tag_167:\n      sub\n        /* \"DeciCourt.sol\":9256:9665  if (jurorVote == winningVote) {... */\n      tag_169\n      jumpi\n        /* \"DeciCourt.sol\":9304:9323  winningJurorCount++ */\n      dup4\n      dup1\n      tag_170\n      swap1\n      tag_128\n      jump\t// in\n    tag_170:\n      swap5\n      pop\n      pop\n        /* \"DeciCourt.sol\":9256:9665  if (jurorVote == winningVote) {... */\n      jump(tag_171)\n    tag_169:\n        /* \"DeciCourt.sol\":9399:9414  uint256 penalty */\n      0x00\n        /* \"DeciCourt.sol\":9417:9482  jurorsInfo[jurorAddr].stakedAmount.mul(jurorPenaltyRate).div(100) */\n      tag_172\n        /* \"DeciCourt.sol\":9478:9481  100 */\n      0x64\n        /* \"DeciCourt.sol\":9417:9473  jurorsInfo[jurorAddr].stakedAmount.mul(jurorPenaltyRate) */\n      tag_173\n        /* \"DeciCourt.sol\":9456:9472  jurorPenaltyRate */\n      sload(0x06)\n        /* \"DeciCourt.sol\":9417:9427  jurorsInfo */\n      0x0b\n        /* \"DeciCourt.sol\":9417:9438  jurorsInfo[jurorAddr] */\n      0x00\n        /* \"DeciCourt.sol\":9428:9437  jurorAddr */\n      dup9\n        /* \"DeciCourt.sol\":9417:9438  jurorsInfo[jurorAddr] */\n      0xffffffffffffffffffffffffffffffffffffffff\n      and\n      0xffffffffffffffffffffffffffffffffffffffff\n      and\n      dup2\n      mstore\n      0x20\n      add\n      swap1\n      dup2\n      mstore\n      0x20\n      add\n      0x00\n      keccak256\n        /* \"DeciCourt.sol\":9417:9451  jurorsInfo[jurorAddr].stakedAmount */\n      0x01\n      add\n      sload\n        /* \"DeciCourt.sol\":9417:9455  jurorsInfo[jurorAddr].stakedAmount.mul */\n      tag_174\n      swap1\n        /* \"DeciCourt.sol\":9417:9473  jurorsInfo[jurorAddr].stakedAmount.mul(jurorPenaltyRate) */\n      swap2\n      swap1\n      0xffffffff\n      and\n      jump\t// in\n    tag_173:\n        /* \"DeciCourt.sol\":9417:9477  jurorsInfo[jurorAddr].stakedAmount.mul(jurorPenaltyRate).div */\n      tag_175\n      swap1\n        /* \"DeciCourt.sol\":9417:9482  jurorsInfo[jurorAddr].stakedAmount.mul(jurorPenaltyRate).div(100) */\n      swap2\n      swap1\n      0xffffffff\n      and\n      jump\t// in\n    tag_172:\n        /* \"DeciCourt.sol\":9399:9482  uint256 penalty = jurorsInfo[jurorAddr].stakedAmount.mul(jurorPenaltyRate).div(100) */\n      swap1\n      pop\n        /* \"DeciCourt.sol\":9537:9584  jurorsInfo[jurorAddr].stakedAmount.sub(penalty) */\n      tag_176\n        /* \"DeciCourt.sol\":9576:9583  penalty */\n      dup2\n        /* \"DeciCourt.sol\":9537:9547  jurorsInfo */\n      0x0b\n        /* \"DeciCourt.sol\":9537:9558  jurorsInfo[jurorAddr] */\n      0x00\n        /* \"DeciCourt.sol\":9548:9557  jurorAddr */\n      dup7\n        /* \"DeciCourt.sol\":9537:9558  jurorsInfo[jurorAddr] */\n      0xffffffffffffffffffffffffffffffffffffffff\n      and\n      0xffffffffffffffffffffffffffffffffffffffff\n      and\n      dup2\n      mstore\n      0x20\n      add\n      swap1\n      dup2\n      mstore\n      0x20\n      add\n      0x00\n      keccak256\n        /* \"DeciCourt.sol\":9537:9571  jurorsInfo[jurorAddr].stakedAmount */\n      0x01\n      add\n      sload\n        /* \"DeciCourt.sol\":9537:9575  jurorsInfo[jurorAddr].stakedAmount.sub */\n      tag_177\n      swap1\n        /* \"DeciCourt.sol\":9537:9584  jurorsInfo[jurorAddr].stakedAmount.sub(penalty) */\n      swap2\n      swap1\n      0xffffffff\n      and\n      jump\t// in\n    tag_176:\n        /* \"DeciCourt.sol\":9500:9510  jurorsInfo */\n      0x0b\n        /* \"DeciCourt.sol\":9500:9521  jurorsInfo[jurorAddr] */\n      0x00\n        /* \"DeciCourt.sol\":9511:9520  jurorAddr */\n      dup6\n        /* \"DeciCourt.sol\":9500:9521  jurorsInfo[jurorAddr] */\n      0xffffffffffffffffffffffffffffffffffffffff\n      and\n      0xffffffffffffffffffffffffffffffffffffffff\n      and\n      dup2\n      mstore\n      0x20\n      add\n      swap1\n      dup2\n      mstore\n      0x20\n      add\n      0x00\n      keccak256\n        /* \"DeciCourt.sol\":9500:9534  jurorsInfo[jurorAddr].stakedAmount */\n      0x01\n      add\n        /* \"DeciCourt.sol\":9500:9584  jurorsInfo[jurorAddr].stakedAmount = jurorsInfo[jurorAddr].stakedAmount.sub(penalty) */\n      dup2\n      swap1\n      sstore\n      pop\n        /* \"DeciCourt.sol\":9621:9650  totalPenaltyPool.add(penalty) */\n      tag_178\n        /* \"DeciCourt.sol\":9642:9649  penalty */\n      dup2\n        /* \"DeciCourt.sol\":9621:9637  totalPenaltyPool */\n      dup8\n        /* \"DeciCourt.sol\":9621:9641  totalPenaltyPool.add */\n      tag_179\n      swap1\n        /* \"DeciCourt.sol\":9621:9650  totalPenaltyPool.add(penalty) */\n      swap2\n      swap1\n      0xffffffff\n      and\n      jump\t// in\n    tag_178:\n        /* \"DeciCourt.sol\":9602:9650  totalPenaltyPool = totalPenaltyPool.add(penalty) */\n      swap6\n      pop\n        /* \"DeciCourt.sol\":9344:9665  { // 投错票或未投票的陪审员... */\n      pop\n        /* \"DeciCourt.sol\":9256:9665  if (jurorVote == winningVote) {... */\n    tag_171:\n        /* \"DeciCourt.sol\":9113:9675  {... */\n      pop\n      pop\n        /* \"DeciCourt.sol\":9108:9111  i++ */\n      dup1\n      dup1\n      0x01\n      add\n      swap2\n      pop\n      pop\n        /* \"DeciCourt.sol\":9060:9675  for (uint i = 0; i < currentCase.jurors.length; i++) {... */\n      jump(tag_158)\n    tag_159:\n      pop\n        /* \"DeciCourt.sol\":9717:9740  uint256 plaintiffReward */\n      0x00\n        /* \"DeciCourt.sol\":9743:9744  0 */\n      0x00\n        /* \"DeciCourt.sol\":9717:9744  uint256 plaintiffReward = 0 */\n      swap1\n      pop\n        /* \"DeciCourt.sol\":9754:9777  uint256 defendantReward */\n      0x00\n        /* \"DeciCourt.sol\":9780:9781  0 */\n      0x00\n        /* \"DeciCourt.sol\":9754:9781  uint256 defendantReward = 0 */\n      swap1\n      pop\n        /* \"DeciCourt.sol\":9791:9819  uint256 jurorRewardPerPerson */\n      0x00\n        /* \"DeciCourt.sol\":9822:9823  0 */\n      0x00\n        /* \"DeciCourt.sol\":9791:9823  uint256 jurorRewardPerPerson = 0 */\n      swap1\n      pop\n        /* \"DeciCourt.sol\":9833:9857  uint256 totalJurorReward */\n      0x00\n        /* \"DeciCourt.sol\":9860:9861  0 */\n      0x00\n        /* \"DeciCourt.sol\":9833:9861  uint256 totalJurorReward = 0 */\n      swap1\n      pop\n        /* \"DeciCourt.sol\":9935:9958  uint256 totalRewardPool */\n      0x00\n        /* \"DeciCourt.sol\":9961:10004  currentCase.filingFee.add(totalPenaltyPool) */\n      tag_180\n        /* \"DeciCourt.sol\":9987:10003  totalPenaltyPool */\n      dup8\n        /* \"DeciCourt.sol\":9961:9972  currentCase */\n      dup12\n        /* \"DeciCourt.sol\":9961:9982  currentCase.filingFee */\n      0x05\n      add\n      sload\n        /* \"DeciCourt.sol\":9961:9986  currentCase.filingFee.add */\n      tag_179\n      swap1\n        /* \"DeciCourt.sol\":9961:10004  currentCase.filingFee.add(totalPenaltyPool) */\n      swap2\n      swap1\n      0xffffffff\n      and\n      jump\t// in\n    tag_180:\n        /* \"DeciCourt.sol\":9935:10004  uint256 totalRewardPool = currentCase.filingFee.add(totalPenaltyPool) */\n      swap1\n      pop\n        /* \"DeciCourt.sol\":10039:10040  0 */\n      0x00\n        /* \"DeciCourt.sol\":10019:10036  winningJurorCount */\n      dup7\n        /* \"DeciCourt.sol\":10019:10040  winningJurorCount > 0 */\n      gt\n        /* \"DeciCourt.sol\":10015:10175  if (winningJurorCount > 0) {... */\n      iszero\n      tag_181\n      jumpi\n        /* \"DeciCourt.sol\":10079:10124  totalRewardPool.div(2).div(winningJurorCount) */\n      tag_182\n        /* \"DeciCourt.sol\":10106:10123  winningJurorCount */\n      dup7\n        /* \"DeciCourt.sol\":10079:10101  totalRewardPool.div(2) */\n      tag_183\n        /* \"DeciCourt.sol\":10099:10100  2 */\n      0x02\n        /* \"DeciCourt.sol\":10079:10094  totalRewardPool */\n      dup5\n        /* \"DeciCourt.sol\":10079:10098  totalRewardPool.div */\n      tag_175\n      swap1\n        /* \"DeciCourt.sol\":10079:10101  totalRewardPool.div(2) */\n      swap2\n      swap1\n      0xffffffff\n      and\n      jump\t// in\n    tag_183:\n        /* \"DeciCourt.sol\":10079:10105  totalRewardPool.div(2).div */\n      tag_175\n      swap1\n        /* \"DeciCourt.sol\":10079:10124  totalRewardPool.div(2).div(winningJurorCount) */\n      swap2\n      swap1\n      0xffffffff\n      and\n      jump\t// in\n    tag_182:\n        /* \"DeciCourt.sol\":10056:10124  jurorRewardPerPerson = totalRewardPool.div(2).div(winningJurorCount) */\n      swap3\n      pop\n        /* \"DeciCourt.sol\":10015:10175  if (winningJurorCount > 0) {... */\n    tag_181:\n        /* \"DeciCourt.sol\":10207:10218  currentCase */\n      dup10\n        /* \"DeciCourt.sol\":10207:10228  currentCase.plaintiff */\n      0x01\n      add\n      0x00\n      swap1\n      sload\n      swap1\n      0x0100\n      exp\n      swap1\n      div\n      0xffffffffffffffffffffffffffffffffffffffff\n      and\n        /* \"DeciCourt.sol\":10197:10228  winner == currentCase.plaintiff */\n      0xffffffffffffffffffffffffffffffffffffffff\n      and\n        /* \"DeciCourt.sol\":10197:10203  winner */\n      dup10\n        /* \"DeciCourt.sol\":10197:10228  winner == currentCase.plaintiff */\n      0xffffffffffffffffffffffffffffffffffffffff\n      and\n      sub\n        /* \"DeciCourt.sol\":10193:10671  if (winner == currentCase.plaintiff) {... */\n      tag_184\n      jumpi\n        /* \"DeciCourt.sol\":10341:10390  currentCase.filingFee.add(totalRewardPool.div(2)) */\n      tag_185\n        /* \"DeciCourt.sol\":10367:10389  totalRewardPool.div(2) */\n      tag_186\n        /* \"DeciCourt.sol\":10387:10388  2 */\n      0x02\n        /* \"DeciCourt.sol\":10367:10382  totalRewardPool */\n      dup4\n        /* \"DeciCourt.sol\":10367:10386  totalRewardPool.div */\n      tag_175\n      swap1\n        /* \"DeciCourt.sol\":10367:10389  totalRewardPool.div(2) */\n      swap2\n      swap1\n      0xffffffff\n      and\n      jump\t// in\n    tag_186:\n        /* \"DeciCourt.sol\":10341:10352  currentCase */\n      dup12\n        /* \"DeciCourt.sol\":10341:10362  currentCase.filingFee */\n      0x05\n      add\n      sload\n        /* \"DeciCourt.sol\":10341:10366  currentCase.filingFee.add */\n      tag_179\n      swap1\n        /* \"DeciCourt.sol\":10341:10390  currentCase.filingFee.add(totalRewardPool.div(2)) */\n      swap2\n      swap1\n      0xffffffff\n      and\n      jump\t// in\n    tag_185:\n        /* \"DeciCourt.sol\":10323:10390  plaintiffReward = currentCase.filingFee.add(totalRewardPool.div(2)) */\n      swap5\n      pop\n        /* \"DeciCourt.sol\":10404:10413  juryToken */\n      immutable(\"0xdf7c0ba7d2db638bc708436116cfd9aa4404715fd7f1b4176b0c05868146de8d\")\n        /* \"DeciCourt.sol\":10404:10422  juryToken.transfer */\n      0xffffffffffffffffffffffffffffffffffffffff\n      and\n      0xa9059cbb\n        /* \"DeciCourt.sol\":10423:10434  currentCase */\n      dup12\n        /* \"DeciCourt.sol\":10423:10444  currentCase.plaintiff */\n      0x01\n      add\n      0x00\n      swap1\n      sload\n      swap1\n      0x0100\n      exp\n      swap1\n      div\n      0xffffffffffffffffffffffffffffffffffffffff\n      and\n        /* \"DeciCourt.sol\":10446:10461  plaintiffReward */\n      dup8\n        /* \"DeciCourt.sol\":10404:10462  juryToken.transfer(currentCase.plaintiff, plaintiffReward) */\n      mload(0x40)\n      dup4\n      0xffffffff\n      and\n      0xe0\n      shl\n      dup2\n      mstore\n      0x04\n      add\n      tag_187\n      swap3\n      swap2\n      swap1\n      tag_188\n      jump\t// in\n    tag_187:\n      0x20\n      mload(0x40)\n      dup1\n      dup4\n      sub\n      dup2\n      0x00\n      dup8\n      gas\n      call\n      iszero\n      dup1\n      iszero\n      tag_190\n      jumpi\n      returndatacopy(0x00, 0x00, returndatasize)\n      revert(0x00, returndatasize)\n    tag_190:\n      pop\n      pop\n      pop\n      pop\n      mload(0x40)\n      returndatasize\n      not(0x1f)\n      0x1f\n      dup3\n      add\n      and\n      dup3\n      add\n      dup1\n      0x40\n      mstore\n      pop\n      dup2\n      add\n      swap1\n      tag_191\n      swap2\n      swap1\n      tag_192\n      jump\t// in\n    tag_191:\n      pop\n        /* \"DeciCourt.sol\":10193:10671  if (winner == currentCase.plaintiff) {... */\n      jump(tag_193)\n    tag_184:\n        /* \"DeciCourt.sol\":10566:10588  totalRewardPool.div(2) */\n      tag_194\n        /* \"DeciCourt.sol\":10586:10587  2 */\n      0x02\n        /* \"DeciCourt.sol\":10566:10581  totalRewardPool */\n      dup3\n        /* \"DeciCourt.sol\":10566:10585  totalRewardPool.div */\n      tag_175\n      swap1\n        /* \"DeciCourt.sol\":10566:10588  totalRewardPool.div(2) */\n      swap2\n      swap1\n      0xffffffff\n      and\n      jump\t// in\n    tag_194:\n        /* \"DeciCourt.sol\":10548:10588  defendantReward = totalRewardPool.div(2) */\n      swap4\n      pop\n        /* \"DeciCourt.sol\":10602:10611  juryToken */\n      immutable(\"0xdf7c0ba7d2db638bc708436116cfd9aa4404715fd7f1b4176b0c05868146de8d\")\n        /* \"DeciCourt.sol\":10602:10620  juryToken.transfer */\n      0xffffffffffffffffffffffffffffffffffffffff\n      and\n      0xa9059cbb\n        /* \"DeciCourt.sol\":10621:10632  currentCase */\n      dup12\n        /* \"DeciCourt.sol\":10621:10642  currentCase.defendant */\n      0x02\n      add\n      0x00\n      swap1\n      sload\n      swap1\n      0x0100\n      exp\n      swap1\n      div\n      0xffffffffffffffffffffffffffffffffffffffff\n      and\n        /* \"DeciCourt.sol\":10644:10659  defendantReward */\n      dup7\n        /* \"DeciCourt.sol\":10602:10660  juryToken.transfer(currentCase.defendant, defendantReward) */\n      mload(0x40)\n      dup4\n      0xffffffff\n      and\n      0xe0\n      shl\n      dup2\n      mstore\n      0x04\n      add\n      tag_195\n      swap3\n      swap2\n      swap1\n      tag_188\n      jump\t// in\n    tag_195:\n      0x20\n      mload(0x40)\n      dup1\n      dup4\n      sub\n      dup2\n      0x00\n      dup8\n      gas\n      call\n      iszero\n      dup1\n      iszero\n      tag_197\n      jumpi\n      returndatacopy(0x00, 0x00, returndatasize)\n      revert(0x00, returndatasize)\n    tag_197:\n      pop\n      pop\n      pop\n      pop\n      mload(0x40)\n      returndatasize\n      not(0x1f)\n      0x1f\n      dup3\n      add\n      and\n      dup3\n      add\n      dup1\n      0x40\n      mstore\n      pop\n      dup2\n      add\n      swap1\n      tag_198\n      swap2\n      swap1\n      tag_192\n      jump\t// in\n    tag_198:\n      pop\n        /* \"DeciCourt.sol\":10193:10671  if (winner == currentCase.plaintiff) {... */\n    tag_193:\n        /* \"DeciCourt.sol\":10731:10737  uint i */\n      0x00\n        /* \"DeciCourt.sol\":10740:10741  0 */\n      0x00\n        /* \"DeciCourt.sol\":10731:10741  uint i = 0 */\n      swap1\n      pop\n        /* \"DeciCourt.sol\":10726:11245  for (uint i = 0; i < currentCase.jurors.length; i++) {... */\n    tag_199:\n        /* \"DeciCourt.sol\":10747:10758  currentCase */\n      dup11\n        /* \"DeciCourt.sol\":10747:10765  currentCase.jurors */\n      0x06\n      add\n        /* \"DeciCourt.sol\":10747:10772  currentCase.jurors.length */\n      dup1\n      sload\n      swap1\n      pop\n        /* \"DeciCourt.sol\":10743:10744  i */\n      dup2\n        /* \"DeciCourt.sol\":10743:10772  i < currentCase.jurors.length */\n      lt\n        /* \"DeciCourt.sol\":10726:11245  for (uint i = 0; i < currentCase.jurors.length; i++) {... */\n      iszero\n      tag_200\n      jumpi\n        /* \"DeciCourt.sol\":10793:10810  address jurorAddr */\n      0x00\n        /* \"DeciCourt.sol\":10813:10824  currentCase */\n      dup12\n        /* \"DeciCourt.sol\":10813:10831  currentCase.jurors */\n      0x06\n      add\n        /* \"DeciCourt.sol\":10832:10833  i */\n      dup3\n        /* \"DeciCourt.sol\":10813:10834  currentCase.jurors[i] */\n      dup2\n      sload\n      dup2\n      lt\n      tag_202\n      jumpi\n      tag_203\n      tag_163\n      jump\t// in\n    tag_203:\n    tag_202:\n      swap1\n      0x00\n      mstore\n      keccak256(0x00, 0x20)\n      add\n      0x00\n      swap1\n      sload\n      swap1\n      0x0100\n      exp\n      swap1\n      div\n      0xffffffffffffffffffffffffffffffffffffffff\n      and\n        /* \"DeciCourt.sol\":10793:10834  address jurorAddr = currentCase.jurors[i] */\n      swap1\n      pop\n        /* \"DeciCourt.sol\":10892:10903  winningVote */\n      dup10\n        /* \"DeciCourt.sol\":10852:10903  currentCase.revealedVotes[jurorAddr] == winningVote */\n      0x02\n      dup2\n      gt\n      iszero\n      tag_205\n      jumpi\n      tag_206\n      tag_88\n      jump\t// in\n    tag_206:\n    tag_205:\n        /* \"DeciCourt.sol\":10852:10863  currentCase */\n      dup13\n        /* \"DeciCourt.sol\":10852:10877  currentCase.revealedVotes */\n      0x08\n      add\n        /* \"DeciCourt.sol\":10852:10888  currentCase.revealedVotes[jurorAddr] */\n      0x00\n        /* \"DeciCourt.sol\":10878:10887  jurorAddr */\n      dup4\n        /* \"DeciCourt.sol\":10852:10888  currentCase.revealedVotes[jurorAddr] */\n      0xffffffffffffffffffffffffffffffffffffffff\n      and\n      0xffffffffffffffffffffffffffffffffffffffff\n      and\n      dup2\n      mstore\n      0x20\n      add\n      swap1\n      dup2\n      mstore\n      0x20\n      add\n      0x00\n      keccak256\n      0x00\n      swap1\n      sload\n      swap1\n      0x0100\n      exp\n      swap1\n      div\n      0xff\n      and\n        /* \"DeciCourt.sol\":10852:10903  currentCase.revealedVotes[jurorAddr] == winningVote */\n      0x02\n      dup2\n      gt\n      iszero\n      tag_207\n      jumpi\n      tag_208\n      tag_88\n      jump\t// in\n    tag_208:\n    tag_207:\n      sub\n        /* \"DeciCourt.sol\":10848:11114  if (currentCase.revealedVotes[jurorAddr] == winningVote) {... */\n      tag_209\n      jumpi\n        /* \"DeciCourt.sol\":10960:11020  jurorsInfo[jurorAddr].stakedAmount.add(jurorRewardPerPerson) */\n      tag_210\n        /* \"DeciCourt.sol\":10999:11019  jurorRewardPerPerson */\n      dup6\n        /* \"DeciCourt.sol\":10960:10970  jurorsInfo */\n      0x0b\n        /* \"DeciCourt.sol\":10960:10981  jurorsInfo[jurorAddr] */\n      0x00\n        /* \"DeciCourt.sol\":10971:10980  jurorAddr */\n      dup5\n        /* \"DeciCourt.sol\":10960:10981  jurorsInfo[jurorAddr] */\n      0xffffffffffffffffffffffffffffffffffffffff\n      and\n      0xffffffffffffffffffffffffffffffffffffffff\n      and\n      dup2\n      mstore\n      0x20\n      add\n      swap1\n      dup2\n      mstore\n      0x20\n      add\n      0x00\n      keccak256\n        /* \"DeciCourt.sol\":10960:10994  jurorsInfo[jurorAddr].stakedAmount */\n      0x01\n      add\n      sload\n        /* \"DeciCourt.sol\":10960:10998  jurorsInfo[jurorAddr].stakedAmount.add */\n      tag_179\n      swap1\n        /* \"DeciCourt.sol\":10960:11020  jurorsInfo[jurorAddr].stakedAmount.add(jurorRewardPerPerson) */\n      swap2\n      swap1\n      0xffffffff\n      and\n      jump\t// in\n    tag_210:\n        /* \"DeciCourt.sol\":10923:10933  jurorsInfo */\n      0x0b\n        /* \"DeciCourt.sol\":10923:10944  jurorsInfo[jurorAddr] */\n      0x00\n        /* \"DeciCourt.sol\":10934:10943  jurorAddr */\n      dup4\n        /* \"DeciCourt.sol\":10923:10944  jurorsInfo[jurorAddr] */\n      0xffffffffffffffffffffffffffffffffffffffff\n      and\n      0xffffffffffffffffffffffffffffffffffffffff\n      and\n      dup2\n      mstore\n      0x20\n      add\n      swap1\n      dup2\n      mstore\n      0x20\n      add\n      0x00\n      keccak256\n        /* \"DeciCourt.sol\":10923:10957  jurorsInfo[jurorAddr].stakedAmount */\n      0x01\n      add\n        /* \"DeciCourt.sol\":10923:11020  jurorsInfo[jurorAddr].stakedAmount = jurorsInfo[jurorAddr].stakedAmount.add(jurorRewardPerPerson) */\n      dup2\n      swap1\n      sstore\n      pop\n        /* \"DeciCourt.sol\":11057:11099  totalJurorReward.add(jurorRewardPerPerson) */\n      tag_211\n        /* \"DeciCourt.sol\":11078:11098  jurorRewardPerPerson */\n      dup6\n        /* \"DeciCourt.sol\":11057:11073  totalJurorReward */\n      dup6\n        /* \"DeciCourt.sol\":11057:11077  totalJurorReward.add */\n      tag_179\n      swap1\n        /* \"DeciCourt.sol\":11057:11099  totalJurorReward.add(jurorRewardPerPerson) */\n      swap2\n      swap1\n      0xffffffff\n      and\n      jump\t// in\n    tag_211:\n        /* \"DeciCourt.sol\":11038:11099  totalJurorReward = totalJurorReward.add(jurorRewardPerPerson) */\n      swap4\n      pop\n        /* \"DeciCourt.sol\":10848:11114  if (currentCase.revealedVotes[jurorAddr] == winningVote) {... */\n    tag_209:\n        /* \"DeciCourt.sol\":11229:11234  false */\n      0x00\n        /* \"DeciCourt.sol\":11195:11205  jurorsInfo */\n      0x0b\n        /* \"DeciCourt.sol\":11195:11216  jurorsInfo[jurorAddr] */\n      0x00\n        /* \"DeciCourt.sol\":11206:11215  jurorAddr */\n      dup4\n        /* \"DeciCourt.sol\":11195:11216  jurorsInfo[jurorAddr] */\n      0xffffffffffffffffffffffffffffffffffffffff\n      and\n      0xffffffffffffffffffffffffffffffffffffffff\n      and\n      dup2\n      mstore\n      0x20\n      add\n      swap1\n      dup2\n      mstore\n      0x20\n      add\n      0x00\n      keccak256\n        /* \"DeciCourt.sol\":11195:11226  jurorsInfo[jurorAddr].isServing */\n      0x02\n      add\n      0x00\n        /* \"DeciCourt.sol\":11195:11234  jurorsInfo[jurorAddr].isServing = false */\n      0x0100\n      exp\n      dup2\n      sload\n      dup2\n      0xff\n      mul\n      not\n      and\n      swap1\n      dup4\n      iszero\n      iszero\n      mul\n      or\n      swap1\n      sstore\n      pop\n        /* \"DeciCourt.sol\":10779:11245  {... */\n      pop\n        /* \"DeciCourt.sol\":10774:10777  i++ */\n      dup1\n      dup1\n      0x01\n      add\n      swap2\n      pop\n      pop\n        /* \"DeciCourt.sol\":10726:11245  for (uint i = 0; i < currentCase.jurors.length; i++) {... */\n      jump(tag_199)\n    tag_200:\n      pop\n        /* \"DeciCourt.sol\":11276:11295  CaseStatus.Resolved */\n      0x03\n        /* \"DeciCourt.sol\":11255:11266  currentCase */\n      dup11\n        /* \"DeciCourt.sol\":11255:11273  currentCase.status */\n      0x04\n      add\n      0x00\n        /* \"DeciCourt.sol\":11255:11295  currentCase.status = CaseStatus.Resolved */\n      0x0100\n      exp\n      dup2\n      sload\n      dup2\n      0xff\n      mul\n      not\n      and\n      swap1\n      dup4\n      0x04\n      dup2\n      gt\n      iszero\n      tag_212\n      jumpi\n      tag_213\n      tag_88\n      jump\t// in\n    tag_213:\n    tag_212:\n      mul\n      or\n      swap1\n      sstore\n      pop\n        /* \"DeciCourt.sol\":11323:11330  _caseId */\n      dup11\n        /* \"DeciCourt.sol\":11310:11391  CaseResolved(_caseId, winner, plaintiffReward, defendantReward, totalJurorReward) */\n      0xb179b08881890bd8e13edde8255f745991199906456a378692ec11430a4560a9\n        /* \"DeciCourt.sol\":11332:11338  winner */\n      dup11\n        /* \"DeciCourt.sol\":11340:11355  plaintiffReward */\n      dup8\n        /* \"DeciCourt.sol\":11357:11372  defendantReward */\n      dup8\n        /* \"DeciCourt.sol\":11374:11390  totalJurorReward */\n      dup7\n        /* \"DeciCourt.sol\":11310:11391  CaseResolved(_caseId, winner, plaintiffReward, defendantReward, totalJurorReward) */\n      mload(0x40)\n      tag_214\n      swap5\n      swap4\n      swap3\n      swap2\n      swap1\n      tag_215\n      jump\t// in\n    tag_214:\n      mload(0x40)\n      dup1\n      swap2\n      sub\n      swap1\n      log2\n        /* \"DeciCourt.sol\":8269:11398  {... */\n      pop\n      pop\n      pop\n      pop\n      pop\n      pop\n      pop\n      pop\n      pop\n      pop\n        /* \"@openzeppelin/contracts/security/ReentrancyGuard.sol\":2303:2323  _nonReentrantAfter() */\n      tag_216\n        /* \"@openzeppelin/contracts/security/ReentrancyGuard.sol\":2303:2321  _nonReentrantAfter */\n      tag_217\n        /* \"@openzeppelin/contracts/security/ReentrancyGuard.sol\":2303:2323  _nonReentrantAfter() */\n      jump\t// in\n    tag_216:\n        /* \"DeciCourt.sol\":8206:11398  function executeVerdict(uint256 _caseId) external nonReentrant {... */\n      pop\n      jump\t// out\n        /* \"DeciCourt.sol\":2101:2131  uint256 public filingFeeAmount */\n    tag_36:\n      sload(0x01)\n      dup2\n      jump\t// out\n        /* \"DeciCourt.sol\":4333:5177  function unregisterAsJuror() external {... */\n    tag_39:\n        /* \"DeciCourt.sol\":4381:4404  JurorInfo storage juror */\n      0x00\n        /* \"DeciCourt.sol\":4407:4417  jurorsInfo */\n      0x0b\n        /* \"DeciCourt.sol\":4407:4429  jurorsInfo[msg.sender] */\n      0x00\n        /* \"DeciCourt.sol\":4418:4428  msg.sender */\n      caller\n        /* \"DeciCourt.sol\":4407:4429  jurorsInfo[msg.sender] */\n      0xffffffffffffffffffffffffffffffffffffffff\n      and\n      0xffffffffffffffffffffffffffffffffffffffff\n      and\n      dup2\n      mstore\n      0x20\n      add\n      swap1\n      dup2\n      mstore\n      0x20\n      add\n      0x00\n      keccak256\n        /* \"DeciCourt.sol\":4381:4429  JurorInfo storage juror = jurorsInfo[msg.sender] */\n      swap1\n      pop\n        /* \"DeciCourt.sol\":4447:4452  juror */\n      dup1\n        /* \"DeciCourt.sol\":4447:4465  juror.isRegistered */\n      0x00\n      add\n      0x00\n      swap1\n      sload\n      swap1\n      0x0100\n      exp\n      swap1\n      div\n      0xff\n      and\n        /* \"DeciCourt.sol\":4439:4492  require(juror.isRegistered, \"Not a registered juror\") */\n      tag_219\n      jumpi\n      mload(0x40)\n      0x08c379a000000000000000000000000000000000000000000000000000000000\n      dup2\n      mstore\n      0x04\n      add\n      tag_220\n      swap1\n      tag_221\n      jump\t// in\n    tag_220:\n      mload(0x40)\n      dup1\n      swap2\n      sub\n      swap1\n      revert\n    tag_219:\n        /* \"DeciCourt.sol\":4511:4516  juror */\n      dup1\n        /* \"DeciCourt.sol\":4511:4526  juror.isServing */\n      0x02\n      add\n      0x00\n      swap1\n      sload\n      swap1\n      0x0100\n      exp\n      swap1\n      div\n      0xff\n      and\n        /* \"DeciCourt.sol\":4510:4526  !juror.isServing */\n      iszero\n        /* \"DeciCourt.sol\":4502:4572  require(!juror.isServing, \"Cannot unregister while serving on a case\") */\n      tag_222\n      jumpi\n      mload(0x40)\n      0x08c379a000000000000000000000000000000000000000000000000000000000\n      dup2\n      mstore\n      0x04\n      add\n      tag_223\n      swap1\n      tag_224\n      jump\t// in\n    tag_223:\n      mload(0x40)\n      dup1\n      swap2\n      sub\n      swap1\n      revert\n    tag_222:\n        /* \"DeciCourt.sol\":4632:4653  uint256 indexToRemove */\n      0x00\n        /* \"DeciCourt.sol\":4656:4670  jurorPoolIndex */\n      0x0a\n        /* \"DeciCourt.sol\":4656:4682  jurorPoolIndex[msg.sender] */\n      0x00\n        /* \"DeciCourt.sol\":4671:4681  msg.sender */\n      caller\n        /* \"DeciCourt.sol\":4656:4682  jurorPoolIndex[msg.sender] */\n      0xffffffffffffffffffffffffffffffffffffffff\n      and\n      0xffffffffffffffffffffffffffffffffffffffff\n      and\n      dup2\n      mstore\n      0x20\n      add\n      swap1\n      dup2\n      mstore\n      0x20\n      add\n      0x00\n      keccak256\n      sload\n        /* \"DeciCourt.sol\":4632:4682  uint256 indexToRemove = jurorPoolIndex[msg.sender] */\n      swap1\n      pop\n        /* \"DeciCourt.sol\":4692:4709  address lastJuror */\n      0x00\n        /* \"DeciCourt.sol\":4712:4721  jurorPool */\n      0x09\n        /* \"DeciCourt.sol\":4741:4742  1 */\n      0x01\n        /* \"DeciCourt.sol\":4722:4731  jurorPool */\n      0x09\n        /* \"DeciCourt.sol\":4722:4738  jurorPool.length */\n      dup1\n      sload\n      swap1\n      pop\n        /* \"DeciCourt.sol\":4722:4742  jurorPool.length - 1 */\n      tag_225\n      swap2\n      swap1\n      tag_226\n      jump\t// in\n    tag_225:\n        /* \"DeciCourt.sol\":4712:4743  jurorPool[jurorPool.length - 1] */\n      dup2\n      sload\n      dup2\n      lt\n      tag_227\n      jumpi\n      tag_228\n      tag_163\n      jump\t// in\n    tag_228:\n    tag_227:\n      swap1\n      0x00\n      mstore\n      keccak256(0x00, 0x20)\n      add\n      0x00\n      swap1\n      sload\n      swap1\n      0x0100\n      exp\n      swap1\n      div\n      0xffffffffffffffffffffffffffffffffffffffff\n      and\n        /* \"DeciCourt.sol\":4692:4743  address lastJuror = jurorPool[jurorPool.length - 1] */\n      swap1\n      pop\n        /* \"DeciCourt.sol\":4780:4789  lastJuror */\n      dup1\n        /* \"DeciCourt.sol\":4753:4762  jurorPool */\n      0x09\n        /* \"DeciCourt.sol\":4763:4776  indexToRemove */\n      dup4\n        /* \"DeciCourt.sol\":4753:4777  jurorPool[indexToRemove] */\n      dup2\n      sload\n      dup2\n      lt\n      tag_230\n      jumpi\n      tag_231\n      tag_163\n      jump\t// in\n    tag_231:\n    tag_230:\n      swap1\n      0x00\n      mstore\n      keccak256(0x00, 0x20)\n      add\n      0x00\n        /* \"DeciCourt.sol\":4753:4789  jurorPool[indexToRemove] = lastJuror */\n      0x0100\n      exp\n      dup2\n      sload\n      dup2\n      0xffffffffffffffffffffffffffffffffffffffff\n      mul\n      not\n      and\n      swap1\n      dup4\n      0xffffffffffffffffffffffffffffffffffffffff\n      and\n      mul\n      or\n      swap1\n      sstore\n      pop\n        /* \"DeciCourt.sol\":4827:4840  indexToRemove */\n      dup2\n        /* \"DeciCourt.sol\":4799:4813  jurorPoolIndex */\n      0x0a\n        /* \"DeciCourt.sol\":4799:4824  jurorPoolIndex[lastJuror] */\n      0x00\n        /* \"DeciCourt.sol\":4814:4823  lastJuror */\n      dup4\n        /* \"DeciCourt.sol\":4799:4824  jurorPoolIndex[lastJuror] */\n      0xffffffffffffffffffffffffffffffffffffffff\n      and\n      0xffffffffffffffffffffffffffffffffffffffff\n      and\n      dup2\n      mstore\n      0x20\n      add\n      swap1\n      dup2\n      mstore\n      0x20\n      add\n      0x00\n      keccak256\n        /* \"DeciCourt.sol\":4799:4840  jurorPoolIndex[lastJuror] = indexToRemove */\n      dup2\n      swap1\n      sstore\n      pop\n        /* \"DeciCourt.sol\":4850:4859  jurorPool */\n      0x09\n        /* \"DeciCourt.sol\":4850:4865  jurorPool.pop() */\n      dup1\n      sload\n      dup1\n      tag_233\n      jumpi\n      tag_234\n      tag_235\n      jump\t// in\n    tag_234:\n    tag_233:\n      0x01\n      swap1\n      sub\n      dup2\n      dup2\n      swap1\n      0x00\n      mstore\n      keccak256(0x00, 0x20)\n      add\n      exp(0x0100, 0x00)\n      dup2\n      sload\n      swap1\n      0xffffffffffffffffffffffffffffffffffffffff\n      mul\n      not\n      and\n      swap1\n      sstore\n      swap1\n      sstore\n        /* \"DeciCourt.sol\":4925:4935  jurorsInfo */\n      0x0b\n        /* \"DeciCourt.sol\":4925:4947  jurorsInfo[msg.sender] */\n      0x00\n        /* \"DeciCourt.sol\":4936:4946  msg.sender */\n      caller\n        /* \"DeciCourt.sol\":4925:4947  jurorsInfo[msg.sender] */\n      0xffffffffffffffffffffffffffffffffffffffff\n      and\n      0xffffffffffffffffffffffffffffffffffffffff\n      and\n      dup2\n      mstore\n      0x20\n      add\n      swap1\n      dup2\n      mstore\n      0x20\n      add\n      0x00\n      keccak256\n      0x00\n        /* \"DeciCourt.sol\":4918:4947  delete jurorsInfo[msg.sender] */\n      0x00\n      dup3\n      add\n      exp(0x0100, 0x00)\n      dup2\n      sload\n      swap1\n      0xff\n      mul\n      not\n      and\n      swap1\n      sstore\n      0x01\n      dup3\n      add\n      0x00\n      swap1\n      sstore\n      0x02\n      dup3\n      add\n      exp(0x0100, 0x00)\n      dup2\n      sload\n      swap1\n      0xff\n      mul\n      not\n      and\n      swap1\n      sstore\n      pop\n      pop\n        /* \"DeciCourt.sol\":4964:4978  jurorPoolIndex */\n      0x0a\n        /* \"DeciCourt.sol\":4964:4990  jurorPoolIndex[msg.sender] */\n      0x00\n        /* \"DeciCourt.sol\":4979:4989  msg.sender */\n      caller\n        /* \"DeciCourt.sol\":4964:4990  jurorPoolIndex[msg.sender] */\n      0xffffffffffffffffffffffffffffffffffffffff\n      and\n      0xffffffffffffffffffffffffffffffffffffffff\n      and\n      dup2\n      mstore\n      0x20\n      add\n      swap1\n      dup2\n      mstore\n      0x20\n      add\n      0x00\n      keccak256\n        /* \"DeciCourt.sol\":4957:4990  delete jurorPoolIndex[msg.sender] */\n      0x00\n      swap1\n      sstore\n        /* \"DeciCourt.sol\":5009:5021  bool success */\n      0x00\n        /* \"DeciCourt.sol\":5024:5033  juryToken */\n      immutable(\"0xdf7c0ba7d2db638bc708436116cfd9aa4404715fd7f1b4176b0c05868146de8d\")\n        /* \"DeciCourt.sol\":5024:5042  juryToken.transfer */\n      0xffffffffffffffffffffffffffffffffffffffff\n      and\n      0xa9059cbb\n        /* \"DeciCourt.sol\":5043:5053  msg.sender */\n      caller\n        /* \"DeciCourt.sol\":5055:5060  juror */\n      dup7\n        /* \"DeciCourt.sol\":5055:5073  juror.stakedAmount */\n      0x01\n      add\n      sload\n        /* \"DeciCourt.sol\":5024:5074  juryToken.transfer(msg.sender, juror.stakedAmount) */\n      mload(0x40)\n      dup4\n      0xffffffff\n      and\n      0xe0\n      shl\n      dup2\n      mstore\n      0x04\n      add\n      tag_237\n      swap3\n      swap2\n      swap1\n      tag_188\n      jump\t// in\n    tag_237:\n      0x20\n      mload(0x40)\n      dup1\n      dup4\n      sub\n      dup2\n      0x00\n      dup8\n      gas\n      call\n      iszero\n      dup1\n      iszero\n      tag_239\n      jumpi\n      returndatacopy(0x00, 0x00, returndatasize)\n      revert(0x00, returndatasize)\n    tag_239:\n      pop\n      pop\n      pop\n      pop\n      mload(0x40)\n      returndatasize\n      not(0x1f)\n      0x1f\n      dup3\n      add\n      and\n      dup3\n      add\n      dup1\n      0x40\n      mstore\n      pop\n      dup2\n      add\n      swap1\n      tag_240\n      swap2\n      swap1\n      tag_192\n      jump\t// in\n    tag_240:\n        /* \"DeciCourt.sol\":5009:5074  bool success = juryToken.transfer(msg.sender, juror.stakedAmount) */\n      swap1\n      pop\n        /* \"DeciCourt.sol\":5092:5099  success */\n      dup1\n        /* \"DeciCourt.sol\":5084:5125  require(success, \"Token transfer failed\") */\n      tag_241\n      jumpi\n      mload(0x40)\n      0x08c379a000000000000000000000000000000000000000000000000000000000\n      dup2\n      mstore\n      0x04\n      add\n      tag_242\n      swap1\n      tag_243\n      jump\t// in\n    tag_242:\n      mload(0x40)\n      dup1\n      swap2\n      sub\n      swap1\n      revert\n    tag_241:\n        /* \"DeciCourt.sol\":5159:5169  msg.sender */\n      caller\n        /* \"DeciCourt.sol\":5141:5170  JurorUnregistered(msg.sender) */\n      0xffffffffffffffffffffffffffffffffffffffff\n      and\n      0xf67e7162188cb7e3f756d0f6d7c86d1b7cc88b891ae19dd58118705a7859034b\n      mload(0x40)\n      mload(0x40)\n      dup1\n      swap2\n      sub\n      swap1\n      log2\n        /* \"DeciCourt.sol\":4371:5177  {... */\n      pop\n      pop\n      pop\n      pop\n        /* \"DeciCourt.sol\":4333:5177  function unregisterAsJuror() external {... */\n      jump\t// out\n        /* \"DeciCourt.sol\":2246:2269  uint256 public jurySize */\n    tag_41:\n      sload(0x03)\n      dup2\n      jump\t// out\n        /* \"DeciCourt.sol\":2580:2605  uint256 public nextCaseId */\n    tag_44:\n      sload(0x07)\n      dup2\n      jump\t// out\n        /* \"DeciCourt.sol\":2320:2349  uint256 public commitDuration */\n    tag_47:\n      sload(0x04)\n      dup2\n      jump\t// out\n        /* \"DeciCourt.sol\":3562:4262  function registerAsJuror() external {... */\n    tag_50:\n        /* \"DeciCourt.sol\":3617:3627  jurorsInfo */\n      0x0b\n        /* \"DeciCourt.sol\":3617:3639  jurorsInfo[msg.sender] */\n      0x00\n        /* \"DeciCourt.sol\":3628:3638  msg.sender */\n      caller\n        /* \"DeciCourt.sol\":3617:3639  jurorsInfo[msg.sender] */\n      0xffffffffffffffffffffffffffffffffffffffff\n      and\n      0xffffffffffffffffffffffffffffffffffffffff\n      and\n      dup2\n      mstore\n      0x20\n      add\n      swap1\n      dup2\n      mstore\n      0x20\n      add\n      0x00\n      keccak256\n        /* \"DeciCourt.sol\":3617:3652  jurorsInfo[msg.sender].isRegistered */\n      0x00\n      add\n      0x00\n      swap1\n      sload\n      swap1\n      0x0100\n      exp\n      swap1\n      div\n      0xff\n      and\n        /* \"DeciCourt.sol\":3616:3652  !jurorsInfo[msg.sender].isRegistered */\n      iszero\n        /* \"DeciCourt.sol\":3608:3675  require(!jurorsInfo[msg.sender].isRegistered, \"Already registered\") */\n      tag_245\n      jumpi\n      mload(0x40)\n      0x08c379a000000000000000000000000000000000000000000000000000000000\n      dup2\n      mstore\n      0x04\n      add\n      tag_246\n      swap1\n      tag_247\n      jump\t// in\n    tag_246:\n      mload(0x40)\n      dup1\n      swap2\n      sub\n      swap1\n      revert\n    tag_245:\n        /* \"DeciCourt.sol\":3746:3758  bool success */\n      0x00\n        /* \"DeciCourt.sol\":3761:3770  juryToken */\n      immutable(\"0xdf7c0ba7d2db638bc708436116cfd9aa4404715fd7f1b4176b0c05868146de8d\")\n        /* \"DeciCourt.sol\":3761:3783  juryToken.transferFrom */\n      0xffffffffffffffffffffffffffffffffffffffff\n      and\n      0x23b872dd\n        /* \"DeciCourt.sol\":3784:3794  msg.sender */\n      caller\n        /* \"DeciCourt.sol\":3804:3808  this */\n      address\n        /* \"DeciCourt.sol\":3811:3827  jurorStakeAmount */\n      sload(0x02)\n        /* \"DeciCourt.sol\":3761:3828  juryToken.transferFrom(msg.sender, address(this), jurorStakeAmount) */\n      mload(0x40)\n      dup5\n      0xffffffff\n      and\n      0xe0\n      shl\n      dup2\n      mstore\n      0x04\n      add\n      tag_248\n      swap4\n      swap3\n      swap2\n      swap1\n      tag_249\n      jump\t// in\n    tag_248:\n      0x20\n      mload(0x40)\n      dup1\n      dup4\n      sub\n      dup2\n      0x00\n      dup8\n      gas\n      call\n      iszero\n      dup1\n      iszero\n      tag_251\n      jumpi\n      returndatacopy(0x00, 0x00, returndatasize)\n      revert(0x00, returndatasize)\n    tag_251:\n      pop\n      pop\n      pop\n      pop\n      mload(0x40)\n      returndatasize\n      not(0x1f)\n      0x1f\n      dup3\n      add\n      and\n      dup3\n      add\n      dup1\n      0x40\n      mstore\n      pop\n      dup2\n      add\n      swap1\n      tag_252\n      swap2\n      swap1\n      tag_192\n      jump\t// in\n    tag_252:\n        /* \"DeciCourt.sol\":3746:3828  bool success = juryToken.transferFrom(msg.sender, address(this), jurorStakeAmount) */\n      swap1\n      pop\n        /* \"DeciCourt.sol\":3846:3853  success */\n      dup1\n        /* \"DeciCourt.sol\":3838:3897  require(success, \"Token transfer failed. Did you approve?\") */\n      tag_253\n      jumpi\n      mload(0x40)\n      0x08c379a000000000000000000000000000000000000000000000000000000000\n      dup2\n      mstore\n      0x04\n      add\n      tag_254\n      swap1\n      tag_255\n      jump\t// in\n    tag_254:\n      mload(0x40)\n      dup1\n      swap2\n      sub\n      swap1\n      revert\n    tag_253:\n        /* \"DeciCourt.sol\":3941:4068  JurorInfo({... */\n      mload(0x40)\n      dup1\n      0x60\n      add\n      0x40\n      mstore\n      dup1\n        /* \"DeciCourt.sol\":3979:3983  true */\n      0x01\n        /* \"DeciCourt.sol\":3941:4068  JurorInfo({... */\n      iszero\n      iszero\n      dup2\n      mstore\n      0x20\n      add\n        /* \"DeciCourt.sol\":4011:4027  jurorStakeAmount */\n      sload(0x02)\n        /* \"DeciCourt.sol\":3941:4068  JurorInfo({... */\n      dup2\n      mstore\n      0x20\n      add\n        /* \"DeciCourt.sol\":4052:4057  false */\n      0x00\n        /* \"DeciCourt.sol\":3941:4068  JurorInfo({... */\n      iszero\n      iszero\n      dup2\n      mstore\n      pop\n        /* \"DeciCourt.sol\":3916:3926  jurorsInfo */\n      0x0b\n        /* \"DeciCourt.sol\":3916:3938  jurorsInfo[msg.sender] */\n      0x00\n        /* \"DeciCourt.sol\":3927:3937  msg.sender */\n      caller\n        /* \"DeciCourt.sol\":3916:3938  jurorsInfo[msg.sender] */\n      0xffffffffffffffffffffffffffffffffffffffff\n      and\n      0xffffffffffffffffffffffffffffffffffffffff\n      and\n      dup2\n      mstore\n      0x20\n      add\n      swap1\n      dup2\n      mstore\n      0x20\n      add\n      0x00\n      keccak256\n        /* \"DeciCourt.sol\":3916:4068  jurorsInfo[msg.sender] = JurorInfo({... */\n      0x00\n      dup3\n      add\n      mload\n      dup2\n      0x00\n      add\n      exp(0x0100, 0x00)\n      dup2\n      sload\n      dup2\n      0xff\n      mul\n      not\n      and\n      swap1\n      dup4\n      iszero\n      iszero\n      mul\n      or\n      swap1\n      sstore\n      pop\n      0x20\n      dup3\n      add\n      mload\n      dup2\n      0x01\n      add\n      sstore\n      0x40\n      dup3\n      add\n      mload\n      dup2\n      0x02\n      add\n      exp(0x0100, 0x00)\n      dup2\n      sload\n      dup2\n      0xff\n      mul\n      not\n      and\n      swap1\n      dup4\n      iszero\n      iszero\n      mul\n      or\n      swap1\n      sstore\n      pop\n      swap1\n      pop\n      pop\n        /* \"DeciCourt.sol\":4109:4118  jurorPool */\n      0x09\n        /* \"DeciCourt.sol\":4124:4134  msg.sender */\n      caller\n        /* \"DeciCourt.sol\":4109:4135  jurorPool.push(msg.sender) */\n      swap1\n      dup1\n      0x01\n      dup2\n      sload\n      add\n      dup1\n      dup3\n      sstore\n      dup1\n      swap2\n      pop\n      pop\n      0x01\n      swap1\n      sub\n      swap1\n      0x00\n      mstore\n      keccak256(0x00, 0x20)\n      add\n      0x00\n      swap1\n      swap2\n      swap1\n      swap2\n      swap1\n      swap2\n      0x0100\n      exp\n      dup2\n      sload\n      dup2\n      0xffffffffffffffffffffffffffffffffffffffff\n      mul\n      not\n      and\n      swap1\n      dup4\n      0xffffffffffffffffffffffffffffffffffffffff\n      and\n      mul\n      or\n      swap1\n      sstore\n      pop\n        /* \"DeciCourt.sol\":4193:4194  1 */\n      0x01\n        /* \"DeciCourt.sol\":4174:4183  jurorPool */\n      0x09\n        /* \"DeciCourt.sol\":4174:4190  jurorPool.length */\n      dup1\n      sload\n      swap1\n      pop\n        /* \"DeciCourt.sol\":4174:4194  jurorPool.length - 1 */\n      tag_257\n      swap2\n      swap1\n      tag_226\n      jump\t// in\n    tag_257:\n        /* \"DeciCourt.sol\":4145:4159  jurorPoolIndex */\n      0x0a\n        /* \"DeciCourt.sol\":4145:4171  jurorPoolIndex[msg.sender] */\n      0x00\n        /* \"DeciCourt.sol\":4160:4170  msg.sender */\n      caller\n        /* \"DeciCourt.sol\":4145:4171  jurorPoolIndex[msg.sender] */\n      0xffffffffffffffffffffffffffffffffffffffff\n      and\n      0xffffffffffffffffffffffffffffffffffffffff\n      and\n      dup2\n      mstore\n      0x20\n      add\n      swap1\n      dup2\n      mstore\n      0x20\n      add\n      0x00\n      keccak256\n        /* \"DeciCourt.sol\":4145:4194  jurorPoolIndex[msg.sender] = jurorPool.length - 1 */\n      dup2\n      swap1\n      sstore\n      pop\n        /* \"DeciCourt.sol\":4226:4236  msg.sender */\n      caller\n        /* \"DeciCourt.sol\":4210:4255  JurorRegistered(msg.sender, jurorStakeAmount) */\n      0xffffffffffffffffffffffffffffffffffffffff\n      and\n      0x302e82b0b7908cfac0232eeb6a83332cbf587d0cb58eaa7ba72f884c149910fa\n        /* \"DeciCourt.sol\":4238:4254  jurorStakeAmount */\n      sload(0x02)\n        /* \"DeciCourt.sol\":4210:4255  JurorRegistered(msg.sender, jurorStakeAmount) */\n      mload(0x40)\n      tag_258\n      swap2\n      swap1\n      tag_26\n      jump\t// in\n    tag_258:\n      mload(0x40)\n      dup1\n      swap2\n      sub\n      swap1\n      log2\n        /* \"DeciCourt.sol\":3598:4262  {... */\n      pop\n        /* \"DeciCourt.sol\":3562:4262  function registerAsJuror() external {... */\n      jump\t// out\n        /* \"DeciCourt.sol\":2388:2417  uint256 public revealDuration */\n    tag_52:\n      sload(0x05)\n      dup2\n      jump\t// out\n        /* \"DeciCourt.sol\":6387:6967  function commitVote(uint256 _caseId, bytes32 _voteHash) external {... */\n    tag_57:\n        /* \"DeciCourt.sol\":6462:6486  Case storage currentCase */\n      0x00\n        /* \"DeciCourt.sol\":6489:6494  cases */\n      0x08\n        /* \"DeciCourt.sol\":6489:6503  cases[_caseId] */\n      0x00\n        /* \"DeciCourt.sol\":6495:6502  _caseId */\n      dup5\n        /* \"DeciCourt.sol\":6489:6503  cases[_caseId] */\n      dup2\n      mstore\n      0x20\n      add\n      swap1\n      dup2\n      mstore\n      0x20\n      add\n      0x00\n      keccak256\n        /* \"DeciCourt.sol\":6462:6503  Case storage currentCase = cases[_caseId] */\n      swap1\n      pop\n        /* \"DeciCourt.sol\":6543:6560  CaseStatus.Voting */\n      0x01\n        /* \"DeciCourt.sol\":6521:6560  currentCase.status == CaseStatus.Voting */\n      0x04\n      dup2\n      gt\n      iszero\n      tag_260\n      jumpi\n      tag_261\n      tag_88\n      jump\t// in\n    tag_261:\n    tag_260:\n        /* \"DeciCourt.sol\":6521:6532  currentCase */\n      dup2\n        /* \"DeciCourt.sol\":6521:6539  currentCase.status */\n      0x04\n      add\n      0x00\n      swap1\n      sload\n      swap1\n      0x0100\n      exp\n      swap1\n      div\n      0xff\n      and\n        /* \"DeciCourt.sol\":6521:6560  currentCase.status == CaseStatus.Voting */\n      0x04\n      dup2\n      gt\n      iszero\n      tag_262\n      jumpi\n      tag_263\n      tag_88\n      jump\t// in\n    tag_263:\n    tag_262:\n      eq\n        /* \"DeciCourt.sol\":6513:6584  require(currentCase.status == CaseStatus.Voting, \"Not in voting phase\") */\n      tag_264\n      jumpi\n      mload(0x40)\n      0x08c379a000000000000000000000000000000000000000000000000000000000\n      dup2\n      mstore\n      0x04\n      add\n      tag_265\n      swap1\n      tag_93\n      jump\t// in\n    tag_265:\n      mload(0x40)\n      dup1\n      swap2\n      sub\n      swap1\n      revert\n    tag_264:\n        /* \"DeciCourt.sol\":6621:6632  currentCase */\n      dup1\n        /* \"DeciCourt.sol\":6621:6647  currentCase.commitDeadline */\n      0x0c\n      add\n      sload\n        /* \"DeciCourt.sol\":6602:6617  block.timestamp */\n      timestamp\n        /* \"DeciCourt.sol\":6602:6647  block.timestamp <= currentCase.commitDeadline */\n      gt\n      iszero\n        /* \"DeciCourt.sol\":6594:6670  require(block.timestamp <= currentCase.commitDeadline, \"Commit phase ended\") */\n      tag_266\n      jumpi\n      mload(0x40)\n      0x08c379a000000000000000000000000000000000000000000000000000000000\n      dup2\n      mstore\n      0x04\n      add\n      tag_267\n      swap1\n      tag_268\n      jump\t// in\n    tag_267:\n      mload(0x40)\n      dup1\n      swap2\n      sub\n      swap1\n      revert\n    tag_266:\n        /* \"DeciCourt.sol\":6688:6728  _isJurorForCase(currentCase, msg.sender) */\n      tag_269\n        /* \"DeciCourt.sol\":6704:6715  currentCase */\n      dup2\n        /* \"DeciCourt.sol\":6717:6727  msg.sender */\n      caller\n        /* \"DeciCourt.sol\":6688:6703  _isJurorForCase */\n      tag_101\n        /* \"DeciCourt.sol\":6688:6728  _isJurorForCase(currentCase, msg.sender) */\n      jump\t// in\n    tag_269:\n        /* \"DeciCourt.sol\":6680:6758  require(_isJurorForCase(currentCase, msg.sender), \"Not a juror for this case\") */\n      tag_270\n      jumpi\n      mload(0x40)\n      0x08c379a000000000000000000000000000000000000000000000000000000000\n      dup2\n      mstore\n      0x04\n      add\n      tag_271\n      swap1\n      tag_104\n      jump\t// in\n    tag_271:\n      mload(0x40)\n      dup1\n      swap2\n      sub\n      swap1\n      revert\n    tag_270:\n        /* \"DeciCourt.sol\":6826:6827  0 */\n      0x00\n        /* \"DeciCourt.sol\":6818:6828  bytes32(0) */\n      0x00\n      shl\n        /* \"DeciCourt.sol\":6776:6787  currentCase */\n      dup2\n        /* \"DeciCourt.sol\":6776:6802  currentCase.committedVotes */\n      0x07\n      add\n        /* \"DeciCourt.sol\":6776:6814  currentCase.committedVotes[msg.sender] */\n      0x00\n        /* \"DeciCourt.sol\":6803:6813  msg.sender */\n      caller\n        /* \"DeciCourt.sol\":6776:6814  currentCase.committedVotes[msg.sender] */\n      0xffffffffffffffffffffffffffffffffffffffff\n      and\n      0xffffffffffffffffffffffffffffffffffffffff\n      and\n      dup2\n      mstore\n      0x20\n      add\n      swap1\n      dup2\n      mstore\n      0x20\n      add\n      0x00\n      keccak256\n      sload\n        /* \"DeciCourt.sol\":6776:6828  currentCase.committedVotes[msg.sender] == bytes32(0) */\n      eq\n        /* \"DeciCourt.sol\":6768:6850  require(currentCase.committedVotes[msg.sender] == bytes32(0), \"Already committed\") */\n      tag_272\n      jumpi\n      mload(0x40)\n      0x08c379a000000000000000000000000000000000000000000000000000000000\n      dup2\n      mstore\n      0x04\n      add\n      tag_273\n      swap1\n      tag_274\n      jump\t// in\n    tag_273:\n      mload(0x40)\n      dup1\n      swap2\n      sub\n      swap1\n      revert\n    tag_272:\n        /* \"DeciCourt.sol\":6902:6911  _voteHash */\n      dup2\n        /* \"DeciCourt.sol\":6861:6872  currentCase */\n      dup2\n        /* \"DeciCourt.sol\":6861:6887  currentCase.committedVotes */\n      0x07\n      add\n        /* \"DeciCourt.sol\":6861:6899  currentCase.committedVotes[msg.sender] */\n      0x00\n        /* \"DeciCourt.sol\":6888:6898  msg.sender */\n      caller\n        /* \"DeciCourt.sol\":6861:6899  currentCase.committedVotes[msg.sender] */\n      0xffffffffffffffffffffffffffffffffffffffff\n      and\n      0xffffffffffffffffffffffffffffffffffffffff\n      and\n      dup2\n      mstore\n      0x20\n      add\n      swap1\n      dup2\n      mstore\n      0x20\n      add\n      0x00\n      keccak256\n        /* \"DeciCourt.sol\":6861:6911  currentCase.committedVotes[msg.sender] = _voteHash */\n      dup2\n      swap1\n      sstore\n      pop\n        /* \"DeciCourt.sol\":6949:6959  msg.sender */\n      caller\n        /* \"DeciCourt.sol\":6926:6960  VoteCommitted(_caseId, msg.sender) */\n      0xffffffffffffffffffffffffffffffffffffffff\n      and\n        /* \"DeciCourt.sol\":6940:6947  _caseId */\n      dup4\n        /* \"DeciCourt.sol\":6926:6960  VoteCommitted(_caseId, msg.sender) */\n      0x3834a2c8ea101e1468b529270d35fbff0a12de32a5a7e5729b8b4dad6fb32c01\n      mload(0x40)\n      mload(0x40)\n      dup1\n      swap2\n      sub\n      swap1\n      log3\n        /* \"DeciCourt.sol\":6452:6967  {... */\n      pop\n        /* \"DeciCourt.sol\":6387:6967  function commitVote(uint256 _caseId, bytes32 _voteHash) external {... */\n      pop\n      pop\n      jump\t// out\n        /* \"DeciCourt.sol\":1982:2015  IERC20 public immutable juryToken */\n    tag_59:\n      immutable(\"0xdf7c0ba7d2db638bc708436116cfd9aa4404715fd7f1b4176b0c05868146de8d\")\n      dup2\n      jump\t// out\n        /* \"DeciCourt.sol\":5242:6352  function createCase(address _defendant, string calldata _evidenceCID) external {... */\n    tag_65:\n        /* \"DeciCourt.sol\":5361:5362  0 */\n      0x00\n        /* \"DeciCourt.sol\":5339:5363  _defendant != address(0) */\n      0xffffffffffffffffffffffffffffffffffffffff\n      and\n        /* \"DeciCourt.sol\":5339:5349  _defendant */\n      dup4\n        /* \"DeciCourt.sol\":5339:5363  _defendant != address(0) */\n      0xffffffffffffffffffffffffffffffffffffffff\n      and\n      eq\n      iszero\n        /* \"DeciCourt.sol\":5339:5391  _defendant != address(0) && _defendant != msg.sender */\n      dup1\n      iszero\n      tag_276\n      jumpi\n      pop\n        /* \"DeciCourt.sol\":5381:5391  msg.sender */\n      caller\n        /* \"DeciCourt.sol\":5367:5391  _defendant != msg.sender */\n      0xffffffffffffffffffffffffffffffffffffffff\n      and\n        /* \"DeciCourt.sol\":5367:5377  _defendant */\n      dup4\n        /* \"DeciCourt.sol\":5367:5391  _defendant != msg.sender */\n      0xffffffffffffffffffffffffffffffffffffffff\n      and\n      eq\n      iszero\n        /* \"DeciCourt.sol\":5339:5391  _defendant != address(0) && _defendant != msg.sender */\n    tag_276:\n        /* \"DeciCourt.sol\":5331:5413  require(_defendant != address(0) && _defendant != msg.sender, \"Invalid defendant\") */\n      tag_277\n      jumpi\n      mload(0x40)\n      0x08c379a000000000000000000000000000000000000000000000000000000000\n      dup2\n      mstore\n      0x04\n      add\n      tag_278\n      swap1\n      tag_279\n      jump\t// in\n    tag_278:\n      mload(0x40)\n      dup1\n      swap2\n      sub\n      swap1\n      revert\n    tag_277:\n        /* \"DeciCourt.sol\":5451:5459  jurySize */\n      sload(0x03)\n        /* \"DeciCourt.sol\":5431:5440  jurorPool */\n      0x09\n        /* \"DeciCourt.sol\":5431:5447  jurorPool.length */\n      dup1\n      sload\n      swap1\n      pop\n        /* \"DeciCourt.sol\":5431:5459  jurorPool.length >= jurySize */\n      lt\n      iszero\n        /* \"DeciCourt.sol\":5423:5491  require(jurorPool.length >= jurySize, \"Not enough available jurors\") */\n      tag_280\n      jumpi\n      mload(0x40)\n      0x08c379a000000000000000000000000000000000000000000000000000000000\n      dup2\n      mstore\n      0x04\n      add\n      tag_281\n      swap1\n      tag_282\n      jump\t// in\n    tag_281:\n      mload(0x40)\n      dup1\n      swap2\n      sub\n      swap1\n      revert\n    tag_280:\n        /* \"DeciCourt.sol\":5529:5541  bool success */\n      0x00\n        /* \"DeciCourt.sol\":5544:5553  juryToken */\n      immutable(\"0xdf7c0ba7d2db638bc708436116cfd9aa4404715fd7f1b4176b0c05868146de8d\")\n        /* \"DeciCourt.sol\":5544:5566  juryToken.transferFrom */\n      0xffffffffffffffffffffffffffffffffffffffff\n      and\n      0x23b872dd\n        /* \"DeciCourt.sol\":5567:5577  msg.sender */\n      caller\n        /* \"DeciCourt.sol\":5587:5591  this */\n      address\n        /* \"DeciCourt.sol\":5594:5609  filingFeeAmount */\n      sload(0x01)\n        /* \"DeciCourt.sol\":5544:5610  juryToken.transferFrom(msg.sender, address(this), filingFeeAmount) */\n      mload(0x40)\n      dup5\n      0xffffffff\n      and\n      0xe0\n      shl\n      dup2\n      mstore\n      0x04\n      add\n      tag_283\n      swap4\n      swap3\n      swap2\n      swap1\n      tag_249\n      jump\t// in\n    tag_283:\n      0x20\n      mload(0x40)\n      dup1\n      dup4\n      sub\n      dup2\n      0x00\n      dup8\n      gas\n      call\n      iszero\n      dup1\n      iszero\n      tag_285\n      jumpi\n      returndatacopy(0x00, 0x00, returndatasize)\n      revert(0x00, returndatasize)\n    tag_285:\n      pop\n      pop\n      pop\n      pop\n      mload(0x40)\n      returndatasize\n      not(0x1f)\n      0x1f\n      dup3\n      add\n      and\n      dup3\n      add\n      dup1\n      0x40\n      mstore\n      pop\n      dup2\n      add\n      swap1\n      tag_286\n      swap2\n      swap1\n      tag_192\n      jump\t// in\n    tag_286:\n        /* \"DeciCourt.sol\":5529:5610  bool success = juryToken.transferFrom(msg.sender, address(this), filingFeeAmount) */\n      swap1\n      pop\n        /* \"DeciCourt.sol\":5628:5635  success */\n      dup1\n        /* \"DeciCourt.sol\":5620:5684  require(success, \"Filing fee transfer failed. Did you approve?\") */\n      tag_287\n      jumpi\n      mload(0x40)\n      0x08c379a000000000000000000000000000000000000000000000000000000000\n      dup2\n      mstore\n      0x04\n      add\n      tag_288\n      swap1\n      tag_289\n      jump\t// in\n    tag_288:\n      mload(0x40)\n      dup1\n      swap2\n      sub\n      swap1\n      revert\n    tag_287:\n        /* \"DeciCourt.sol\":5703:5717  uint256 caseId */\n      0x00\n        /* \"DeciCourt.sol\":5720:5730  nextCaseId */\n      0x07\n      0x00\n        /* \"DeciCourt.sol\":5720:5732  nextCaseId++ */\n      dup2\n      sload\n      dup1\n      swap3\n      swap2\n      swap1\n      tag_290\n      swap1\n      tag_128\n      jump\t// in\n    tag_290:\n      swap2\n      swap1\n      pop\n      sstore\n        /* \"DeciCourt.sol\":5703:5732  uint256 caseId = nextCaseId++ */\n      swap1\n      pop\n        /* \"DeciCourt.sol\":5742:5762  Case storage newCase */\n      0x00\n        /* \"DeciCourt.sol\":5765:5770  cases */\n      0x08\n        /* \"DeciCourt.sol\":5765:5778  cases[caseId] */\n      0x00\n        /* \"DeciCourt.sol\":5771:5777  caseId */\n      dup4\n        /* \"DeciCourt.sol\":5765:5778  cases[caseId] */\n      dup2\n      mstore\n      0x20\n      add\n      swap1\n      dup2\n      mstore\n      0x20\n      add\n      0x00\n      keccak256\n        /* \"DeciCourt.sol\":5742:5778  Case storage newCase = cases[caseId] */\n      swap1\n      pop\n        /* \"DeciCourt.sol\":5801:5807  caseId */\n      dup2\n        /* \"DeciCourt.sol\":5788:5795  newCase */\n      dup2\n        /* \"DeciCourt.sol\":5788:5798  newCase.id */\n      0x00\n      add\n        /* \"DeciCourt.sol\":5788:5807  newCase.id = caseId */\n      dup2\n      swap1\n      sstore\n      pop\n        /* \"DeciCourt.sol\":5837:5847  msg.sender */\n      caller\n        /* \"DeciCourt.sol\":5817:5824  newCase */\n      dup2\n        /* \"DeciCourt.sol\":5817:5834  newCase.plaintiff */\n      0x01\n      add\n      0x00\n        /* \"DeciCourt.sol\":5817:5847  newCase.plaintiff = msg.sender */\n      0x0100\n      exp\n      dup2\n      sload\n      dup2\n      0xffffffffffffffffffffffffffffffffffffffff\n      mul\n      not\n      and\n      swap1\n      dup4\n      0xffffffffffffffffffffffffffffffffffffffff\n      and\n      mul\n      or\n      swap1\n      sstore\n      pop\n        /* \"DeciCourt.sol\":5877:5887  _defendant */\n      dup6\n        /* \"DeciCourt.sol\":5857:5864  newCase */\n      dup2\n        /* \"DeciCourt.sol\":5857:5874  newCase.defendant */\n      0x02\n      add\n      0x00\n        /* \"DeciCourt.sol\":5857:5887  newCase.defendant = _defendant */\n      0x0100\n      exp\n      dup2\n      sload\n      dup2\n      0xffffffffffffffffffffffffffffffffffffffff\n      mul\n      not\n      and\n      swap1\n      dup4\n      0xffffffffffffffffffffffffffffffffffffffff\n      and\n      mul\n      or\n      swap1\n      sstore\n      pop\n        /* \"DeciCourt.sol\":5919:5931  _evidenceCID */\n      dup5\n      dup5\n        /* \"DeciCourt.sol\":5897:5904  newCase */\n      dup3\n        /* \"DeciCourt.sol\":5897:5916  newCase.evidenceCID */\n      0x03\n      add\n        /* \"DeciCourt.sol\":5897:5931  newCase.evidenceCID = _evidenceCID */\n      swap2\n      dup3\n      tag_291\n      swap3\n      swap2\n      swap1\n      tag_292\n      jump\t// in\n    tag_291:\n      pop\n        /* \"DeciCourt.sol\":5958:5975  CaseStatus.Voting */\n      0x01\n        /* \"DeciCourt.sol\":5941:5948  newCase */\n      dup2\n        /* \"DeciCourt.sol\":5941:5955  newCase.status */\n      0x04\n      add\n      0x00\n        /* \"DeciCourt.sol\":5941:5975  newCase.status = CaseStatus.Voting */\n      0x0100\n      exp\n      dup2\n      sload\n      dup2\n      0xff\n      mul\n      not\n      and\n      swap1\n      dup4\n      0x04\n      dup2\n      gt\n      iszero\n      tag_293\n      jumpi\n      tag_294\n      tag_88\n      jump\t// in\n    tag_294:\n    tag_293:\n      mul\n      or\n      swap1\n      sstore\n      pop\n        /* \"DeciCourt.sol\":6033:6048  filingFeeAmount */\n      sload(0x01)\n        /* \"DeciCourt.sol\":6013:6020  newCase */\n      dup2\n        /* \"DeciCourt.sol\":6013:6030  newCase.filingFee */\n      0x05\n      add\n        /* \"DeciCourt.sol\":6013:6048  newCase.filingFee = filingFeeAmount */\n      dup2\n      swap1\n      sstore\n      pop\n        /* \"DeciCourt.sol\":6081:6096  block.timestamp */\n      timestamp\n        /* \"DeciCourt.sol\":6058:6065  newCase */\n      dup2\n        /* \"DeciCourt.sol\":6058:6078  newCase.creationTime */\n      0x0b\n      add\n        /* \"DeciCourt.sol\":6058:6096  newCase.creationTime = block.timestamp */\n      dup2\n      swap1\n      sstore\n      pop\n        /* \"DeciCourt.sol\":6149:6163  commitDuration */\n      sload(0x04)\n        /* \"DeciCourt.sol\":6131:6146  block.timestamp */\n      timestamp\n        /* \"DeciCourt.sol\":6131:6163  block.timestamp + commitDuration */\n      tag_295\n      swap2\n      swap1\n      tag_296\n      jump\t// in\n    tag_295:\n        /* \"DeciCourt.sol\":6106:6113  newCase */\n      dup2\n        /* \"DeciCourt.sol\":6106:6128  newCase.commitDeadline */\n      0x0c\n      add\n        /* \"DeciCourt.sol\":6106:6163  newCase.commitDeadline = block.timestamp + commitDuration */\n      dup2\n      swap1\n      sstore\n      pop\n        /* \"DeciCourt.sol\":6223:6237  revealDuration */\n      sload(0x05)\n        /* \"DeciCourt.sol\":6198:6205  newCase */\n      dup2\n        /* \"DeciCourt.sol\":6198:6220  newCase.commitDeadline */\n      0x0c\n      add\n      sload\n        /* \"DeciCourt.sol\":6198:6237  newCase.commitDeadline + revealDuration */\n      tag_297\n      swap2\n      swap1\n      tag_296\n      jump\t// in\n    tag_297:\n        /* \"DeciCourt.sol\":6173:6180  newCase */\n      dup2\n        /* \"DeciCourt.sol\":6173:6195  newCase.revealDeadline */\n      0x0d\n      add\n        /* \"DeciCourt.sol\":6173:6237  newCase.revealDeadline = newCase.commitDeadline + revealDuration */\n      dup2\n      swap1\n      sstore\n      pop\n        /* \"DeciCourt.sol\":6248:6269  _assignJurors(caseId) */\n      tag_298\n        /* \"DeciCourt.sol\":6262:6268  caseId */\n      dup3\n        /* \"DeciCourt.sol\":6248:6261  _assignJurors */\n      tag_299\n        /* \"DeciCourt.sol\":6248:6269  _assignJurors(caseId) */\n      jump\t// in\n    tag_298:\n        /* \"DeciCourt.sol\":6317:6327  _defendant */\n      dup6\n        /* \"DeciCourt.sol\":6285:6345  CaseCreated(caseId, msg.sender, _defendant, filingFeeAmount) */\n      0xffffffffffffffffffffffffffffffffffffffff\n      and\n        /* \"DeciCourt.sol\":6305:6315  msg.sender */\n      caller\n        /* \"DeciCourt.sol\":6285:6345  CaseCreated(caseId, msg.sender, _defendant, filingFeeAmount) */\n      0xffffffffffffffffffffffffffffffffffffffff\n      and\n        /* \"DeciCourt.sol\":6297:6303  caseId */\n      dup4\n        /* \"DeciCourt.sol\":6285:6345  CaseCreated(caseId, msg.sender, _defendant, filingFeeAmount) */\n      0x5c5f5f5c62d8082bc010726f98db2630d9da2b426a6717bd67bfbd9e8e179638\n        /* \"DeciCourt.sol\":6329:6344  filingFeeAmount */\n      sload(0x01)\n        /* \"DeciCourt.sol\":6285:6345  CaseCreated(caseId, msg.sender, _defendant, filingFeeAmount) */\n      mload(0x40)\n      tag_300\n      swap2\n      swap1\n      tag_26\n      jump\t// in\n    tag_300:\n      mload(0x40)\n      dup1\n      swap2\n      sub\n      swap1\n      log4\n        /* \"DeciCourt.sol\":5321:6352  {... */\n      pop\n      pop\n      pop\n        /* \"DeciCourt.sol\":5242:6352  function createCase(address _defendant, string calldata _evidenceCID) external {... */\n      pop\n      pop\n      pop\n      jump\t// out\n        /* \"DeciCourt.sol\":2818:2865  mapping(address => JurorInfo) public jurorsInfo */\n    tag_69:\n      mstore(0x20, 0x0b)\n      dup1\n      0x00\n      mstore\n      keccak256(0x00, 0x40)\n      0x00\n      swap2\n      pop\n      swap1\n      pop\n      dup1\n      0x00\n      add\n      0x00\n      swap1\n      sload\n      swap1\n      0x0100\n      exp\n      swap1\n      div\n      0xff\n      and\n      swap1\n      dup1\n      0x01\n      add\n      sload\n      swap1\n      dup1\n      0x02\n      add\n      0x00\n      swap1\n      sload\n      swap1\n      0x0100\n      exp\n      swap1\n      div\n      0xff\n      and\n      swap1\n      pop\n      dup4\n      jump\t// out\n        /* \"DeciCourt.sol\":2166:2197  uint256 public jurorStakeAmount */\n    tag_73:\n      sload(0x02)\n      dup2\n      jump\t// out\n        /* \"DeciCourt.sol\":2611:2648  mapping(uint256 => Case) public cases */\n    tag_77:\n      mstore(0x20, 0x08)\n      dup1\n      0x00\n      mstore\n      keccak256(0x00, 0x40)\n      0x00\n      swap2\n      pop\n      swap1\n      pop\n      dup1\n      0x00\n      add\n      sload\n      swap1\n      dup1\n      0x01\n      add\n      0x00\n      swap1\n      sload\n      swap1\n      0x0100\n      exp\n      swap1\n      div\n      0xffffffffffffffffffffffffffffffffffffffff\n      and\n      swap1\n      dup1\n      0x02\n      add\n      0x00\n      swap1\n      sload\n      swap1\n      0x0100\n      exp\n      swap1\n      div\n      0xffffffffffffffffffffffffffffffffffffffff\n      and\n      swap1\n      dup1\n      0x03\n      add\n      dup1\n      sload\n      tag_301\n      swap1\n      tag_302\n      jump\t// in\n    tag_301:\n      dup1\n      0x1f\n      add\n      0x20\n      dup1\n      swap2\n      div\n      mul\n      0x20\n      add\n      mload(0x40)\n      swap1\n      dup2\n      add\n      0x40\n      mstore\n      dup1\n      swap3\n      swap2\n      swap1\n      dup2\n      dup2\n      mstore\n      0x20\n      add\n      dup3\n      dup1\n      sload\n      tag_303\n      swap1\n      tag_302\n      jump\t// in\n    tag_303:\n      dup1\n      iszero\n      tag_304\n      jumpi\n      dup1\n      0x1f\n      lt\n      tag_305\n      jumpi\n      0x0100\n      dup1\n      dup4\n      sload\n      div\n      mul\n      dup4\n      mstore\n      swap2\n      0x20\n      add\n      swap2\n      jump(tag_304)\n    tag_305:\n      dup3\n      add\n      swap2\n      swap1\n      0x00\n      mstore\n      keccak256(0x00, 0x20)\n      swap1\n    tag_306:\n      dup2\n      sload\n      dup2\n      mstore\n      swap1\n      0x01\n      add\n      swap1\n      0x20\n      add\n      dup1\n      dup4\n      gt\n      tag_306\n      jumpi\n      dup3\n      swap1\n      sub\n      0x1f\n      and\n      dup3\n      add\n      swap2\n    tag_304:\n      pop\n      pop\n      pop\n      pop\n      pop\n      swap1\n      dup1\n      0x04\n      add\n      0x00\n      swap1\n      sload\n      swap1\n      0x0100\n      exp\n      swap1\n      div\n      0xff\n      and\n      swap1\n      dup1\n      0x05\n      add\n      sload\n      swap1\n      dup1\n      0x09\n      add\n      sload\n      swap1\n      dup1\n      0x0a\n      add\n      sload\n      swap1\n      dup1\n      0x0b\n      add\n      sload\n      swap1\n      dup1\n      0x0c\n      add\n      sload\n      swap1\n      dup1\n      0x0d\n      add\n      sload\n      swap1\n      dup1\n      0x0e\n      add\n      0x00\n      swap1\n      sload\n      swap1\n      0x0100\n      exp\n      swap1\n      div\n      0xffffffffffffffffffffffffffffffffffffffff\n      and\n      swap1\n      pop\n      dup13\n      jump\t// out\n        /* \"DeciCourt.sol\":2655:2681  address[] public jurorPool */\n    tag_82:\n      0x09\n      dup2\n      dup2\n      sload\n      dup2\n      lt\n      tag_307\n      jumpi\n      0x00\n      dup1\n      revert\n    tag_307:\n      swap1\n      0x00\n      mstore\n      keccak256(0x00, 0x20)\n      add\n      0x00\n      swap2\n      pop\n      sload\n      swap1\n      0x0100\n      exp\n      swap1\n      div\n      0xffffffffffffffffffffffffffffffffffffffff\n      and\n      dup2\n      jump\t// out\n        /* \"DeciCourt.sol\":12518:12790  function _isJurorForCase(Case storage _case, address _addr) internal view returns (bool) {... */\n    tag_101:\n        /* \"DeciCourt.sol\":12601:12605  bool */\n      0x00\n        /* \"DeciCourt.sol\":12622:12628  uint i */\n      0x00\n        /* \"DeciCourt.sol\":12631:12632  0 */\n      0x00\n        /* \"DeciCourt.sol\":12622:12632  uint i = 0 */\n      swap1\n      pop\n        /* \"DeciCourt.sol\":12617:12762  for (uint i = 0; i < _case.jurors.length; i++) {... */\n    tag_310:\n        /* \"DeciCourt.sol\":12638:12643  _case */\n      dup4\n        /* \"DeciCourt.sol\":12638:12650  _case.jurors */\n      0x06\n      add\n        /* \"DeciCourt.sol\":12638:12657  _case.jurors.length */\n      dup1\n      sload\n      swap1\n      pop\n        /* \"DeciCourt.sol\":12634:12635  i */\n      dup2\n        /* \"DeciCourt.sol\":12634:12657  i < _case.jurors.length */\n      lt\n        /* \"DeciCourt.sol\":12617:12762  for (uint i = 0; i < _case.jurors.length; i++) {... */\n      iszero\n      tag_311\n      jumpi\n        /* \"DeciCourt.sol\":12701:12706  _addr */\n      dup3\n        /* \"DeciCourt.sol\":12682:12706  _case.jurors[i] == _addr */\n      0xffffffffffffffffffffffffffffffffffffffff\n      and\n        /* \"DeciCourt.sol\":12682:12687  _case */\n      dup5\n        /* \"DeciCourt.sol\":12682:12694  _case.jurors */\n      0x06\n      add\n        /* \"DeciCourt.sol\":12695:12696  i */\n      dup3\n        /* \"DeciCourt.sol\":12682:12697  _case.jurors[i] */\n      dup2\n      sload\n      dup2\n      lt\n      tag_313\n      jumpi\n      tag_314\n      tag_163\n      jump\t// in\n    tag_314:\n    tag_313:\n      swap1\n      0x00\n      mstore\n      keccak256(0x00, 0x20)\n      add\n      0x00\n      swap1\n      sload\n      swap1\n      0x0100\n      exp\n      swap1\n      div\n      0xffffffffffffffffffffffffffffffffffffffff\n      and\n        /* \"DeciCourt.sol\":12682:12706  _case.jurors[i] == _addr */\n      0xffffffffffffffffffffffffffffffffffffffff\n      and\n      sub\n        /* \"DeciCourt.sol\":12678:12752  if (_case.jurors[i] == _addr) {... */\n      tag_316\n      jumpi\n        /* \"DeciCourt.sol\":12733:12737  true */\n      0x01\n        /* \"DeciCourt.sol\":12726:12737  return true */\n      swap2\n      pop\n      pop\n      jump(tag_309)\n        /* \"DeciCourt.sol\":12678:12752  if (_case.jurors[i] == _addr) {... */\n    tag_316:\n        /* \"DeciCourt.sol\":12659:12662  i++ */\n      dup1\n      dup1\n      0x01\n      add\n      swap2\n      pop\n      pop\n        /* \"DeciCourt.sol\":12617:12762  for (uint i = 0; i < _case.jurors.length; i++) {... */\n      jump(tag_310)\n    tag_311:\n      pop\n        /* \"DeciCourt.sol\":12778:12783  false */\n      0x00\n        /* \"DeciCourt.sol\":12771:12783  return false */\n      swap1\n      pop\n        /* \"DeciCourt.sol\":12518:12790  function _isJurorForCase(Case storage _case, address _addr) internal view returns (bool) {... */\n    tag_309:\n      swap3\n      swap2\n      pop\n      pop\n      jump\t// out\n        /* \"@openzeppelin/contracts/security/ReentrancyGuard.sol\":2336:2623  function _nonReentrantBefore() private {... */\n    tag_140:\n        /* \"@openzeppelin/contracts/security/ReentrancyGuard.sol\":1759:1760  2 */\n      0x02\n        /* \"@openzeppelin/contracts/security/ReentrancyGuard.sol\":2468:2475  _status */\n      sload(0x00)\n        /* \"@openzeppelin/contracts/security/ReentrancyGuard.sol\":2468:2487  _status != _ENTERED */\n      sub\n        /* \"@openzeppelin/contracts/security/ReentrancyGuard.sol\":2460:2523  require(_status != _ENTERED, \"ReentrancyGuard: reentrant call\") */\n      tag_318\n      jumpi\n      mload(0x40)\n      0x08c379a000000000000000000000000000000000000000000000000000000000\n      dup2\n      mstore\n      0x04\n      add\n      tag_319\n      swap1\n      tag_320\n      jump\t// in\n    tag_319:\n      mload(0x40)\n      dup1\n      swap2\n      sub\n      swap1\n      revert\n    tag_318:\n        /* \"@openzeppelin/contracts/security/ReentrancyGuard.sol\":1759:1760  2 */\n      0x02\n        /* \"@openzeppelin/contracts/security/ReentrancyGuard.sol\":2598:2605  _status */\n      0x00\n        /* \"@openzeppelin/contracts/security/ReentrancyGuard.sol\":2598:2616  _status = _ENTERED */\n      dup2\n      swap1\n      sstore\n      pop\n        /* \"@openzeppelin/contracts/security/ReentrancyGuard.sol\":2336:2623  function _nonReentrantBefore() private {... */\n      jump\t// out\n        /* \"@openzeppelin/contracts/utils/math/SafeMath.sol\":3465:3561  function mul(uint256 a, uint256 b) internal pure returns (uint256) {... */\n    tag_174:\n        /* \"@openzeppelin/contracts/utils/math/SafeMath.sol\":3523:3530  uint256 */\n      0x00\n        /* \"@openzeppelin/contracts/utils/math/SafeMath.sol\":3553:3554  b */\n      dup2\n        /* \"@openzeppelin/contracts/utils/math/SafeMath.sol\":3549:3550  a */\n      dup4\n        /* \"@openzeppelin/contracts/utils/math/SafeMath.sol\":3549:3554  a * b */\n      tag_322\n      swap2\n      swap1\n      tag_323\n      jump\t// in\n    tag_322:\n        /* \"@openzeppelin/contracts/utils/math/SafeMath.sol\":3542:3554  return a * b */\n      swap1\n      pop\n        /* \"@openzeppelin/contracts/utils/math/SafeMath.sol\":3465:3561  function mul(uint256 a, uint256 b) internal pure returns (uint256) {... */\n      swap3\n      swap2\n      pop\n      pop\n      jump\t// out\n        /* \"@openzeppelin/contracts/utils/math/SafeMath.sol\":3850:3946  function div(uint256 a, uint256 b) internal pure returns (uint256) {... */\n    tag_175:\n        /* \"@openzeppelin/contracts/utils/math/SafeMath.sol\":3908:3915  uint256 */\n      0x00\n        /* \"@openzeppelin/contracts/utils/math/SafeMath.sol\":3938:3939  b */\n      dup2\n        /* \"@openzeppelin/contracts/utils/math/SafeMath.sol\":3934:3935  a */\n      dup4\n        /* \"@openzeppelin/contracts/utils/math/SafeMath.sol\":3934:3939  a / b */\n      tag_325\n      swap2\n      swap1\n      tag_326\n      jump\t// in\n    tag_325:\n        /* \"@openzeppelin/contracts/utils/math/SafeMath.sol\":3927:3939  return a / b */\n      swap1\n      pop\n        /* \"@openzeppelin/contracts/utils/math/SafeMath.sol\":3850:3946  function div(uint256 a, uint256 b) internal pure returns (uint256) {... */\n      swap3\n      swap2\n      pop\n      pop\n      jump\t// out\n        /* \"@openzeppelin/contracts/utils/math/SafeMath.sol\":3122:3218  function sub(uint256 a, uint256 b) internal pure returns (uint256) {... */\n    tag_177:\n        /* \"@openzeppelin/contracts/utils/math/SafeMath.sol\":3180:3187  uint256 */\n      0x00\n        /* \"@openzeppelin/contracts/utils/math/SafeMath.sol\":3210:3211  b */\n      dup2\n        /* \"@openzeppelin/contracts/utils/math/SafeMath.sol\":3206:3207  a */\n      dup4\n        /* \"@openzeppelin/contracts/utils/math/SafeMath.sol\":3206:3211  a - b */\n      tag_328\n      swap2\n      swap1\n      tag_226\n      jump\t// in\n    tag_328:\n        /* \"@openzeppelin/contracts/utils/math/SafeMath.sol\":3199:3211  return a - b */\n      swap1\n      pop\n        /* \"@openzeppelin/contracts/utils/math/SafeMath.sol\":3122:3218  function sub(uint256 a, uint256 b) internal pure returns (uint256) {... */\n      swap3\n      swap2\n      pop\n      pop\n      jump\t// out\n        /* \"@openzeppelin/contracts/utils/math/SafeMath.sol\":2755:2851  function add(uint256 a, uint256 b) internal pure returns (uint256) {... */\n    tag_179:\n        /* \"@openzeppelin/contracts/utils/math/SafeMath.sol\":2813:2820  uint256 */\n      0x00\n        /* \"@openzeppelin/contracts/utils/math/SafeMath.sol\":2843:2844  b */\n      dup2\n        /* \"@openzeppelin/contracts/utils/math/SafeMath.sol\":2839:2840  a */\n      dup4\n        /* \"@openzeppelin/contracts/utils/math/SafeMath.sol\":2839:2844  a + b */\n      tag_330\n      swap2\n      swap1\n      tag_296\n      jump\t// in\n    tag_330:\n        /* \"@openzeppelin/contracts/utils/math/SafeMath.sol\":2832:2844  return a + b */\n      swap1\n      pop\n        /* \"@openzeppelin/contracts/utils/math/SafeMath.sol\":2755:2851  function add(uint256 a, uint256 b) internal pure returns (uint256) {... */\n      swap3\n      swap2\n      pop\n      pop\n      jump\t// out\n        /* \"@openzeppelin/contracts/security/ReentrancyGuard.sol\":2629:2838  function _nonReentrantAfter() private {... */\n    tag_217:\n        /* \"@openzeppelin/contracts/security/ReentrancyGuard.sol\":1716:1717  1 */\n      0x01\n        /* \"@openzeppelin/contracts/security/ReentrancyGuard.sol\":2809:2816  _status */\n      0x00\n        /* \"@openzeppelin/contracts/security/ReentrancyGuard.sol\":2809:2831  _status = _NOT_ENTERED */\n      dup2\n      swap1\n      sstore\n      pop\n        /* \"@openzeppelin/contracts/security/ReentrancyGuard.sol\":2629:2838  function _nonReentrantAfter() private {... */\n      jump\t// out\n        /* \"DeciCourt.sol\":11513:12428  function _assignJurors(uint256 _caseId) internal {... */\n    tag_299:\n        /* \"DeciCourt.sol\":11572:11596  Case storage currentCase */\n      0x00\n        /* \"DeciCourt.sol\":11599:11604  cases */\n      0x08\n        /* \"DeciCourt.sol\":11599:11613  cases[_caseId] */\n      0x00\n        /* \"DeciCourt.sol\":11605:11612  _caseId */\n      dup4\n        /* \"DeciCourt.sol\":11599:11613  cases[_caseId] */\n      dup2\n      mstore\n      0x20\n      add\n      swap1\n      dup2\n      mstore\n      0x20\n      add\n      0x00\n      keccak256\n        /* \"DeciCourt.sol\":11572:11613  Case storage currentCase = cases[_caseId] */\n      swap1\n      pop\n        /* \"DeciCourt.sol\":11623:11655  address[] memory availableJurors */\n      0x00\n        /* \"DeciCourt.sol\":11658:11667  jurorPool */\n      0x09\n        /* \"DeciCourt.sol\":11623:11667  address[] memory availableJurors = jurorPool */\n      dup1\n      sload\n      dup1\n      0x20\n      mul\n      0x20\n      add\n      mload(0x40)\n      swap1\n      dup2\n      add\n      0x40\n      mstore\n      dup1\n      swap3\n      swap2\n      swap1\n      dup2\n      dup2\n      mstore\n      0x20\n      add\n      dup3\n      dup1\n      sload\n      dup1\n      iszero\n      tag_333\n      jumpi\n      0x20\n      mul\n      dup3\n      add\n      swap2\n      swap1\n      0x00\n      mstore\n      keccak256(0x00, 0x20)\n      swap1\n    tag_334:\n      dup2\n      0x00\n      swap1\n      sload\n      swap1\n      0x0100\n      exp\n      swap1\n      div\n      0xffffffffffffffffffffffffffffffffffffffff\n      and\n      0xffffffffffffffffffffffffffffffffffffffff\n      and\n      dup2\n      mstore\n      0x20\n      add\n      swap1\n      0x01\n      add\n      swap1\n      dup1\n      dup4\n      gt\n      tag_334\n      jumpi\n    tag_333:\n      pop\n      pop\n      pop\n      pop\n      pop\n      swap1\n      pop\n        /* \"DeciCourt.sol\":11677:11693  uint256 poolSize */\n      0x00\n        /* \"DeciCourt.sol\":11696:11711  availableJurors */\n      dup2\n        /* \"DeciCourt.sol\":11696:11718  availableJurors.length */\n      mload\n        /* \"DeciCourt.sol\":11677:11718  uint256 poolSize = availableJurors.length */\n      swap1\n      pop\n        /* \"DeciCourt.sol\":11742:11748  uint i */\n      0x00\n        /* \"DeciCourt.sol\":11751:11752  0 */\n      0x00\n        /* \"DeciCourt.sol\":11742:11752  uint i = 0 */\n      swap1\n      pop\n        /* \"DeciCourt.sol\":11737:12422  for (uint i = 0; i < jurySize; i++) {... */\n    tag_335:\n        /* \"DeciCourt.sol\":11758:11766  jurySize */\n      sload(0x03)\n        /* \"DeciCourt.sol\":11754:11755  i */\n      dup2\n        /* \"DeciCourt.sol\":11754:11766  i < jurySize */\n      lt\n        /* \"DeciCourt.sol\":11737:12422  for (uint i = 0; i < jurySize; i++) {... */\n      iszero\n      tag_336\n      jumpi\n        /* \"DeciCourt.sol\":11851:11863  uint256 rand */\n      0x00\n        /* \"DeciCourt.sol\":11901:11916  block.timestamp */\n      timestamp\n        /* \"DeciCourt.sol\":11918:11934  block.prevrandao */\n      prevrandao\n        /* \"DeciCourt.sol\":11936:11943  _caseId */\n      dup8\n        /* \"DeciCourt.sol\":11945:11946  i */\n      dup5\n        /* \"DeciCourt.sol\":11884:11947  abi.encodePacked(block.timestamp, block.prevrandao, _caseId, i) */\n      add(0x20, mload(0x40))\n      tag_338\n      swap5\n      swap4\n      swap3\n      swap2\n      swap1\n      tag_339\n      jump\t// in\n    tag_338:\n      mload(0x40)\n      0x20\n      dup2\n      dup4\n      sub\n      sub\n      dup2\n      mstore\n      swap1\n      0x40\n      mstore\n        /* \"DeciCourt.sol\":11874:11948  keccak256(abi.encodePacked(block.timestamp, block.prevrandao, _caseId, i)) */\n      dup1\n      mload\n      swap1\n      0x20\n      add\n      keccak256\n        /* \"DeciCourt.sol\":11866:11949  uint256(keccak256(abi.encodePacked(block.timestamp, block.prevrandao, _caseId, i))) */\n      0x00\n      shr\n        /* \"DeciCourt.sol\":11851:11949  uint256 rand = uint256(keccak256(abi.encodePacked(block.timestamp, block.prevrandao, _caseId, i))) */\n      swap1\n      pop\n        /* \"DeciCourt.sol\":11963:11982  uint256 randomIndex */\n      0x00\n        /* \"DeciCourt.sol\":11992:12000  poolSize */\n      dup4\n        /* \"DeciCourt.sol\":11985:11989  rand */\n      dup3\n        /* \"DeciCourt.sol\":11985:12000  rand % poolSize */\n      tag_340\n      swap2\n      swap1\n      tag_341\n      jump\t// in\n    tag_340:\n        /* \"DeciCourt.sol\":11963:12000  uint256 randomIndex = rand % poolSize */\n      swap1\n      pop\n        /* \"DeciCourt.sol\":12027:12048  address selectedJuror */\n      0x00\n        /* \"DeciCourt.sol\":12051:12066  availableJurors */\n      dup6\n        /* \"DeciCourt.sol\":12067:12078  randomIndex */\n      dup3\n        /* \"DeciCourt.sol\":12051:12079  availableJurors[randomIndex] */\n      dup2\n      mload\n      dup2\n      lt\n      tag_342\n      jumpi\n      tag_343\n      tag_163\n      jump\t// in\n    tag_343:\n    tag_342:\n      0x20\n      mul\n      0x20\n      add\n      add\n      mload\n        /* \"DeciCourt.sol\":12027:12079  address selectedJuror = availableJurors[randomIndex] */\n      swap1\n      pop\n        /* \"DeciCourt.sol\":12174:12217  _isJurorForCase(currentCase, selectedJuror) */\n      tag_344\n        /* \"DeciCourt.sol\":12190:12201  currentCase */\n      dup8\n        /* \"DeciCourt.sol\":12203:12216  selectedJuror */\n      dup3\n        /* \"DeciCourt.sol\":12174:12189  _isJurorForCase */\n      tag_101\n        /* \"DeciCourt.sol\":12174:12217  _isJurorForCase(currentCase, selectedJuror) */\n      jump\t// in\n    tag_344:\n        /* \"DeciCourt.sol\":12170:12303  if (_isJurorForCase(currentCase, selectedJuror)) {... */\n      iszero\n      tag_345\n      jumpi\n        /* \"DeciCourt.sol\":12237:12240  i-- */\n      dup4\n      dup1\n      tag_346\n      swap1\n      tag_347\n      jump\t// in\n    tag_346:\n      swap5\n      pop\n      pop\n        /* \"DeciCourt.sol\":12280:12288  continue */\n      pop\n      pop\n      pop\n      jump(tag_337)\n        /* \"DeciCourt.sol\":12170:12303  if (_isJurorForCase(currentCase, selectedJuror)) {... */\n    tag_345:\n        /* \"DeciCourt.sol\":12317:12328  currentCase */\n      dup7\n        /* \"DeciCourt.sol\":12317:12335  currentCase.jurors */\n      0x06\n      add\n        /* \"DeciCourt.sol\":12341:12354  selectedJuror */\n      dup2\n        /* \"DeciCourt.sol\":12317:12355  currentCase.jurors.push(selectedJuror) */\n      swap1\n      dup1\n      0x01\n      dup2\n      sload\n      add\n      dup1\n      dup3\n      sstore\n      dup1\n      swap2\n      pop\n      pop\n      0x01\n      swap1\n      sub\n      swap1\n      0x00\n      mstore\n      keccak256(0x00, 0x20)\n      add\n      0x00\n      swap1\n      swap2\n      swap1\n      swap2\n      swap1\n      swap2\n      0x0100\n      exp\n      dup2\n      sload\n      dup2\n      0xffffffffffffffffffffffffffffffffffffffff\n      mul\n      not\n      and\n      swap1\n      dup4\n      0xffffffffffffffffffffffffffffffffffffffff\n      and\n      mul\n      or\n      swap1\n      sstore\n      pop\n        /* \"DeciCourt.sol\":12407:12411  true */\n      0x01\n        /* \"DeciCourt.sol\":12369:12379  jurorsInfo */\n      0x0b\n        /* \"DeciCourt.sol\":12369:12394  jurorsInfo[selectedJuror] */\n      0x00\n        /* \"DeciCourt.sol\":12380:12393  selectedJuror */\n      dup4\n        /* \"DeciCourt.sol\":12369:12394  jurorsInfo[selectedJuror] */\n      0xffffffffffffffffffffffffffffffffffffffff\n      and\n      0xffffffffffffffffffffffffffffffffffffffff\n      and\n      dup2\n      mstore\n      0x20\n      add\n      swap1\n      dup2\n      mstore\n      0x20\n      add\n      0x00\n      keccak256\n        /* \"DeciCourt.sol\":12369:12404  jurorsInfo[selectedJuror].isServing */\n      0x02\n      add\n      0x00\n        /* \"DeciCourt.sol\":12369:12411  jurorsInfo[selectedJuror].isServing = true */\n      0x0100\n      exp\n      dup2\n      sload\n      dup2\n      0xff\n      mul\n      not\n      and\n      swap1\n      dup4\n      iszero\n      iszero\n      mul\n      or\n      swap1\n      sstore\n      pop\n        /* \"DeciCourt.sol\":11773:12422  {... */\n      pop\n      pop\n      pop\n        /* \"DeciCourt.sol\":11737:12422  for (uint i = 0; i < jurySize; i++) {... */\n    tag_337:\n        /* \"DeciCourt.sol\":11768:11771  i++ */\n      dup1\n      dup1\n      tag_349\n      swap1\n      tag_128\n      jump\t// in\n    tag_349:\n      swap2\n      pop\n      pop\n        /* \"DeciCourt.sol\":11737:12422  for (uint i = 0; i < jurySize; i++) {... */\n      jump(tag_335)\n    tag_336:\n      pop\n        /* \"DeciCourt.sol\":11562:12428  {... */\n      pop\n      pop\n      pop\n        /* \"DeciCourt.sol\":11513:12428  function _assignJurors(uint256 _caseId) internal {... */\n      pop\n      jump\t// out\n        /* \"#utility.yul\":7:84   */\n    tag_350:\n        /* \"#utility.yul\":44:51   */\n      0x00\n        /* \"#utility.yul\":73:78   */\n      dup2\n        /* \"#utility.yul\":62:78   */\n      swap1\n      pop\n        /* \"#utility.yul\":7:84   */\n      swap2\n      swap1\n      pop\n      jump\t// out\n        /* \"#utility.yul\":90:208   */\n    tag_351:\n        /* \"#utility.yul\":177:201   */\n      tag_462\n        /* \"#utility.yul\":195:200   */\n      dup2\n        /* \"#utility.yul\":177:201   */\n      tag_350\n      jump\t// in\n    tag_462:\n        /* \"#utility.yul\":172:175   */\n      dup3\n        /* \"#utility.yul\":165:202   */\n      mstore\n        /* \"#utility.yul\":90:208   */\n      pop\n      pop\n      jump\t// out\n        /* \"#utility.yul\":214:436   */\n    tag_26:\n        /* \"#utility.yul\":307:311   */\n      0x00\n        /* \"#utility.yul\":345:347   */\n      0x20\n        /* \"#utility.yul\":334:343   */\n      dup3\n        /* \"#utility.yul\":330:348   */\n      add\n        /* \"#utility.yul\":322:348   */\n      swap1\n      pop\n        /* \"#utility.yul\":358:429   */\n      tag_464\n        /* \"#utility.yul\":426:427   */\n      0x00\n        /* \"#utility.yul\":415:424   */\n      dup4\n        /* \"#utility.yul\":411:428   */\n      add\n        /* \"#utility.yul\":402:408   */\n      dup5\n        /* \"#utility.yul\":358:429   */\n      tag_351\n      jump\t// in\n    tag_464:\n        /* \"#utility.yul\":214:436   */\n      swap3\n      swap2\n      pop\n      pop\n      jump\t// out\n        /* \"#utility.yul\":523:640   */\n    tag_353:\n        /* \"#utility.yul\":632:633   */\n      0x00\n        /* \"#utility.yul\":629:630   */\n      0x00\n        /* \"#utility.yul\":622:634   */\n      revert\n        /* \"#utility.yul\":646:763   */\n    tag_354:\n        /* \"#utility.yul\":755:756   */\n      0x00\n        /* \"#utility.yul\":752:753   */\n      0x00\n        /* \"#utility.yul\":745:757   */\n      revert\n        /* \"#utility.yul\":769:891   */\n    tag_355:\n        /* \"#utility.yul\":842:866   */\n      tag_469\n        /* \"#utility.yul\":860:865   */\n      dup2\n        /* \"#utility.yul\":842:866   */\n      tag_350\n      jump\t// in\n    tag_469:\n        /* \"#utility.yul\":835:840   */\n      dup2\n        /* \"#utility.yul\":832:867   */\n      eq\n        /* \"#utility.yul\":822:885   */\n      tag_470\n      jumpi\n        /* \"#utility.yul\":881:882   */\n      0x00\n        /* \"#utility.yul\":878:879   */\n      0x00\n        /* \"#utility.yul\":871:883   */\n      revert\n        /* \"#utility.yul\":822:885   */\n    tag_470:\n        /* \"#utility.yul\":769:891   */\n      pop\n      jump\t// out\n        /* \"#utility.yul\":897:1036   */\n    tag_356:\n        /* \"#utility.yul\":943:948   */\n      0x00\n        /* \"#utility.yul\":981:987   */\n      dup2\n        /* \"#utility.yul\":968:988   */\n      calldataload\n        /* \"#utility.yul\":959:988   */\n      swap1\n      pop\n        /* \"#utility.yul\":997:1030   */\n      tag_472\n        /* \"#utility.yul\":1024:1029   */\n      dup2\n        /* \"#utility.yul\":997:1030   */\n      tag_355\n      jump\t// in\n    tag_472:\n        /* \"#utility.yul\":897:1036   */\n      swap3\n      swap2\n      pop\n      pop\n      jump\t// out\n        /* \"#utility.yul\":1042:1155   */\n    tag_357:\n        /* \"#utility.yul\":1129:1130   */\n      0x03\n        /* \"#utility.yul\":1122:1127   */\n      dup2\n        /* \"#utility.yul\":1119:1131   */\n      lt\n        /* \"#utility.yul\":1109:1149   */\n      tag_474\n      jumpi\n        /* \"#utility.yul\":1145:1146   */\n      0x00\n        /* \"#utility.yul\":1142:1143   */\n      0x00\n        /* \"#utility.yul\":1135:1147   */\n      revert\n        /* \"#utility.yul\":1109:1149   */\n    tag_474:\n        /* \"#utility.yul\":1042:1155   */\n      pop\n      jump\t// out\n        /* \"#utility.yul\":1161:1328   */\n    tag_358:\n        /* \"#utility.yul\":1221:1226   */\n      0x00\n        /* \"#utility.yul\":1259:1265   */\n      dup2\n        /* \"#utility.yul\":1246:1266   */\n      calldataload\n        /* \"#utility.yul\":1237:1266   */\n      swap1\n      pop\n        /* \"#utility.yul\":1275:1322   */\n      tag_476\n        /* \"#utility.yul\":1316:1321   */\n      dup2\n        /* \"#utility.yul\":1275:1322   */\n      tag_357\n      jump\t// in\n    tag_476:\n        /* \"#utility.yul\":1161:1328   */\n      swap3\n      swap2\n      pop\n      pop\n      jump\t// out\n        /* \"#utility.yul\":1334:1411   */\n    tag_359:\n        /* \"#utility.yul\":1371:1378   */\n      0x00\n        /* \"#utility.yul\":1400:1405   */\n      dup2\n        /* \"#utility.yul\":1389:1405   */\n      swap1\n      pop\n        /* \"#utility.yul\":1334:1411   */\n      swap2\n      swap1\n      pop\n      jump\t// out\n        /* \"#utility.yul\":1417:1539   */\n    tag_360:\n        /* \"#utility.yul\":1490:1514   */\n      tag_479\n        /* \"#utility.yul\":1508:1513   */\n      dup2\n        /* \"#utility.yul\":1490:1514   */\n      tag_359\n      jump\t// in\n    tag_479:\n        /* \"#utility.yul\":1483:1488   */\n      dup2\n        /* \"#utility.yul\":1480:1515   */\n      eq\n        /* \"#utility.yul\":1470:1533   */\n      tag_480\n      jumpi\n        /* \"#utility.yul\":1529:1530   */\n      0x00\n        /* \"#utility.yul\":1526:1527   */\n      0x00\n        /* \"#utility.yul\":1519:1531   */\n      revert\n        /* \"#utility.yul\":1470:1533   */\n    tag_480:\n        /* \"#utility.yul\":1417:1539   */\n      pop\n      jump\t// out\n        /* \"#utility.yul\":1545:1684   */\n    tag_361:\n        /* \"#utility.yul\":1591:1596   */\n      0x00\n        /* \"#utility.yul\":1629:1635   */\n      dup2\n        /* \"#utility.yul\":1616:1636   */\n      calldataload\n        /* \"#utility.yul\":1607:1636   */\n      swap1\n      pop\n        /* \"#utility.yul\":1645:1678   */\n      tag_482\n        /* \"#utility.yul\":1672:1677   */\n      dup2\n        /* \"#utility.yul\":1645:1678   */\n      tag_360\n      jump\t// in\n    tag_482:\n        /* \"#utility.yul\":1545:1684   */\n      swap3\n      swap2\n      pop\n      pop\n      jump\t// out\n        /* \"#utility.yul\":1690:2337   */\n    tag_29:\n        /* \"#utility.yul\":1781:1787   */\n      0x00\n        /* \"#utility.yul\":1789:1795   */\n      0x00\n        /* \"#utility.yul\":1797:1803   */\n      0x00\n        /* \"#utility.yul\":1846:1848   */\n      0x60\n        /* \"#utility.yul\":1834:1843   */\n      dup5\n        /* \"#utility.yul\":1825:1832   */\n      dup7\n        /* \"#utility.yul\":1821:1844   */\n      sub\n        /* \"#utility.yul\":1817:1849   */\n      slt\n        /* \"#utility.yul\":1814:1933   */\n      iszero\n      tag_484\n      jumpi\n        /* \"#utility.yul\":1852:1931   */\n      tag_485\n      tag_353\n      jump\t// in\n    tag_485:\n        /* \"#utility.yul\":1814:1933   */\n    tag_484:\n        /* \"#utility.yul\":1972:1973   */\n      0x00\n        /* \"#utility.yul\":1997:2050   */\n      tag_486\n        /* \"#utility.yul\":2042:2049   */\n      dup7\n        /* \"#utility.yul\":2033:2039   */\n      dup3\n        /* \"#utility.yul\":2022:2031   */\n      dup8\n        /* \"#utility.yul\":2018:2040   */\n      add\n        /* \"#utility.yul\":1997:2050   */\n      tag_356\n      jump\t// in\n    tag_486:\n        /* \"#utility.yul\":1987:2050   */\n      swap4\n      pop\n        /* \"#utility.yul\":1943:2060   */\n      pop\n        /* \"#utility.yul\":2099:2101   */\n      0x20\n        /* \"#utility.yul\":2125:2192   */\n      tag_487\n        /* \"#utility.yul\":2184:2191   */\n      dup7\n        /* \"#utility.yul\":2175:2181   */\n      dup3\n        /* \"#utility.yul\":2164:2173   */\n      dup8\n        /* \"#utility.yul\":2160:2182   */\n      add\n        /* \"#utility.yul\":2125:2192   */\n      tag_358\n      jump\t// in\n    tag_487:\n        /* \"#utility.yul\":2115:2192   */\n      swap3\n      pop\n        /* \"#utility.yul\":2070:2202   */\n      pop\n        /* \"#utility.yul\":2241:2243   */\n      0x40\n        /* \"#utility.yul\":2267:2320   */\n      tag_488\n        /* \"#utility.yul\":2312:2319   */\n      dup7\n        /* \"#utility.yul\":2303:2309   */\n      dup3\n        /* \"#utility.yul\":2292:2301   */\n      dup8\n        /* \"#utility.yul\":2288:2310   */\n      add\n        /* \"#utility.yul\":2267:2320   */\n      tag_361\n      jump\t// in\n    tag_488:\n        /* \"#utility.yul\":2257:2320   */\n      swap2\n      pop\n        /* \"#utility.yul\":2212:2330   */\n      pop\n        /* \"#utility.yul\":1690:2337   */\n      swap3\n      pop\n      swap3\n      pop\n      swap3\n      jump\t// out\n        /* \"#utility.yul\":2343:2672   */\n    tag_33:\n        /* \"#utility.yul\":2402:2408   */\n      0x00\n        /* \"#utility.yul\":2451:2453   */\n      0x20\n        /* \"#utility.yul\":2439:2448   */\n      dup3\n        /* \"#utility.yul\":2430:2437   */\n      dup5\n        /* \"#utility.yul\":2426:2449   */\n      sub\n        /* \"#utility.yul\":2422:2454   */\n      slt\n        /* \"#utility.yul\":2419:2538   */\n      iszero\n      tag_490\n      jumpi\n        /* \"#utility.yul\":2457:2536   */\n      tag_491\n      tag_353\n      jump\t// in\n    tag_491:\n        /* \"#utility.yul\":2419:2538   */\n    tag_490:\n        /* \"#utility.yul\":2577:2578   */\n      0x00\n        /* \"#utility.yul\":2602:2655   */\n      tag_492\n        /* \"#utility.yul\":2647:2654   */\n      dup5\n        /* \"#utility.yul\":2638:2644   */\n      dup3\n        /* \"#utility.yul\":2627:2636   */\n      dup6\n        /* \"#utility.yul\":2623:2645   */\n      add\n        /* \"#utility.yul\":2602:2655   */\n      tag_356\n      jump\t// in\n    tag_492:\n        /* \"#utility.yul\":2592:2655   */\n      swap2\n      pop\n        /* \"#utility.yul\":2548:2665   */\n      pop\n        /* \"#utility.yul\":2343:2672   */\n      swap3\n      swap2\n      pop\n      pop\n      jump\t// out\n        /* \"#utility.yul\":2678:3152   */\n    tag_56:\n        /* \"#utility.yul\":2746:2752   */\n      0x00\n        /* \"#utility.yul\":2754:2760   */\n      0x00\n        /* \"#utility.yul\":2803:2805   */\n      0x40\n        /* \"#utility.yul\":2791:2800   */\n      dup4\n        /* \"#utility.yul\":2782:2789   */\n      dup6\n        /* \"#utility.yul\":2778:2801   */\n      sub\n        /* \"#utility.yul\":2774:2806   */\n      slt\n        /* \"#utility.yul\":2771:2890   */\n      iszero\n      tag_494\n      jumpi\n        /* \"#utility.yul\":2809:2888   */\n      tag_495\n      tag_353\n      jump\t// in\n    tag_495:\n        /* \"#utility.yul\":2771:2890   */\n    tag_494:\n        /* \"#utility.yul\":2929:2930   */\n      0x00\n        /* \"#utility.yul\":2954:3007   */\n      tag_496\n        /* \"#utility.yul\":2999:3006   */\n      dup6\n        /* \"#utility.yul\":2990:2996   */\n      dup3\n        /* \"#utility.yul\":2979:2988   */\n      dup7\n        /* \"#utility.yul\":2975:2997   */\n      add\n        /* \"#utility.yul\":2954:3007   */\n      tag_356\n      jump\t// in\n    tag_496:\n        /* \"#utility.yul\":2944:3007   */\n      swap3\n      pop\n        /* \"#utility.yul\":2900:3017   */\n      pop\n        /* \"#utility.yul\":3056:3058   */\n      0x20\n        /* \"#utility.yul\":3082:3135   */\n      tag_497\n        /* \"#utility.yul\":3127:3134   */\n      dup6\n        /* \"#utility.yul\":3118:3124   */\n      dup3\n        /* \"#utility.yul\":3107:3116   */\n      dup7\n        /* \"#utility.yul\":3103:3125   */\n      add\n        /* \"#utility.yul\":3082:3135   */\n      tag_361\n      jump\t// in\n    tag_497:\n        /* \"#utility.yul\":3072:3135   */\n      swap2\n      pop\n        /* \"#utility.yul\":3027:3145   */\n      pop\n        /* \"#utility.yul\":2678:3152   */\n      swap3\n      pop\n      swap3\n      swap1\n      pop\n      jump\t// out\n        /* \"#utility.yul\":3158:3284   */\n    tag_362:\n        /* \"#utility.yul\":3195:3202   */\n      0x00\n        /* \"#utility.yul\":3235:3277   */\n      0xffffffffffffffffffffffffffffffffffffffff\n        /* \"#utility.yul\":3228:3233   */\n      dup3\n        /* \"#utility.yul\":3224:3278   */\n      and\n        /* \"#utility.yul\":3213:3278   */\n      swap1\n      pop\n        /* \"#utility.yul\":3158:3284   */\n      swap2\n      swap1\n      pop\n      jump\t// out\n        /* \"#utility.yul\":3290:3350   */\n    tag_363:\n        /* \"#utility.yul\":3318:3321   */\n      0x00\n        /* \"#utility.yul\":3339:3344   */\n      dup2\n        /* \"#utility.yul\":3332:3344   */\n      swap1\n      pop\n        /* \"#utility.yul\":3290:3350   */\n      swap2\n      swap1\n      pop\n      jump\t// out\n        /* \"#utility.yul\":3356:3498   */\n    tag_364:\n        /* \"#utility.yul\":3406:3415   */\n      0x00\n        /* \"#utility.yul\":3439:3492   */\n      tag_501\n        /* \"#utility.yul\":3457:3491   */\n      tag_502\n        /* \"#utility.yul\":3466:3490   */\n      tag_503\n        /* \"#utility.yul\":3484:3489   */\n      dup5\n        /* \"#utility.yul\":3466:3490   */\n      tag_362\n      jump\t// in\n    tag_503:\n        /* \"#utility.yul\":3457:3491   */\n      tag_363\n      jump\t// in\n    tag_502:\n        /* \"#utility.yul\":3439:3492   */\n      tag_362\n      jump\t// in\n    tag_501:\n        /* \"#utility.yul\":3426:3492   */\n      swap1\n      pop\n        /* \"#utility.yul\":3356:3498   */\n      swap2\n      swap1\n      pop\n      jump\t// out\n        /* \"#utility.yul\":3504:3630   */\n    tag_365:\n        /* \"#utility.yul\":3554:3563   */\n      0x00\n        /* \"#utility.yul\":3587:3624   */\n      tag_505\n        /* \"#utility.yul\":3618:3623   */\n      dup3\n        /* \"#utility.yul\":3587:3624   */\n      tag_364\n      jump\t// in\n    tag_505:\n        /* \"#utility.yul\":3574:3624   */\n      swap1\n      pop\n        /* \"#utility.yul\":3504:3630   */\n      swap2\n      swap1\n      pop\n      jump\t// out\n        /* \"#utility.yul\":3636:3776   */\n    tag_366:\n        /* \"#utility.yul\":3700:3709   */\n      0x00\n        /* \"#utility.yul\":3733:3770   */\n      tag_507\n        /* \"#utility.yul\":3764:3769   */\n      dup3\n        /* \"#utility.yul\":3733:3770   */\n      tag_365\n      jump\t// in\n    tag_507:\n        /* \"#utility.yul\":3720:3770   */\n      swap1\n      pop\n        /* \"#utility.yul\":3636:3776   */\n      swap2\n      swap1\n      pop\n      jump\t// out\n        /* \"#utility.yul\":3782:3941   */\n    tag_367:\n        /* \"#utility.yul\":3883:3934   */\n      tag_509\n        /* \"#utility.yul\":3928:3933   */\n      dup2\n        /* \"#utility.yul\":3883:3934   */\n      tag_366\n      jump\t// in\n    tag_509:\n        /* \"#utility.yul\":3878:3881   */\n      dup3\n        /* \"#utility.yul\":3871:3935   */\n      mstore\n        /* \"#utility.yul\":3782:3941   */\n      pop\n      pop\n      jump\t// out\n        /* \"#utility.yul\":3947:4197   */\n    tag_61:\n        /* \"#utility.yul\":4054:4058   */\n      0x00\n        /* \"#utility.yul\":4092:4094   */\n      0x20\n        /* \"#utility.yul\":4081:4090   */\n      dup3\n        /* \"#utility.yul\":4077:4095   */\n      add\n        /* \"#utility.yul\":4069:4095   */\n      swap1\n      pop\n        /* \"#utility.yul\":4105:4190   */\n      tag_511\n        /* \"#utility.yul\":4187:4188   */\n      0x00\n        /* \"#utility.yul\":4176:4185   */\n      dup4\n        /* \"#utility.yul\":4172:4189   */\n      add\n        /* \"#utility.yul\":4163:4169   */\n      dup5\n        /* \"#utility.yul\":4105:4190   */\n      tag_367\n      jump\t// in\n    tag_511:\n        /* \"#utility.yul\":3947:4197   */\n      swap3\n      swap2\n      pop\n      pop\n      jump\t// out\n        /* \"#utility.yul\":4203:4299   */\n    tag_368:\n        /* \"#utility.yul\":4240:4247   */\n      0x00\n        /* \"#utility.yul\":4269:4293   */\n      tag_513\n        /* \"#utility.yul\":4287:4292   */\n      dup3\n        /* \"#utility.yul\":4269:4293   */\n      tag_362\n      jump\t// in\n    tag_513:\n        /* \"#utility.yul\":4258:4293   */\n      swap1\n      pop\n        /* \"#utility.yul\":4203:4299   */\n      swap2\n      swap1\n      pop\n      jump\t// out\n        /* \"#utility.yul\":4305:4427   */\n    tag_369:\n        /* \"#utility.yul\":4378:4402   */\n      tag_515\n        /* \"#utility.yul\":4396:4401   */\n      dup2\n        /* \"#utility.yul\":4378:4402   */\n      tag_368\n      jump\t// in\n    tag_515:\n        /* \"#utility.yul\":4371:4376   */\n      dup2\n        /* \"#utility.yul\":4368:4403   */\n      eq\n        /* \"#utility.yul\":4358:4421   */\n      tag_516\n      jumpi\n        /* \"#utility.yul\":4417:4418   */\n      0x00\n        /* \"#utility.yul\":4414:4415   */\n      0x00\n        /* \"#utility.yul\":4407:4419   */\n      revert\n        /* \"#utility.yul\":4358:4421   */\n    tag_516:\n        /* \"#utility.yul\":4305:4427   */\n      pop\n      jump\t// out\n        /* \"#utility.yul\":4433:4572   */\n    tag_370:\n        /* \"#utility.yul\":4479:4484   */\n      0x00\n        /* \"#utility.yul\":4517:4523   */\n      dup2\n        /* \"#utility.yul\":4504:4524   */\n      calldataload\n        /* \"#utility.yul\":4495:4524   */\n      swap1\n      pop\n        /* \"#utility.yul\":4533:4566   */\n      tag_518\n        /* \"#utility.yul\":4560:4565   */\n      dup2\n        /* \"#utility.yul\":4533:4566   */\n      tag_369\n      jump\t// in\n    tag_518:\n        /* \"#utility.yul\":4433:4572   */\n      swap3\n      swap2\n      pop\n      pop\n      jump\t// out\n        /* \"#utility.yul\":4578:4695   */\n    tag_371:\n        /* \"#utility.yul\":4687:4688   */\n      0x00\n        /* \"#utility.yul\":4684:4685   */\n      0x00\n        /* \"#utility.yul\":4677:4689   */\n      revert\n        /* \"#utility.yul\":4701:4818   */\n    tag_372:\n        /* \"#utility.yul\":4810:4811   */\n      0x00\n        /* \"#utility.yul\":4807:4808   */\n      0x00\n        /* \"#utility.yul\":4800:4812   */\n      revert\n        /* \"#utility.yul\":4824:4941   */\n    tag_373:\n        /* \"#utility.yul\":4933:4934   */\n      0x00\n        /* \"#utility.yul\":4930:4931   */\n      0x00\n        /* \"#utility.yul\":4923:4935   */\n      revert\n        /* \"#utility.yul\":4961:5514   */\n    tag_374:\n        /* \"#utility.yul\":5019:5027   */\n      0x00\n        /* \"#utility.yul\":5029:5035   */\n      0x00\n        /* \"#utility.yul\":5079:5082   */\n      dup4\n        /* \"#utility.yul\":5072:5076   */\n      0x1f\n        /* \"#utility.yul\":5064:5070   */\n      dup5\n        /* \"#utility.yul\":5060:5077   */\n      add\n        /* \"#utility.yul\":5056:5083   */\n      slt\n        /* \"#utility.yul\":5046:5168   */\n      tag_523\n      jumpi\n        /* \"#utility.yul\":5087:5166   */\n      tag_524\n      tag_371\n      jump\t// in\n    tag_524:\n        /* \"#utility.yul\":5046:5168   */\n    tag_523:\n        /* \"#utility.yul\":5200:5206   */\n      dup3\n        /* \"#utility.yul\":5187:5207   */\n      calldataload\n        /* \"#utility.yul\":5177:5207   */\n      swap1\n      pop\n        /* \"#utility.yul\":5230:5248   */\n      0xffffffffffffffff\n        /* \"#utility.yul\":5222:5228   */\n      dup2\n        /* \"#utility.yul\":5219:5249   */\n      gt\n        /* \"#utility.yul\":5216:5333   */\n      iszero\n      tag_525\n      jumpi\n        /* \"#utility.yul\":5252:5331   */\n      tag_526\n      tag_372\n      jump\t// in\n    tag_526:\n        /* \"#utility.yul\":5216:5333   */\n    tag_525:\n        /* \"#utility.yul\":5366:5370   */\n      0x20\n        /* \"#utility.yul\":5358:5364   */\n      dup4\n        /* \"#utility.yul\":5354:5371   */\n      add\n        /* \"#utility.yul\":5342:5371   */\n      swap2\n      pop\n        /* \"#utility.yul\":5420:5423   */\n      dup4\n        /* \"#utility.yul\":5412:5416   */\n      0x01\n        /* \"#utility.yul\":5404:5410   */\n      dup3\n        /* \"#utility.yul\":5400:5417   */\n      mul\n        /* \"#utility.yul\":5390:5398   */\n      dup4\n        /* \"#utility.yul\":5386:5418   */\n      add\n        /* \"#utility.yul\":5383:5424   */\n      gt\n        /* \"#utility.yul\":5380:5508   */\n      iszero\n      tag_527\n      jumpi\n        /* \"#utility.yul\":5427:5506   */\n      tag_528\n      tag_373\n      jump\t// in\n    tag_528:\n        /* \"#utility.yul\":5380:5508   */\n    tag_527:\n        /* \"#utility.yul\":4961:5514   */\n      swap3\n      pop\n      swap3\n      swap1\n      pop\n      jump\t// out\n        /* \"#utility.yul\":5520:6194   */\n    tag_64:\n        /* \"#utility.yul\":5600:5606   */\n      0x00\n        /* \"#utility.yul\":5608:5614   */\n      0x00\n        /* \"#utility.yul\":5616:5622   */\n      0x00\n        /* \"#utility.yul\":5665:5667   */\n      0x40\n        /* \"#utility.yul\":5653:5662   */\n      dup5\n        /* \"#utility.yul\":5644:5651   */\n      dup7\n        /* \"#utility.yul\":5640:5663   */\n      sub\n        /* \"#utility.yul\":5636:5668   */\n      slt\n        /* \"#utility.yul\":5633:5752   */\n      iszero\n      tag_530\n      jumpi\n        /* \"#utility.yul\":5671:5750   */\n      tag_531\n      tag_353\n      jump\t// in\n    tag_531:\n        /* \"#utility.yul\":5633:5752   */\n    tag_530:\n        /* \"#utility.yul\":5791:5792   */\n      0x00\n        /* \"#utility.yul\":5816:5869   */\n      tag_532\n        /* \"#utility.yul\":5861:5868   */\n      dup7\n        /* \"#utility.yul\":5852:5858   */\n      dup3\n        /* \"#utility.yul\":5841:5850   */\n      dup8\n        /* \"#utility.yul\":5837:5859   */\n      add\n        /* \"#utility.yul\":5816:5869   */\n      tag_370\n      jump\t// in\n    tag_532:\n        /* \"#utility.yul\":5806:5869   */\n      swap4\n      pop\n        /* \"#utility.yul\":5762:5879   */\n      pop\n        /* \"#utility.yul\":5946:5948   */\n      0x20\n        /* \"#utility.yul\":5935:5944   */\n      dup5\n        /* \"#utility.yul\":5931:5949   */\n      add\n        /* \"#utility.yul\":5918:5950   */\n      calldataload\n        /* \"#utility.yul\":5977:5995   */\n      0xffffffffffffffff\n        /* \"#utility.yul\":5969:5975   */\n      dup2\n        /* \"#utility.yul\":5966:5996   */\n      gt\n        /* \"#utility.yul\":5963:6080   */\n      iszero\n      tag_533\n      jumpi\n        /* \"#utility.yul\":5999:6078   */\n      tag_534\n      tag_354\n      jump\t// in\n    tag_534:\n        /* \"#utility.yul\":5963:6080   */\n    tag_533:\n        /* \"#utility.yul\":6112:6177   */\n      tag_535\n        /* \"#utility.yul\":6169:6176   */\n      dup7\n        /* \"#utility.yul\":6160:6166   */\n      dup3\n        /* \"#utility.yul\":6149:6158   */\n      dup8\n        /* \"#utility.yul\":6145:6167   */\n      add\n        /* \"#utility.yul\":6112:6177   */\n      tag_374\n      jump\t// in\n    tag_535:\n        /* \"#utility.yul\":6094:6177   */\n      swap3\n      pop\n      swap3\n      pop\n        /* \"#utility.yul\":5889:6187   */\n      pop\n        /* \"#utility.yul\":5520:6194   */\n      swap3\n      pop\n      swap3\n      pop\n      swap3\n      jump\t// out\n        /* \"#utility.yul\":6200:6529   */\n    tag_68:\n        /* \"#utility.yul\":6259:6265   */\n      0x00\n        /* \"#utility.yul\":6308:6310   */\n      0x20\n        /* \"#utility.yul\":6296:6305   */\n      dup3\n        /* \"#utility.yul\":6287:6294   */\n      dup5\n        /* \"#utility.yul\":6283:6306   */\n      sub\n        /* \"#utility.yul\":6279:6311   */\n      slt\n        /* \"#utility.yul\":6276:6395   */\n      iszero\n      tag_537\n      jumpi\n        /* \"#utility.yul\":6314:6393   */\n      tag_538\n      tag_353\n      jump\t// in\n    tag_538:\n        /* \"#utility.yul\":6276:6395   */\n    tag_537:\n        /* \"#utility.yul\":6434:6435   */\n      0x00\n        /* \"#utility.yul\":6459:6512   */\n      tag_539\n        /* \"#utility.yul\":6504:6511   */\n      dup5\n        /* \"#utility.yul\":6495:6501   */\n      dup3\n        /* \"#utility.yul\":6484:6493   */\n      dup6\n        /* \"#utility.yul\":6480:6502   */\n      add\n        /* \"#utility.yul\":6459:6512   */\n      tag_370\n      jump\t// in\n    tag_539:\n        /* \"#utility.yul\":6449:6512   */\n      swap2\n      pop\n        /* \"#utility.yul\":6405:6522   */\n      pop\n        /* \"#utility.yul\":6200:6529   */\n      swap3\n      swap2\n      pop\n      pop\n      jump\t// out\n        /* \"#utility.yul\":6535:6625   */\n    tag_375:\n        /* \"#utility.yul\":6569:6576   */\n      0x00\n        /* \"#utility.yul\":6612:6617   */\n      dup2\n        /* \"#utility.yul\":6605:6618   */\n      iszero\n        /* \"#utility.yul\":6598:6619   */\n      iszero\n        /* \"#utility.yul\":6587:6619   */\n      swap1\n      pop\n        /* \"#utility.yul\":6535:6625   */\n      swap2\n      swap1\n      pop\n      jump\t// out\n        /* \"#utility.yul\":6631:6740   */\n    tag_376:\n        /* \"#utility.yul\":6712:6733   */\n      tag_542\n        /* \"#utility.yul\":6727:6732   */\n      dup2\n        /* \"#utility.yul\":6712:6733   */\n      tag_375\n      jump\t// in\n    tag_542:\n        /* \"#utility.yul\":6707:6710   */\n      dup3\n        /* \"#utility.yul\":6700:6734   */\n      mstore\n        /* \"#utility.yul\":6631:6740   */\n      pop\n      pop\n      jump\t// out\n        /* \"#utility.yul\":6746:7164   */\n    tag_71:\n        /* \"#utility.yul\":6883:6887   */\n      0x00\n        /* \"#utility.yul\":6921:6923   */\n      0x60\n        /* \"#utility.yul\":6910:6919   */\n      dup3\n        /* \"#utility.yul\":6906:6924   */\n      add\n        /* \"#utility.yul\":6898:6924   */\n      swap1\n      pop\n        /* \"#utility.yul\":6934:6999   */\n      tag_544\n        /* \"#utility.yul\":6996:6997   */\n      0x00\n        /* \"#utility.yul\":6985:6994   */\n      dup4\n        /* \"#utility.yul\":6981:6998   */\n      add\n        /* \"#utility.yul\":6972:6978   */\n      dup7\n        /* \"#utility.yul\":6934:6999   */\n      tag_376\n      jump\t// in\n    tag_544:\n        /* \"#utility.yul\":7009:7081   */\n      tag_545\n        /* \"#utility.yul\":7077:7079   */\n      0x20\n        /* \"#utility.yul\":7066:7075   */\n      dup4\n        /* \"#utility.yul\":7062:7080   */\n      add\n        /* \"#utility.yul\":7053:7059   */\n      dup6\n        /* \"#utility.yul\":7009:7081   */\n      tag_351\n      jump\t// in\n    tag_545:\n        /* \"#utility.yul\":7091:7157   */\n      tag_546\n        /* \"#utility.yul\":7153:7155   */\n      0x40\n        /* \"#utility.yul\":7142:7151   */\n      dup4\n        /* \"#utility.yul\":7138:7156   */\n      add\n        /* \"#utility.yul\":7129:7135   */\n      dup5\n        /* \"#utility.yul\":7091:7157   */\n      tag_376\n      jump\t// in\n    tag_546:\n        /* \"#utility.yul\":6746:7164   */\n      swap5\n      swap4\n      pop\n      pop\n      pop\n      pop\n      jump\t// out\n        /* \"#utility.yul\":7170:7288   */\n    tag_377:\n        /* \"#utility.yul\":7257:7281   */\n      tag_548\n        /* \"#utility.yul\":7275:7280   */\n      dup2\n        /* \"#utility.yul\":7257:7281   */\n      tag_368\n      jump\t// in\n    tag_548:\n        /* \"#utility.yul\":7252:7255   */\n      dup3\n        /* \"#utility.yul\":7245:7282   */\n      mstore\n        /* \"#utility.yul\":7170:7288   */\n      pop\n      pop\n      jump\t// out\n        /* \"#utility.yul\":7294:7393   */\n    tag_378:\n        /* \"#utility.yul\":7346:7352   */\n      0x00\n        /* \"#utility.yul\":7380:7385   */\n      dup2\n        /* \"#utility.yul\":7374:7386   */\n      mload\n        /* \"#utility.yul\":7364:7386   */\n      swap1\n      pop\n        /* \"#utility.yul\":7294:7393   */\n      swap2\n      swap1\n      pop\n      jump\t// out\n        /* \"#utility.yul\":7399:7568   */\n    tag_379:\n        /* \"#utility.yul\":7483:7494   */\n      0x00\n        /* \"#utility.yul\":7517:7523   */\n      dup3\n        /* \"#utility.yul\":7512:7515   */\n      dup3\n        /* \"#utility.yul\":7505:7524   */\n      mstore\n        /* \"#utility.yul\":7557:7561   */\n      0x20\n        /* \"#utility.yul\":7552:7555   */\n      dup3\n        /* \"#utility.yul\":7548:7562   */\n      add\n        /* \"#utility.yul\":7533:7562   */\n      swap1\n      pop\n        /* \"#utility.yul\":7399:7568   */\n      swap3\n      swap2\n      pop\n      pop\n      jump\t// out\n        /* \"#utility.yul\":7574:7713   */\n    tag_380:\n        /* \"#utility.yul\":7663:7669   */\n      dup3\n        /* \"#utility.yul\":7658:7661   */\n      dup2\n        /* \"#utility.yul\":7653:7656   */\n      dup4\n        /* \"#utility.yul\":7647:7670   */\n      mcopy\n        /* \"#utility.yul\":7704:7705   */\n      0x00\n        /* \"#utility.yul\":7695:7701   */\n      dup4\n        /* \"#utility.yul\":7690:7693   */\n      dup4\n        /* \"#utility.yul\":7686:7702   */\n      add\n        /* \"#utility.yul\":7679:7706   */\n      mstore\n        /* \"#utility.yul\":7574:7713   */\n      pop\n      pop\n      pop\n      jump\t// out\n        /* \"#utility.yul\":7719:7821   */\n    tag_381:\n        /* \"#utility.yul\":7760:7766   */\n      0x00\n        /* \"#utility.yul\":7811:7813   */\n      0x1f\n        /* \"#utility.yul\":7807:7814   */\n      not\n        /* \"#utility.yul\":7802:7804   */\n      0x1f\n        /* \"#utility.yul\":7795:7800   */\n      dup4\n        /* \"#utility.yul\":7791:7805   */\n      add\n        /* \"#utility.yul\":7787:7815   */\n      and\n        /* \"#utility.yul\":7777:7815   */\n      swap1\n      pop\n        /* \"#utility.yul\":7719:7821   */\n      swap2\n      swap1\n      pop\n      jump\t// out\n        /* \"#utility.yul\":7827:8204   */\n    tag_382:\n        /* \"#utility.yul\":7915:7918   */\n      0x00\n        /* \"#utility.yul\":7943:7982   */\n      tag_554\n        /* \"#utility.yul\":7976:7981   */\n      dup3\n        /* \"#utility.yul\":7943:7982   */\n      tag_378\n      jump\t// in\n    tag_554:\n        /* \"#utility.yul\":7998:8069   */\n      tag_555\n        /* \"#utility.yul\":8062:8068   */\n      dup2\n        /* \"#utility.yul\":8057:8060   */\n      dup6\n        /* \"#utility.yul\":7998:8069   */\n      tag_379\n      jump\t// in\n    tag_555:\n        /* \"#utility.yul\":7991:8069   */\n      swap4\n      pop\n        /* \"#utility.yul\":8078:8143   */\n      tag_556\n        /* \"#utility.yul\":8136:8142   */\n      dup2\n        /* \"#utility.yul\":8131:8134   */\n      dup6\n        /* \"#utility.yul\":8124:8128   */\n      0x20\n        /* \"#utility.yul\":8117:8122   */\n      dup7\n        /* \"#utility.yul\":8113:8129   */\n      add\n        /* \"#utility.yul\":8078:8143   */\n      tag_380\n      jump\t// in\n    tag_556:\n        /* \"#utility.yul\":8168:8197   */\n      tag_557\n        /* \"#utility.yul\":8190:8196   */\n      dup2\n        /* \"#utility.yul\":8168:8197   */\n      tag_381\n      jump\t// in\n    tag_557:\n        /* \"#utility.yul\":8163:8166   */\n      dup5\n        /* \"#utility.yul\":8159:8198   */\n      add\n        /* \"#utility.yul\":8152:8198   */\n      swap2\n      pop\n        /* \"#utility.yul\":7919:8204   */\n      pop\n        /* \"#utility.yul\":7827:8204   */\n      swap3\n      swap2\n      pop\n      pop\n      jump\t// out\n        /* \"#utility.yul\":8210:8390   */\n    tag_88:\n        /* \"#utility.yul\":8258:8335   */\n      0x4e487b7100000000000000000000000000000000000000000000000000000000\n        /* \"#utility.yul\":8255:8256   */\n      0x00\n        /* \"#utility.yul\":8248:8336   */\n      mstore\n        /* \"#utility.yul\":8355:8359   */\n      0x21\n        /* \"#utility.yul\":8352:8353   */\n      0x04\n        /* \"#utility.yul\":8345:8360   */\n      mstore\n        /* \"#utility.yul\":8379:8383   */\n      0x24\n        /* \"#utility.yul\":8376:8377   */\n      0x00\n        /* \"#utility.yul\":8369:8384   */\n      revert\n        /* \"#utility.yul\":8396:8515   */\n    tag_383:\n        /* \"#utility.yul\":8483:8484   */\n      0x05\n        /* \"#utility.yul\":8476:8481   */\n      dup2\n        /* \"#utility.yul\":8473:8485   */\n      lt\n        /* \"#utility.yul\":8463:8509   */\n      tag_560\n      jumpi\n        /* \"#utility.yul\":8489:8507   */\n      tag_561\n      tag_88\n      jump\t// in\n    tag_561:\n        /* \"#utility.yul\":8463:8509   */\n    tag_560:\n        /* \"#utility.yul\":8396:8515   */\n      pop\n      jump\t// out\n        /* \"#utility.yul\":8521:8660   */\n    tag_384:\n        /* \"#utility.yul\":8572:8579   */\n      0x00\n        /* \"#utility.yul\":8601:8606   */\n      dup2\n        /* \"#utility.yul\":8590:8606   */\n      swap1\n      pop\n        /* \"#utility.yul\":8607:8654   */\n      tag_563\n        /* \"#utility.yul\":8648:8653   */\n      dup3\n        /* \"#utility.yul\":8607:8654   */\n      tag_383\n      jump\t// in\n    tag_563:\n        /* \"#utility.yul\":8521:8660   */\n      swap2\n      swap1\n      pop\n      jump\t// out\n        /* \"#utility.yul\":8666:8805   */\n    tag_385:\n        /* \"#utility.yul\":8728:8737   */\n      0x00\n        /* \"#utility.yul\":8761:8799   */\n      tag_565\n        /* \"#utility.yul\":8793:8798   */\n      dup3\n        /* \"#utility.yul\":8761:8799   */\n      tag_384\n      jump\t// in\n    tag_565:\n        /* \"#utility.yul\":8748:8799   */\n      swap1\n      pop\n        /* \"#utility.yul\":8666:8805   */\n      swap2\n      swap1\n      pop\n      jump\t// out\n        /* \"#utility.yul\":8811:8966   */\n    tag_386:\n        /* \"#utility.yul\":8910:8959   */\n      tag_567\n        /* \"#utility.yul\":8953:8958   */\n      dup2\n        /* \"#utility.yul\":8910:8959   */\n      tag_385\n      jump\t// in\n    tag_567:\n        /* \"#utility.yul\":8905:8908   */\n      dup3\n        /* \"#utility.yul\":8898:8960   */\n      mstore\n        /* \"#utility.yul\":8811:8966   */\n      pop\n      pop\n      jump\t// out\n        /* \"#utility.yul\":8972:10532   */\n    tag_79:\n        /* \"#utility.yul\":9407:9411   */\n      0x00\n        /* \"#utility.yul\":9445:9448   */\n      0x0180\n        /* \"#utility.yul\":9434:9443   */\n      dup3\n        /* \"#utility.yul\":9430:9449   */\n      add\n        /* \"#utility.yul\":9422:9449   */\n      swap1\n      pop\n        /* \"#utility.yul\":9459:9530   */\n      tag_569\n        /* \"#utility.yul\":9527:9528   */\n      0x00\n        /* \"#utility.yul\":9516:9525   */\n      dup4\n        /* \"#utility.yul\":9512:9529   */\n      add\n        /* \"#utility.yul\":9503:9509   */\n      dup16\n        /* \"#utility.yul\":9459:9530   */\n      tag_351\n      jump\t// in\n    tag_569:\n        /* \"#utility.yul\":9540:9612   */\n      tag_570\n        /* \"#utility.yul\":9608:9610   */\n      0x20\n        /* \"#utility.yul\":9597:9606   */\n      dup4\n        /* \"#utility.yul\":9593:9611   */\n      add\n        /* \"#utility.yul\":9584:9590   */\n      dup15\n        /* \"#utility.yul\":9540:9612   */\n      tag_377\n      jump\t// in\n    tag_570:\n        /* \"#utility.yul\":9622:9694   */\n      tag_571\n        /* \"#utility.yul\":9690:9692   */\n      0x40\n        /* \"#utility.yul\":9679:9688   */\n      dup4\n        /* \"#utility.yul\":9675:9693   */\n      add\n        /* \"#utility.yul\":9666:9672   */\n      dup14\n        /* \"#utility.yul\":9622:9694   */\n      tag_377\n      jump\t// in\n    tag_571:\n        /* \"#utility.yul\":9741:9750   */\n      dup2\n        /* \"#utility.yul\":9735:9739   */\n      dup2\n        /* \"#utility.yul\":9731:9751   */\n      sub\n        /* \"#utility.yul\":9726:9728   */\n      0x60\n        /* \"#utility.yul\":9715:9724   */\n      dup4\n        /* \"#utility.yul\":9711:9729   */\n      add\n        /* \"#utility.yul\":9704:9752   */\n      mstore\n        /* \"#utility.yul\":9769:9847   */\n      tag_572\n        /* \"#utility.yul\":9842:9846   */\n      dup2\n        /* \"#utility.yul\":9833:9839   */\n      dup13\n        /* \"#utility.yul\":9769:9847   */\n      tag_382\n      jump\t// in\n    tag_572:\n        /* \"#utility.yul\":9761:9847   */\n      swap1\n      pop\n        /* \"#utility.yul\":9857:9942   */\n      tag_573\n        /* \"#utility.yul\":9937:9940   */\n      0x80\n        /* \"#utility.yul\":9926:9935   */\n      dup4\n        /* \"#utility.yul\":9922:9941   */\n      add\n        /* \"#utility.yul\":9913:9919   */\n      dup12\n        /* \"#utility.yul\":9857:9942   */\n      tag_386\n      jump\t// in\n    tag_573:\n        /* \"#utility.yul\":9952:10025   */\n      tag_574\n        /* \"#utility.yul\":10020:10023   */\n      0xa0\n        /* \"#utility.yul\":10009:10018   */\n      dup4\n        /* \"#utility.yul\":10005:10024   */\n      add\n        /* \"#utility.yul\":9996:10002   */\n      dup11\n        /* \"#utility.yul\":9952:10025   */\n      tag_351\n      jump\t// in\n    tag_574:\n        /* \"#utility.yul\":10035:10108   */\n      tag_575\n        /* \"#utility.yul\":10103:10106   */\n      0xc0\n        /* \"#utility.yul\":10092:10101   */\n      dup4\n        /* \"#utility.yul\":10088:10107   */\n      add\n        /* \"#utility.yul\":10079:10085   */\n      dup10\n        /* \"#utility.yul\":10035:10108   */\n      tag_351\n      jump\t// in\n    tag_575:\n        /* \"#utility.yul\":10118:10191   */\n      tag_576\n        /* \"#utility.yul\":10186:10189   */\n      0xe0\n        /* \"#utility.yul\":10175:10184   */\n      dup4\n        /* \"#utility.yul\":10171:10190   */\n      add\n        /* \"#utility.yul\":10162:10168   */\n      dup9\n        /* \"#utility.yul\":10118:10191   */\n      tag_351\n      jump\t// in\n    tag_576:\n        /* \"#utility.yul\":10201:10274   */\n      tag_577\n        /* \"#utility.yul\":10269:10272   */\n      0x0100\n        /* \"#utility.yul\":10258:10267   */\n      dup4\n        /* \"#utility.yul\":10254:10273   */\n      add\n        /* \"#utility.yul\":10245:10251   */\n      dup8\n        /* \"#utility.yul\":10201:10274   */\n      tag_351\n      jump\t// in\n    tag_577:\n        /* \"#utility.yul\":10284:10357   */\n      tag_578\n        /* \"#utility.yul\":10352:10355   */\n      0x0120\n        /* \"#utility.yul\":10341:10350   */\n      dup4\n        /* \"#utility.yul\":10337:10356   */\n      add\n        /* \"#utility.yul\":10328:10334   */\n      dup7\n        /* \"#utility.yul\":10284:10357   */\n      tag_351\n      jump\t// in\n    tag_578:\n        /* \"#utility.yul\":10367:10441   */\n      tag_579\n        /* \"#utility.yul\":10436:10439   */\n      0x0140\n        /* \"#utility.yul\":10425:10434   */\n      dup4\n        /* \"#utility.yul\":10421:10440   */\n      add\n        /* \"#utility.yul\":10411:10418   */\n      dup6\n        /* \"#utility.yul\":10367:10441   */\n      tag_351\n      jump\t// in\n    tag_579:\n        /* \"#utility.yul\":10451:10525   */\n      tag_580\n        /* \"#utility.yul\":10520:10523   */\n      0x0160\n        /* \"#utility.yul\":10509:10518   */\n      dup4\n        /* \"#utility.yul\":10505:10524   */\n      add\n        /* \"#utility.yul\":10495:10502   */\n      dup5\n        /* \"#utility.yul\":10451:10525   */\n      tag_377\n      jump\t// in\n    tag_580:\n        /* \"#utility.yul\":8972:10532   */\n      swap14\n      swap13\n      pop\n      pop\n      pop\n      pop\n      pop\n      pop\n      pop\n      pop\n      pop\n      pop\n      pop\n      pop\n      pop\n      jump\t// out\n        /* \"#utility.yul\":10538:10760   */\n    tag_84:\n        /* \"#utility.yul\":10631:10635   */\n      0x00\n        /* \"#utility.yul\":10669:10671   */\n      0x20\n        /* \"#utility.yul\":10658:10667   */\n      dup3\n        /* \"#utility.yul\":10654:10672   */\n      add\n        /* \"#utility.yul\":10646:10672   */\n      swap1\n      pop\n        /* \"#utility.yul\":10682:10753   */\n      tag_582\n        /* \"#utility.yul\":10750:10751   */\n      0x00\n        /* \"#utility.yul\":10739:10748   */\n      dup4\n        /* \"#utility.yul\":10735:10752   */\n      add\n        /* \"#utility.yul\":10726:10732   */\n      dup5\n        /* \"#utility.yul\":10682:10753   */\n      tag_377\n      jump\t// in\n    tag_582:\n        /* \"#utility.yul\":10538:10760   */\n      swap3\n      swap2\n      pop\n      pop\n      jump\t// out\n        /* \"#utility.yul\":10766:10935   */\n    tag_387:\n        /* \"#utility.yul\":10906:10927   */\n      0x4e6f7420696e20766f74696e6720706861736500000000000000000000000000\n        /* \"#utility.yul\":10902:10903   */\n      0x00\n        /* \"#utility.yul\":10894:10900   */\n      dup3\n        /* \"#utility.yul\":10890:10904   */\n      add\n        /* \"#utility.yul\":10883:10928   */\n      mstore\n        /* \"#utility.yul\":10766:10935   */\n      pop\n      jump\t// out\n        /* \"#utility.yul\":10941:11307   */\n    tag_388:\n        /* \"#utility.yul\":11083:11086   */\n      0x00\n        /* \"#utility.yul\":11104:11171   */\n      tag_585\n        /* \"#utility.yul\":11168:11170   */\n      0x13\n        /* \"#utility.yul\":11163:11166   */\n      dup4\n        /* \"#utility.yul\":11104:11171   */\n      tag_379\n      jump\t// in\n    tag_585:\n        /* \"#utility.yul\":11097:11171   */\n      swap2\n      pop\n        /* \"#utility.yul\":11180:11273   */\n      tag_586\n        /* \"#utility.yul\":11269:11272   */\n      dup3\n        /* \"#utility.yul\":11180:11273   */\n      tag_387\n      jump\t// in\n    tag_586:\n        /* \"#utility.yul\":11298:11300   */\n      0x20\n        /* \"#utility.yul\":11293:11296   */\n      dup3\n        /* \"#utility.yul\":11289:11301   */\n      add\n        /* \"#utility.yul\":11282:11301   */\n      swap1\n      pop\n        /* \"#utility.yul\":10941:11307   */\n      swap2\n      swap1\n      pop\n      jump\t// out\n        /* \"#utility.yul\":11313:11732   */\n    tag_93:\n        /* \"#utility.yul\":11479:11483   */\n      0x00\n        /* \"#utility.yul\":11517:11519   */\n      0x20\n        /* \"#utility.yul\":11506:11515   */\n      dup3\n        /* \"#utility.yul\":11502:11520   */\n      add\n        /* \"#utility.yul\":11494:11520   */\n      swap1\n      pop\n        /* \"#utility.yul\":11566:11575   */\n      dup2\n        /* \"#utility.yul\":11560:11564   */\n      dup2\n        /* \"#utility.yul\":11556:11576   */\n      sub\n        /* \"#utility.yul\":11552:11553   */\n      0x00\n        /* \"#utility.yul\":11541:11550   */\n      dup4\n        /* \"#utility.yul\":11537:11554   */\n      add\n        /* \"#utility.yul\":11530:11577   */\n      mstore\n        /* \"#utility.yul\":11594:11725   */\n      tag_588\n        /* \"#utility.yul\":11720:11724   */\n      dup2\n        /* \"#utility.yul\":11594:11725   */\n      tag_388\n      jump\t// in\n    tag_588:\n        /* \"#utility.yul\":11586:11725   */\n      swap1\n      pop\n        /* \"#utility.yul\":11313:11732   */\n      swap2\n      swap1\n      pop\n      jump\t// out\n        /* \"#utility.yul\":11738:11914   */\n    tag_389:\n        /* \"#utility.yul\":11878:11906   */\n      0x436f6d6d6974207068617365206e6f7420656e64656420796574000000000000\n        /* \"#utility.yul\":11874:11875   */\n      0x00\n        /* \"#utility.yul\":11866:11872   */\n      dup3\n        /* \"#utility.yul\":11862:11876   */\n      add\n        /* \"#utility.yul\":11855:11907   */\n      mstore\n        /* \"#utility.yul\":11738:11914   */\n      pop\n      jump\t// out\n        /* \"#utility.yul\":11920:12286   */\n    tag_390:\n        /* \"#utility.yul\":12062:12065   */\n      0x00\n        /* \"#utility.yul\":12083:12150   */\n      tag_591\n        /* \"#utility.yul\":12147:12149   */\n      0x1a\n        /* \"#utility.yul\":12142:12145   */\n      dup4\n        /* \"#utility.yul\":12083:12150   */\n      tag_379\n      jump\t// in\n    tag_591:\n        /* \"#utility.yul\":12076:12150   */\n      swap2\n      pop\n        /* \"#utility.yul\":12159:12252   */\n      tag_592\n        /* \"#utility.yul\":12248:12251   */\n      dup3\n        /* \"#utility.yul\":12159:12252   */\n      tag_389\n      jump\t// in\n    tag_592:\n        /* \"#utility.yul\":12277:12279   */\n      0x20\n        /* \"#utility.yul\":12272:12275   */\n      dup3\n        /* \"#utility.yul\":12268:12280   */\n      add\n        /* \"#utility.yul\":12261:12280   */\n      swap1\n      pop\n        /* \"#utility.yul\":11920:12286   */\n      swap2\n      swap1\n      pop\n      jump\t// out\n        /* \"#utility.yul\":12292:12711   */\n    tag_96:\n        /* \"#utility.yul\":12458:12462   */\n      0x00\n        /* \"#utility.yul\":12496:12498   */\n      0x20\n        /* \"#utility.yul\":12485:12494   */\n      dup3\n        /* \"#utility.yul\":12481:12499   */\n      add\n        /* \"#utility.yul\":12473:12499   */\n      swap1\n      pop\n        /* \"#utility.yul\":12545:12554   */\n      dup2\n        /* \"#utility.yul\":12539:12543   */\n      dup2\n        /* \"#utility.yul\":12535:12555   */\n      sub\n        /* \"#utility.yul\":12531:12532   */\n      0x00\n        /* \"#utility.yul\":12520:12529   */\n      dup4\n        /* \"#utility.yul\":12516:12533   */\n      add\n        /* \"#utility.yul\":12509:12556   */\n      mstore\n        /* \"#utility.yul\":12573:12704   */\n      tag_594\n        /* \"#utility.yul\":12699:12703   */\n      dup2\n        /* \"#utility.yul\":12573:12704   */\n      tag_390\n      jump\t// in\n    tag_594:\n        /* \"#utility.yul\":12565:12704   */\n      swap1\n      pop\n        /* \"#utility.yul\":12292:12711   */\n      swap2\n      swap1\n      pop\n      jump\t// out\n        /* \"#utility.yul\":12717:12885   */\n    tag_391:\n        /* \"#utility.yul\":12857:12877   */\n      0x52657665616c20706861736520656e6465640000000000000000000000000000\n        /* \"#utility.yul\":12853:12854   */\n      0x00\n        /* \"#utility.yul\":12845:12851   */\n      dup3\n        /* \"#utility.yul\":12841:12855   */\n      add\n        /* \"#utility.yul\":12834:12878   */\n      mstore\n        /* \"#utility.yul\":12717:12885   */\n      pop\n      jump\t// out\n        /* \"#utility.yul\":12891:13257   */\n    tag_392:\n        /* \"#utility.yul\":13033:13036   */\n      0x00\n        /* \"#utility.yul\":13054:13121   */\n      tag_597\n        /* \"#utility.yul\":13118:13120   */\n      0x12\n        /* \"#utility.yul\":13113:13116   */\n      dup4\n        /* \"#utility.yul\":13054:13121   */\n      tag_379\n      jump\t// in\n    tag_597:\n        /* \"#utility.yul\":13047:13121   */\n      swap2\n      pop\n        /* \"#utility.yul\":13130:13223   */\n      tag_598\n        /* \"#utility.yul\":13219:13222   */\n      dup3\n        /* \"#utility.yul\":13130:13223   */\n      tag_391\n      jump\t// in\n    tag_598:\n        /* \"#utility.yul\":13248:13250   */\n      0x20\n        /* \"#utility.yul\":13243:13246   */\n      dup3\n        /* \"#utility.yul\":13239:13251   */\n      add\n        /* \"#utility.yul\":13232:13251   */\n      swap1\n      pop\n        /* \"#utility.yul\":12891:13257   */\n      swap2\n      swap1\n      pop\n      jump\t// out\n        /* \"#utility.yul\":13263:13682   */\n    tag_99:\n        /* \"#utility.yul\":13429:13433   */\n      0x00\n        /* \"#utility.yul\":13467:13469   */\n      0x20\n        /* \"#utility.yul\":13456:13465   */\n      dup3\n        /* \"#utility.yul\":13452:13470   */\n      add\n        /* \"#utility.yul\":13444:13470   */\n      swap1\n      pop\n        /* \"#utility.yul\":13516:13525   */\n      dup2\n        /* \"#utility.yul\":13510:13514   */\n      dup2\n        /* \"#utility.yul\":13506:13526   */\n      sub\n        /* \"#utility.yul\":13502:13503   */\n      0x00\n        /* \"#utility.yul\":13491:13500   */\n      dup4\n        /* \"#utility.yul\":13487:13504   */\n      add\n        /* \"#utility.yul\":13480:13527   */\n      mstore\n        /* \"#utility.yul\":13544:13675   */\n      tag_600\n        /* \"#utility.yul\":13670:13674   */\n      dup2\n        /* \"#utility.yul\":13544:13675   */\n      tag_392\n      jump\t// in\n    tag_600:\n        /* \"#utility.yul\":13536:13675   */\n      swap1\n      pop\n        /* \"#utility.yul\":13263:13682   */\n      swap2\n      swap1\n      pop\n      jump\t// out\n        /* \"#utility.yul\":13688:13863   */\n    tag_393:\n        /* \"#utility.yul\":13828:13855   */\n      0x4e6f742061206a75726f7220666f722074686973206361736500000000000000\n        /* \"#utility.yul\":13824:13825   */\n      0x00\n        /* \"#utility.yul\":13816:13822   */\n      dup3\n        /* \"#utility.yul\":13812:13826   */\n      add\n        /* \"#utility.yul\":13805:13856   */\n      mstore\n        /* \"#utility.yul\":13688:13863   */\n      pop\n      jump\t// out\n        /* \"#utility.yul\":13869:14235   */\n    tag_394:\n        /* \"#utility.yul\":14011:14014   */\n      0x00\n        /* \"#utility.yul\":14032:14099   */\n      tag_603\n        /* \"#utility.yul\":14096:14098   */\n      0x19\n        /* \"#utility.yul\":14091:14094   */\n      dup4\n        /* \"#utility.yul\":14032:14099   */\n      tag_379\n      jump\t// in\n    tag_603:\n        /* \"#utility.yul\":14025:14099   */\n      swap2\n      pop\n        /* \"#utility.yul\":14108:14201   */\n      tag_604\n        /* \"#utility.yul\":14197:14200   */\n      dup3\n        /* \"#utility.yul\":14108:14201   */\n      tag_393\n      jump\t// in\n    tag_604:\n        /* \"#utility.yul\":14226:14228   */\n      0x20\n        /* \"#utility.yul\":14221:14224   */\n      dup3\n        /* \"#utility.yul\":14217:14229   */\n      add\n        /* \"#utility.yul\":14210:14229   */\n      swap1\n      pop\n        /* \"#utility.yul\":13869:14235   */\n      swap2\n      swap1\n      pop\n      jump\t// out\n        /* \"#utility.yul\":14241:14660   */\n    tag_104:\n        /* \"#utility.yul\":14407:14411   */\n      0x00\n        /* \"#utility.yul\":14445:14447   */\n      0x20\n        /* \"#utility.yul\":14434:14443   */\n      dup3\n        /* \"#utility.yul\":14430:14448   */\n      add\n        /* \"#utility.yul\":14422:14448   */\n      swap1\n      pop\n        /* \"#utility.yul\":14494:14503   */\n      dup2\n        /* \"#utility.yul\":14488:14492   */\n      dup2\n        /* \"#utility.yul\":14484:14504   */\n      sub\n        /* \"#utility.yul\":14480:14481   */\n      0x00\n        /* \"#utility.yul\":14469:14478   */\n      dup4\n        /* \"#utility.yul\":14465:14482   */\n      add\n        /* \"#utility.yul\":14458:14505   */\n      mstore\n        /* \"#utility.yul\":14522:14653   */\n      tag_606\n        /* \"#utility.yul\":14648:14652   */\n      dup2\n        /* \"#utility.yul\":14522:14653   */\n      tag_394\n      jump\t// in\n    tag_606:\n        /* \"#utility.yul\":14514:14653   */\n      swap1\n      pop\n        /* \"#utility.yul\":14241:14660   */\n      swap2\n      swap1\n      pop\n      jump\t// out\n        /* \"#utility.yul\":14666:14830   */\n    tag_395:\n        /* \"#utility.yul\":14806:14822   */\n      0x446964206e6f7420636f6d6d6974000000000000000000000000000000000000\n        /* \"#utility.yul\":14802:14803   */\n      0x00\n        /* \"#utility.yul\":14794:14800   */\n      dup3\n        /* \"#utility.yul\":14790:14804   */\n      add\n        /* \"#utility.yul\":14783:14823   */\n      mstore\n        /* \"#utility.yul\":14666:14830   */\n      pop\n      jump\t// out\n        /* \"#utility.yul\":14836:15202   */\n    tag_396:\n        /* \"#utility.yul\":14978:14981   */\n      0x00\n        /* \"#utility.yul\":14999:15066   */\n      tag_609\n        /* \"#utility.yul\":15063:15065   */\n      0x0e\n        /* \"#utility.yul\":15058:15061   */\n      dup4\n        /* \"#utility.yul\":14999:15066   */\n      tag_379\n      jump\t// in\n    tag_609:\n        /* \"#utility.yul\":14992:15066   */\n      swap2\n      pop\n        /* \"#utility.yul\":15075:15168   */\n      tag_610\n        /* \"#utility.yul\":15164:15167   */\n      dup3\n        /* \"#utility.yul\":15075:15168   */\n      tag_395\n      jump\t// in\n    tag_610:\n        /* \"#utility.yul\":15193:15195   */\n      0x20\n        /* \"#utility.yul\":15188:15191   */\n      dup3\n        /* \"#utility.yul\":15184:15196   */\n      add\n        /* \"#utility.yul\":15177:15196   */\n      swap1\n      pop\n        /* \"#utility.yul\":14836:15202   */\n      swap2\n      swap1\n      pop\n      jump\t// out\n        /* \"#utility.yul\":15208:15627   */\n    tag_107:\n        /* \"#utility.yul\":15374:15378   */\n      0x00\n        /* \"#utility.yul\":15412:15414   */\n      0x20\n        /* \"#utility.yul\":15401:15410   */\n      dup3\n        /* \"#utility.yul\":15397:15415   */\n      add\n        /* \"#utility.yul\":15389:15415   */\n      swap1\n      pop\n        /* \"#utility.yul\":15461:15470   */\n      dup2\n        /* \"#utility.yul\":15455:15459   */\n      dup2\n        /* \"#utility.yul\":15451:15471   */\n      sub\n        /* \"#utility.yul\":15447:15448   */\n      0x00\n        /* \"#utility.yul\":15436:15445   */\n      dup4\n        /* \"#utility.yul\":15432:15449   */\n      add\n        /* \"#utility.yul\":15425:15472   */\n      mstore\n        /* \"#utility.yul\":15489:15620   */\n      tag_612\n        /* \"#utility.yul\":15615:15619   */\n      dup2\n        /* \"#utility.yul\":15489:15620   */\n      tag_396\n      jump\t// in\n    tag_612:\n        /* \"#utility.yul\":15481:15620   */\n      swap1\n      pop\n        /* \"#utility.yul\":15208:15627   */\n      swap2\n      swap1\n      pop\n      jump\t// out\n        /* \"#utility.yul\":15633:15799   */\n    tag_397:\n        /* \"#utility.yul\":15773:15791   */\n      0x416c72656164792072657665616c656400000000000000000000000000000000\n        /* \"#utility.yul\":15769:15770   */\n      0x00\n        /* \"#utility.yul\":15761:15767   */\n      dup3\n        /* \"#utility.yul\":15757:15771   */\n      add\n        /* \"#utility.yul\":15750:15792   */\n      mstore\n        /* \"#utility.yul\":15633:15799   */\n      pop\n      jump\t// out\n        /* \"#utility.yul\":15805:16171   */\n    tag_398:\n        /* \"#utility.yul\":15947:15950   */\n      0x00\n        /* \"#utility.yul\":15968:16035   */\n      tag_615\n        /* \"#utility.yul\":16032:16034   */\n      0x10\n        /* \"#utility.yul\":16027:16030   */\n      dup4\n        /* \"#utility.yul\":15968:16035   */\n      tag_379\n      jump\t// in\n    tag_615:\n        /* \"#utility.yul\":15961:16035   */\n      swap2\n      pop\n        /* \"#utility.yul\":16044:16137   */\n      tag_616\n        /* \"#utility.yul\":16133:16136   */\n      dup3\n        /* \"#utility.yul\":16044:16137   */\n      tag_397\n      jump\t// in\n    tag_616:\n        /* \"#utility.yul\":16162:16164   */\n      0x20\n        /* \"#utility.yul\":16157:16160   */\n      dup3\n        /* \"#utility.yul\":16153:16165   */\n      add\n        /* \"#utility.yul\":16146:16165   */\n      swap1\n      pop\n        /* \"#utility.yul\":15805:16171   */\n      swap2\n      swap1\n      pop\n      jump\t// out\n        /* \"#utility.yul\":16177:16596   */\n    tag_114:\n        /* \"#utility.yul\":16343:16347   */\n      0x00\n        /* \"#utility.yul\":16381:16383   */\n      0x20\n        /* \"#utility.yul\":16370:16379   */\n      dup3\n        /* \"#utility.yul\":16366:16384   */\n      add\n        /* \"#utility.yul\":16358:16384   */\n      swap1\n      pop\n        /* \"#utility.yul\":16430:16439   */\n      dup2\n        /* \"#utility.yul\":16424:16428   */\n      dup2\n        /* \"#utility.yul\":16420:16440   */\n      sub\n        /* \"#utility.yul\":16416:16417   */\n      0x00\n        /* \"#utility.yul\":16405:16414   */\n      dup4\n        /* \"#utility.yul\":16401:16418   */\n      add\n        /* \"#utility.yul\":16394:16441   */\n      mstore\n        /* \"#utility.yul\":16458:16589   */\n      tag_618\n        /* \"#utility.yul\":16584:16588   */\n      dup2\n        /* \"#utility.yul\":16458:16589   */\n      tag_398\n      jump\t// in\n    tag_618:\n        /* \"#utility.yul\":16450:16589   */\n      swap1\n      pop\n        /* \"#utility.yul\":16177:16596   */\n      swap2\n      swap1\n      pop\n      jump\t// out\n        /* \"#utility.yul\":16602:16721   */\n    tag_399:\n        /* \"#utility.yul\":16689:16690   */\n      0x03\n        /* \"#utility.yul\":16682:16687   */\n      dup2\n        /* \"#utility.yul\":16679:16691   */\n      lt\n        /* \"#utility.yul\":16669:16715   */\n      tag_620\n      jumpi\n        /* \"#utility.yul\":16695:16713   */\n      tag_621\n      tag_88\n      jump\t// in\n    tag_621:\n        /* \"#utility.yul\":16669:16715   */\n    tag_620:\n        /* \"#utility.yul\":16602:16721   */\n      pop\n      jump\t// out\n        /* \"#utility.yul\":16727:16866   */\n    tag_400:\n        /* \"#utility.yul\":16778:16785   */\n      0x00\n        /* \"#utility.yul\":16807:16812   */\n      dup2\n        /* \"#utility.yul\":16796:16812   */\n      swap1\n      pop\n        /* \"#utility.yul\":16813:16860   */\n      tag_623\n        /* \"#utility.yul\":16854:16859   */\n      dup3\n        /* \"#utility.yul\":16813:16860   */\n      tag_399\n      jump\t// in\n    tag_623:\n        /* \"#utility.yul\":16727:16866   */\n      swap2\n      swap1\n      pop\n      jump\t// out\n        /* \"#utility.yul\":16872:17011   */\n    tag_401:\n        /* \"#utility.yul\":16934:16943   */\n      0x00\n        /* \"#utility.yul\":16967:17005   */\n      tag_625\n        /* \"#utility.yul\":16999:17004   */\n      dup3\n        /* \"#utility.yul\":16967:17005   */\n      tag_400\n      jump\t// in\n    tag_625:\n        /* \"#utility.yul\":16954:17005   */\n      swap1\n      pop\n        /* \"#utility.yul\":16872:17011   */\n      swap2\n      swap1\n      pop\n      jump\t// out\n        /* \"#utility.yul\":17017:17113   */\n    tag_402:\n        /* \"#utility.yul\":17051:17059   */\n      0x00\n        /* \"#utility.yul\":17100:17105   */\n      dup2\n        /* \"#utility.yul\":17095:17098   */\n      0xf8\n        /* \"#utility.yul\":17091:17106   */\n      shl\n        /* \"#utility.yul\":17070:17106   */\n      swap1\n      pop\n        /* \"#utility.yul\":17017:17113   */\n      swap2\n      swap1\n      pop\n      jump\t// out\n        /* \"#utility.yul\":17119:17212   */\n    tag_403:\n        /* \"#utility.yul\":17156:17163   */\n      0x00\n        /* \"#utility.yul\":17185:17206   */\n      tag_628\n        /* \"#utility.yul\":17200:17205   */\n      dup3\n        /* \"#utility.yul\":17185:17206   */\n      tag_402\n      jump\t// in\n    tag_628:\n        /* \"#utility.yul\":17174:17206   */\n      swap1\n      pop\n        /* \"#utility.yul\":17119:17212   */\n      swap2\n      swap1\n      pop\n      jump\t// out\n        /* \"#utility.yul\":17218:17410   */\n    tag_404:\n        /* \"#utility.yul\":17335:17403   */\n      tag_630\n        /* \"#utility.yul\":17353:17402   */\n      tag_631\n        /* \"#utility.yul\":17396:17401   */\n      dup3\n        /* \"#utility.yul\":17353:17402   */\n      tag_401\n      jump\t// in\n    tag_631:\n        /* \"#utility.yul\":17335:17403   */\n      tag_403\n      jump\t// in\n    tag_630:\n        /* \"#utility.yul\":17330:17333   */\n      dup3\n        /* \"#utility.yul\":17323:17404   */\n      mstore\n        /* \"#utility.yul\":17218:17410   */\n      pop\n      pop\n      jump\t// out\n        /* \"#utility.yul\":17416:17495   */\n    tag_405:\n        /* \"#utility.yul\":17455:17462   */\n      0x00\n        /* \"#utility.yul\":17484:17489   */\n      dup2\n        /* \"#utility.yul\":17473:17489   */\n      swap1\n      pop\n        /* \"#utility.yul\":17416:17495   */\n      swap2\n      swap1\n      pop\n      jump\t// out\n        /* \"#utility.yul\":17501:17658   */\n    tag_406:\n        /* \"#utility.yul\":17606:17651   */\n      tag_634\n        /* \"#utility.yul\":17626:17650   */\n      tag_635\n        /* \"#utility.yul\":17644:17649   */\n      dup3\n        /* \"#utility.yul\":17626:17650   */\n      tag_359\n      jump\t// in\n    tag_635:\n        /* \"#utility.yul\":17606:17651   */\n      tag_405\n      jump\t// in\n    tag_634:\n        /* \"#utility.yul\":17601:17604   */\n      dup3\n        /* \"#utility.yul\":17594:17652   */\n      mstore\n        /* \"#utility.yul\":17501:17658   */\n      pop\n      pop\n      jump\t// out\n        /* \"#utility.yul\":17664:18084   */\n    tag_116:\n        /* \"#utility.yul\":17816:17819   */\n      0x00\n        /* \"#utility.yul\":17831:17918   */\n      tag_637\n        /* \"#utility.yul\":17914:17917   */\n      dup3\n        /* \"#utility.yul\":17905:17911   */\n      dup6\n        /* \"#utility.yul\":17831:17918   */\n      tag_404\n      jump\t// in\n    tag_637:\n        /* \"#utility.yul\":17943:17944   */\n      0x01\n        /* \"#utility.yul\":17938:17941   */\n      dup3\n        /* \"#utility.yul\":17934:17945   */\n      add\n        /* \"#utility.yul\":17927:17945   */\n      swap2\n      pop\n        /* \"#utility.yul\":17955:18030   */\n      tag_638\n        /* \"#utility.yul\":18026:18029   */\n      dup3\n        /* \"#utility.yul\":18017:18023   */\n      dup5\n        /* \"#utility.yul\":17955:18030   */\n      tag_406\n      jump\t// in\n    tag_638:\n        /* \"#utility.yul\":18055:18057   */\n      0x20\n        /* \"#utility.yul\":18050:18053   */\n      dup3\n        /* \"#utility.yul\":18046:18058   */\n      add\n        /* \"#utility.yul\":18039:18058   */\n      swap2\n      pop\n        /* \"#utility.yul\":18075:18078   */\n      dup2\n        /* \"#utility.yul\":18068:18078   */\n      swap1\n      pop\n        /* \"#utility.yul\":17664:18084   */\n      swap4\n      swap3\n      pop\n      pop\n      pop\n      jump\t// out\n        /* \"#utility.yul\":18090:18266   */\n    tag_407:\n        /* \"#utility.yul\":18230:18258   */\n      0x566f746520646f6573206e6f74206d6174636820636f6d6d6974000000000000\n        /* \"#utility.yul\":18226:18227   */\n      0x00\n        /* \"#utility.yul\":18218:18224   */\n      dup3\n        /* \"#utility.yul\":18214:18228   */\n      add\n        /* \"#utility.yul\":18207:18259   */\n      mstore\n        /* \"#utility.yul\":18090:18266   */\n      pop\n      jump\t// out\n        /* \"#utility.yul\":18272:18638   */\n    tag_408:\n        /* \"#utility.yul\":18414:18417   */\n      0x00\n        /* \"#utility.yul\":18435:18502   */\n      tag_641\n        /* \"#utility.yul\":18499:18501   */\n      0x1a\n        /* \"#utility.yul\":18494:18497   */\n      dup4\n        /* \"#utility.yul\":18435:18502   */\n      tag_379\n      jump\t// in\n    tag_641:\n        /* \"#utility.yul\":18428:18502   */\n      swap2\n      pop\n        /* \"#utility.yul\":18511:18604   */\n      tag_642\n        /* \"#utility.yul\":18600:18603   */\n      dup3\n        /* \"#utility.yul\":18511:18604   */\n      tag_407\n      jump\t// in\n    tag_642:\n        /* \"#utility.yul\":18629:18631   */\n      0x20\n        /* \"#utility.yul\":18624:18627   */\n      dup3\n        /* \"#utility.yul\":18620:18632   */\n      add\n        /* \"#utility.yul\":18613:18632   */\n      swap1\n      pop\n        /* \"#utility.yul\":18272:18638   */\n      swap2\n      swap1\n      pop\n      jump\t// out\n        /* \"#utility.yul\":18644:19063   */\n    tag_119:\n        /* \"#utility.yul\":18810:18814   */\n      0x00\n        /* \"#utility.yul\":18848:18850   */\n      0x20\n        /* \"#utility.yul\":18837:18846   */\n      dup3\n        /* \"#utility.yul\":18833:18851   */\n      add\n        /* \"#utility.yul\":18825:18851   */\n      swap1\n      pop\n        /* \"#utility.yul\":18897:18906   */\n      dup2\n        /* \"#utility.yul\":18891:18895   */\n      dup2\n        /* \"#utility.yul\":18887:18907   */\n      sub\n        /* \"#utility.yul\":18883:18884   */\n      0x00\n        /* \"#utility.yul\":18872:18881   */\n      dup4\n        /* \"#utility.yul\":18868:18885   */\n      add\n        /* \"#utility.yul\":18861:18908   */\n      mstore\n        /* \"#utility.yul\":18925:19056   */\n      tag_644\n        /* \"#utility.yul\":19051:19055   */\n      dup2\n        /* \"#utility.yul\":18925:19056   */\n      tag_408\n      jump\t// in\n    tag_644:\n        /* \"#utility.yul\":18917:19056   */\n      swap1\n      pop\n        /* \"#utility.yul\":18644:19063   */\n      swap2\n      swap1\n      pop\n      jump\t// out\n        /* \"#utility.yul\":19069:19249   */\n    tag_409:\n        /* \"#utility.yul\":19117:19194   */\n      0x4e487b7100000000000000000000000000000000000000000000000000000000\n        /* \"#utility.yul\":19114:19115   */\n      0x00\n        /* \"#utility.yul\":19107:19195   */\n      mstore\n        /* \"#utility.yul\":19214:19218   */\n      0x11\n        /* \"#utility.yul\":19211:19212   */\n      0x04\n        /* \"#utility.yul\":19204:19219   */\n      mstore\n        /* \"#utility.yul\":19238:19242   */\n      0x24\n        /* \"#utility.yul\":19235:19236   */\n      0x00\n        /* \"#utility.yul\":19228:19243   */\n      revert\n        /* \"#utility.yul\":19255:19488   */\n    tag_128:\n        /* \"#utility.yul\":19294:19297   */\n      0x00\n        /* \"#utility.yul\":19317:19341   */\n      tag_647\n        /* \"#utility.yul\":19335:19340   */\n      dup3\n        /* \"#utility.yul\":19317:19341   */\n      tag_350\n      jump\t// in\n    tag_647:\n        /* \"#utility.yul\":19308:19341   */\n      swap2\n      pop\n        /* \"#utility.yul\":19363:19429   */\n      0xffffffffffffffffffffffffffffffffffffffffffffffffffffffffffffffff\n        /* \"#utility.yul\":19356:19361   */\n      dup3\n        /* \"#utility.yul\":19353:19430   */\n      sub\n        /* \"#utility.yul\":19350:19453   */\n      tag_648\n      jumpi\n        /* \"#utility.yul\":19433:19451   */\n      tag_649\n      tag_409\n      jump\t// in\n    tag_649:\n        /* \"#utility.yul\":19350:19453   */\n    tag_648:\n        /* \"#utility.yul\":19480:19481   */\n      0x01\n        /* \"#utility.yul\":19473:19478   */\n      dup3\n        /* \"#utility.yul\":19469:19482   */\n      add\n        /* \"#utility.yul\":19462:19482   */\n      swap1\n      pop\n        /* \"#utility.yul\":19255:19488   */\n      swap2\n      swap1\n      pop\n      jump\t// out\n        /* \"#utility.yul\":19494:19649   */\n    tag_410:\n        /* \"#utility.yul\":19593:19642   */\n      tag_651\n        /* \"#utility.yul\":19636:19641   */\n      dup2\n        /* \"#utility.yul\":19593:19642   */\n      tag_401\n      jump\t// in\n    tag_651:\n        /* \"#utility.yul\":19588:19591   */\n      dup3\n        /* \"#utility.yul\":19581:19643   */\n      mstore\n        /* \"#utility.yul\":19494:19649   */\n      pop\n      pop\n      jump\t// out\n        /* \"#utility.yul\":19655:19901   */\n    tag_137:\n        /* \"#utility.yul\":19760:19764   */\n      0x00\n        /* \"#utility.yul\":19798:19800   */\n      0x20\n        /* \"#utility.yul\":19787:19796   */\n      dup3\n        /* \"#utility.yul\":19783:19801   */\n      add\n        /* \"#utility.yul\":19775:19801   */\n      swap1\n      pop\n        /* \"#utility.yul\":19811:19894   */\n      tag_653\n        /* \"#utility.yul\":19891:19892   */\n      0x00\n        /* \"#utility.yul\":19880:19889   */\n      dup4\n        /* \"#utility.yul\":19876:19893   */\n      add\n        /* \"#utility.yul\":19867:19873   */\n      dup5\n        /* \"#utility.yul\":19811:19894   */\n      tag_410\n      jump\t// in\n    tag_653:\n        /* \"#utility.yul\":19655:19901   */\n      swap3\n      swap2\n      pop\n      pop\n      jump\t// out\n        /* \"#utility.yul\":19907:20083   */\n    tag_411:\n        /* \"#utility.yul\":20047:20075   */\n      0x43617365206e6f7420726561647920666f722076657264696374000000000000\n        /* \"#utility.yul\":20043:20044   */\n      0x00\n        /* \"#utility.yul\":20035:20041   */\n      dup3\n        /* \"#utility.yul\":20031:20045   */\n      add\n        /* \"#utility.yul\":20024:20076   */\n      mstore\n        /* \"#utility.yul\":19907:20083   */\n      pop\n      jump\t// out\n        /* \"#utility.yul\":20089:20455   */\n    tag_412:\n        /* \"#utility.yul\":20231:20234   */\n      0x00\n        /* \"#utility.yul\":20252:20319   */\n      tag_656\n        /* \"#utility.yul\":20316:20318   */\n      0x1a\n        /* \"#utility.yul\":20311:20314   */\n      dup4\n        /* \"#utility.yul\":20252:20319   */\n      tag_379\n      jump\t// in\n    tag_656:\n        /* \"#utility.yul\":20245:20319   */\n      swap2\n      pop\n        /* \"#utility.yul\":20328:20421   */\n      tag_657\n        /* \"#utility.yul\":20417:20420   */\n      dup3\n        /* \"#utility.yul\":20328:20421   */\n      tag_411\n      jump\t// in\n    tag_657:\n        /* \"#utility.yul\":20446:20448   */\n      0x20\n        /* \"#utility.yul\":20441:20444   */\n      dup3\n        /* \"#utility.yul\":20437:20449   */\n      add\n        /* \"#utility.yul\":20430:20449   */\n      swap1\n      pop\n        /* \"#utility.yul\":20089:20455   */\n      swap2\n      swap1\n      pop\n      jump\t// out\n        /* \"#utility.yul\":20461:20880   */\n    tag_148:\n        /* \"#utility.yul\":20627:20631   */\n      0x00\n        /* \"#utility.yul\":20665:20667   */\n      0x20\n        /* \"#utility.yul\":20654:20663   */\n      dup3\n        /* \"#utility.yul\":20650:20668   */\n      add\n        /* \"#utility.yul\":20642:20668   */\n      swap1\n      pop\n        /* \"#utility.yul\":20714:20723   */\n      dup2\n        /* \"#utility.yul\":20708:20712   */\n      dup2\n        /* \"#utility.yul\":20704:20724   */\n      sub\n        /* \"#utility.yul\":20700:20701   */\n      0x00\n        /* \"#utility.yul\":20689:20698   */\n      dup4\n        /* \"#utility.yul\":20685:20702   */\n      add\n        /* \"#utility.yul\":20678:20725   */\n      mstore\n        /* \"#utility.yul\":20742:20873   */\n      tag_659\n        /* \"#utility.yul\":20868:20872   */\n      dup2\n        /* \"#utility.yul\":20742:20873   */\n      tag_412\n      jump\t// in\n    tag_659:\n        /* \"#utility.yul\":20734:20873   */\n      swap1\n      pop\n        /* \"#utility.yul\":20461:20880   */\n      swap2\n      swap1\n      pop\n      jump\t// out\n        /* \"#utility.yul\":20886:21062   */\n    tag_413:\n        /* \"#utility.yul\":21026:21054   */\n      0x52657665616c207068617365206e6f7420656e64656420796574000000000000\n        /* \"#utility.yul\":21022:21023   */\n      0x00\n        /* \"#utility.yul\":21014:21020   */\n      dup3\n        /* \"#utility.yul\":21010:21024   */\n      add\n        /* \"#utility.yul\":21003:21055   */\n      mstore\n        /* \"#utility.yul\":20886:21062   */\n      pop\n      jump\t// out\n        /* \"#utility.yul\":21068:21434   */\n    tag_414:\n        /* \"#utility.yul\":21210:21213   */\n      0x00\n        /* \"#utility.yul\":21231:21298   */\n      tag_662\n        /* \"#utility.yul\":21295:21297   */\n      0x1a\n        /* \"#utility.yul\":21290:21293   */\n      dup4\n        /* \"#utility.yul\":21231:21298   */\n      tag_379\n      jump\t// in\n    tag_662:\n        /* \"#utility.yul\":21224:21298   */\n      swap2\n      pop\n        /* \"#utility.yul\":21307:21400   */\n      tag_663\n        /* \"#utility.yul\":21396:21399   */\n      dup3\n        /* \"#utility.yul\":21307:21400   */\n      tag_413\n      jump\t// in\n    tag_663:\n        /* \"#utility.yul\":21425:21427   */\n      0x20\n        /* \"#utility.yul\":21420:21423   */\n      dup3\n        /* \"#utility.yul\":21416:21428   */\n      add\n        /* \"#utility.yul\":21409:21428   */\n      swap1\n      pop\n        /* \"#utility.yul\":21068:21434   */\n      swap2\n      swap1\n      pop\n      jump\t// out\n        /* \"#utility.yul\":21440:21859   */\n    tag_151:\n        /* \"#utility.yul\":21606:21610   */\n      0x00\n        /* \"#utility.yul\":21644:21646   */\n      0x20\n        /* \"#utility.yul\":21633:21642   */\n      dup3\n        /* \"#utility.yul\":21629:21647   */\n      add\n        /* \"#utility.yul\":21621:21647   */\n      swap1\n      pop\n        /* \"#utility.yul\":21693:21702   */\n      dup2\n        /* \"#utility.yul\":21687:21691   */\n      dup2\n        /* \"#utility.yul\":21683:21703   */\n      sub\n        /* \"#utility.yul\":21679:21680   */\n      0x00\n        /* \"#utility.yul\":21668:21677   */\n      dup4\n        /* \"#utility.yul\":21664:21681   */\n      add\n        /* \"#utility.yul\":21657:21704   */\n      mstore\n        /* \"#utility.yul\":21721:21852   */\n      tag_665\n        /* \"#utility.yul\":21847:21851   */\n      dup2\n        /* \"#utility.yul\":21721:21852   */\n      tag_414\n      jump\t// in\n    tag_665:\n        /* \"#utility.yul\":21713:21852   */\n      swap1\n      pop\n        /* \"#utility.yul\":21440:21859   */\n      swap2\n      swap1\n      pop\n      jump\t// out\n        /* \"#utility.yul\":21865:22045   */\n    tag_163:\n        /* \"#utility.yul\":21913:21990   */\n      0x4e487b7100000000000000000000000000000000000000000000000000000000\n        /* \"#utility.yul\":21910:21911   */\n      0x00\n        /* \"#utility.yul\":21903:21991   */\n      mstore\n        /* \"#utility.yul\":22010:22014   */\n      0x32\n        /* \"#utility.yul\":22007:22008   */\n      0x04\n        /* \"#utility.yul\":22000:22015   */\n      mstore\n        /* \"#utility.yul\":22034:22038   */\n      0x24\n        /* \"#utility.yul\":22031:22032   */\n      0x00\n        /* \"#utility.yul\":22024:22039   */\n      revert\n        /* \"#utility.yul\":22051:22383   */\n    tag_188:\n        /* \"#utility.yul\":22172:22176   */\n      0x00\n        /* \"#utility.yul\":22210:22212   */\n      0x40\n        /* \"#utility.yul\":22199:22208   */\n      dup3\n        /* \"#utility.yul\":22195:22213   */\n      add\n        /* \"#utility.yul\":22187:22213   */\n      swap1\n      pop\n        /* \"#utility.yul\":22223:22294   */\n      tag_668\n        /* \"#utility.yul\":22291:22292   */\n      0x00\n        /* \"#utility.yul\":22280:22289   */\n      dup4\n        /* \"#utility.yul\":22276:22293   */\n      add\n        /* \"#utility.yul\":22267:22273   */\n      dup6\n        /* \"#utility.yul\":22223:22294   */\n      tag_377\n      jump\t// in\n    tag_668:\n        /* \"#utility.yul\":22304:22376   */\n      tag_669\n        /* \"#utility.yul\":22372:22374   */\n      0x20\n        /* \"#utility.yul\":22361:22370   */\n      dup4\n        /* \"#utility.yul\":22357:22375   */\n      add\n        /* \"#utility.yul\":22348:22354   */\n      dup5\n        /* \"#utility.yul\":22304:22376   */\n      tag_351\n      jump\t// in\n    tag_669:\n        /* \"#utility.yul\":22051:22383   */\n      swap4\n      swap3\n      pop\n      pop\n      pop\n      jump\t// out\n        /* \"#utility.yul\":22389:22505   */\n    tag_415:\n        /* \"#utility.yul\":22459:22480   */\n      tag_671\n        /* \"#utility.yul\":22474:22479   */\n      dup2\n        /* \"#utility.yul\":22459:22480   */\n      tag_375\n      jump\t// in\n    tag_671:\n        /* \"#utility.yul\":22452:22457   */\n      dup2\n        /* \"#utility.yul\":22449:22481   */\n      eq\n        /* \"#utility.yul\":22439:22499   */\n      tag_672\n      jumpi\n        /* \"#utility.yul\":22495:22496   */\n      0x00\n        /* \"#utility.yul\":22492:22493   */\n      0x00\n        /* \"#utility.yul\":22485:22497   */\n      revert\n        /* \"#utility.yul\":22439:22499   */\n    tag_672:\n        /* \"#utility.yul\":22389:22505   */\n      pop\n      jump\t// out\n        /* \"#utility.yul\":22511:22648   */\n    tag_416:\n        /* \"#utility.yul\":22565:22570   */\n      0x00\n        /* \"#utility.yul\":22596:22602   */\n      dup2\n        /* \"#utility.yul\":22590:22603   */\n      mload\n        /* \"#utility.yul\":22581:22603   */\n      swap1\n      pop\n        /* \"#utility.yul\":22612:22642   */\n      tag_674\n        /* \"#utility.yul\":22636:22641   */\n      dup2\n        /* \"#utility.yul\":22612:22642   */\n      tag_415\n      jump\t// in\n    tag_674:\n        /* \"#utility.yul\":22511:22648   */\n      swap3\n      swap2\n      pop\n      pop\n      jump\t// out\n        /* \"#utility.yul\":22654:22999   */\n    tag_192:\n        /* \"#utility.yul\":22721:22727   */\n      0x00\n        /* \"#utility.yul\":22770:22772   */\n      0x20\n        /* \"#utility.yul\":22758:22767   */\n      dup3\n        /* \"#utility.yul\":22749:22756   */\n      dup5\n        /* \"#utility.yul\":22745:22768   */\n      sub\n        /* \"#utility.yul\":22741:22773   */\n      slt\n        /* \"#utility.yul\":22738:22857   */\n      iszero\n      tag_676\n      jumpi\n        /* \"#utility.yul\":22776:22855   */\n      tag_677\n      tag_353\n      jump\t// in\n    tag_677:\n        /* \"#utility.yul\":22738:22857   */\n    tag_676:\n        /* \"#utility.yul\":22896:22897   */\n      0x00\n        /* \"#utility.yul\":22921:22982   */\n      tag_678\n        /* \"#utility.yul\":22974:22981   */\n      dup5\n        /* \"#utility.yul\":22965:22971   */\n      dup3\n        /* \"#utility.yul\":22954:22963   */\n      dup6\n        /* \"#utility.yul\":22950:22972   */\n      add\n        /* \"#utility.yul\":22921:22982   */\n      tag_416\n      jump\t// in\n    tag_678:\n        /* \"#utility.yul\":22911:22982   */\n      swap2\n      pop\n        /* \"#utility.yul\":22867:22992   */\n      pop\n        /* \"#utility.yul\":22654:22999   */\n      swap3\n      swap2\n      pop\n      pop\n      jump\t// out\n        /* \"#utility.yul\":23005:23558   */\n    tag_215:\n        /* \"#utility.yul\":23182:23186   */\n      0x00\n        /* \"#utility.yul\":23220:23223   */\n      0x80\n        /* \"#utility.yul\":23209:23218   */\n      dup3\n        /* \"#utility.yul\":23205:23224   */\n      add\n        /* \"#utility.yul\":23197:23224   */\n      swap1\n      pop\n        /* \"#utility.yul\":23234:23305   */\n      tag_680\n        /* \"#utility.yul\":23302:23303   */\n      0x00\n        /* \"#utility.yul\":23291:23300   */\n      dup4\n        /* \"#utility.yul\":23287:23304   */\n      add\n        /* \"#utility.yul\":23278:23284   */\n      dup8\n        /* \"#utility.yul\":23234:23305   */\n      tag_377\n      jump\t// in\n    tag_680:\n        /* \"#utility.yul\":23315:23387   */\n      tag_681\n        /* \"#utility.yul\":23383:23385   */\n      0x20\n        /* \"#utility.yul\":23372:23381   */\n      dup4\n        /* \"#utility.yul\":23368:23386   */\n      add\n        /* \"#utility.yul\":23359:23365   */\n      dup7\n        /* \"#utility.yul\":23315:23387   */\n      tag_351\n      jump\t// in\n    tag_681:\n        /* \"#utility.yul\":23397:23469   */\n      tag_682\n        /* \"#utility.yul\":23465:23467   */\n      0x40\n        /* \"#utility.yul\":23454:23463   */\n      dup4\n        /* \"#utility.yul\":23450:23468   */\n      add\n        /* \"#utility.yul\":23441:23447   */\n      dup6\n        /* \"#utility.yul\":23397:23469   */\n      tag_351\n      jump\t// in\n    tag_682:\n        /* \"#utility.yul\":23479:23551   */\n      tag_683\n        /* \"#utility.yul\":23547:23549   */\n      0x60\n        /* \"#utility.yul\":23536:23545   */\n      dup4\n        /* \"#utility.yul\":23532:23550   */\n      add\n        /* \"#utility.yul\":23523:23529   */\n      dup5\n        /* \"#utility.yul\":23479:23551   */\n      tag_351\n      jump\t// in\n    tag_683:\n        /* \"#utility.yul\":23005:23558   */\n      swap6\n      swap5\n      pop\n      pop\n      pop\n      pop\n      pop\n      jump\t// out\n        /* \"#utility.yul\":23564:23736   */\n    tag_417:\n        /* \"#utility.yul\":23704:23728   */\n      0x4e6f7420612072656769737465726564206a75726f7200000000000000000000\n        /* \"#utility.yul\":23700:23701   */\n      0x00\n        /* \"#utility.yul\":23692:23698   */\n      dup3\n        /* \"#utility.yul\":23688:23702   */\n      add\n        /* \"#utility.yul\":23681:23729   */\n      mstore\n        /* \"#utility.yul\":23564:23736   */\n      pop\n      jump\t// out\n        /* \"#utility.yul\":23742:24108   */\n    tag_418:\n        /* \"#utility.yul\":23884:23887   */\n      0x00\n        /* \"#utility.yul\":23905:23972   */\n      tag_686\n        /* \"#utility.yul\":23969:23971   */\n      0x16\n        /* \"#utility.yul\":23964:23967   */\n      dup4\n        /* \"#utility.yul\":23905:23972   */\n      tag_379\n      jump\t// in\n    tag_686:\n        /* \"#utility.yul\":23898:23972   */\n      swap2\n      pop\n        /* \"#utility.yul\":23981:24074   */\n      tag_687\n        /* \"#utility.yul\":24070:24073   */\n      dup3\n        /* \"#utility.yul\":23981:24074   */\n      tag_417\n      jump\t// in\n    tag_687:\n        /* \"#utility.yul\":24099:24101   */\n      0x20\n        /* \"#utility.yul\":24094:24097   */\n      dup3\n        /* \"#utility.yul\":24090:24102   */\n      add\n        /* \"#utility.yul\":24083:24102   */\n      swap1\n      pop\n        /* \"#utility.yul\":23742:24108   */\n      swap2\n      swap1\n      pop\n      jump\t// out\n        /* \"#utility.yul\":24114:24533   */\n    tag_221:\n        /* \"#utility.yul\":24280:24284   */\n      0x00\n        /* \"#utility.yul\":24318:24320   */\n      0x20\n        /* \"#utility.yul\":24307:24316   */\n      dup3\n        /* \"#utility.yul\":24303:24321   */\n      add\n        /* \"#utility.yul\":24295:24321   */\n      swap1\n      pop\n        /* \"#utility.yul\":24367:24376   */\n      dup2\n        /* \"#utility.yul\":24361:24365   */\n      dup2\n        /* \"#utility.yul\":24357:24377   */\n      sub\n        /* \"#utility.yul\":24353:24354   */\n      0x00\n        /* \"#utility.yul\":24342:24351   */\n      dup4\n        /* \"#utility.yul\":24338:24355   */\n      add\n        /* \"#utility.yul\":24331:24378   */\n      mstore\n        /* \"#utility.yul\":24395:24526   */\n      tag_689\n        /* \"#utility.yul\":24521:24525   */\n      dup2\n        /* \"#utility.yul\":24395:24526   */\n      tag_418\n      jump\t// in\n    tag_689:\n        /* \"#utility.yul\":24387:24526   */\n      swap1\n      pop\n        /* \"#utility.yul\":24114:24533   */\n      swap2\n      swap1\n      pop\n      jump\t// out\n        /* \"#utility.yul\":24539:24767   */\n    tag_419:\n        /* \"#utility.yul\":24679:24713   */\n      0x43616e6e6f7420756e7265676973746572207768696c652073657276696e6720\n        /* \"#utility.yul\":24675:24676   */\n      0x00\n        /* \"#utility.yul\":24667:24673   */\n      dup3\n        /* \"#utility.yul\":24663:24677   */\n      add\n        /* \"#utility.yul\":24656:24714   */\n      mstore\n        /* \"#utility.yul\":24748:24759   */\n      0x6f6e206120636173650000000000000000000000000000000000000000000000\n        /* \"#utility.yul\":24743:24745   */\n      0x20\n        /* \"#utility.yul\":24735:24741   */\n      dup3\n        /* \"#utility.yul\":24731:24746   */\n      add\n        /* \"#utility.yul\":24724:24760   */\n      mstore\n        /* \"#utility.yul\":24539:24767   */\n      pop\n      jump\t// out\n        /* \"#utility.yul\":24773:25139   */\n    tag_420:\n        /* \"#utility.yul\":24915:24918   */\n      0x00\n        /* \"#utility.yul\":24936:25003   */\n      tag_692\n        /* \"#utility.yul\":25000:25002   */\n      0x29\n        /* \"#utility.yul\":24995:24998   */\n      dup4\n        /* \"#utility.yul\":24936:25003   */\n      tag_379\n      jump\t// in\n    tag_692:\n        /* \"#utility.yul\":24929:25003   */\n      swap2\n      pop\n        /* \"#utility.yul\":25012:25105   */\n      tag_693\n        /* \"#utility.yul\":25101:25104   */\n      dup3\n        /* \"#utility.yul\":25012:25105   */\n      tag_419\n      jump\t// in\n    tag_693:\n        /* \"#utility.yul\":25130:25132   */\n      0x40\n        /* \"#utility.yul\":25125:25128   */\n      dup3\n        /* \"#utility.yul\":25121:25133   */\n      add\n        /* \"#utility.yul\":25114:25133   */\n      swap1\n      pop\n        /* \"#utility.yul\":24773:25139   */\n      swap2\n      swap1\n      pop\n      jump\t// out\n        /* \"#utility.yul\":25145:25564   */\n    tag_224:\n        /* \"#utility.yul\":25311:25315   */\n      0x00\n        /* \"#utility.yul\":25349:25351   */\n      0x20\n        /* \"#utility.yul\":25338:25347   */\n      dup3\n        /* \"#utility.yul\":25334:25352   */\n      add\n        /* \"#utility.yul\":25326:25352   */\n      swap1\n      pop\n        /* \"#utility.yul\":25398:25407   */\n      dup2\n        /* \"#utility.yul\":25392:25396   */\n      dup2\n        /* \"#utility.yul\":25388:25408   */\n      sub\n        /* \"#utility.yul\":25384:25385   */\n      0x00\n        /* \"#utility.yul\":25373:25382   */\n      dup4\n        /* \"#utility.yul\":25369:25386   */\n      add\n        /* \"#utility.yul\":25362:25409   */\n      mstore\n        /* \"#utility.yul\":25426:25557   */\n      tag_695\n        /* \"#utility.yul\":25552:25556   */\n      dup2\n        /* \"#utility.yul\":25426:25557   */\n      tag_420\n      jump\t// in\n    tag_695:\n        /* \"#utility.yul\":25418:25557   */\n      swap1\n      pop\n        /* \"#utility.yul\":25145:25564   */\n      swap2\n      swap1\n      pop\n      jump\t// out\n        /* \"#utility.yul\":25570:25764   */\n    tag_226:\n        /* \"#utility.yul\":25610:25614   */\n      0x00\n        /* \"#utility.yul\":25630:25650   */\n      tag_697\n        /* \"#utility.yul\":25648:25649   */\n      dup3\n        /* \"#utility.yul\":25630:25650   */\n      tag_350\n      jump\t// in\n    tag_697:\n        /* \"#utility.yul\":25625:25650   */\n      swap2\n      pop\n        /* \"#utility.yul\":25664:25684   */\n      tag_698\n        /* \"#utility.yul\":25682:25683   */\n      dup4\n        /* \"#utility.yul\":25664:25684   */\n      tag_350\n      jump\t// in\n    tag_698:\n        /* \"#utility.yul\":25659:25684   */\n      swap3\n      pop\n        /* \"#utility.yul\":25708:25709   */\n      dup3\n        /* \"#utility.yul\":25705:25706   */\n      dup3\n        /* \"#utility.yul\":25701:25710   */\n      sub\n        /* \"#utility.yul\":25693:25710   */\n      swap1\n      pop\n        /* \"#utility.yul\":25732:25733   */\n      dup2\n        /* \"#utility.yul\":25726:25730   */\n      dup2\n        /* \"#utility.yul\":25723:25734   */\n      gt\n        /* \"#utility.yul\":25720:25757   */\n      iszero\n      tag_699\n      jumpi\n        /* \"#utility.yul\":25737:25755   */\n      tag_700\n      tag_409\n      jump\t// in\n    tag_700:\n        /* \"#utility.yul\":25720:25757   */\n    tag_699:\n        /* \"#utility.yul\":25570:25764   */\n      swap3\n      swap2\n      pop\n      pop\n      jump\t// out\n        /* \"#utility.yul\":25770:25950   */\n    tag_235:\n        /* \"#utility.yul\":25818:25895   */\n      0x4e487b7100000000000000000000000000000000000000000000000000000000\n        /* \"#utility.yul\":25815:25816   */\n      0x00\n        /* \"#utility.yul\":25808:25896   */\n      mstore\n        /* \"#utility.yul\":25915:25919   */\n      0x31\n        /* \"#utility.yul\":25912:25913   */\n      0x04\n        /* \"#utility.yul\":25905:25920   */\n      mstore\n        /* \"#utility.yul\":25939:25943   */\n      0x24\n        /* \"#utility.yul\":25936:25937   */\n      0x00\n        /* \"#utility.yul\":25929:25944   */\n      revert\n        /* \"#utility.yul\":25956:26127   */\n    tag_421:\n        /* \"#utility.yul\":26096:26119   */\n      0x546f6b656e207472616e73666572206661696c65640000000000000000000000\n        /* \"#utility.yul\":26092:26093   */\n      0x00\n        /* \"#utility.yul\":26084:26090   */\n      dup3\n        /* \"#utility.yul\":26080:26094   */\n      add\n        /* \"#utility.yul\":26073:26120   */\n      mstore\n        /* \"#utility.yul\":25956:26127   */\n      pop\n      jump\t// out\n        /* \"#utility.yul\":26133:26499   */\n    tag_422:\n        /* \"#utility.yul\":26275:26278   */\n      0x00\n        /* \"#utility.yul\":26296:26363   */\n      tag_704\n        /* \"#utility.yul\":26360:26362   */\n      0x15\n        /* \"#utility.yul\":26355:26358   */\n      dup4\n        /* \"#utility.yul\":26296:26363   */\n      tag_379\n      jump\t// in\n    tag_704:\n        /* \"#utility.yul\":26289:26363   */\n      swap2\n      pop\n        /* \"#utility.yul\":26372:26465   */\n      tag_705\n        /* \"#utility.yul\":26461:26464   */\n      dup3\n        /* \"#utility.yul\":26372:26465   */\n      tag_421\n      jump\t// in\n    tag_705:\n        /* \"#utility.yul\":26490:26492   */\n      0x20\n        /* \"#utility.yul\":26485:26488   */\n      dup3\n        /* \"#utility.yul\":26481:26493   */\n      add\n        /* \"#utility.yul\":26474:26493   */\n      swap1\n      pop\n        /* \"#utility.yul\":26133:26499   */\n      swap2\n      swap1\n      pop\n      jump\t// out\n        /* \"#utility.yul\":26505:26924   */\n    tag_243:\n        /* \"#utility.yul\":26671:26675   */\n      0x00\n        /* \"#utility.yul\":26709:26711   */\n      0x20\n        /* \"#utility.yul\":26698:26707   */\n      dup3\n        /* \"#utility.yul\":26694:26712   */\n      add\n        /* \"#utility.yul\":26686:26712   */\n      swap1\n      pop\n        /* \"#utility.yul\":26758:26767   */\n      dup2\n        /* \"#utility.yul\":26752:26756   */\n      dup2\n        /* \"#utility.yul\":26748:26768   */\n      sub\n        /* \"#utility.yul\":26744:26745   */\n      0x00\n        /* \"#utility.yul\":26733:26742   */\n      dup4\n        /* \"#utility.yul\":26729:26746   */\n      add\n        /* \"#utility.yul\":26722:26769   */\n      mstore\n        /* \"#utility.yul\":26786:26917   */\n      tag_707\n        /* \"#utility.yul\":26912:26916   */\n      dup2\n        /* \"#utility.yul\":26786:26917   */\n      tag_422\n      jump\t// in\n    tag_707:\n        /* \"#utility.yul\":26778:26917   */\n      swap1\n      pop\n        /* \"#utility.yul\":26505:26924   */\n      swap2\n      swap1\n      pop\n      jump\t// out\n        /* \"#utility.yul\":26930:27098   */\n    tag_423:\n        /* \"#utility.yul\":27070:27090   */\n      0x416c726561647920726567697374657265640000000000000000000000000000\n        /* \"#utility.yul\":27066:27067   */\n      0x00\n        /* \"#utility.yul\":27058:27064   */\n      dup3\n        /* \"#utility.yul\":27054:27068   */\n      add\n        /* \"#utility.yul\":27047:27091   */\n      mstore\n        /* \"#utility.yul\":26930:27098   */\n      pop\n      jump\t// out\n        /* \"#utility.yul\":27104:27470   */\n    tag_424:\n        /* \"#utility.yul\":27246:27249   */\n      0x00\n        /* \"#utility.yul\":27267:27334   */\n      tag_710\n        /* \"#utility.yul\":27331:27333   */\n      0x12\n        /* \"#utility.yul\":27326:27329   */\n      dup4\n        /* \"#utility.yul\":27267:27334   */\n      tag_379\n      jump\t// in\n    tag_710:\n        /* \"#utility.yul\":27260:27334   */\n      swap2\n      pop\n        /* \"#utility.yul\":27343:27436   */\n      tag_711\n        /* \"#utility.yul\":27432:27435   */\n      dup3\n        /* \"#utility.yul\":27343:27436   */\n      tag_423\n      jump\t// in\n    tag_711:\n        /* \"#utility.yul\":27461:27463   */\n      0x20\n        /* \"#utility.yul\":27456:27459   */\n      dup3\n        /* \"#utility.yul\":27452:27464   */\n      add\n        /* \"#utility.yul\":27445:27464   */\n      swap1\n      pop\n        /* \"#utility.yul\":27104:27470   */\n      swap2\n      swap1\n      pop\n      jump\t// out\n        /* \"#utility.yul\":27476:27895   */\n    tag_247:\n        /* \"#utility.yul\":27642:27646   */\n      0x00\n        /* \"#utility.yul\":27680:27682   */\n      0x20\n        /* \"#utility.yul\":27669:27678   */\n      dup3\n        /* \"#utility.yul\":27665:27683   */\n      add\n        /* \"#utility.yul\":27657:27683   */\n      swap1\n      pop\n        /* \"#utility.yul\":27729:27738   */\n      dup2\n        /* \"#utility.yul\":27723:27727   */\n      dup2\n        /* \"#utility.yul\":27719:27739   */\n      sub\n        /* \"#utility.yul\":27715:27716   */\n      0x00\n        /* \"#utility.yul\":27704:27713   */\n      dup4\n        /* \"#utility.yul\":27700:27717   */\n      add\n        /* \"#utility.yul\":27693:27740   */\n      mstore\n        /* \"#utility.yul\":27757:27888   */\n      tag_713\n        /* \"#utility.yul\":27883:27887   */\n      dup2\n        /* \"#utility.yul\":27757:27888   */\n      tag_424\n      jump\t// in\n    tag_713:\n        /* \"#utility.yul\":27749:27888   */\n      swap1\n      pop\n        /* \"#utility.yul\":27476:27895   */\n      swap2\n      swap1\n      pop\n      jump\t// out\n        /* \"#utility.yul\":27901:28343   */\n    tag_249:\n        /* \"#utility.yul\":28050:28054   */\n      0x00\n        /* \"#utility.yul\":28088:28090   */\n      0x60\n        /* \"#utility.yul\":28077:28086   */\n      dup3\n        /* \"#utility.yul\":28073:28091   */\n      add\n        /* \"#utility.yul\":28065:28091   */\n      swap1\n      pop\n        /* \"#utility.yul\":28101:28172   */\n      tag_715\n        /* \"#utility.yul\":28169:28170   */\n      0x00\n        /* \"#utility.yul\":28158:28167   */\n      dup4\n        /* \"#utility.yul\":28154:28171   */\n      add\n        /* \"#utility.yul\":28145:28151   */\n      dup7\n        /* \"#utility.yul\":28101:28172   */\n      tag_377\n      jump\t// in\n    tag_715:\n        /* \"#utility.yul\":28182:28254   */\n      tag_716\n        /* \"#utility.yul\":28250:28252   */\n      0x20\n        /* \"#utility.yul\":28239:28248   */\n      dup4\n        /* \"#utility.yul\":28235:28253   */\n      add\n        /* \"#utility.yul\":28226:28232   */\n      dup6\n        /* \"#utility.yul\":28182:28254   */\n      tag_377\n      jump\t// in\n    tag_716:\n        /* \"#utility.yul\":28264:28336   */\n      tag_717\n        /* \"#utility.yul\":28332:28334   */\n      0x40\n        /* \"#utility.yul\":28321:28330   */\n      dup4\n        /* \"#utility.yul\":28317:28335   */\n      add\n        /* \"#utility.yul\":28308:28314   */\n      dup5\n        /* \"#utility.yul\":28264:28336   */\n      tag_351\n      jump\t// in\n    tag_717:\n        /* \"#utility.yul\":27901:28343   */\n      swap5\n      swap4\n      pop\n      pop\n      pop\n      pop\n      jump\t// out\n        /* \"#utility.yul\":28349:28575   */\n    tag_425:\n        /* \"#utility.yul\":28489:28523   */\n      0x546f6b656e207472616e73666572206661696c65642e2044696420796f752061\n        /* \"#utility.yul\":28485:28486   */\n      0x00\n        /* \"#utility.yul\":28477:28483   */\n      dup3\n        /* \"#utility.yul\":28473:28487   */\n      add\n        /* \"#utility.yul\":28466:28524   */\n      mstore\n        /* \"#utility.yul\":28558:28567   */\n      0x7070726f76653f00000000000000000000000000000000000000000000000000\n        /* \"#utility.yul\":28553:28555   */\n      0x20\n        /* \"#utility.yul\":28545:28551   */\n      dup3\n        /* \"#utility.yul\":28541:28556   */\n      add\n        /* \"#utility.yul\":28534:28568   */\n      mstore\n        /* \"#utility.yul\":28349:28575   */\n      pop\n      jump\t// out\n        /* \"#utility.yul\":28581:28947   */\n    tag_426:\n        /* \"#utility.yul\":28723:28726   */\n      0x00\n        /* \"#utility.yul\":28744:28811   */\n      tag_720\n        /* \"#utility.yul\":28808:28810   */\n      0x27\n        /* \"#utility.yul\":28803:28806   */\n      dup4\n        /* \"#utility.yul\":28744:28811   */\n      tag_379\n      jump\t// in\n    tag_720:\n        /* \"#utility.yul\":28737:28811   */\n      swap2\n      pop\n        /* \"#utility.yul\":28820:28913   */\n      tag_721\n        /* \"#utility.yul\":28909:28912   */\n      dup3\n        /* \"#utility.yul\":28820:28913   */\n      tag_425\n      jump\t// in\n    tag_721:\n        /* \"#utility.yul\":28938:28940   */\n      0x40\n        /* \"#utility.yul\":28933:28936   */\n      dup3\n        /* \"#utility.yul\":28929:28941   */\n      add\n        /* \"#utility.yul\":28922:28941   */\n      swap1\n      pop\n        /* \"#utility.yul\":28581:28947   */\n      swap2\n      swap1\n      pop\n      jump\t// out\n        /* \"#utility.yul\":28953:29372   */\n    tag_255:\n        /* \"#utility.yul\":29119:29123   */\n      0x00\n        /* \"#utility.yul\":29157:29159   */\n      0x20\n        /* \"#utility.yul\":29146:29155   */\n      dup3\n        /* \"#utility.yul\":29142:29160   */\n      add\n        /* \"#utility.yul\":29134:29160   */\n      swap1\n      pop\n        /* \"#utility.yul\":29206:29215   */\n      dup2\n        /* \"#utility.yul\":29200:29204   */\n      dup2\n        /* \"#utility.yul\":29196:29216   */\n      sub\n        /* \"#utility.yul\":29192:29193   */\n      0x00\n        /* \"#utility.yul\":29181:29190   */\n      dup4\n        /* \"#utility.yul\":29177:29194   */\n      add\n        /* \"#utility.yul\":29170:29217   */\n      mstore\n        /* \"#utility.yul\":29234:29365   */\n      tag_723\n        /* \"#utility.yul\":29360:29364   */\n      dup2\n        /* \"#utility.yul\":29234:29365   */\n      tag_426\n      jump\t// in\n    tag_723:\n        /* \"#utility.yul\":29226:29365   */\n      swap1\n      pop\n        /* \"#utility.yul\":28953:29372   */\n      swap2\n      swap1\n      pop\n      jump\t// out\n        /* \"#utility.yul\":29378:29546   */\n    tag_427:\n        /* \"#utility.yul\":29518:29538   */\n      0x436f6d6d697420706861736520656e6465640000000000000000000000000000\n        /* \"#utility.yul\":29514:29515   */\n      0x00\n        /* \"#utility.yul\":29506:29512   */\n      dup3\n        /* \"#utility.yul\":29502:29516   */\n      add\n        /* \"#utility.yul\":29495:29539   */\n      mstore\n        /* \"#utility.yul\":29378:29546   */\n      pop\n      jump\t// out\n        /* \"#utility.yul\":29552:29918   */\n    tag_428:\n        /* \"#utility.yul\":29694:29697   */\n      0x00\n        /* \"#utility.yul\":29715:29782   */\n      tag_726\n        /* \"#utility.yul\":29779:29781   */\n      0x12\n        /* \"#utility.yul\":29774:29777   */\n      dup4\n        /* \"#utility.yul\":29715:29782   */\n      tag_379\n      jump\t// in\n    tag_726:\n        /* \"#utility.yul\":29708:29782   */\n      swap2\n      pop\n        /* \"#utility.yul\":29791:29884   */\n      tag_727\n        /* \"#utility.yul\":29880:29883   */\n      dup3\n        /* \"#utility.yul\":29791:29884   */\n      tag_427\n      jump\t// in\n    tag_727:\n        /* \"#utility.yul\":29909:29911   */\n      0x20\n        /* \"#utility.yul\":29904:29907   */\n      dup3\n        /* \"#utility.yul\":29900:29912   */\n      add\n        /* \"#utility.yul\":29893:29912   */\n      swap1\n      pop\n        /* \"#utility.yul\":29552:29918   */\n      swap2\n      swap1\n      pop\n      jump\t// out\n        /* \"#utility.yul\":29924:30343   */\n    tag_268:\n        /* \"#utility.yul\":30090:30094   */\n      0x00\n        /* \"#utility.yul\":30128:30130   */\n      0x20\n        /* \"#utility.yul\":30117:30126   */\n      dup3\n        /* \"#utility.yul\":30113:30131   */\n      add\n        /* \"#utility.yul\":30105:30131   */\n      swap1\n      pop\n        /* \"#utility.yul\":30177:30186   */\n      dup2\n        /* \"#utility.yul\":30171:30175   */\n      dup2\n        /* \"#utility.yul\":30167:30187   */\n      sub\n        /* \"#utility.yul\":30163:30164   */\n      0x00\n        /* \"#utility.yul\":30152:30161   */\n      dup4\n        /* \"#utility.yul\":30148:30165   */\n      add\n        /* \"#utility.yul\":30141:30188   */\n      mstore\n        /* \"#utility.yul\":30205:30336   */\n      tag_729\n        /* \"#utility.yul\":30331:30335   */\n      dup2\n        /* \"#utility.yul\":30205:30336   */\n      tag_428\n      jump\t// in\n    tag_729:\n        /* \"#utility.yul\":30197:30336   */\n      swap1\n      pop\n        /* \"#utility.yul\":29924:30343   */\n      swap2\n      swap1\n      pop\n      jump\t// out\n        /* \"#utility.yul\":30349:30516   */\n    tag_429:\n        /* \"#utility.yul\":30489:30508   */\n      0x416c726561647920636f6d6d6974746564000000000000000000000000000000\n        /* \"#utility.yul\":30485:30486   */\n      0x00\n        /* \"#utility.yul\":30477:30483   */\n      dup3\n        /* \"#utility.yul\":30473:30487   */\n      add\n        /* \"#utility.yul\":30466:30509   */\n      mstore\n        /* \"#utility.yul\":30349:30516   */\n      pop\n      jump\t// out\n        /* \"#utility.yul\":30522:30888   */\n    tag_430:\n        /* \"#utility.yul\":30664:30667   */\n      0x00\n        /* \"#utility.yul\":30685:30752   */\n      tag_732\n        /* \"#utility.yul\":30749:30751   */\n      0x11\n        /* \"#utility.yul\":30744:30747   */\n      dup4\n        /* \"#utility.yul\":30685:30752   */\n      tag_379\n      jump\t// in\n    tag_732:\n        /* \"#utility.yul\":30678:30752   */\n      swap2\n      pop\n        /* \"#utility.yul\":30761:30854   */\n      tag_733\n        /* \"#utility.yul\":30850:30853   */\n      dup3\n        /* \"#utility.yul\":30761:30854   */\n      tag_429\n      jump\t// in\n    tag_733:\n        /* \"#utility.yul\":30879:30881   */\n      0x20\n        /* \"#utility.yul\":30874:30877   */\n      dup3\n        /* \"#utility.yul\":30870:30882   */\n      add\n        /* \"#utility.yul\":30863:30882   */\n      swap1\n      pop\n        /* \"#utility.yul\":30522:30888   */\n      swap2\n      swap1\n      pop\n      jump\t// out\n        /* \"#utility.yul\":30894:31313   */\n    tag_274:\n        /* \"#utility.yul\":31060:31064   */\n      0x00\n        /* \"#utility.yul\":31098:31100   */\n      0x20\n        /* \"#utility.yul\":31087:31096   */\n      dup3\n        /* \"#utility.yul\":31083:31101   */\n      add\n        /* \"#utility.yul\":31075:31101   */\n      swap1\n      pop\n        /* \"#utility.yul\":31147:31156   */\n      dup2\n        /* \"#utility.yul\":31141:31145   */\n      dup2\n        /* \"#utility.yul\":31137:31157   */\n      sub\n        /* \"#utility.yul\":31133:31134   */\n      0x00\n        /* \"#utility.yul\":31122:31131   */\n      dup4\n        /* \"#utility.yul\":31118:31135   */\n      add\n        /* \"#utility.yul\":31111:31158   */\n      mstore\n        /* \"#utility.yul\":31175:31306   */\n      tag_735\n        /* \"#utility.yul\":31301:31305   */\n      dup2\n        /* \"#utility.yul\":31175:31306   */\n      tag_430\n      jump\t// in\n    tag_735:\n        /* \"#utility.yul\":31167:31306   */\n      swap1\n      pop\n        /* \"#utility.yul\":30894:31313   */\n      swap2\n      swap1\n      pop\n      jump\t// out\n        /* \"#utility.yul\":31319:31486   */\n    tag_431:\n        /* \"#utility.yul\":31459:31478   */\n      0x496e76616c696420646566656e64616e74000000000000000000000000000000\n        /* \"#utility.yul\":31455:31456   */\n      0x00\n        /* \"#utility.yul\":31447:31453   */\n      dup3\n        /* \"#utility.yul\":31443:31457   */\n      add\n        /* \"#utility.yul\":31436:31479   */\n      mstore\n        /* \"#utility.yul\":31319:31486   */\n      pop\n      jump\t// out\n        /* \"#utility.yul\":31492:31858   */\n    tag_432:\n        /* \"#utility.yul\":31634:31637   */\n      0x00\n        /* \"#utility.yul\":31655:31722   */\n      tag_738\n        /* \"#utility.yul\":31719:31721   */\n      0x11\n        /* \"#utility.yul\":31714:31717   */\n      dup4\n        /* \"#utility.yul\":31655:31722   */\n      tag_379\n      jump\t// in\n    tag_738:\n        /* \"#utility.yul\":31648:31722   */\n      swap2\n      pop\n        /* \"#utility.yul\":31731:31824   */\n      tag_739\n        /* \"#utility.yul\":31820:31823   */\n      dup3\n        /* \"#utility.yul\":31731:31824   */\n      tag_431\n      jump\t// in\n    tag_739:\n        /* \"#utility.yul\":31849:31851   */\n      0x20\n        /* \"#utility.yul\":31844:31847   */\n      dup3\n        /* \"#utility.yul\":31840:31852   */\n      add\n        /* \"#utility.yul\":31833:31852   */\n      swap1\n      pop\n        /* \"#utility.yul\":31492:31858   */\n      swap2\n      swap1\n      pop\n      jump\t// out\n        /* \"#utility.yul\":31864:32283   */\n    tag_279:\n        /* \"#utility.yul\":32030:32034   */\n      0x00\n        /* \"#utility.yul\":32068:32070   */\n      0x20\n        /* \"#utility.yul\":32057:32066   */\n      dup3\n        /* \"#utility.yul\":32053:32071   */\n      add\n        /* \"#utility.yul\":32045:32071   */\n      swap1\n      pop\n        /* \"#utility.yul\":32117:32126   */\n      dup2\n        /* \"#utility.yul\":32111:32115   */\n      dup2\n        /* \"#utility.yul\":32107:32127   */\n      sub\n        /* \"#utility.yul\":32103:32104   */\n      0x00\n        /* \"#utility.yul\":32092:32101   */\n      dup4\n        /* \"#utility.yul\":32088:32105   */\n      add\n        /* \"#utility.yul\":32081:32128   */\n      mstore\n        /* \"#utility.yul\":32145:32276   */\n      tag_741\n        /* \"#utility.yul\":32271:32275   */\n      dup2\n        /* \"#utility.yul\":32145:32276   */\n      tag_432\n      jump\t// in\n    tag_741:\n        /* \"#utility.yul\":32137:32276   */\n      swap1\n      pop\n        /* \"#utility.yul\":31864:32283   */\n      swap2\n      swap1\n      pop\n      jump\t// out\n        /* \"#utility.yul\":32289:32466   */\n    tag_433:\n        /* \"#utility.yul\":32429:32458   */\n      0x4e6f7420656e6f75676820617661696c61626c65206a75726f72730000000000\n        /* \"#utility.yul\":32425:32426   */\n      0x00\n        /* \"#utility.yul\":32417:32423   */\n      dup3\n        /* \"#utility.yul\":32413:32427   */\n      add\n        /* \"#utility.yul\":32406:32459   */\n      mstore\n        /* \"#utility.yul\":32289:32466   */\n      pop\n      jump\t// out\n        /* \"#utility.yul\":32472:32838   */\n    tag_434:\n        /* \"#utility.yul\":32614:32617   */\n      0x00\n        /* \"#utility.yul\":32635:32702   */\n      tag_744\n        /* \"#utility.yul\":32699:32701   */\n      0x1b\n        /* \"#utility.yul\":32694:32697   */\n      dup4\n        /* \"#utility.yul\":32635:32702   */\n      tag_379\n      jump\t// in\n    tag_744:\n        /* \"#utility.yul\":32628:32702   */\n      swap2\n      pop\n        /* \"#utility.yul\":32711:32804   */\n      tag_745\n        /* \"#utility.yul\":32800:32803   */\n      dup3\n        /* \"#utility.yul\":32711:32804   */\n      tag_433\n      jump\t// in\n    tag_745:\n        /* \"#utility.yul\":32829:32831   */\n      0x20\n        /* \"#utility.yul\":32824:32827   */\n      dup3\n        /* \"#utility.yul\":32820:32832   */\n      add\n        /* \"#utility.yul\":32813:32832   */\n      swap1\n      pop\n        /* \"#utility.yul\":32472:32838   */\n      swap2\n      swap1\n      pop\n      jump\t// out\n        /* \"#utility.yul\":32844:33263   */\n    tag_282:\n        /* \"#utility.yul\":33010:33014   */\n      0x00\n        /* \"#utility.yul\":33048:33050   */\n      0x20\n        /* \"#utility.yul\":33037:33046   */\n      dup3\n        /* \"#utility.yul\":33033:33051   */\n      add\n        /* \"#utility.yul\":33025:33051   */\n      swap1\n      pop\n        /* \"#utility.yul\":33097:33106   */\n      dup2\n        /* \"#utility.yul\":33091:33095   */\n      dup2\n        /* \"#utility.yul\":33087:33107   */\n      sub\n        /* \"#utility.yul\":33083:33084   */\n      0x00\n        /* \"#utility.yul\":33072:33081   */\n      dup4\n        /* \"#utility.yul\":33068:33085   */\n      add\n        /* \"#utility.yul\":33061:33108   */\n      mstore\n        /* \"#utility.yul\":33125:33256   */\n      tag_747\n        /* \"#utility.yul\":33251:33255   */\n      dup2\n        /* \"#utility.yul\":33125:33256   */\n      tag_434\n      jump\t// in\n    tag_747:\n        /* \"#utility.yul\":33117:33256   */\n      swap1\n      pop\n        /* \"#utility.yul\":32844:33263   */\n      swap2\n      swap1\n      pop\n      jump\t// out\n        /* \"#utility.yul\":33269:33500   */\n    tag_435:\n        /* \"#utility.yul\":33409:33443   */\n      0x46696c696e6720666565207472616e73666572206661696c65642e2044696420\n        /* \"#utility.yul\":33405:33406   */\n      0x00\n        /* \"#utility.yul\":33397:33403   */\n      dup3\n        /* \"#utility.yul\":33393:33407   */\n      add\n        /* \"#utility.yul\":33386:33444   */\n      mstore\n        /* \"#utility.yul\":33478:33492   */\n      0x796f7520617070726f76653f0000000000000000000000000000000000000000\n        /* \"#utility.yul\":33473:33475   */\n      0x20\n        /* \"#utility.yul\":33465:33471   */\n      dup3\n        /* \"#utility.yul\":33461:33476   */\n      add\n        /* \"#utility.yul\":33454:33493   */\n      mstore\n        /* \"#utility.yul\":33269:33500   */\n      pop\n      jump\t// out\n        /* \"#utility.yul\":33506:33872   */\n    tag_436:\n        /* \"#utility.yul\":33648:33651   */\n      0x00\n        /* \"#utility.yul\":33669:33736   */\n      tag_750\n        /* \"#utility.yul\":33733:33735   */\n      0x2c\n        /* \"#utility.yul\":33728:33731   */\n      dup4\n        /* \"#utility.yul\":33669:33736   */\n      tag_379\n      jump\t// in\n    tag_750:\n        /* \"#utility.yul\":33662:33736   */\n      swap2\n      pop\n        /* \"#utility.yul\":33745:33838   */\n      tag_751\n        /* \"#utility.yul\":33834:33837   */\n      dup3\n        /* \"#utility.yul\":33745:33838   */\n      tag_435\n      jump\t// in\n    tag_751:\n        /* \"#utility.yul\":33863:33865   */\n      0x40\n        /* \"#utility.yul\":33858:33861   */\n      dup3\n        /* \"#utility.yul\":33854:33866   */\n      add\n        /* \"#utility.yul\":33847:33866   */\n      swap1\n      pop\n        /* \"#utility.yul\":33506:33872   */\n      swap2\n      swap1\n      pop\n      jump\t// out\n        /* \"#utility.yul\":33878:34297   */\n    tag_289:\n        /* \"#utility.yul\":34044:34048   */\n      0x00\n        /* \"#utility.yul\":34082:34084   */\n      0x20\n        /* \"#utility.yul\":34071:34080   */\n      dup3\n        /* \"#utility.yul\":34067:34085   */\n      add\n        /* \"#utility.yul\":34059:34085   */\n      swap1\n      pop\n        /* \"#utility.yul\":34131:34140   */\n      dup2\n        /* \"#utility.yul\":34125:34129   */\n      dup2\n        /* \"#utility.yul\":34121:34141   */\n      sub\n        /* \"#utility.yul\":34117:34118   */\n      0x00\n        /* \"#utility.yul\":34106:34115   */\n      dup4\n        /* \"#utility.yul\":34102:34119   */\n      add\n        /* \"#utility.yul\":34095:34142   */\n      mstore\n        /* \"#utility.yul\":34159:34290   */\n      tag_753\n        /* \"#utility.yul\":34285:34289   */\n      dup2\n        /* \"#utility.yul\":34159:34290   */\n      tag_436\n      jump\t// in\n    tag_753:\n        /* \"#utility.yul\":34151:34290   */\n      swap1\n      pop\n        /* \"#utility.yul\":33878:34297   */\n      swap2\n      swap1\n      pop\n      jump\t// out\n        /* \"#utility.yul\":34303:34400   */\n    tag_437:\n        /* \"#utility.yul\":34362:34368   */\n      0x00\n        /* \"#utility.yul\":34390:34393   */\n      dup3\n        /* \"#utility.yul\":34380:34393   */\n      swap1\n      pop\n        /* \"#utility.yul\":34303:34400   */\n      swap3\n      swap2\n      pop\n      pop\n      jump\t// out\n        /* \"#utility.yul\":34406:34586   */\n    tag_438:\n        /* \"#utility.yul\":34454:34531   */\n      0x4e487b7100000000000000000000000000000000000000000000000000000000\n        /* \"#utility.yul\":34451:34452   */\n      0x00\n        /* \"#utility.yul\":34444:34532   */\n      mstore\n        /* \"#utility.yul\":34551:34555   */\n      0x41\n        /* \"#utility.yul\":34548:34549   */\n      0x04\n        /* \"#utility.yul\":34541:34556   */\n      mstore\n        /* \"#utility.yul\":34575:34579   */\n      0x24\n        /* \"#utility.yul\":34572:34573   */\n      0x00\n        /* \"#utility.yul\":34565:34580   */\n      revert\n        /* \"#utility.yul\":34592:34772   */\n    tag_439:\n        /* \"#utility.yul\":34640:34717   */\n      0x4e487b7100000000000000000000000000000000000000000000000000000000\n        /* \"#utility.yul\":34637:34638   */\n      0x00\n        /* \"#utility.yul\":34630:34718   */\n      mstore\n        /* \"#utility.yul\":34737:34741   */\n      0x22\n        /* \"#utility.yul\":34734:34735   */\n      0x04\n        /* \"#utility.yul\":34727:34742   */\n      mstore\n        /* \"#utility.yul\":34761:34765   */\n      0x24\n        /* \"#utility.yul\":34758:34759   */\n      0x00\n        /* \"#utility.yul\":34751:34766   */\n      revert\n        /* \"#utility.yul\":34778:35098   */\n    tag_302:\n        /* \"#utility.yul\":34822:34828   */\n      0x00\n        /* \"#utility.yul\":34859:34860   */\n      0x02\n        /* \"#utility.yul\":34853:34857   */\n      dup3\n        /* \"#utility.yul\":34849:34861   */\n      div\n        /* \"#utility.yul\":34839:34861   */\n      swap1\n      pop\n        /* \"#utility.yul\":34906:34907   */\n      0x01\n        /* \"#utility.yul\":34900:34904   */\n      dup3\n        /* \"#utility.yul\":34896:34908   */\n      and\n        /* \"#utility.yul\":34927:34945   */\n      dup1\n        /* \"#utility.yul\":34917:34998   */\n      tag_758\n      jumpi\n        /* \"#utility.yul\":34983:34987   */\n      0x7f\n        /* \"#utility.yul\":34975:34981   */\n      dup3\n        /* \"#utility.yul\":34971:34988   */\n      and\n        /* \"#utility.yul\":34961:34988   */\n      swap2\n      pop\n        /* \"#utility.yul\":34917:34998   */\n    tag_758:\n        /* \"#utility.yul\":35045:35047   */\n      0x20\n        /* \"#utility.yul\":35037:35043   */\n      dup3\n        /* \"#utility.yul\":35034:35048   */\n      lt\n        /* \"#utility.yul\":35014:35032   */\n      dup2\n        /* \"#utility.yul\":35011:35049   */\n      sub\n        /* \"#utility.yul\":35008:35092   */\n      tag_759\n      jumpi\n        /* \"#utility.yul\":35064:35082   */\n      tag_760\n      tag_439\n      jump\t// in\n    tag_760:\n        /* \"#utility.yul\":35008:35092   */\n    tag_759:\n        /* \"#utility.yul\":34829:35098   */\n      pop\n        /* \"#utility.yul\":34778:35098   */\n      swap2\n      swap1\n      pop\n      jump\t// out\n        /* \"#utility.yul\":35104:35245   */\n    tag_440:\n        /* \"#utility.yul\":35153:35157   */\n      0x00\n        /* \"#utility.yul\":35176:35179   */\n      dup2\n        /* \"#utility.yul\":35168:35179   */\n      swap1\n      pop\n        /* \"#utility.yul\":35199:35202   */\n      dup2\n        /* \"#utility.yul\":35196:35197   */\n      0x00\n        /* \"#utility.yul\":35189:35203   */\n      mstore\n        /* \"#utility.yul\":35233:35237   */\n      0x20\n        /* \"#utility.yul\":35230:35231   */\n      0x00\n        /* \"#utility.yul\":35220:35238   */\n      keccak256\n        /* \"#utility.yul\":35212:35238   */\n      swap1\n      pop\n        /* \"#utility.yul\":35104:35245   */\n      swap2\n      swap1\n      pop\n      jump\t// out\n        /* \"#utility.yul\":35251:35344   */\n    tag_441:\n        /* \"#utility.yul\":35288:35294   */\n      0x00\n        /* \"#utility.yul\":35335:35337   */\n      0x20\n        /* \"#utility.yul\":35330:35332   */\n      0x1f\n        /* \"#utility.yul\":35323:35328   */\n      dup4\n        /* \"#utility.yul\":35319:35333   */\n      add\n        /* \"#utility.yul\":35315:35338   */\n      div\n        /* \"#utility.yul\":35305:35338   */\n      swap1\n      pop\n        /* \"#utility.yul\":35251:35344   */\n      swap2\n      swap1\n      pop\n      jump\t// out\n        /* \"#utility.yul\":35350:35457   */\n    tag_442:\n        /* \"#utility.yul\":35394:35402   */\n      0x00\n        /* \"#utility.yul\":35444:35449   */\n      dup3\n        /* \"#utility.yul\":35438:35442   */\n      dup3\n        /* \"#utility.yul\":35434:35450   */\n      shl\n        /* \"#utility.yul\":35413:35450   */\n      swap1\n      pop\n        /* \"#utility.yul\":35350:35457   */\n      swap3\n      swap2\n      pop\n      pop\n      jump\t// out\n        /* \"#utility.yul\":35463:35856   */\n    tag_443:\n        /* \"#utility.yul\":35532:35538   */\n      0x00\n        /* \"#utility.yul\":35582:35583   */\n      0x08\n        /* \"#utility.yul\":35570:35580   */\n      dup4\n        /* \"#utility.yul\":35566:35584   */\n      mul\n        /* \"#utility.yul\":35605:35702   */\n      tag_765\n        /* \"#utility.yul\":35635:35701   */\n      0xffffffffffffffffffffffffffffffffffffffffffffffffffffffffffffffff\n        /* \"#utility.yul\":35624:35633   */\n      dup3\n        /* \"#utility.yul\":35605:35702   */\n      tag_442\n      jump\t// in\n    tag_765:\n        /* \"#utility.yul\":35723:35762   */\n      tag_766\n        /* \"#utility.yul\":35753:35761   */\n      dup7\n        /* \"#utility.yul\":35742:35751   */\n      dup4\n        /* \"#utility.yul\":35723:35762   */\n      tag_442\n      jump\t// in\n    tag_766:\n        /* \"#utility.yul\":35711:35762   */\n      swap6\n      pop\n        /* \"#utility.yul\":35795:35799   */\n      dup1\n        /* \"#utility.yul\":35791:35800   */\n      not\n        /* \"#utility.yul\":35784:35789   */\n      dup5\n        /* \"#utility.yul\":35780:35801   */\n      and\n        /* \"#utility.yul\":35771:35801   */\n      swap4\n      pop\n        /* \"#utility.yul\":35844:35848   */\n      dup1\n        /* \"#utility.yul\":35834:35842   */\n      dup7\n        /* \"#utility.yul\":35830:35849   */\n      and\n        /* \"#utility.yul\":35823:35828   */\n      dup5\n        /* \"#utility.yul\":35820:35850   */\n      or\n        /* \"#utility.yul\":35810:35850   */\n      swap3\n      pop\n        /* \"#utility.yul\":35539:35856   */\n      pop\n      pop\n        /* \"#utility.yul\":35463:35856   */\n      swap4\n      swap3\n      pop\n      pop\n      pop\n      jump\t// out\n        /* \"#utility.yul\":35862:36004   */\n    tag_444:\n        /* \"#utility.yul\":35912:35921   */\n      0x00\n        /* \"#utility.yul\":35945:35998   */\n      tag_768\n        /* \"#utility.yul\":35963:35997   */\n      tag_769\n        /* \"#utility.yul\":35972:35996   */\n      tag_770\n        /* \"#utility.yul\":35990:35995   */\n      dup5\n        /* \"#utility.yul\":35972:35996   */\n      tag_350\n      jump\t// in\n    tag_770:\n        /* \"#utility.yul\":35963:35997   */\n      tag_363\n      jump\t// in\n    tag_769:\n        /* \"#utility.yul\":35945:35998   */\n      tag_350\n      jump\t// in\n    tag_768:\n        /* \"#utility.yul\":35932:35998   */\n      swap1\n      pop\n        /* \"#utility.yul\":35862:36004   */\n      swap2\n      swap1\n      pop\n      jump\t// out\n        /* \"#utility.yul\":36010:36085   */\n    tag_445:\n        /* \"#utility.yul\":36053:36056   */\n      0x00\n        /* \"#utility.yul\":36074:36079   */\n      dup2\n        /* \"#utility.yul\":36067:36079   */\n      swap1\n      pop\n        /* \"#utility.yul\":36010:36085   */\n      swap2\n      swap1\n      pop\n      jump\t// out\n        /* \"#utility.yul\":36091:36360   */\n    tag_446:\n        /* \"#utility.yul\":36201:36240   */\n      tag_773\n        /* \"#utility.yul\":36232:36239   */\n      dup4\n        /* \"#utility.yul\":36201:36240   */\n      tag_444\n      jump\t// in\n    tag_773:\n        /* \"#utility.yul\":36262:36353   */\n      tag_774\n        /* \"#utility.yul\":36311:36352   */\n      tag_775\n        /* \"#utility.yul\":36335:36351   */\n      dup3\n        /* \"#utility.yul\":36311:36352   */\n      tag_445\n      jump\t// in\n    tag_775:\n        /* \"#utility.yul\":36303:36309   */\n      dup5\n        /* \"#utility.yul\":36296:36300   */\n      dup5\n        /* \"#utility.yul\":36290:36301   */\n      sload\n        /* \"#utility.yul\":36262:36353   */\n      tag_443\n      jump\t// in\n    tag_774:\n        /* \"#utility.yul\":36256:36260   */\n      dup3\n        /* \"#utility.yul\":36249:36354   */\n      sstore\n        /* \"#utility.yul\":36167:36360   */\n      pop\n        /* \"#utility.yul\":36091:36360   */\n      pop\n      pop\n      pop\n      jump\t// out\n        /* \"#utility.yul\":36366:36439   */\n    tag_447:\n        /* \"#utility.yul\":36411:36414   */\n      0x00\n        /* \"#utility.yul\":36432:36433   */\n      0x00\n        /* \"#utility.yul\":36425:36433   */\n      swap1\n      pop\n        /* \"#utility.yul\":36366:36439   */\n      swap1\n      jump\t// out\n        /* \"#utility.yul\":36445:36634   */\n    tag_448:\n        /* \"#utility.yul\":36522:36554   */\n      tag_778\n      tag_447\n      jump\t// in\n    tag_778:\n        /* \"#utility.yul\":36563:36628   */\n      tag_779\n        /* \"#utility.yul\":36621:36627   */\n      dup2\n        /* \"#utility.yul\":36613:36619   */\n      dup5\n        /* \"#utility.yul\":36607:36611   */\n      dup5\n        /* \"#utility.yul\":36563:36628   */\n      tag_446\n      jump\t// in\n    tag_779:\n        /* \"#utility.yul\":36498:36634   */\n      pop\n        /* \"#utility.yul\":36445:36634   */\n      pop\n      pop\n      jump\t// out\n        /* \"#utility.yul\":36640:36826   */\n    tag_449:\n        /* \"#utility.yul\":36700:36820   */\n    tag_781:\n        /* \"#utility.yul\":36717:36720   */\n      dup2\n        /* \"#utility.yul\":36710:36715   */\n      dup2\n        /* \"#utility.yul\":36707:36721   */\n      lt\n        /* \"#utility.yul\":36700:36820   */\n      iszero\n      tag_783\n      jumpi\n        /* \"#utility.yul\":36771:36810   */\n      tag_784\n        /* \"#utility.yul\":36808:36809   */\n      0x00\n        /* \"#utility.yul\":36801:36806   */\n      dup3\n        /* \"#utility.yul\":36771:36810   */\n      tag_448\n      jump\t// in\n    tag_784:\n        /* \"#utility.yul\":36744:36745   */\n      0x01\n        /* \"#utility.yul\":36737:36742   */\n      dup2\n        /* \"#utility.yul\":36733:36746   */\n      add\n        /* \"#utility.yul\":36724:36746   */\n      swap1\n      pop\n        /* \"#utility.yul\":36700:36820   */\n      jump(tag_781)\n    tag_783:\n        /* \"#utility.yul\":36640:36826   */\n      pop\n      pop\n      jump\t// out\n        /* \"#utility.yul\":36832:37375   */\n    tag_450:\n        /* \"#utility.yul\":36933:36935   */\n      0x1f\n        /* \"#utility.yul\":36928:36931   */\n      dup3\n        /* \"#utility.yul\":36925:36936   */\n      gt\n        /* \"#utility.yul\":36922:37368   */\n      iszero\n      tag_786\n      jumpi\n        /* \"#utility.yul\":36967:37005   */\n      tag_787\n        /* \"#utility.yul\":36999:37004   */\n      dup2\n        /* \"#utility.yul\":36967:37005   */\n      tag_440\n      jump\t// in\n    tag_787:\n        /* \"#utility.yul\":37051:37080   */\n      tag_788\n        /* \"#utility.yul\":37069:37079   */\n      dup5\n        /* \"#utility.yul\":37051:37080   */\n      tag_441\n      jump\t// in\n    tag_788:\n        /* \"#utility.yul\":37041:37049   */\n      dup2\n        /* \"#utility.yul\":37037:37081   */\n      add\n        /* \"#utility.yul\":37234:37236   */\n      0x20\n        /* \"#utility.yul\":37222:37232   */\n      dup6\n        /* \"#utility.yul\":37219:37237   */\n      lt\n        /* \"#utility.yul\":37216:37265   */\n      iszero\n      tag_789\n      jumpi\n        /* \"#utility.yul\":37255:37263   */\n      dup2\n        /* \"#utility.yul\":37240:37263   */\n      swap1\n      pop\n        /* \"#utility.yul\":37216:37265   */\n    tag_789:\n        /* \"#utility.yul\":37278:37358   */\n      tag_790\n        /* \"#utility.yul\":37334:37356   */\n      tag_791\n        /* \"#utility.yul\":37352:37355   */\n      dup6\n        /* \"#utility.yul\":37334:37356   */\n      tag_441\n      jump\t// in\n    tag_791:\n        /* \"#utility.yul\":37324:37332   */\n      dup4\n        /* \"#utility.yul\":37320:37357   */\n      add\n        /* \"#utility.yul\":37307:37318   */\n      dup3\n        /* \"#utility.yul\":37278:37358   */\n      tag_449\n      jump\t// in\n    tag_790:\n        /* \"#utility.yul\":36937:37368   */\n      pop\n      pop\n        /* \"#utility.yul\":36922:37368   */\n    tag_786:\n        /* \"#utility.yul\":36832:37375   */\n      pop\n      pop\n      pop\n      jump\t// out\n        /* \"#utility.yul\":37381:37498   */\n    tag_451:\n        /* \"#utility.yul\":37435:37443   */\n      0x00\n        /* \"#utility.yul\":37485:37490   */\n      dup3\n        /* \"#utility.yul\":37479:37483   */\n      dup3\n        /* \"#utility.yul\":37475:37491   */\n      shr\n        /* \"#utility.yul\":37454:37491   */\n      swap1\n      pop\n        /* \"#utility.yul\":37381:37498   */\n      swap3\n      swap2\n      pop\n      pop\n      jump\t// out\n        /* \"#utility.yul\":37504:37673   */\n    tag_452:\n        /* \"#utility.yul\":37548:37554   */\n      0x00\n        /* \"#utility.yul\":37581:37632   */\n      tag_794\n        /* \"#utility.yul\":37629:37630   */\n      0x00\n        /* \"#utility.yul\":37625:37631   */\n      not\n        /* \"#utility.yul\":37617:37622   */\n      dup5\n        /* \"#utility.yul\":37614:37615   */\n      0x08\n        /* \"#utility.yul\":37610:37623   */\n      mul\n        /* \"#utility.yul\":37581:37632   */\n      tag_451\n      jump\t// in\n    tag_794:\n        /* \"#utility.yul\":37577:37633   */\n      not\n        /* \"#utility.yul\":37662:37666   */\n      dup1\n        /* \"#utility.yul\":37656:37660   */\n      dup4\n        /* \"#utility.yul\":37652:37667   */\n      and\n        /* \"#utility.yul\":37642:37667   */\n      swap2\n      pop\n        /* \"#utility.yul\":37555:37673   */\n      pop\n        /* \"#utility.yul\":37504:37673   */\n      swap3\n      swap2\n      pop\n      pop\n      jump\t// out\n        /* \"#utility.yul\":37678:37973   */\n    tag_453:\n        /* \"#utility.yul\":37754:37758   */\n      0x00\n        /* \"#utility.yul\":37900:37929   */\n      tag_796\n        /* \"#utility.yul\":37925:37928   */\n      dup4\n        /* \"#utility.yul\":37919:37923   */\n      dup4\n        /* \"#utility.yul\":37900:37929   */\n      tag_452\n      jump\t// in\n    tag_796:\n        /* \"#utility.yul\":37892:37929   */\n      swap2\n      pop\n        /* \"#utility.yul\":37962:37965   */\n      dup3\n        /* \"#utility.yul\":37959:37960   */\n      0x02\n        /* \"#utility.yul\":37955:37966   */\n      mul\n        /* \"#utility.yul\":37949:37953   */\n      dup3\n        /* \"#utility.yul\":37946:37967   */\n      or\n        /* \"#utility.yul\":37938:37967   */\n      swap1\n      pop\n        /* \"#utility.yul\":37678:37973   */\n      swap3\n      swap2\n      pop\n      pop\n      jump\t// out\n        /* \"#utility.yul\":37978:39381   */\n    tag_292:\n        /* \"#utility.yul\":38102:38146   */\n      tag_798\n        /* \"#utility.yul\":38142:38145   */\n      dup4\n        /* \"#utility.yul\":38137:38140   */\n      dup4\n        /* \"#utility.yul\":38102:38146   */\n      tag_437\n      jump\t// in\n    tag_798:\n        /* \"#utility.yul\":38211:38229   */\n      0xffffffffffffffff\n        /* \"#utility.yul\":38203:38209   */\n      dup2\n        /* \"#utility.yul\":38200:38230   */\n      gt\n        /* \"#utility.yul\":38197:38253   */\n      iszero\n      tag_799\n      jumpi\n        /* \"#utility.yul\":38233:38251   */\n      tag_800\n      tag_438\n      jump\t// in\n    tag_800:\n        /* \"#utility.yul\":38197:38253   */\n    tag_799:\n        /* \"#utility.yul\":38277:38315   */\n      tag_801\n        /* \"#utility.yul\":38309:38313   */\n      dup3\n        /* \"#utility.yul\":38303:38314   */\n      sload\n        /* \"#utility.yul\":38277:38315   */\n      tag_302\n      jump\t// in\n    tag_801:\n        /* \"#utility.yul\":38362:38429   */\n      tag_802\n        /* \"#utility.yul\":38422:38428   */\n      dup3\n        /* \"#utility.yul\":38414:38420   */\n      dup3\n        /* \"#utility.yul\":38408:38412   */\n      dup6\n        /* \"#utility.yul\":38362:38429   */\n      tag_450\n      jump\t// in\n    tag_802:\n        /* \"#utility.yul\":38456:38457   */\n      0x00\n        /* \"#utility.yul\":38485:38487   */\n      0x1f\n        /* \"#utility.yul\":38477:38483   */\n      dup4\n        /* \"#utility.yul\":38474:38488   */\n      gt\n        /* \"#utility.yul\":38502:38503   */\n      0x01\n        /* \"#utility.yul\":38497:39129   */\n      dup2\n      eq\n      tag_804\n      jumpi\n        /* \"#utility.yul\":39173:39174   */\n      0x00\n        /* \"#utility.yul\":39190:39196   */\n      dup5\n        /* \"#utility.yul\":39187:39271   */\n      iszero\n      tag_805\n      jumpi\n        /* \"#utility.yul\":39246:39255   */\n      dup3\n        /* \"#utility.yul\":39241:39244   */\n      dup8\n        /* \"#utility.yul\":39237:39256   */\n      add\n        /* \"#utility.yul\":39224:39257   */\n      calldataload\n        /* \"#utility.yul\":39215:39257   */\n      swap1\n      pop\n        /* \"#utility.yul\":39187:39271   */\n    tag_805:\n        /* \"#utility.yul\":39297:39364   */\n      tag_806\n        /* \"#utility.yul\":39357:39363   */\n      dup6\n        /* \"#utility.yul\":39350:39355   */\n      dup3\n        /* \"#utility.yul\":39297:39364   */\n      tag_453\n      jump\t// in\n    tag_806:\n        /* \"#utility.yul\":39291:39295   */\n      dup7\n        /* \"#utility.yul\":39284:39365   */\n      sstore\n        /* \"#utility.yul\":39146:39375   */\n      pop\n        /* \"#utility.yul\":38467:39375   */\n      jump(tag_803)\n        /* \"#utility.yul\":38497:39129   */\n    tag_804:\n        /* \"#utility.yul\":38549:38553   */\n      0x1f\n        /* \"#utility.yul\":38545:38554   */\n      not\n        /* \"#utility.yul\":38537:38543   */\n      dup5\n        /* \"#utility.yul\":38533:38555   */\n      and\n        /* \"#utility.yul\":38583:38620   */\n      tag_807\n        /* \"#utility.yul\":38615:38619   */\n      dup7\n        /* \"#utility.yul\":38583:38620   */\n      tag_440\n      jump\t// in\n    tag_807:\n        /* \"#utility.yul\":38642:38643   */\n      0x00\n        /* \"#utility.yul\":38656:38871   */\n    tag_808:\n        /* \"#utility.yul\":38670:38677   */\n      dup3\n        /* \"#utility.yul\":38667:38668   */\n      dup2\n        /* \"#utility.yul\":38664:38678   */\n      lt\n        /* \"#utility.yul\":38656:38871   */\n      iszero\n      tag_810\n      jumpi\n        /* \"#utility.yul\":38756:38765   */\n      dup5\n        /* \"#utility.yul\":38751:38754   */\n      dup10\n        /* \"#utility.yul\":38747:38766   */\n      add\n        /* \"#utility.yul\":38734:38767   */\n      calldataload\n        /* \"#utility.yul\":38726:38732   */\n      dup3\n        /* \"#utility.yul\":38719:38768   */\n      sstore\n        /* \"#utility.yul\":38807:38808   */\n      0x01\n        /* \"#utility.yul\":38799:38805   */\n      dup3\n        /* \"#utility.yul\":38795:38809   */\n      add\n        /* \"#utility.yul\":38785:38809   */\n      swap2\n      pop\n        /* \"#utility.yul\":38854:38856   */\n      0x20\n        /* \"#utility.yul\":38843:38852   */\n      dup6\n        /* \"#utility.yul\":38839:38857   */\n      add\n        /* \"#utility.yul\":38826:38857   */\n      swap5\n      pop\n        /* \"#utility.yul\":38693:38697   */\n      0x20\n        /* \"#utility.yul\":38690:38691   */\n      dup2\n        /* \"#utility.yul\":38686:38698   */\n      add\n        /* \"#utility.yul\":38681:38698   */\n      swap1\n      pop\n        /* \"#utility.yul\":38656:38871   */\n      jump(tag_808)\n    tag_810:\n        /* \"#utility.yul\":38899:38905   */\n      dup7\n        /* \"#utility.yul\":38890:38897   */\n      dup4\n        /* \"#utility.yul\":38887:38906   */\n      lt\n        /* \"#utility.yul\":38884:39070   */\n      iszero\n      tag_811\n      jumpi\n        /* \"#utility.yul\":38964:38973   */\n      dup5\n        /* \"#utility.yul\":38959:38962   */\n      dup10\n        /* \"#utility.yul\":38955:38974   */\n      add\n        /* \"#utility.yul\":38942:38975   */\n      calldataload\n        /* \"#utility.yul\":39007:39055   */\n      tag_812\n        /* \"#utility.yul\":39049:39053   */\n      0x1f\n        /* \"#utility.yul\":39041:39047   */\n      dup10\n        /* \"#utility.yul\":39037:39054   */\n      and\n        /* \"#utility.yul\":39026:39035   */\n      dup3\n        /* \"#utility.yul\":39007:39055   */\n      tag_452\n      jump\t// in\n    tag_812:\n        /* \"#utility.yul\":38999:39005   */\n      dup4\n        /* \"#utility.yul\":38992:39056   */\n      sstore\n        /* \"#utility.yul\":38907:39070   */\n      pop\n        /* \"#utility.yul\":38884:39070   */\n    tag_811:\n        /* \"#utility.yul\":39116:39117   */\n      0x01\n        /* \"#utility.yul\":39112:39113   */\n      0x02\n        /* \"#utility.yul\":39104:39110   */\n      dup9\n        /* \"#utility.yul\":39100:39114   */\n      mul\n        /* \"#utility.yul\":39096:39118   */\n      add\n        /* \"#utility.yul\":39090:39094   */\n      dup9\n        /* \"#utility.yul\":39083:39119   */\n      sstore\n        /* \"#utility.yul\":38504:39129   */\n      pop\n      pop\n      pop\n        /* \"#utility.yul\":38467:39375   */\n    tag_803:\n      pop\n        /* \"#utility.yul\":38077:39381   */\n      pop\n      pop\n      pop\n        /* \"#utility.yul\":37978:39381   */\n      pop\n      pop\n      pop\n      jump\t// out\n        /* \"#utility.yul\":39387:39578   */\n    tag_296:\n        /* \"#utility.yul\":39427:39430   */\n      0x00\n        /* \"#utility.yul\":39446:39466   */\n      tag_814\n        /* \"#utility.yul\":39464:39465   */\n      dup3\n        /* \"#utility.yul\":39446:39466   */\n      tag_350\n      jump\t// in\n    tag_814:\n        /* \"#utility.yul\":39441:39466   */\n      swap2\n      pop\n        /* \"#utility.yul\":39480:39500   */\n      tag_815\n        /* \"#utility.yul\":39498:39499   */\n      dup4\n        /* \"#utility.yul\":39480:39500   */\n      tag_350\n      jump\t// in\n    tag_815:\n        /* \"#utility.yul\":39475:39500   */\n      swap3\n      pop\n        /* \"#utility.yul\":39523:39524   */\n      dup3\n        /* \"#utility.yul\":39520:39521   */\n      dup3\n        /* \"#utility.yul\":39516:39525   */\n      add\n        /* \"#utility.yul\":39509:39525   */\n      swap1\n      pop\n        /* \"#utility.yul\":39544:39547   */\n      dup1\n        /* \"#utility.yul\":39541:39542   */\n      dup3\n        /* \"#utility.yul\":39538:39548   */\n      gt\n        /* \"#utility.yul\":39535:39571   */\n      iszero\n      tag_816\n      jumpi\n        /* \"#utility.yul\":39551:39569   */\n      tag_817\n      tag_409\n      jump\t// in\n    tag_817:\n        /* \"#utility.yul\":39535:39571   */\n    tag_816:\n        /* \"#utility.yul\":39387:39578   */\n      swap3\n      swap2\n      pop\n      pop\n      jump\t// out\n        /* \"#utility.yul\":39584:39765   */\n    tag_454:\n        /* \"#utility.yul\":39724:39757   */\n      0x5265656e7472616e637947756172643a207265656e7472616e742063616c6c00\n        /* \"#utility.yul\":39720:39721   */\n      0x00\n        /* \"#utility.yul\":39712:39718   */\n      dup3\n        /* \"#utility.yul\":39708:39722   */\n      add\n        /* \"#utility.yul\":39701:39758   */\n      mstore\n        /* \"#utility.yul\":39584:39765   */\n      pop\n      jump\t// out\n        /* \"#utility.yul\":39771:40137   */\n    tag_455:\n        /* \"#utility.yul\":39913:39916   */\n      0x00\n        /* \"#utility.yul\":39934:40001   */\n      tag_820\n        /* \"#utility.yul\":39998:40000   */\n      0x1f\n        /* \"#utility.yul\":39993:39996   */\n      dup4\n        /* \"#utility.yul\":39934:40001   */\n      tag_379\n      jump\t// in\n    tag_820:\n        /* \"#utility.yul\":39927:40001   */\n      swap2\n      pop\n        /* \"#utility.yul\":40010:40103   */\n      tag_821\n        /* \"#utility.yul\":40099:40102   */\n      dup3\n        /* \"#utility.yul\":40010:40103   */\n      tag_454\n      jump\t// in\n    tag_821:\n        /* \"#utility.yul\":40128:40130   */\n      0x20\n        /* \"#utility.yul\":40123:40126   */\n      dup3\n        /* \"#utility.yul\":40119:40131   */\n      add\n        /* \"#utility.yul\":40112:40131   */\n      swap1\n      pop\n        /* \"#utility.yul\":39771:40137   */\n      swap2\n      swap1\n      pop\n      jump\t// out\n        /* \"#utility.yul\":40143:40562   */\n    tag_320:\n        /* \"#utility.yul\":40309:40313   */\n      0x00\n        /* \"#utility.yul\":40347:40349   */\n      0x20\n        /* \"#utility.yul\":40336:40345   */\n      dup3\n        /* \"#utility.yul\":40332:40350   */\n      add\n        /* \"#utility.yul\":40324:40350   */\n      swap1\n      pop\n        /* \"#utility.yul\":40396:40405   */\n      dup2\n        /* \"#utility.yul\":40390:40394   */\n      dup2\n        /* \"#utility.yul\":40386:40406   */\n      sub\n        /* \"#utility.yul\":40382:40383   */\n      0x00\n        /* \"#utility.yul\":40371:40380   */\n      dup4\n        /* \"#utility.yul\":40367:40384   */\n      add\n        /* \"#utility.yul\":40360:40407   */\n      mstore\n        /* \"#utility.yul\":40424:40555   */\n      tag_823\n        /* \"#utility.yul\":40550:40554   */\n      dup2\n        /* \"#utility.yul\":40424:40555   */\n      tag_455\n      jump\t// in\n    tag_823:\n        /* \"#utility.yul\":40416:40555   */\n      swap1\n      pop\n        /* \"#utility.yul\":40143:40562   */\n      swap2\n      swap1\n      pop\n      jump\t// out\n        /* \"#utility.yul\":40568:40978   */\n    tag_323:\n        /* \"#utility.yul\":40608:40615   */\n      0x00\n        /* \"#utility.yul\":40631:40651   */\n      tag_825\n        /* \"#utility.yul\":40649:40650   */\n      dup3\n        /* \"#utility.yul\":40631:40651   */\n      tag_350\n      jump\t// in\n    tag_825:\n        /* \"#utility.yul\":40626:40651   */\n      swap2\n      pop\n        /* \"#utility.yul\":40665:40685   */\n      tag_826\n        /* \"#utility.yul\":40683:40684   */\n      dup4\n        /* \"#utility.yul\":40665:40685   */\n      tag_350\n      jump\t// in\n    tag_826:\n        /* \"#utility.yul\":40660:40685   */\n      swap3\n      pop\n        /* \"#utility.yul\":40720:40721   */\n      dup3\n        /* \"#utility.yul\":40717:40718   */\n      dup3\n        /* \"#utility.yul\":40713:40722   */\n      mul\n        /* \"#utility.yul\":40742:40772   */\n      tag_827\n        /* \"#utility.yul\":40760:40771   */\n      dup2\n        /* \"#utility.yul\":40742:40772   */\n      tag_350\n      jump\t// in\n    tag_827:\n        /* \"#utility.yul\":40731:40772   */\n      swap2\n      pop\n        /* \"#utility.yul\":40921:40922   */\n      dup3\n        /* \"#utility.yul\":40912:40919   */\n      dup3\n        /* \"#utility.yul\":40908:40923   */\n      div\n        /* \"#utility.yul\":40905:40906   */\n      dup5\n        /* \"#utility.yul\":40902:40924   */\n      eq\n        /* \"#utility.yul\":40882:40883   */\n      dup4\n        /* \"#utility.yul\":40875:40884   */\n      iszero\n        /* \"#utility.yul\":40855:40938   */\n      or\n        /* \"#utility.yul\":40832:40971   */\n      tag_828\n      jumpi\n        /* \"#utility.yul\":40951:40969   */\n      tag_829\n      tag_409\n      jump\t// in\n    tag_829:\n        /* \"#utility.yul\":40832:40971   */\n    tag_828:\n        /* \"#utility.yul\":40616:40978   */\n      pop\n        /* \"#utility.yul\":40568:40978   */\n      swap3\n      swap2\n      pop\n      pop\n      jump\t// out\n        /* \"#utility.yul\":40984:41164   */\n    tag_456:\n        /* \"#utility.yul\":41032:41109   */\n      0x4e487b7100000000000000000000000000000000000000000000000000000000\n        /* \"#utility.yul\":41029:41030   */\n      0x00\n        /* \"#utility.yul\":41022:41110   */\n      mstore\n        /* \"#utility.yul\":41129:41133   */\n      0x12\n        /* \"#utility.yul\":41126:41127   */\n      0x04\n        /* \"#utility.yul\":41119:41134   */\n      mstore\n        /* \"#utility.yul\":41153:41157   */\n      0x24\n        /* \"#utility.yul\":41150:41151   */\n      0x00\n        /* \"#utility.yul\":41143:41158   */\n      revert\n        /* \"#utility.yul\":41170:41355   */\n    tag_326:\n        /* \"#utility.yul\":41210:41211   */\n      0x00\n        /* \"#utility.yul\":41227:41247   */\n      tag_832\n        /* \"#utility.yul\":41245:41246   */\n      dup3\n        /* \"#utility.yul\":41227:41247   */\n      tag_350\n      jump\t// in\n    tag_832:\n        /* \"#utility.yul\":41222:41247   */\n      swap2\n      pop\n        /* \"#utility.yul\":41261:41281   */\n      tag_833\n        /* \"#utility.yul\":41279:41280   */\n      dup4\n        /* \"#utility.yul\":41261:41281   */\n      tag_350\n      jump\t// in\n    tag_833:\n        /* \"#utility.yul\":41256:41281   */\n      swap3\n      pop\n        /* \"#utility.yul\":41300:41301   */\n      dup3\n        /* \"#utility.yul\":41290:41325   */\n      tag_834\n      jumpi\n        /* \"#utility.yul\":41305:41323   */\n      tag_835\n      tag_456\n      jump\t// in\n    tag_835:\n        /* \"#utility.yul\":41290:41325   */\n    tag_834:\n        /* \"#utility.yul\":41347:41348   */\n      dup3\n        /* \"#utility.yul\":41344:41345   */\n      dup3\n        /* \"#utility.yul\":41340:41349   */\n      div\n        /* \"#utility.yul\":41335:41349   */\n      swap1\n      pop\n        /* \"#utility.yul\":41170:41355   */\n      swap3\n      swap2\n      pop\n      pop\n      jump\t// out\n        /* \"#utility.yul\":41361:41440   */\n    tag_457:\n        /* \"#utility.yul\":41400:41407   */\n      0x00\n        /* \"#utility.yul\":41429:41434   */\n      dup2\n        /* \"#utility.yul\":41418:41434   */\n      swap1\n      pop\n        /* \"#utility.yul\":41361:41440   */\n      swap2\n      swap1\n      pop\n      jump\t// out\n        /* \"#utility.yul\":41446:41603   */\n    tag_458:\n        /* \"#utility.yul\":41551:41596   */\n      tag_838\n        /* \"#utility.yul\":41571:41595   */\n      tag_839\n        /* \"#utility.yul\":41589:41594   */\n      dup3\n        /* \"#utility.yul\":41571:41595   */\n      tag_350\n      jump\t// in\n    tag_839:\n        /* \"#utility.yul\":41551:41596   */\n      tag_457\n      jump\t// in\n    tag_838:\n        /* \"#utility.yul\":41546:41549   */\n      dup3\n        /* \"#utility.yul\":41539:41597   */\n      mstore\n        /* \"#utility.yul\":41446:41603   */\n      pop\n      pop\n      jump\t// out\n        /* \"#utility.yul\":41609:42288   */\n    tag_339:\n        /* \"#utility.yul\":41805:41808   */\n      0x00\n        /* \"#utility.yul\":41820:41895   */\n      tag_841\n        /* \"#utility.yul\":41891:41894   */\n      dup3\n        /* \"#utility.yul\":41882:41888   */\n      dup8\n        /* \"#utility.yul\":41820:41895   */\n      tag_458\n      jump\t// in\n    tag_841:\n        /* \"#utility.yul\":41920:41922   */\n      0x20\n        /* \"#utility.yul\":41915:41918   */\n      dup3\n        /* \"#utility.yul\":41911:41923   */\n      add\n        /* \"#utility.yul\":41904:41923   */\n      swap2\n      pop\n        /* \"#utility.yul\":41933:42008   */\n      tag_842\n        /* \"#utility.yul\":42004:42007   */\n      dup3\n        /* \"#utility.yul\":41995:42001   */\n      dup7\n        /* \"#utility.yul\":41933:42008   */\n      tag_458\n      jump\t// in\n    tag_842:\n        /* \"#utility.yul\":42033:42035   */\n      0x20\n        /* \"#utility.yul\":42028:42031   */\n      dup3\n        /* \"#utility.yul\":42024:42036   */\n      add\n        /* \"#utility.yul\":42017:42036   */\n      swap2\n      pop\n        /* \"#utility.yul\":42046:42121   */\n      tag_843\n        /* \"#utility.yul\":42117:42120   */\n      dup3\n        /* \"#utility.yul\":42108:42114   */\n      dup6\n        /* \"#utility.yul\":42046:42121   */\n      tag_458\n      jump\t// in\n    tag_843:\n        /* \"#utility.yul\":42146:42148   */\n      0x20\n        /* \"#utility.yul\":42141:42144   */\n      dup3\n        /* \"#utility.yul\":42137:42149   */\n      add\n        /* \"#utility.yul\":42130:42149   */\n      swap2\n      pop\n        /* \"#utility.yul\":42159:42234   */\n      tag_844\n        /* \"#utility.yul\":42230:42233   */\n      dup3\n        /* \"#utility.yul\":42221:42227   */\n      dup5\n        /* \"#utility.yul\":42159:42234   */\n      tag_458\n      jump\t// in\n    tag_844:\n        /* \"#utility.yul\":42259:42261   */\n      0x20\n        /* \"#utility.yul\":42254:42257   */\n      dup3\n        /* \"#utility.yul\":42250:42262   */\n      add\n        /* \"#utility.yul\":42243:42262   */\n      swap2\n      pop\n        /* \"#utility.yul\":42279:42282   */\n      dup2\n        /* \"#utility.yul\":42272:42282   */\n      swap1\n      pop\n        /* \"#utility.yul\":41609:42288   */\n      swap6\n      swap5\n      pop\n      pop\n      pop\n      pop\n      pop\n      jump\t// out\n        /* \"#utility.yul\":42294:42470   */\n    tag_341:\n        /* \"#utility.yul\":42326:42327   */\n      0x00\n        /* \"#utility.yul\":42343:42363   */\n      tag_846\n        /* \"#utility.yul\":42361:42362   */\n      dup3\n        /* \"#utility.yul\":42343:42363   */\n      tag_350\n      jump\t// in\n    tag_846:\n        /* \"#utility.yul\":42338:42363   */\n      swap2\n      pop\n        /* \"#utility.yul\":42377:42397   */\n      tag_847\n        /* \"#utility.yul\":42395:42396   */\n      dup4\n        /* \"#utility.yul\":42377:42397   */\n      tag_350\n      jump\t// in\n    tag_847:\n        /* \"#utility.yul\":42372:42397   */\n      swap3\n      pop\n        /* \"#utility.yul\":42416:42417   */\n      dup3\n        /* \"#utility.yul\":42406:42441   */\n      tag_848\n      jumpi\n        /* \"#utility.yul\":42421:42439   */\n      tag_849\n      tag_456\n      jump\t// in\n    tag_849:\n        /* \"#utility.yul\":42406:42441   */\n    tag_848:\n        /* \"#utility.yul\":42462:42463   */\n      dup3\n        /* \"#utility.yul\":42459:42460   */\n      dup3\n        /* \"#utility.yul\":42455:42464   */\n      mod\n        /* \"#utility.yul\":42450:42464   */\n      swap1\n      pop\n        /* \"#utility.yul\":42294:42470   */\n      swap3\n      swap2\n      pop\n      pop\n      jump\t// out\n        /* \"#utility.yul\":42476:42647   */\n    tag_347:\n        /* \"#utility.yul\":42515:42518   */\n      0x00\n        /* \"#utility.yul\":42538:42562   */\n      tag_851\n        /* \"#utility.yul\":42556:42561   */\n      dup3\n        /* \"#utility.yul\":42538:42562   */\n      tag_350\n      jump\t// in\n    tag_851:\n        /* \"#utility.yul\":42529:42562   */\n      swap2\n      pop\n        /* \"#utility.yul\":42584:42588   */\n      0x00\n        /* \"#utility.yul\":42577:42582   */\n      dup3\n        /* \"#utility.yul\":42574:42589   */\n      sub\n        /* \"#utility.yul\":42571:42612   */\n      tag_852\n      jumpi\n        /* \"#utility.yul\":42592:42610   */\n      tag_853\n      tag_409\n      jump\t// in\n    tag_853:\n        /* \"#utility.yul\":42571:42612   */\n    tag_852:\n        /* \"#utility.yul\":42639:42640   */\n      0x01\n        /* \"#utility.yul\":42632:42637   */\n      dup3\n        /* \"#utility.yul\":42628:42641   */\n      sub\n        /* \"#utility.yul\":42621:42641   */\n      swap1\n      pop\n        /* \"#utility.yul\":42476:42647   */\n      swap2\n      swap1\n      pop\n      jump\t// out\n\n    auxdata: 0xa26469706673582212209278898cb611b8f503fef56c772ce44a250a5a7ce53005cbc708e5e4fd2137a664736f6c634300081e0033\n}\n",
				"bytecode": {
					"linkReferences": {},
					"object": "60a060405234801561000f575f5ffd5b50604051613a80380380613a808339818101604052810190610031919061013b565b60015f819055508673ffffffffffffffffffffffffffffffffffffffff1660808173ffffffffffffffffffffffffffffffffffffffff16815250508560018190555084600281905550836003819055508260048190555081600581905550806006819055506001600781905550505050505050506101d8565b5f5ffd5b5f73ffffffffffffffffffffffffffffffffffffffff82169050919050565b5f6100d7826100ae565b9050919050565b6100e7816100cd565b81146100f1575f5ffd5b50565b5f81519050610102816100de565b92915050565b5f819050919050565b61011a81610108565b8114610124575f5ffd5b50565b5f8151905061013581610111565b92915050565b5f5f5f5f5f5f5f60e0888a031215610156576101556100aa565b5b5f6101638a828b016100f4565b97505060206101748a828b01610127565b96505060406101858a828b01610127565b95505060606101968a828b01610127565b94505060806101a78a828b01610127565b93505060a06101b88a828b01610127565b92505060c06101c98a828b01610127565b91505092959891949750929550565b60805161386d6102135f395f8181610cae01528181610d88015281816113a90152818161157201528181611a320152611b48015261386d5ff3fe608060405234801561000f575f5ffd5b5060043610610109575f3560e01c806371929ad5116100a0578063a2febe291161006f578063a2febe2914610247578063b55796f314610263578063d496c45514610295578063f09790dd146102b3578063f643d3d7146102ee57610109565b806371929ad5146101e5578063886a6de1146101ef5780639da691801461020d5780639eacb5b91461022957610109565b806343bbdd3f116100dc57806343bbdd3f14610181578063536c8c151461018b5780636350eae8146101a95780636f833811146101c757610109565b8063059a184c1461010d5780630b05b14f1461012b5780631c204d0e14610147578063232e0c8714610163575b5f5ffd5b61011561031e565b604051610122919061231b565b60405180910390f35b610145600480360381019061014091906123bc565b610324565b005b610161600480360381019061015c919061240c565b6107b2565b005b61016b6110a3565b604051610178919061231b565b60405180910390f35b6101896110a9565b005b6101936114d1565b6040516101a0919061231b565b60405180910390f35b6101b16114d7565b6040516101be919061231b565b60405180910390f35b6101cf6114dd565b6040516101dc919061231b565b60405180910390f35b6101ed6114e3565b005b6101f76117ff565b604051610204919061231b565b60405180910390f35b61022760048036038101906102229190612437565b611805565b005b610231611a30565b60405161023e91906124ef565b60405180910390f35b610261600480360381019061025c91906125a4565b611a54565b005b61027d60048036038101906102789190612601565b611ddd565b60405161028c93929190612646565b60405180910390f35b61029d611e1b565b6040516102aa919061231b565b60405180910390f35b6102cd60048036038101906102c8919061240c565b611e21565b6040516102e59c9b9a9998979695949392919061276d565b60405180910390f35b6103086004803603810190610303919061240c565b611f6c565b604051610315919061282c565b60405180910390f35b60065481565b5f60085f8581526020019081526020015f2090506001600481111561034c5761034b6126fa565b5b816004015f9054906101000a900460ff16600481111561036f5761036e6126fa565b5b146103af576040517f08c379a00000000000000000000000000000000000000000000000000000000081526004016103a69061288f565b60405180910390fd5b80600c015442116103f5576040517f08c379a00000000000000000000000000000000000000000000000000000000081526004016103ec906128f7565b60405180910390fd5b80600d015442111561043c576040517f08c379a00000000000000000000000000000000000000000000000000000000081526004016104339061295f565b60405180910390fd5b6104468133611fa7565b610485576040517f08c379a000000000000000000000000000000000000000000000000000000000815260040161047c906129c7565b60405180910390fd5b5f5f1b816007015f3373ffffffffffffffffffffffffffffffffffffffff1673ffffffffffffffffffffffffffffffffffffffff1681526020019081526020015f205403610508576040517f08c379a00000000000000000000000000000000000000000000000000000000081526004016104ff90612a2f565b60405180910390fd5b5f600281111561051b5761051a6126fa565b5b816008015f3373ffffffffffffffffffffffffffffffffffffffff1673ffffffffffffffffffffffffffffffffffffffff1681526020019081526020015f205f9054906101000a900460ff166002811115610579576105786126fa565b5b146105b9576040517f08c379a00000000000000000000000000000000000000000000000000000000081526004016105b090612a97565b60405180910390fd5b5f83836040516020016105cd929190612b40565b604051602081830303815290604052805190602001209050816007015f3373ffffffffffffffffffffffffffffffffffffffff1673ffffffffffffffffffffffffffffffffffffffff1681526020019081526020015f20548114610666576040517f08c379a000000000000000000000000000000000000000000000000000000000815260040161065d90612bb5565b60405180910390fd5b83826008015f3373ffffffffffffffffffffffffffffffffffffffff1673ffffffffffffffffffffffffffffffffffffffff1681526020019081526020015f205f6101000a81548160ff021916908360028111156106c7576106c66126fa565b5b0217905550600160028111156106e0576106df6126fa565b5b8460028111156106f3576106f26126fa565b5b0361071657816009015f81548092919061070c90612c00565b919050555061075c565b600280811115610729576107286126fa565b5b84600281111561073c5761073b6126fa565b5b0361075b5781600a015f81548092919061075590612c00565b91905055505b5b3373ffffffffffffffffffffffffffffffffffffffff16857ffb0a2a4b906424480a54d601db26ad920592115a97358d199495345723df34cb866040516107a39190612c56565b60405180910390a35050505050565b6107ba61204e565b5f60085f8381526020019081526020015f209050600160048111156107e2576107e16126fa565b5b816004015f9054906101000a900460ff166004811115610805576108046126fa565b5b14610845576040517f08c379a000000000000000000000000000000000000000000000000000000000815260040161083c90612cb9565b60405180910390fd5b80600d0154421161088b576040517f08c379a000000000000000000000000000000000000000000000000000000000815260040161088290612d21565b60405180910390fd5b6002816004015f6101000a81548160ff021916908360048111156108b2576108b16126fa565b5b02179055505f81600a01548260090154116108f057816002015f9054906101000a900473ffffffffffffffffffffffffffffffffffffffff16610915565b816001015f9054906101000a900473ffffffffffffffffffffffffffffffffffffffff165b90508082600e015f6101000a81548173ffffffffffffffffffffffffffffffffffffffff021916908373ffffffffffffffffffffffffffffffffffffffff1602179055505f826001015f9054906101000a900473ffffffffffffffffffffffffffffffffffffffff1673ffffffffffffffffffffffffffffffffffffffff168273ffffffffffffffffffffffffffffffffffffffff16146109b75760026109ba565b60015b90505f5f90505f5f90505f5f90505b8560060180549050811015610bce575f8660060182815481106109ef576109ee612d3f565b5b905f5260205f20015f9054906101000a900473ffffffffffffffffffffffffffffffffffffffff1690505f876008015f8373ffffffffffffffffffffffffffffffffffffffff1673ffffffffffffffffffffffffffffffffffffffff1681526020019081526020015f205f9054906101000a900460ff169050856002811115610a7b57610a7a6126fa565b5b816002811115610a8e57610a8d6126fa565b5b03610aa6578380610a9e90612c00565b945050610bbf565b5f610b0f6064610b01600654600b5f8873ffffffffffffffffffffffffffffffffffffffff1673ffffffffffffffffffffffffffffffffffffffff1681526020019081526020015f206001015461209b90919063ffffffff16565b6120b090919063ffffffff16565b9050610b6481600b5f8673ffffffffffffffffffffffffffffffffffffffff1673ffffffffffffffffffffffffffffffffffffffff1681526020019081526020015f20600101546120c590919063ffffffff16565b600b5f8573ffffffffffffffffffffffffffffffffffffffff1673ffffffffffffffffffffffffffffffffffffffff1681526020019081526020015f2060010181905550610bbb81876120da90919063ffffffff16565b9550505b505080806001019150506109c9565b505f5f90505f5f90505f5f90505f5f90505f610bf7878b600501546120da90919063ffffffff16565b90505f861115610c2a57610c2786610c196002846120b090919063ffffffff16565b6120b090919063ffffffff16565b92505b896001015f9054906101000a900473ffffffffffffffffffffffffffffffffffffffff1673ffffffffffffffffffffffffffffffffffffffff168973ffffffffffffffffffffffffffffffffffffffff1603610d7057610caa610c976002836120b090919063ffffffff16565b8b600501546120da90919063ffffffff16565b94507f000000000000000000000000000000000000000000000000000000000000000073ffffffffffffffffffffffffffffffffffffffff1663a9059cbb8b6001015f9054906101000a900473ffffffffffffffffffffffffffffffffffffffff16876040518363ffffffff1660e01b8152600401610d2a929190612d6c565b6020604051808303815f875af1158015610d46573d5f5f3e3d5ffd5b505050506040513d601f19601f82011682018060405250810190610d6a9190612dbd565b50610e46565b610d846002826120b090919063ffffffff16565b93507f000000000000000000000000000000000000000000000000000000000000000073ffffffffffffffffffffffffffffffffffffffff1663a9059cbb8b6002015f9054906101000a900473ffffffffffffffffffffffffffffffffffffffff16866040518363ffffffff1660e01b8152600401610e04929190612d6c565b6020604051808303815f875af1158015610e20573d5f5f3e3d5ffd5b505050506040513d601f19601f82011682018060405250810190610e449190612dbd565b505b5f5f90505b8a60060180549050811015611023575f8b6006018281548110610e7157610e70612d3f565b5b905f5260205f20015f9054906101000a900473ffffffffffffffffffffffffffffffffffffffff169050896002811115610eae57610ead6126fa565b5b8c6008015f8373ffffffffffffffffffffffffffffffffffffffff1673ffffffffffffffffffffffffffffffffffffffff1681526020019081526020015f205f9054906101000a900460ff166002811115610f0c57610f0b6126fa565b5b03610fbe57610f6485600b5f8473ffffffffffffffffffffffffffffffffffffffff1673ffffffffffffffffffffffffffffffffffffffff1681526020019081526020015f20600101546120da90919063ffffffff16565b600b5f8373ffffffffffffffffffffffffffffffffffffffff1673ffffffffffffffffffffffffffffffffffffffff1681526020019081526020015f2060010181905550610fbb85856120da90919063ffffffff16565b93505b5f600b5f8373ffffffffffffffffffffffffffffffffffffffff1673ffffffffffffffffffffffffffffffffffffffff1681526020019081526020015f206002015f6101000a81548160ff021916908315150217905550508080600101915050610e4b565b5060038a6004015f6101000a81548160ff0219169083600481111561104b5761104a6126fa565b5b02179055508a7fb179b08881890bd8e13edde8255f745991199906456a378692ec11430a4560a98a8787866040516110869493929190612de8565b60405180910390a2505050505050505050506110a06120ef565b50565b60015481565b5f600b5f3373ffffffffffffffffffffffffffffffffffffffff1673ffffffffffffffffffffffffffffffffffffffff1681526020019081526020015f209050805f015f9054906101000a900460ff16611138576040517f08c379a000000000000000000000000000000000000000000000000000000000815260040161112f90612e75565b60405180910390fd5b806002015f9054906101000a900460ff1615611189576040517f08c379a000000000000000000000000000000000000000000000000000000000815260040161118090612f03565b60405180910390fd5b5f600a5f3373ffffffffffffffffffffffffffffffffffffffff1673ffffffffffffffffffffffffffffffffffffffff1681526020019081526020015f205490505f600960016009805490506111df9190612f21565b815481106111f0576111ef612d3f565b5b905f5260205f20015f9054906101000a900473ffffffffffffffffffffffffffffffffffffffff169050806009838154811061122f5761122e612d3f565b5b905f5260205f20015f6101000a81548173ffffffffffffffffffffffffffffffffffffffff021916908373ffffffffffffffffffffffffffffffffffffffff16021790555081600a5f8373ffffffffffffffffffffffffffffffffffffffff1673ffffffffffffffffffffffffffffffffffffffff1681526020019081526020015f208190555060098054806112c8576112c7612f54565b5b600190038181905f5260205f20015f6101000a81549073ffffffffffffffffffffffffffffffffffffffff02191690559055600b5f3373ffffffffffffffffffffffffffffffffffffffff1673ffffffffffffffffffffffffffffffffffffffff1681526020019081526020015f205f5f82015f6101000a81549060ff0219169055600182015f9055600282015f6101000a81549060ff02191690555050600a5f3373ffffffffffffffffffffffffffffffffffffffff1673ffffffffffffffffffffffffffffffffffffffff1681526020019081526020015f205f90555f7f000000000000000000000000000000000000000000000000000000000000000073ffffffffffffffffffffffffffffffffffffffff1663a9059cbb3386600101546040518363ffffffff1660e01b8152600401611406929190612d6c565b6020604051808303815f875af1158015611422573d5f5f3e3d5ffd5b505050506040513d601f19601f820116820180604052508101906114469190612dbd565b905080611488576040517f08c379a000000000000000000000000000000000000000000000000000000000815260040161147f90612fcb565b60405180910390fd5b3373ffffffffffffffffffffffffffffffffffffffff167ff67e7162188cb7e3f756d0f6d7c86d1b7cc88b891ae19dd58118705a7859034b60405160405180910390a250505050565b60035481565b60075481565b60045481565b600b5f3373ffffffffffffffffffffffffffffffffffffffff1673ffffffffffffffffffffffffffffffffffffffff1681526020019081526020015f205f015f9054906101000a900460ff161561156f576040517f08c379a000000000000000000000000000000000000000000000000000000000815260040161156690613033565b60405180910390fd5b5f7f000000000000000000000000000000000000000000000000000000000000000073ffffffffffffffffffffffffffffffffffffffff166323b872dd33306002546040518463ffffffff1660e01b81526004016115cf93929190613051565b6020604051808303815f875af11580156115eb573d5f5f3e3d5ffd5b505050506040513d601f19601f8201168201806040525081019061160f9190612dbd565b905080611651576040517f08c379a0000000000000000000000000000000000000000000000000000000008152600401611648906130f6565b60405180910390fd5b604051806060016040528060011515815260200160025481526020015f1515815250600b5f3373ffffffffffffffffffffffffffffffffffffffff1673ffffffffffffffffffffffffffffffffffffffff1681526020019081526020015f205f820151815f015f6101000a81548160ff021916908315150217905550602082015181600101556040820151816002015f6101000a81548160ff021916908315150217905550905050600933908060018154018082558091505060019003905f5260205f20015f9091909190916101000a81548173ffffffffffffffffffffffffffffffffffffffff021916908373ffffffffffffffffffffffffffffffffffffffff160217905550600160098054905061176b9190612f21565b600a5f3373ffffffffffffffffffffffffffffffffffffffff1673ffffffffffffffffffffffffffffffffffffffff1681526020019081526020015f20819055503373ffffffffffffffffffffffffffffffffffffffff167f302e82b0b7908cfac0232eeb6a83332cbf587d0cb58eaa7ba72f884c149910fa6002546040516117f4919061231b565b60405180910390a250565b60055481565b5f60085f8481526020019081526020015f2090506001600481111561182d5761182c6126fa565b5b816004015f9054906101000a900460ff1660048111156118505761184f6126fa565b5b14611890576040517f08c379a00000000000000000000000000000000000000000000000000000000081526004016118879061288f565b60405180910390fd5b80600c01544211156118d7576040517f08c379a00000000000000000000000000000000000000000000000000000000081526004016118ce9061315e565b60405180910390fd5b6118e18133611fa7565b611920576040517f08c379a0000000000000000000000000000000000000000000000000000000008152600401611917906129c7565b60405180910390fd5b5f5f1b816007015f3373ffffffffffffffffffffffffffffffffffffffff1673ffffffffffffffffffffffffffffffffffffffff1681526020019081526020015f2054146119a3576040517f08c379a000000000000000000000000000000000000000000000000000000000815260040161199a906131c6565b60405180910390fd5b81816007015f3373ffffffffffffffffffffffffffffffffffffffff1673ffffffffffffffffffffffffffffffffffffffff1681526020019081526020015f20819055503373ffffffffffffffffffffffffffffffffffffffff16837f3834a2c8ea101e1468b529270d35fbff0a12de32a5a7e5729b8b4dad6fb32c0160405160405180910390a3505050565b7f000000000000000000000000000000000000000000000000000000000000000081565b5f73ffffffffffffffffffffffffffffffffffffffff168373ffffffffffffffffffffffffffffffffffffffff1614158015611abc57503373ffffffffffffffffffffffffffffffffffffffff168373ffffffffffffffffffffffffffffffffffffffff1614155b611afb576040517f08c379a0000000000000000000000000000000000000000000000000000000008152600401611af29061322e565b60405180910390fd5b6003546009805490501015611b45576040517f08c379a0000000000000000000000000000000000000000000000000000000008152600401611b3c90613296565b60405180910390fd5b5f7f000000000000000000000000000000000000000000000000000000000000000073ffffffffffffffffffffffffffffffffffffffff166323b872dd33306001546040518463ffffffff1660e01b8152600401611ba593929190613051565b6020604051808303815f875af1158015611bc1573d5f5f3e3d5ffd5b505050506040513d601f19601f82011682018060405250810190611be59190612dbd565b905080611c27576040517f08c379a0000000000000000000000000000000000000000000000000000000008152600401611c1e90613324565b60405180910390fd5b5f60075f815480929190611c3a90612c00565b9190505590505f60085f8381526020019081526020015f20905081815f018190555033816001015f6101000a81548173ffffffffffffffffffffffffffffffffffffffff021916908373ffffffffffffffffffffffffffffffffffffffff16021790555085816002015f6101000a81548173ffffffffffffffffffffffffffffffffffffffff021916908373ffffffffffffffffffffffffffffffffffffffff1602179055508484826003019182611cf392919061356d565b506001816004015f6101000a81548160ff02191690836004811115611d1b57611d1a6126fa565b5b021790555060015481600501819055504281600b018190555060045442611d42919061363a565b81600c018190555060055481600c0154611d5c919061363a565b81600d0181905550611d6d826120f8565b8573ffffffffffffffffffffffffffffffffffffffff163373ffffffffffffffffffffffffffffffffffffffff16837f5c5f5f5c62d8082bc010726f98db2630d9da2b426a6717bd67bfbd9e8e179638600154604051611dcd919061231b565b60405180910390a4505050505050565b600b602052805f5260405f205f91509050805f015f9054906101000a900460ff1690806001015490806002015f9054906101000a900460ff16905083565b60025481565b6008602052805f5260405f205f91509050805f015490806001015f9054906101000a900473ffffffffffffffffffffffffffffffffffffffff1690806002015f9054906101000a900473ffffffffffffffffffffffffffffffffffffffff1690806003018054611e90906133a6565b80601f0160208091040260200160405190810160405280929190818152602001828054611ebc906133a6565b8015611f075780601f10611ede57610100808354040283529160200191611f07565b820191905f5260205f20905b815481529060010190602001808311611eea57829003601f168201915b505050505090806004015f9054906101000a900460ff169080600501549080600901549080600a01549080600b01549080600c01549080600d01549080600e015f9054906101000a900473ffffffffffffffffffffffffffffffffffffffff1690508c565b60098181548110611f7b575f80fd5b905f5260205f20015f915054906101000a900473ffffffffffffffffffffffffffffffffffffffff1681565b5f5f5f90505b8360060180549050811015612043578273ffffffffffffffffffffffffffffffffffffffff16846006018281548110611fe957611fe8612d3f565b5b905f5260205f20015f9054906101000a900473ffffffffffffffffffffffffffffffffffffffff1673ffffffffffffffffffffffffffffffffffffffff1603612036576001915050612048565b8080600101915050611fad565b505f90505b92915050565b60025f5403612092576040517f08c379a0000000000000000000000000000000000000000000000000000000008152600401612089906136b7565b60405180910390fd5b60025f81905550565b5f81836120a891906136d5565b905092915050565b5f81836120bd9190613743565b905092915050565b5f81836120d29190612f21565b905092915050565b5f81836120e7919061363a565b905092915050565b60015f81905550565b5f60085f8381526020019081526020015f2090505f600980548060200260200160405190810160405280929190818152602001828054801561218c57602002820191905f5260205f20905b815f9054906101000a900473ffffffffffffffffffffffffffffffffffffffff1673ffffffffffffffffffffffffffffffffffffffff1681526020019060010190808311612143575b505050505090505f815190505f5f90505b6003548110156122fc575f424487846040516020016121bf9493929190613793565b604051602081830303815290604052805190602001205f1c90505f83826121e691906137e0565b90505f8582815181106121fc576121fb612d3f565b5b602002602001015190506122108782611fa7565b1561222b57838061222090613810565b9450505050506122e9565b8660060181908060018154018082558091505060019003905f5260205f20015f9091909190916101000a81548173ffffffffffffffffffffffffffffffffffffffff021916908373ffffffffffffffffffffffffffffffffffffffff1602179055506001600b5f8373ffffffffffffffffffffffffffffffffffffffff1673ffffffffffffffffffffffffffffffffffffffff1681526020019081526020015f206002015f6101000a81548160ff0219169083151502179055505050505b80806122f490612c00565b91505061219d565b5050505050565b5f819050919050565b61231581612303565b82525050565b5f60208201905061232e5f83018461230c565b92915050565b5f5ffd5b5f5ffd5b61234581612303565b811461234f575f5ffd5b50565b5f813590506123608161233c565b92915050565b60038110612372575f5ffd5b50565b5f8135905061238381612366565b92915050565b5f819050919050565b61239b81612389565b81146123a5575f5ffd5b50565b5f813590506123b681612392565b92915050565b5f5f5f606084860312156123d3576123d2612334565b5b5f6123e086828701612352565b93505060206123f186828701612375565b9250506040612402868287016123a8565b9150509250925092565b5f6020828403121561242157612420612334565b5b5f61242e84828501612352565b91505092915050565b5f5f6040838503121561244d5761244c612334565b5b5f61245a85828601612352565b925050602061246b858286016123a8565b9150509250929050565b5f73ffffffffffffffffffffffffffffffffffffffff82169050919050565b5f819050919050565b5f6124b76124b26124ad84612475565b612494565b612475565b9050919050565b5f6124c88261249d565b9050919050565b5f6124d9826124be565b9050919050565b6124e9816124cf565b82525050565b5f6020820190506125025f8301846124e0565b92915050565b5f61251282612475565b9050919050565b61252281612508565b811461252c575f5ffd5b50565b5f8135905061253d81612519565b92915050565b5f5ffd5b5f5ffd5b5f5ffd5b5f5f83601f84011261256457612563612543565b5b8235905067ffffffffffffffff81111561258157612580612547565b5b60208301915083600182028301111561259d5761259c61254b565b5b9250929050565b5f5f5f604084860312156125bb576125ba612334565b5b5f6125c88682870161252f565b935050602084013567ffffffffffffffff8111156125e9576125e8612338565b5b6125f58682870161254f565b92509250509250925092565b5f6020828403121561261657612615612334565b5b5f6126238482850161252f565b91505092915050565b5f8115159050919050565b6126408161262c565b82525050565b5f6060820190506126595f830186612637565b612666602083018561230c565b6126736040830184612637565b949350505050565b61268481612508565b82525050565b5f81519050919050565b5f82825260208201905092915050565b8281835e5f83830152505050565b5f601f19601f8301169050919050565b5f6126cc8261268a565b6126d68185612694565b93506126e68185602086016126a4565b6126ef816126b2565b840191505092915050565b7f4e487b71000000000000000000000000000000000000000000000000000000005f52602160045260245ffd5b60058110612738576127376126fa565b5b50565b5f81905061274882612727565b919050565b5f6127578261273b565b9050919050565b6127678161274d565b82525050565b5f610180820190506127815f83018f61230c565b61278e602083018e61267b565b61279b604083018d61267b565b81810360608301526127ad818c6126c2565b90506127bc608083018b61275e565b6127c960a083018a61230c565b6127d660c083018961230c565b6127e360e083018861230c565b6127f161010083018761230c565b6127ff61012083018661230c565b61280d61014083018561230c565b61281b61016083018461267b565b9d9c50505050505050505050505050565b5f60208201905061283f5f83018461267b565b92915050565b7f4e6f7420696e20766f74696e67207068617365000000000000000000000000005f82015250565b5f612879601383612694565b915061288482612845565b602082019050919050565b5f6020820190508181035f8301526128a68161286d565b9050919050565b7f436f6d6d6974207068617365206e6f7420656e646564207965740000000000005f82015250565b5f6128e1601a83612694565b91506128ec826128ad565b602082019050919050565b5f6020820190508181035f83015261290e816128d5565b9050919050565b7f52657665616c20706861736520656e64656400000000000000000000000000005f82015250565b5f612949601283612694565b915061295482612915565b602082019050919050565b5f6020820190508181035f8301526129768161293d565b9050919050565b7f4e6f742061206a75726f7220666f7220746869732063617365000000000000005f82015250565b5f6129b1601983612694565b91506129bc8261297d565b602082019050919050565b5f6020820190508181035f8301526129de816129a5565b9050919050565b7f446964206e6f7420636f6d6d69740000000000000000000000000000000000005f82015250565b5f612a19600e83612694565b9150612a24826129e5565b602082019050919050565b5f6020820190508181035f830152612a4681612a0d565b9050919050565b7f416c72656164792072657665616c6564000000000000000000000000000000005f82015250565b5f612a81601083612694565b9150612a8c82612a4d565b602082019050919050565b5f6020820190508181035f830152612aae81612a75565b9050919050565b60038110612ac657612ac56126fa565b5b50565b5f819050612ad682612ab5565b919050565b5f612ae582612ac9565b9050919050565b5f8160f81b9050919050565b5f612b0282612aec565b9050919050565b612b1a612b1582612adb565b612af8565b82525050565b5f819050919050565b612b3a612b3582612389565b612b20565b82525050565b5f612b4b8285612b09565b600182019150612b5b8284612b29565b6020820191508190509392505050565b7f566f746520646f6573206e6f74206d6174636820636f6d6d69740000000000005f82015250565b5f612b9f601a83612694565b9150612baa82612b6b565b602082019050919050565b5f6020820190508181035f830152612bcc81612b93565b9050919050565b7f4e487b71000000000000000000000000000000000000000000000000000000005f52601160045260245ffd5b5f612c0a82612303565b91507fffffffffffffffffffffffffffffffffffffffffffffffffffffffffffffffff8203612c3c57612c3b612bd3565b5b600182019050919050565b612c5081612adb565b82525050565b5f602082019050612c695f830184612c47565b92915050565b7f43617365206e6f7420726561647920666f7220766572646963740000000000005f82015250565b5f612ca3601a83612694565b9150612cae82612c6f565b602082019050919050565b5f6020820190508181035f830152612cd081612c97565b9050919050565b7f52657665616c207068617365206e6f7420656e646564207965740000000000005f82015250565b5f612d0b601a83612694565b9150612d1682612cd7565b602082019050919050565b5f6020820190508181035f830152612d3881612cff565b9050919050565b7f4e487b71000000000000000000000000000000000000000000000000000000005f52603260045260245ffd5b5f604082019050612d7f5f83018561267b565b612d8c602083018461230c565b9392505050565b612d9c8161262c565b8114612da6575f5ffd5b50565b5f81519050612db781612d93565b92915050565b5f60208284031215612dd257612dd1612334565b5b5f612ddf84828501612da9565b91505092915050565b5f608082019050612dfb5f83018761267b565b612e08602083018661230c565b612e15604083018561230c565b612e22606083018461230c565b95945050505050565b7f4e6f7420612072656769737465726564206a75726f72000000000000000000005f82015250565b5f612e5f601683612694565b9150612e6a82612e2b565b602082019050919050565b5f6020820190508181035f830152612e8c81612e53565b9050919050565b7f43616e6e6f7420756e7265676973746572207768696c652073657276696e67205f8201527f6f6e206120636173650000000000000000000000000000000000000000000000602082015250565b5f612eed602983612694565b9150612ef882612e93565b604082019050919050565b5f6020820190508181035f830152612f1a81612ee1565b9050919050565b5f612f2b82612303565b9150612f3683612303565b9250828203905081811115612f4e57612f4d612bd3565b5b92915050565b7f4e487b71000000000000000000000000000000000000000000000000000000005f52603160045260245ffd5b7f546f6b656e207472616e73666572206661696c656400000000000000000000005f82015250565b5f612fb5601583612694565b9150612fc082612f81565b602082019050919050565b5f6020820190508181035f830152612fe281612fa9565b9050919050565b7f416c7265616479207265676973746572656400000000000000000000000000005f82015250565b5f61301d601283612694565b915061302882612fe9565b602082019050919050565b5f6020820190508181035f83015261304a81613011565b9050919050565b5f6060820190506130645f83018661267b565b613071602083018561267b565b61307e604083018461230c565b949350505050565b7f546f6b656e207472616e73666572206661696c65642e2044696420796f7520615f8201527f7070726f76653f00000000000000000000000000000000000000000000000000602082015250565b5f6130e0602783612694565b91506130eb82613086565b604082019050919050565b5f6020820190508181035f83015261310d816130d4565b9050919050565b7f436f6d6d697420706861736520656e64656400000000000000000000000000005f82015250565b5f613148601283612694565b915061315382613114565b602082019050919050565b5f6020820190508181035f8301526131758161313c565b9050919050565b7f416c726561647920636f6d6d69747465640000000000000000000000000000005f82015250565b5f6131b0601183612694565b91506131bb8261317c565b602082019050919050565b5f6020820190508181035f8301526131dd816131a4565b9050919050565b7f496e76616c696420646566656e64616e740000000000000000000000000000005f82015250565b5f613218601183612694565b9150613223826131e4565b602082019050919050565b5f6020820190508181035f8301526132458161320c565b9050919050565b7f4e6f7420656e6f75676820617661696c61626c65206a75726f727300000000005f82015250565b5f613280601b83612694565b915061328b8261324c565b602082019050919050565b5f6020820190508181035f8301526132ad81613274565b9050919050565b7f46696c696e6720666565207472616e73666572206661696c65642e20446964205f8201527f796f7520617070726f76653f0000000000000000000000000000000000000000602082015250565b5f61330e602c83612694565b9150613319826132b4565b604082019050919050565b5f6020820190508181035f83015261333b81613302565b9050919050565b5f82905092915050565b7f4e487b71000000000000000000000000000000000000000000000000000000005f52604160045260245ffd5b7f4e487b71000000000000000000000000000000000000000000000000000000005f52602260045260245ffd5b5f60028204905060018216806133bd57607f821691505b6020821081036133d0576133cf613379565b5b50919050565b5f819050815f5260205f209050919050565b5f6020601f8301049050919050565b5f82821b905092915050565b5f600883026134327fffffffffffffffffffffffffffffffffffffffffffffffffffffffffffffffff826133f7565b61343c86836133f7565b95508019841693508086168417925050509392505050565b5f61346e61346961346484612303565b612494565b612303565b9050919050565b5f819050919050565b61348783613454565b61349b61349382613475565b848454613403565b825550505050565b5f5f905090565b6134b26134a3565b6134bd81848461347e565b505050565b5b818110156134e0576134d55f826134aa565b6001810190506134c3565b5050565b601f821115613525576134f6816133d6565b6134ff846133e8565b8101602085101561350e578190505b61352261351a856133e8565b8301826134c2565b50505b505050565b5f82821c905092915050565b5f6135455f198460080261352a565b1980831691505092915050565b5f61355d8383613536565b9150826002028217905092915050565b6135778383613342565b67ffffffffffffffff8111156135905761358f61334c565b5b61359a82546133a6565b6135a58282856134e4565b5f601f8311600181146135d2575f84156135c0578287013590505b6135ca8582613552565b865550613631565b601f1984166135e0866133d6565b5f5b82811015613607578489013582556001820191506020850194506020810190506135e2565b868310156136245784890135613620601f891682613536565b8355505b6001600288020188555050505b50505050505050565b5f61364482612303565b915061364f83612303565b925082820190508082111561366757613666612bd3565b5b92915050565b7f5265656e7472616e637947756172643a207265656e7472616e742063616c6c005f82015250565b5f6136a1601f83612694565b91506136ac8261366d565b602082019050919050565b5f6020820190508181035f8301526136ce81613695565b9050919050565b5f6136df82612303565b91506136ea83612303565b92508282026136f881612303565b9150828204841483151761370f5761370e612bd3565b5b5092915050565b7f4e487b71000000000000000000000000000000000000000000000000000000005f52601260045260245ffd5b5f61374d82612303565b915061375883612303565b92508261376857613767613716565b5b828204905092915050565b5f819050919050565b61378d61378882612303565b613773565b82525050565b5f61379e828761377c565b6020820191506137ae828661377c565b6020820191506137be828561377c565b6020820191506137ce828461377c565b60208201915081905095945050505050565b5f6137ea82612303565b91506137f583612303565b92508261380557613804613716565b5b828206905092915050565b5f61381a82612303565b91505f820361382c5761382b612bd3565b5b60018203905091905056fea26469706673582212209278898cb611b8f503fef56c772ce44a250a5a7ce53005cbc708e5e4fd2137a664736f6c634300081e0033",
					"opcodes": "PUSH1 0xA0 PUSH1 0x40 MSTORE CALLVALUE DUP1 ISZERO PUSH2 0xF JUMPI PUSH0 PUSH0 REVERT JUMPDEST POP PUSH1 0x40 MLOAD PUSH2 0x3A80 CODESIZE SUB DUP1 PUSH2 0x3A80 DUP4 CODECOPY DUP2 DUP2 ADD PUSH1 0x40 MSTORE DUP2 ADD SWAP1 PUSH2 0x31 SWAP2 SWAP1 PUSH2 0x13B JUMP JUMPDEST PUSH1 0x1 PUSH0 DUP2 SWAP1 SSTORE POP DUP7 PUSH20 0xFFFFFFFFFFFFFFFFFFFFFFFFFFFFFFFFFFFFFFFF AND PUSH1 0x80 DUP2 PUSH20 0xFFFFFFFFFFFFFFFFFFFFFFFFFFFFFFFFFFFFFFFF AND DUP2 MSTORE POP POP DUP6 PUSH1 0x1 DUP2 SWAP1 SSTORE POP DUP5 PUSH1 0x2 DUP2 SWAP1 SSTORE POP DUP4 PUSH1 0x3 DUP2 SWAP1 SSTORE POP DUP3 PUSH1 0x4 DUP2 SWAP1 SSTORE POP DUP2 PUSH1 0x5 DUP2 SWAP1 SSTORE POP DUP1 PUSH1 0x6 DUP2 SWAP1 SSTORE POP PUSH1 0x1 PUSH1 0x7 DUP2 SWAP1 SSTORE POP POP POP POP POP POP POP POP PUSH2 0x1D8 JUMP JUMPDEST PUSH0 PUSH0 REVERT JUMPDEST PUSH0 PUSH20 0xFFFFFFFFFFFFFFFFFFFFFFFFFFFFFFFFFFFFFFFF DUP3 AND SWAP1 POP SWAP2 SWAP1 POP JUMP JUMPDEST PUSH0 PUSH2 0xD7 DUP3 PUSH2 0xAE JUMP JUMPDEST SWAP1 POP SWAP2 SWAP1 POP JUMP JUMPDEST PUSH2 0xE7 DUP2 PUSH2 0xCD JUMP JUMPDEST DUP2 EQ PUSH2 0xF1 JUMPI PUSH0 PUSH0 REVERT JUMPDEST POP JUMP JUMPDEST PUSH0 DUP2 MLOAD SWAP1 POP PUSH2 0x102 DUP2 PUSH2 0xDE JUMP JUMPDEST SWAP3 SWAP2 POP POP JUMP JUMPDEST PUSH0 DUP2 SWAP1 POP SWAP2 SWAP1 POP JUMP JUMPDEST PUSH2 0x11A DUP2 PUSH2 0x108 JUMP JUMPDEST DUP2 EQ PUSH2 0x124 JUMPI PUSH0 PUSH0 REVERT JUMPDEST POP JUMP JUMPDEST PUSH0 DUP2 MLOAD SWAP1 POP PUSH2 0x135 DUP2 PUSH2 0x111 JUMP JUMPDEST SWAP3 SWAP2 POP POP JUMP JUMPDEST PUSH0 PUSH0 PUSH0 PUSH0 PUSH0 PUSH0 PUSH0 PUSH1 0xE0 DUP9 DUP11 SUB SLT ISZERO PUSH2 0x156 JUMPI PUSH2 0x155 PUSH2 0xAA JUMP JUMPDEST JUMPDEST PUSH0 PUSH2 0x163 DUP11 DUP3 DUP12 ADD PUSH2 0xF4 JUMP JUMPDEST SWAP8 POP POP PUSH1 0x20 PUSH2 0x174 DUP11 DUP3 DUP12 ADD PUSH2 0x127 JUMP JUMPDEST SWAP7 POP POP PUSH1 0x40 PUSH2 0x185 DUP11 DUP3 DUP12 ADD PUSH2 0x127 JUMP JUMPDEST SWAP6 POP POP PUSH1 0x60 PUSH2 0x196 DUP11 DUP3 DUP12 ADD PUSH2 0x127 JUMP JUMPDEST SWAP5 POP POP PUSH1 0x80 PUSH2 0x1A7 DUP11 DUP3 DUP12 ADD PUSH2 0x127 JUMP JUMPDEST SWAP4 POP POP PUSH1 0xA0 PUSH2 0x1B8 DUP11 DUP3 DUP12 ADD PUSH2 0x127 JUMP JUMPDEST SWAP3 POP POP PUSH1 0xC0 PUSH2 0x1C9 DUP11 DUP3 DUP12 ADD PUSH2 0x127 JUMP JUMPDEST SWAP2 POP POP SWAP3 SWAP6 SWAP9 SWAP2 SWAP5 SWAP8 POP SWAP3 SWAP6 POP JUMP JUMPDEST PUSH1 0x80 MLOAD PUSH2 0x386D PUSH2 0x213 PUSH0 CODECOPY PUSH0 DUP2 DUP2 PUSH2 0xCAE ADD MSTORE DUP2 DUP2 PUSH2 0xD88 ADD MSTORE DUP2 DUP2 PUSH2 0x13A9 ADD MSTORE DUP2 DUP2 PUSH2 0x1572 ADD MSTORE DUP2 DUP2 PUSH2 0x1A32 ADD MSTORE PUSH2 0x1B48 ADD MSTORE PUSH2 0x386D PUSH0 RETURN INVALID PUSH1 0x80 PUSH1 0x40 MSTORE CALLVALUE DUP1 ISZERO PUSH2 0xF JUMPI PUSH0 PUSH0 REVERT JUMPDEST POP PUSH1 0x4 CALLDATASIZE LT PUSH2 0x109 JUMPI PUSH0 CALLDATALOAD PUSH1 0xE0 SHR DUP1 PUSH4 0x71929AD5 GT PUSH2 0xA0 JUMPI DUP1 PUSH4 0xA2FEBE29 GT PUSH2 0x6F JUMPI DUP1 PUSH4 0xA2FEBE29 EQ PUSH2 0x247 JUMPI DUP1 PUSH4 0xB55796F3 EQ PUSH2 0x263 JUMPI DUP1 PUSH4 0xD496C455 EQ PUSH2 0x295 JUMPI DUP1 PUSH4 0xF09790DD EQ PUSH2 0x2B3 JUMPI DUP1 PUSH4 0xF643D3D7 EQ PUSH2 0x2EE JUMPI PUSH2 0x109 JUMP JUMPDEST DUP1 PUSH4 0x71929AD5 EQ PUSH2 0x1E5 JUMPI DUP1 PUSH4 0x886A6DE1 EQ PUSH2 0x1EF JUMPI DUP1 PUSH4 0x9DA69180 EQ PUSH2 0x20D JUMPI DUP1 PUSH4 0x9EACB5B9 EQ PUSH2 0x229 JUMPI PUSH2 0x109 JUMP JUMPDEST DUP1 PUSH4 0x43BBDD3F GT PUSH2 0xDC JUMPI DUP1 PUSH4 0x43BBDD3F EQ PUSH2 0x181 JUMPI DUP1 PUSH4 0x536C8C15 EQ PUSH2 0x18B JUMPI DUP1 PUSH4 0x6350EAE8 EQ PUSH2 0x1A9 JUMPI DUP1 PUSH4 0x6F833811 EQ PUSH2 0x1C7 JUMPI PUSH2 0x109 JUMP JUMPDEST DUP1 PUSH4 0x59A184C EQ PUSH2 0x10D JUMPI DUP1 PUSH4 0xB05B14F EQ PUSH2 0x12B JUMPI DUP1 PUSH4 0x1C204D0E EQ PUSH2 0x147 JUMPI DUP1 PUSH4 0x232E0C87 EQ PUSH2 0x163 JUMPI JUMPDEST PUSH0 PUSH0 REVERT JUMPDEST PUSH2 0x115 PUSH2 0x31E JUMP JUMPDEST PUSH1 0x40 MLOAD PUSH2 0x122 SWAP2 SWAP1 PUSH2 0x231B JUMP JUMPDEST PUSH1 0x40 MLOAD DUP1 SWAP2 SUB SWAP1 RETURN JUMPDEST PUSH2 0x145 PUSH1 0x4 DUP1 CALLDATASIZE SUB DUP2 ADD SWAP1 PUSH2 0x140 SWAP2 SWAP1 PUSH2 0x23BC JUMP JUMPDEST PUSH2 0x324 JUMP JUMPDEST STOP JUMPDEST PUSH2 0x161 PUSH1 0x4 DUP1 CALLDATASIZE SUB DUP2 ADD SWAP1 PUSH2 0x15C SWAP2 SWAP1 PUSH2 0x240C JUMP JUMPDEST PUSH2 0x7B2 JUMP JUMPDEST STOP JUMPDEST PUSH2 0x16B PUSH2 0x10A3 JUMP JUMPDEST PUSH1 0x40 MLOAD PUSH2 0x178 SWAP2 SWAP1 PUSH2 0x231B JUMP JUMPDEST PUSH1 0x40 MLOAD DUP1 SWAP2 SUB SWAP1 RETURN JUMPDEST PUSH2 0x189 PUSH2 0x10A9 JUMP JUMPDEST STOP JUMPDEST PUSH2 0x193 PUSH2 0x14D1 JUMP JUMPDEST PUSH1 0x40 MLOAD PUSH2 0x1A0 SWAP2 SWAP1 PUSH2 0x231B JUMP JUMPDEST PUSH1 0x40 MLOAD DUP1 SWAP2 SUB SWAP1 RETURN JUMPDEST PUSH2 0x1B1 PUSH2 0x14D7 JUMP JUMPDEST PUSH1 0x40 MLOAD PUSH2 0x1BE SWAP2 SWAP1 PUSH2 0x231B JUMP JUMPDEST PUSH1 0x40 MLOAD DUP1 SWAP2 SUB SWAP1 RETURN JUMPDEST PUSH2 0x1CF PUSH2 0x14DD JUMP JUMPDEST PUSH1 0x40 MLOAD PUSH2 0x1DC SWAP2 SWAP1 PUSH2 0x231B JUMP JUMPDEST PUSH1 0x40 MLOAD DUP1 SWAP2 SUB SWAP1 RETURN JUMPDEST PUSH2 0x1ED PUSH2 0x14E3 JUMP JUMPDEST STOP JUMPDEST PUSH2 0x1F7 PUSH2 0x17FF JUMP JUMPDEST PUSH1 0x40 MLOAD PUSH2 0x204 SWAP2 SWAP1 PUSH2 0x231B JUMP JUMPDEST PUSH1 0x40 MLOAD DUP1 SWAP2 SUB SWAP1 RETURN JUMPDEST PUSH2 0x227 PUSH1 0x4 DUP1 CALLDATASIZE SUB DUP2 ADD SWAP1 PUSH2 0x222 SWAP2 SWAP1 PUSH2 0x2437 JUMP JUMPDEST PUSH2 0x1805 JUMP JUMPDEST STOP JUMPDEST PUSH2 0x231 PUSH2 0x1A30 JUMP JUMPDEST PUSH1 0x40 MLOAD PUSH2 0x23E SWAP2 SWAP1 PUSH2 0x24EF JUMP JUMPDEST PUSH1 0x40 MLOAD DUP1 SWAP2 SUB SWAP1 RETURN JUMPDEST PUSH2 0x261 PUSH1 0x4 DUP1 CALLDATASIZE SUB DUP2 ADD SWAP1 PUSH2 0x25C SWAP2 SWAP1 PUSH2 0x25A4 JUMP JUMPDEST PUSH2 0x1A54 JUMP JUMPDEST STOP JUMPDEST PUSH2 0x27D PUSH1 0x4 DUP1 CALLDATASIZE SUB DUP2 ADD SWAP1 PUSH2 0x278 SWAP2 SWAP1 PUSH2 0x2601 JUMP JUMPDEST PUSH2 0x1DDD JUMP JUMPDEST PUSH1 0x40 MLOAD PUSH2 0x28C SWAP4 SWAP3 SWAP2 SWAP1 PUSH2 0x2646 JUMP JUMPDEST PUSH1 0x40 MLOAD DUP1 SWAP2 SUB SWAP1 RETURN JUMPDEST PUSH2 0x29D PUSH2 0x1E1B JUMP JUMPDEST PUSH1 0x40 MLOAD PUSH2 0x2AA SWAP2 SWAP1 PUSH2 0x231B JUMP JUMPDEST PUSH1 0x40 MLOAD DUP1 SWAP2 SUB SWAP1 RETURN JUMPDEST PUSH2 0x2CD PUSH1 0x4 DUP1 CALLDATASIZE SUB DUP2 ADD SWAP1 PUSH2 0x2C8 SWAP2 SWAP1 PUSH2 0x240C JUMP JUMPDEST PUSH2 0x1E21 JUMP JUMPDEST PUSH1 0x40 MLOAD PUSH2 0x2E5 SWAP13 SWAP12 SWAP11 SWAP10 SWAP9 SWAP8 SWAP7 SWAP6 SWAP5 SWAP4 SWAP3 SWAP2 SWAP1 PUSH2 0x276D JUMP JUMPDEST PUSH1 0x40 MLOAD DUP1 SWAP2 SUB SWAP1 RETURN JUMPDEST PUSH2 0x308 PUSH1 0x4 DUP1 CALLDATASIZE SUB DUP2 ADD SWAP1 PUSH2 0x303 SWAP2 SWAP1 PUSH2 0x240C JUMP JUMPDEST PUSH2 0x1F6C JUMP JUMPDEST PUSH1 0x40 MLOAD PUSH2 0x315 SWAP2 SWAP1 PUSH2 0x282C JUMP JUMPDEST PUSH1 0x40 MLOAD DUP1 SWAP2 SUB SWAP1 RETURN JUMPDEST PUSH1 0x6 SLOAD DUP2 JUMP JUMPDEST PUSH0 PUSH1 0x8 PUSH0 DUP6 DUP2 MSTORE PUSH1 0x20 ADD SWAP1 DUP2 MSTORE PUSH1 0x20 ADD PUSH0 KECCAK256 SWAP1 POP PUSH1 0x1 PUSH1 0x4 DUP2 GT ISZERO PUSH2 0x34C JUMPI PUSH2 0x34B PUSH2 0x26FA JUMP JUMPDEST JUMPDEST DUP2 PUSH1 0x4 ADD PUSH0 SWAP1 SLOAD SWAP1 PUSH2 0x100 EXP SWAP1 DIV PUSH1 0xFF AND PUSH1 0x4 DUP2 GT ISZERO PUSH2 0x36F JUMPI PUSH2 0x36E PUSH2 0x26FA JUMP JUMPDEST JUMPDEST EQ PUSH2 0x3AF JUMPI PUSH1 0x40 MLOAD PUSH32 0x8C379A000000000000000000000000000000000000000000000000000000000 DUP2 MSTORE PUSH1 0x4 ADD PUSH2 0x3A6 SWAP1 PUSH2 0x288F JUMP JUMPDEST PUSH1 0x40 MLOAD DUP1 SWAP2 SUB SWAP1 REVERT JUMPDEST DUP1 PUSH1 0xC ADD SLOAD TIMESTAMP GT PUSH2 0x3F5 JUMPI PUSH1 0x40 MLOAD PUSH32 0x8C379A000000000000000000000000000000000000000000000000000000000 DUP2 MSTORE PUSH1 0x4 ADD PUSH2 0x3EC SWAP1 PUSH2 0x28F7 JUMP JUMPDEST PUSH1 0x40 MLOAD DUP1 SWAP2 SUB SWAP1 REVERT JUMPDEST DUP1 PUSH1 0xD ADD SLOAD TIMESTAMP GT ISZERO PUSH2 0x43C JUMPI PUSH1 0x40 MLOAD PUSH32 0x8C379A000000000000000000000000000000000000000000000000000000000 DUP2 MSTORE PUSH1 0x4 ADD PUSH2 0x433 SWAP1 PUSH2 0x295F JUMP JUMPDEST PUSH1 0x40 MLOAD DUP1 SWAP2 SUB SWAP1 REVERT JUMPDEST PUSH2 0x446 DUP2 CALLER PUSH2 0x1FA7 JUMP JUMPDEST PUSH2 0x485 JUMPI PUSH1 0x40 MLOAD PUSH32 0x8C379A000000000000000000000000000000000000000000000000000000000 DUP2 MSTORE PUSH1 0x4 ADD PUSH2 0x47C SWAP1 PUSH2 0x29C7 JUMP JUMPDEST PUSH1 0x40 MLOAD DUP1 SWAP2 SUB SWAP1 REVERT JUMPDEST PUSH0 PUSH0 SHL DUP2 PUSH1 0x7 ADD PUSH0 CALLER PUSH20 0xFFFFFFFFFFFFFFFFFFFFFFFFFFFFFFFFFFFFFFFF AND PUSH20 0xFFFFFFFFFFFFFFFFFFFFFFFFFFFFFFFFFFFFFFFF AND DUP2 MSTORE PUSH1 0x20 ADD SWAP1 DUP2 MSTORE PUSH1 0x20 ADD PUSH0 KECCAK256 SLOAD SUB PUSH2 0x508 JUMPI PUSH1 0x40 MLOAD PUSH32 0x8C379A000000000000000000000000000000000000000000000000000000000 DUP2 MSTORE PUSH1 0x4 ADD PUSH2 0x4FF SWAP1 PUSH2 0x2A2F JUMP JUMPDEST PUSH1 0x40 MLOAD DUP1 SWAP2 SUB SWAP1 REVERT JUMPDEST PUSH0 PUSH1 0x2 DUP2 GT ISZERO PUSH2 0x51B JUMPI PUSH2 0x51A PUSH2 0x26FA JUMP JUMPDEST JUMPDEST DUP2 PUSH1 0x8 ADD PUSH0 CALLER PUSH20 0xFFFFFFFFFFFFFFFFFFFFFFFFFFFFFFFFFFFFFFFF AND PUSH20 0xFFFFFFFFFFFFFFFFFFFFFFFFFFFFFFFFFFFFFFFF AND DUP2 MSTORE PUSH1 0x20 ADD SWAP1 DUP2 MSTORE PUSH1 0x20 ADD PUSH0 KECCAK256 PUSH0 SWAP1 SLOAD SWAP1 PUSH2 0x100 EXP SWAP1 DIV PUSH1 0xFF AND PUSH1 0x2 DUP2 GT ISZERO PUSH2 0x579 JUMPI PUSH2 0x578 PUSH2 0x26FA JUMP JUMPDEST JUMPDEST EQ PUSH2 0x5B9 JUMPI PUSH1 0x40 MLOAD PUSH32 0x8C379A000000000000000000000000000000000000000000000000000000000 DUP2 MSTORE PUSH1 0x4 ADD PUSH2 0x5B0 SWAP1 PUSH2 0x2A97 JUMP JUMPDEST PUSH1 0x40 MLOAD DUP1 SWAP2 SUB SWAP1 REVERT JUMPDEST PUSH0 DUP4 DUP4 PUSH1 0x40 MLOAD PUSH1 0x20 ADD PUSH2 0x5CD SWAP3 SWAP2 SWAP1 PUSH2 0x2B40 JUMP JUMPDEST PUSH1 0x40 MLOAD PUSH1 0x20 DUP2 DUP4 SUB SUB DUP2 MSTORE SWAP1 PUSH1 0x40 MSTORE DUP1 MLOAD SWAP1 PUSH1 0x20 ADD KECCAK256 SWAP1 POP DUP2 PUSH1 0x7 ADD PUSH0 CALLER PUSH20 0xFFFFFFFFFFFFFFFFFFFFFFFFFFFFFFFFFFFFFFFF AND PUSH20 0xFFFFFFFFFFFFFFFFFFFFFFFFFFFFFFFFFFFFFFFF AND DUP2 MSTORE PUSH1 0x20 ADD SWAP1 DUP2 MSTORE PUSH1 0x20 ADD PUSH0 KECCAK256 SLOAD DUP2 EQ PUSH2 0x666 JUMPI PUSH1 0x40 MLOAD PUSH32 0x8C379A000000000000000000000000000000000000000000000000000000000 DUP2 MSTORE PUSH1 0x4 ADD PUSH2 0x65D SWAP1 PUSH2 0x2BB5 JUMP JUMPDEST PUSH1 0x40 MLOAD DUP1 SWAP2 SUB SWAP1 REVERT JUMPDEST DUP4 DUP3 PUSH1 0x8 ADD PUSH0 CALLER PUSH20 0xFFFFFFFFFFFFFFFFFFFFFFFFFFFFFFFFFFFFFFFF AND PUSH20 0xFFFFFFFFFFFFFFFFFFFFFFFFFFFFFFFFFFFFFFFF AND DUP2 MSTORE PUSH1 0x20 ADD SWAP1 DUP2 MSTORE PUSH1 0x20 ADD PUSH0 KECCAK256 PUSH0 PUSH2 0x100 EXP DUP2 SLOAD DUP2 PUSH1 0xFF MUL NOT AND SWAP1 DUP4 PUSH1 0x2 DUP2 GT ISZERO PUSH2 0x6C7 JUMPI PUSH2 0x6C6 PUSH2 0x26FA JUMP JUMPDEST JUMPDEST MUL OR SWAP1 SSTORE POP PUSH1 0x1 PUSH1 0x2 DUP2 GT ISZERO PUSH2 0x6E0 JUMPI PUSH2 0x6DF PUSH2 0x26FA JUMP JUMPDEST JUMPDEST DUP5 PUSH1 0x2 DUP2 GT ISZERO PUSH2 0x6F3 JUMPI PUSH2 0x6F2 PUSH2 0x26FA JUMP JUMPDEST JUMPDEST SUB PUSH2 0x716 JUMPI DUP2 PUSH1 0x9 ADD PUSH0 DUP2 SLOAD DUP1 SWAP3 SWAP2 SWAP1 PUSH2 0x70C SWAP1 PUSH2 0x2C00 JUMP JUMPDEST SWAP2 SWAP1 POP SSTORE POP PUSH2 0x75C JUMP JUMPDEST PUSH1 0x2 DUP1 DUP2 GT ISZERO PUSH2 0x729 JUMPI PUSH2 0x728 PUSH2 0x26FA JUMP JUMPDEST JUMPDEST DUP5 PUSH1 0x2 DUP2 GT ISZERO PUSH2 0x73C JUMPI PUSH2 0x73B PUSH2 0x26FA JUMP JUMPDEST JUMPDEST SUB PUSH2 0x75B JUMPI DUP2 PUSH1 0xA ADD PUSH0 DUP2 SLOAD DUP1 SWAP3 SWAP2 SWAP1 PUSH2 0x755 SWAP1 PUSH2 0x2C00 JUMP JUMPDEST SWAP2 SWAP1 POP SSTORE POP JUMPDEST JUMPDEST CALLER PUSH20 0xFFFFFFFFFFFFFFFFFFFFFFFFFFFFFFFFFFFFFFFF AND DUP6 PUSH32 0xFB0A2A4B906424480A54D601DB26AD920592115A97358D199495345723DF34CB DUP7 PUSH1 0x40 MLOAD PUSH2 0x7A3 SWAP2 SWAP1 PUSH2 0x2C56 JUMP JUMPDEST PUSH1 0x40 MLOAD DUP1 SWAP2 SUB SWAP1 LOG3 POP POP POP POP POP JUMP JUMPDEST PUSH2 0x7BA PUSH2 0x204E JUMP JUMPDEST PUSH0 PUSH1 0x8 PUSH0 DUP4 DUP2 MSTORE PUSH1 0x20 ADD SWAP1 DUP2 MSTORE PUSH1 0x20 ADD PUSH0 KECCAK256 SWAP1 POP PUSH1 0x1 PUSH1 0x4 DUP2 GT ISZERO PUSH2 0x7E2 JUMPI PUSH2 0x7E1 PUSH2 0x26FA JUMP JUMPDEST JUMPDEST DUP2 PUSH1 0x4 ADD PUSH0 SWAP1 SLOAD SWAP1 PUSH2 0x100 EXP SWAP1 DIV PUSH1 0xFF AND PUSH1 0x4 DUP2 GT ISZERO PUSH2 0x805 JUMPI PUSH2 0x804 PUSH2 0x26FA JUMP JUMPDEST JUMPDEST EQ PUSH2 0x845 JUMPI PUSH1 0x40 MLOAD PUSH32 0x8C379A000000000000000000000000000000000000000000000000000000000 DUP2 MSTORE PUSH1 0x4 ADD PUSH2 0x83C SWAP1 PUSH2 0x2CB9 JUMP JUMPDEST PUSH1 0x40 MLOAD DUP1 SWAP2 SUB SWAP1 REVERT JUMPDEST DUP1 PUSH1 0xD ADD SLOAD TIMESTAMP GT PUSH2 0x88B JUMPI PUSH1 0x40 MLOAD PUSH32 0x8C379A000000000000000000000000000000000000000000000000000000000 DUP2 MSTORE PUSH1 0x4 ADD PUSH2 0x882 SWAP1 PUSH2 0x2D21 JUMP JUMPDEST PUSH1 0x40 MLOAD DUP1 SWAP2 SUB SWAP1 REVERT JUMPDEST PUSH1 0x2 DUP2 PUSH1 0x4 ADD PUSH0 PUSH2 0x100 EXP DUP2 SLOAD DUP2 PUSH1 0xFF MUL NOT AND SWAP1 DUP4 PUSH1 0x4 DUP2 GT ISZERO PUSH2 0x8B2 JUMPI PUSH2 0x8B1 PUSH2 0x26FA JUMP JUMPDEST JUMPDEST MUL OR SWAP1 SSTORE POP PUSH0 DUP2 PUSH1 0xA ADD SLOAD DUP3 PUSH1 0x9 ADD SLOAD GT PUSH2 0x8F0 JUMPI DUP2 PUSH1 0x2 ADD PUSH0 SWAP1 SLOAD SWAP1 PUSH2 0x100 EXP SWAP1 DIV PUSH20 0xFFFFFFFFFFFFFFFFFFFFFFFFFFFFFFFFFFFFFFFF AND PUSH2 0x915 JUMP JUMPDEST DUP2 PUSH1 0x1 ADD PUSH0 SWAP1 SLOAD SWAP1 PUSH2 0x100 EXP SWAP1 DIV PUSH20 0xFFFFFFFFFFFFFFFFFFFFFFFFFFFFFFFFFFFFFFFF AND JUMPDEST SWAP1 POP DUP1 DUP3 PUSH1 0xE ADD PUSH0 PUSH2 0x100 EXP DUP2 SLOAD DUP2 PUSH20 0xFFFFFFFFFFFFFFFFFFFFFFFFFFFFFFFFFFFFFFFF MUL NOT AND SWAP1 DUP4 PUSH20 0xFFFFFFFFFFFFFFFFFFFFFFFFFFFFFFFFFFFFFFFF AND MUL OR SWAP1 SSTORE POP PUSH0 DUP3 PUSH1 0x1 ADD PUSH0 SWAP1 SLOAD SWAP1 PUSH2 0x100 EXP SWAP1 DIV PUSH20 0xFFFFFFFFFFFFFFFFFFFFFFFFFFFFFFFFFFFFFFFF AND PUSH20 0xFFFFFFFFFFFFFFFFFFFFFFFFFFFFFFFFFFFFFFFF AND DUP3 PUSH20 0xFFFFFFFFFFFFFFFFFFFFFFFFFFFFFFFFFFFFFFFF AND EQ PUSH2 0x9B7 JUMPI PUSH1 0x2 PUSH2 0x9BA JUMP JUMPDEST PUSH1 0x1 JUMPDEST SWAP1 POP PUSH0 PUSH0 SWAP1 POP PUSH0 PUSH0 SWAP1 POP PUSH0 PUSH0 SWAP1 POP JUMPDEST DUP6 PUSH1 0x6 ADD DUP1 SLOAD SWAP1 POP DUP2 LT ISZERO PUSH2 0xBCE JUMPI PUSH0 DUP7 PUSH1 0x6 ADD DUP3 DUP2 SLOAD DUP2 LT PUSH2 0x9EF JUMPI PUSH2 0x9EE PUSH2 0x2D3F JUMP JUMPDEST JUMPDEST SWAP1 PUSH0 MSTORE PUSH1 0x20 PUSH0 KECCAK256 ADD PUSH0 SWAP1 SLOAD SWAP1 PUSH2 0x100 EXP SWAP1 DIV PUSH20 0xFFFFFFFFFFFFFFFFFFFFFFFFFFFFFFFFFFFFFFFF AND SWAP1 POP PUSH0 DUP8 PUSH1 0x8 ADD PUSH0 DUP4 PUSH20 0xFFFFFFFFFFFFFFFFFFFFFFFFFFFFFFFFFFFFFFFF AND PUSH20 0xFFFFFFFFFFFFFFFFFFFFFFFFFFFFFFFFFFFFFFFF AND DUP2 MSTORE PUSH1 0x20 ADD SWAP1 DUP2 MSTORE PUSH1 0x20 ADD PUSH0 KECCAK256 PUSH0 SWAP1 SLOAD SWAP1 PUSH2 0x100 EXP SWAP1 DIV PUSH1 0xFF AND SWAP1 POP DUP6 PUSH1 0x2 DUP2 GT ISZERO PUSH2 0xA7B JUMPI PUSH2 0xA7A PUSH2 0x26FA JUMP JUMPDEST JUMPDEST DUP2 PUSH1 0x2 DUP2 GT ISZERO PUSH2 0xA8E JUMPI PUSH2 0xA8D PUSH2 0x26FA JUMP JUMPDEST JUMPDEST SUB PUSH2 0xAA6 JUMPI DUP4 DUP1 PUSH2 0xA9E SWAP1 PUSH2 0x2C00 JUMP JUMPDEST SWAP5 POP POP PUSH2 0xBBF JUMP JUMPDEST PUSH0 PUSH2 0xB0F PUSH1 0x64 PUSH2 0xB01 PUSH1 0x6 SLOAD PUSH1 0xB PUSH0 DUP9 PUSH20 0xFFFFFFFFFFFFFFFFFFFFFFFFFFFFFFFFFFFFFFFF AND PUSH20 0xFFFFFFFFFFFFFFFFFFFFFFFFFFFFFFFFFFFFFFFF AND DUP2 MSTORE PUSH1 0x20 ADD SWAP1 DUP2 MSTORE PUSH1 0x20 ADD PUSH0 KECCAK256 PUSH1 0x1 ADD SLOAD PUSH2 0x209B SWAP1 SWAP2 SWAP1 PUSH4 0xFFFFFFFF AND JUMP JUMPDEST PUSH2 0x20B0 SWAP1 SWAP2 SWAP1 PUSH4 0xFFFFFFFF AND JUMP JUMPDEST SWAP1 POP PUSH2 0xB64 DUP2 PUSH1 0xB PUSH0 DUP7 PUSH20 0xFFFFFFFFFFFFFFFFFFFFFFFFFFFFFFFFFFFFFFFF AND PUSH20 0xFFFFFFFFFFFFFFFFFFFFFFFFFFFFFFFFFFFFFFFF AND DUP2 MSTORE PUSH1 0x20 ADD SWAP1 DUP2 MSTORE PUSH1 0x20 ADD PUSH0 KECCAK256 PUSH1 0x1 ADD SLOAD PUSH2 0x20C5 SWAP1 SWAP2 SWAP1 PUSH4 0xFFFFFFFF AND JUMP JUMPDEST PUSH1 0xB PUSH0 DUP6 PUSH20 0xFFFFFFFFFFFFFFFFFFFFFFFFFFFFFFFFFFFFFFFF AND PUSH20 0xFFFFFFFFFFFFFFFFFFFFFFFFFFFFFFFFFFFFFFFF AND DUP2 MSTORE PUSH1 0x20 ADD SWAP1 DUP2 MSTORE PUSH1 0x20 ADD PUSH0 KECCAK256 PUSH1 0x1 ADD DUP2 SWAP1 SSTORE POP PUSH2 0xBBB DUP2 DUP8 PUSH2 0x20DA SWAP1 SWAP2 SWAP1 PUSH4 0xFFFFFFFF AND JUMP JUMPDEST SWAP6 POP POP JUMPDEST POP POP DUP1 DUP1 PUSH1 0x1 ADD SWAP2 POP POP PUSH2 0x9C9 JUMP JUMPDEST POP PUSH0 PUSH0 SWAP1 POP PUSH0 PUSH0 SWAP1 POP PUSH0 PUSH0 SWAP1 POP PUSH0 PUSH0 SWAP1 POP PUSH0 PUSH2 0xBF7 DUP8 DUP12 PUSH1 0x5 ADD SLOAD PUSH2 0x20DA SWAP1 SWAP2 SWAP1 PUSH4 0xFFFFFFFF AND JUMP JUMPDEST SWAP1 POP PUSH0 DUP7 GT ISZERO PUSH2 0xC2A JUMPI PUSH2 0xC27 DUP7 PUSH2 0xC19 PUSH1 0x2 DUP5 PUSH2 0x20B0 SWAP1 SWAP2 SWAP1 PUSH4 0xFFFFFFFF AND JUMP JUMPDEST PUSH2 0x20B0 SWAP1 SWAP2 SWAP1 PUSH4 0xFFFFFFFF AND JUMP JUMPDEST SWAP3 POP JUMPDEST DUP10 PUSH1 0x1 ADD PUSH0 SWAP1 SLOAD SWAP1 PUSH2 0x100 EXP SWAP1 DIV PUSH20 0xFFFFFFFFFFFFFFFFFFFFFFFFFFFFFFFFFFFFFFFF AND PUSH20 0xFFFFFFFFFFFFFFFFFFFFFFFFFFFFFFFFFFFFFFFF AND DUP10 PUSH20 0xFFFFFFFFFFFFFFFFFFFFFFFFFFFFFFFFFFFFFFFF AND SUB PUSH2 0xD70 JUMPI PUSH2 0xCAA PUSH2 0xC97 PUSH1 0x2 DUP4 PUSH2 0x20B0 SWAP1 SWAP2 SWAP1 PUSH4 0xFFFFFFFF AND JUMP JUMPDEST DUP12 PUSH1 0x5 ADD SLOAD PUSH2 0x20DA SWAP1 SWAP2 SWAP1 PUSH4 0xFFFFFFFF AND JUMP JUMPDEST SWAP5 POP PUSH32 0x0 PUSH20 0xFFFFFFFFFFFFFFFFFFFFFFFFFFFFFFFFFFFFFFFF AND PUSH4 0xA9059CBB DUP12 PUSH1 0x1 ADD PUSH0 SWAP1 SLOAD SWAP1 PUSH2 0x100 EXP SWAP1 DIV PUSH20 0xFFFFFFFFFFFFFFFFFFFFFFFFFFFFFFFFFFFFFFFF AND DUP8 PUSH1 0x40 MLOAD DUP4 PUSH4 0xFFFFFFFF AND PUSH1 0xE0 SHL DUP2 MSTORE PUSH1 0x4 ADD PUSH2 0xD2A SWAP3 SWAP2 SWAP1 PUSH2 0x2D6C JUMP JUMPDEST PUSH1 0x20 PUSH1 0x40 MLOAD DUP1 DUP4 SUB DUP2 PUSH0 DUP8 GAS CALL ISZERO DUP1 ISZERO PUSH2 0xD46 JUMPI RETURNDATASIZE PUSH0 PUSH0 RETURNDATACOPY RETURNDATASIZE PUSH0 REVERT JUMPDEST POP POP POP POP PUSH1 0x40 MLOAD RETURNDATASIZE PUSH1 0x1F NOT PUSH1 0x1F DUP3 ADD AND DUP3 ADD DUP1 PUSH1 0x40 MSTORE POP DUP2 ADD SWAP1 PUSH2 0xD6A SWAP2 SWAP1 PUSH2 0x2DBD JUMP JUMPDEST POP PUSH2 0xE46 JUMP JUMPDEST PUSH2 0xD84 PUSH1 0x2 DUP3 PUSH2 0x20B0 SWAP1 SWAP2 SWAP1 PUSH4 0xFFFFFFFF AND JUMP JUMPDEST SWAP4 POP PUSH32 0x0 PUSH20 0xFFFFFFFFFFFFFFFFFFFFFFFFFFFFFFFFFFFFFFFF AND PUSH4 0xA9059CBB DUP12 PUSH1 0x2 ADD PUSH0 SWAP1 SLOAD SWAP1 PUSH2 0x100 EXP SWAP1 DIV PUSH20 0xFFFFFFFFFFFFFFFFFFFFFFFFFFFFFFFFFFFFFFFF AND DUP7 PUSH1 0x40 MLOAD DUP4 PUSH4 0xFFFFFFFF AND PUSH1 0xE0 SHL DUP2 MSTORE PUSH1 0x4 ADD PUSH2 0xE04 SWAP3 SWAP2 SWAP1 PUSH2 0x2D6C JUMP JUMPDEST PUSH1 0x20 PUSH1 0x40 MLOAD DUP1 DUP4 SUB DUP2 PUSH0 DUP8 GAS CALL ISZERO DUP1 ISZERO PUSH2 0xE20 JUMPI RETURNDATASIZE PUSH0 PUSH0 RETURNDATACOPY RETURNDATASIZE PUSH0 REVERT JUMPDEST POP POP POP POP PUSH1 0x40 MLOAD RETURNDATASIZE PUSH1 0x1F NOT PUSH1 0x1F DUP3 ADD AND DUP3 ADD DUP1 PUSH1 0x40 MSTORE POP DUP2 ADD SWAP1 PUSH2 0xE44 SWAP2 SWAP1 PUSH2 0x2DBD JUMP JUMPDEST POP JUMPDEST PUSH0 PUSH0 SWAP1 POP JUMPDEST DUP11 PUSH1 0x6 ADD DUP1 SLOAD SWAP1 POP DUP2 LT ISZERO PUSH2 0x1023 JUMPI PUSH0 DUP12 PUSH1 0x6 ADD DUP3 DUP2 SLOAD DUP2 LT PUSH2 0xE71 JUMPI PUSH2 0xE70 PUSH2 0x2D3F JUMP JUMPDEST JUMPDEST SWAP1 PUSH0 MSTORE PUSH1 0x20 PUSH0 KECCAK256 ADD PUSH0 SWAP1 SLOAD SWAP1 PUSH2 0x100 EXP SWAP1 DIV PUSH20 0xFFFFFFFFFFFFFFFFFFFFFFFFFFFFFFFFFFFFFFFF AND SWAP1 POP DUP10 PUSH1 0x2 DUP2 GT ISZERO PUSH2 0xEAE JUMPI PUSH2 0xEAD PUSH2 0x26FA JUMP JUMPDEST JUMPDEST DUP13 PUSH1 0x8 ADD PUSH0 DUP4 PUSH20 0xFFFFFFFFFFFFFFFFFFFFFFFFFFFFFFFFFFFFFFFF AND PUSH20 0xFFFFFFFFFFFFFFFFFFFFFFFFFFFFFFFFFFFFFFFF AND DUP2 MSTORE PUSH1 0x20 ADD SWAP1 DUP2 MSTORE PUSH1 0x20 ADD PUSH0 KECCAK256 PUSH0 SWAP1 SLOAD SWAP1 PUSH2 0x100 EXP SWAP1 DIV PUSH1 0xFF AND PUSH1 0x2 DUP2 GT ISZERO PUSH2 0xF0C JUMPI PUSH2 0xF0B PUSH2 0x26FA JUMP JUMPDEST JUMPDEST SUB PUSH2 0xFBE JUMPI PUSH2 0xF64 DUP6 PUSH1 0xB PUSH0 DUP5 PUSH20 0xFFFFFFFFFFFFFFFFFFFFFFFFFFFFFFFFFFFFFFFF AND PUSH20 0xFFFFFFFFFFFFFFFFFFFFFFFFFFFFFFFFFFFFFFFF AND DUP2 MSTORE PUSH1 0x20 ADD SWAP1 DUP2 MSTORE PUSH1 0x20 ADD PUSH0 KECCAK256 PUSH1 0x1 ADD SLOAD PUSH2 0x20DA SWAP1 SWAP2 SWAP1 PUSH4 0xFFFFFFFF AND JUMP JUMPDEST PUSH1 0xB PUSH0 DUP4 PUSH20 0xFFFFFFFFFFFFFFFFFFFFFFFFFFFFFFFFFFFFFFFF AND PUSH20 0xFFFFFFFFFFFFFFFFFFFFFFFFFFFFFFFFFFFFFFFF AND DUP2 MSTORE PUSH1 0x20 ADD SWAP1 DUP2 MSTORE PUSH1 0x20 ADD PUSH0 KECCAK256 PUSH1 0x1 ADD DUP2 SWAP1 SSTORE POP PUSH2 0xFBB DUP6 DUP6 PUSH2 0x20DA SWAP1 SWAP2 SWAP1 PUSH4 0xFFFFFFFF AND JUMP JUMPDEST SWAP4 POP JUMPDEST PUSH0 PUSH1 0xB PUSH0 DUP4 PUSH20 0xFFFFFFFFFFFFFFFFFFFFFFFFFFFFFFFFFFFFFFFF AND PUSH20 0xFFFFFFFFFFFFFFFFFFFFFFFFFFFFFFFFFFFFFFFF AND DUP2 MSTORE PUSH1 0x20 ADD SWAP1 DUP2 MSTORE PUSH1 0x20 ADD PUSH0 KECCAK256 PUSH1 0x2 ADD PUSH0 PUSH2 0x100 EXP DUP2 SLOAD DUP2 PUSH1 0xFF MUL NOT AND SWAP1 DUP4 ISZERO ISZERO MUL OR SWAP1 SSTORE POP POP DUP1 DUP1 PUSH1 0x1 ADD SWAP2 POP POP PUSH2 0xE4B JUMP JUMPDEST POP PUSH1 0x3 DUP11 PUSH1 0x4 ADD PUSH0 PUSH2 0x100 EXP DUP2 SLOAD DUP2 PUSH1 0xFF MUL NOT AND SWAP1 DUP4 PUSH1 0x4 DUP2 GT ISZERO PUSH2 0x104B JUMPI PUSH2 0x104A PUSH2 0x26FA JUMP JUMPDEST JUMPDEST MUL OR SWAP1 SSTORE POP DUP11 PUSH32 0xB179B08881890BD8E13EDDE8255F745991199906456A378692EC11430A4560A9 DUP11 DUP8 DUP8 DUP7 PUSH1 0x40 MLOAD PUSH2 0x1086 SWAP5 SWAP4 SWAP3 SWAP2 SWAP1 PUSH2 0x2DE8 JUMP JUMPDEST PUSH1 0x40 MLOAD DUP1 SWAP2 SUB SWAP1 LOG2 POP POP POP POP POP POP POP POP POP POP PUSH2 0x10A0 PUSH2 0x20EF JUMP JUMPDEST POP JUMP JUMPDEST PUSH1 0x1 SLOAD DUP2 JUMP JUMPDEST PUSH0 PUSH1 0xB PUSH0 CALLER PUSH20 0xFFFFFFFFFFFFFFFFFFFFFFFFFFFFFFFFFFFFFFFF AND PUSH20 0xFFFFFFFFFFFFFFFFFFFFFFFFFFFFFFFFFFFFFFFF AND DUP2 MSTORE PUSH1 0x20 ADD SWAP1 DUP2 MSTORE PUSH1 0x20 ADD PUSH0 KECCAK256 SWAP1 POP DUP1 PUSH0 ADD PUSH0 SWAP1 SLOAD SWAP1 PUSH2 0x100 EXP SWAP1 DIV PUSH1 0xFF AND PUSH2 0x1138 JUMPI PUSH1 0x40 MLOAD PUSH32 0x8C379A000000000000000000000000000000000000000000000000000000000 DUP2 MSTORE PUSH1 0x4 ADD PUSH2 0x112F SWAP1 PUSH2 0x2E75 JUMP JUMPDEST PUSH1 0x40 MLOAD DUP1 SWAP2 SUB SWAP1 REVERT JUMPDEST DUP1 PUSH1 0x2 ADD PUSH0 SWAP1 SLOAD SWAP1 PUSH2 0x100 EXP SWAP1 DIV PUSH1 0xFF AND ISZERO PUSH2 0x1189 JUMPI PUSH1 0x40 MLOAD PUSH32 0x8C379A000000000000000000000000000000000000000000000000000000000 DUP2 MSTORE PUSH1 0x4 ADD PUSH2 0x1180 SWAP1 PUSH2 0x2F03 JUMP JUMPDEST PUSH1 0x40 MLOAD DUP1 SWAP2 SUB SWAP1 REVERT JUMPDEST PUSH0 PUSH1 0xA PUSH0 CALLER PUSH20 0xFFFFFFFFFFFFFFFFFFFFFFFFFFFFFFFFFFFFFFFF AND PUSH20 0xFFFFFFFFFFFFFFFFFFFFFFFFFFFFFFFFFFFFFFFF AND DUP2 MSTORE PUSH1 0x20 ADD SWAP1 DUP2 MSTORE PUSH1 0x20 ADD PUSH0 KECCAK256 SLOAD SWAP1 POP PUSH0 PUSH1 0x9 PUSH1 0x1 PUSH1 0x9 DUP1 SLOAD SWAP1 POP PUSH2 0x11DF SWAP2 SWAP1 PUSH2 0x2F21 JUMP JUMPDEST DUP2 SLOAD DUP2 LT PUSH2 0x11F0 JUMPI PUSH2 0x11EF PUSH2 0x2D3F JUMP JUMPDEST JUMPDEST SWAP1 PUSH0 MSTORE PUSH1 0x20 PUSH0 KECCAK256 ADD PUSH0 SWAP1 SLOAD SWAP1 PUSH2 0x100 EXP SWAP1 DIV PUSH20 0xFFFFFFFFFFFFFFFFFFFFFFFFFFFFFFFFFFFFFFFF AND SWAP1 POP DUP1 PUSH1 0x9 DUP4 DUP2 SLOAD DUP2 LT PUSH2 0x122F JUMPI PUSH2 0x122E PUSH2 0x2D3F JUMP JUMPDEST JUMPDEST SWAP1 PUSH0 MSTORE PUSH1 0x20 PUSH0 KECCAK256 ADD PUSH0 PUSH2 0x100 EXP DUP2 SLOAD DUP2 PUSH20 0xFFFFFFFFFFFFFFFFFFFFFFFFFFFFFFFFFFFFFFFF MUL NOT AND SWAP1 DUP4 PUSH20 0xFFFFFFFFFFFFFFFFFFFFFFFFFFFFFFFFFFFFFFFF AND MUL OR SWAP1 SSTORE POP DUP2 PUSH1 0xA PUSH0 DUP4 PUSH20 0xFFFFFFFFFFFFFFFFFFFFFFFFFFFFFFFFFFFFFFFF AND PUSH20 0xFFFFFFFFFFFFFFFFFFFFFFFFFFFFFFFFFFFFFFFF AND DUP2 MSTORE PUSH1 0x20 ADD SWAP1 DUP2 MSTORE PUSH1 0x20 ADD PUSH0 KECCAK256 DUP2 SWAP1 SSTORE POP PUSH1 0x9 DUP1 SLOAD DUP1 PUSH2 0x12C8 JUMPI PUSH2 0x12C7 PUSH2 0x2F54 JUMP JUMPDEST JUMPDEST PUSH1 0x1 SWAP1 SUB DUP2 DUP2 SWAP1 PUSH0 MSTORE PUSH1 0x20 PUSH0 KECCAK256 ADD PUSH0 PUSH2 0x100 EXP DUP2 SLOAD SWAP1 PUSH20 0xFFFFFFFFFFFFFFFFFFFFFFFFFFFFFFFFFFFFFFFF MUL NOT AND SWAP1 SSTORE SWAP1 SSTORE PUSH1 0xB PUSH0 CALLER PUSH20 0xFFFFFFFFFFFFFFFFFFFFFFFFFFFFFFFFFFFFFFFF AND PUSH20 0xFFFFFFFFFFFFFFFFFFFFFFFFFFFFFFFFFFFFFFFF AND DUP2 MSTORE PUSH1 0x20 ADD SWAP1 DUP2 MSTORE PUSH1 0x20 ADD PUSH0 KECCAK256 PUSH0 PUSH0 DUP3 ADD PUSH0 PUSH2 0x100 EXP DUP2 SLOAD SWAP1 PUSH1 0xFF MUL NOT AND SWAP1 SSTORE PUSH1 0x1 DUP3 ADD PUSH0 SWAP1 SSTORE PUSH1 0x2 DUP3 ADD PUSH0 PUSH2 0x100 EXP DUP2 SLOAD SWAP1 PUSH1 0xFF MUL NOT AND SWAP1 SSTORE POP POP PUSH1 0xA PUSH0 CALLER PUSH20 0xFFFFFFFFFFFFFFFFFFFFFFFFFFFFFFFFFFFFFFFF AND PUSH20 0xFFFFFFFFFFFFFFFFFFFFFFFFFFFFFFFFFFFFFFFF AND DUP2 MSTORE PUSH1 0x20 ADD SWAP1 DUP2 MSTORE PUSH1 0x20 ADD PUSH0 KECCAK256 PUSH0 SWAP1 SSTORE PUSH0 PUSH32 0x0 PUSH20 0xFFFFFFFFFFFFFFFFFFFFFFFFFFFFFFFFFFFFFFFF AND PUSH4 0xA9059CBB CALLER DUP7 PUSH1 0x1 ADD SLOAD PUSH1 0x40 MLOAD DUP4 PUSH4 0xFFFFFFFF AND PUSH1 0xE0 SHL DUP2 MSTORE PUSH1 0x4 ADD PUSH2 0x1406 SWAP3 SWAP2 SWAP1 PUSH2 0x2D6C JUMP JUMPDEST PUSH1 0x20 PUSH1 0x40 MLOAD DUP1 DUP4 SUB DUP2 PUSH0 DUP8 GAS CALL ISZERO DUP1 ISZERO PUSH2 0x1422 JUMPI RETURNDATASIZE PUSH0 PUSH0 RETURNDATACOPY RETURNDATASIZE PUSH0 REVERT JUMPDEST POP POP POP POP PUSH1 0x40 MLOAD RETURNDATASIZE PUSH1 0x1F NOT PUSH1 0x1F DUP3 ADD AND DUP3 ADD DUP1 PUSH1 0x40 MSTORE POP DUP2 ADD SWAP1 PUSH2 0x1446 SWAP2 SWAP1 PUSH2 0x2DBD JUMP JUMPDEST SWAP1 POP DUP1 PUSH2 0x1488 JUMPI PUSH1 0x40 MLOAD PUSH32 0x8C379A000000000000000000000000000000000000000000000000000000000 DUP2 MSTORE PUSH1 0x4 ADD PUSH2 0x147F SWAP1 PUSH2 0x2FCB JUMP JUMPDEST PUSH1 0x40 MLOAD DUP1 SWAP2 SUB SWAP1 REVERT JUMPDEST CALLER PUSH20 0xFFFFFFFFFFFFFFFFFFFFFFFFFFFFFFFFFFFFFFFF AND PUSH32 0xF67E7162188CB7E3F756D0F6D7C86D1B7CC88B891AE19DD58118705A7859034B PUSH1 0x40 MLOAD PUSH1 0x40 MLOAD DUP1 SWAP2 SUB SWAP1 LOG2 POP POP POP POP JUMP JUMPDEST PUSH1 0x3 SLOAD DUP2 JUMP JUMPDEST PUSH1 0x7 SLOAD DUP2 JUMP JUMPDEST PUSH1 0x4 SLOAD DUP2 JUMP JUMPDEST PUSH1 0xB PUSH0 CALLER PUSH20 0xFFFFFFFFFFFFFFFFFFFFFFFFFFFFFFFFFFFFFFFF AND PUSH20 0xFFFFFFFFFFFFFFFFFFFFFFFFFFFFFFFFFFFFFFFF AND DUP2 MSTORE PUSH1 0x20 ADD SWAP1 DUP2 MSTORE PUSH1 0x20 ADD PUSH0 KECCAK256 PUSH0 ADD PUSH0 SWAP1 SLOAD SWAP1 PUSH2 0x100 EXP SWAP1 DIV PUSH1 0xFF AND ISZERO PUSH2 0x156F JUMPI PUSH1 0x40 MLOAD PUSH32 0x8C379A000000000000000000000000000000000000000000000000000000000 DUP2 MSTORE PUSH1 0x4 ADD PUSH2 0x1566 SWAP1 PUSH2 0x3033 JUMP JUMPDEST PUSH1 0x40 MLOAD DUP1 SWAP2 SUB SWAP1 REVERT JUMPDEST PUSH0 PUSH32 0x0 PUSH20 0xFFFFFFFFFFFFFFFFFFFFFFFFFFFFFFFFFFFFFFFF AND PUSH4 0x23B872DD CALLER ADDRESS PUSH1 0x2 SLOAD PUSH1 0x40 MLOAD DUP5 PUSH4 0xFFFFFFFF AND PUSH1 0xE0 SHL DUP2 MSTORE PUSH1 0x4 ADD PUSH2 0x15CF SWAP4 SWAP3 SWAP2 SWAP1 PUSH2 0x3051 JUMP JUMPDEST PUSH1 0x20 PUSH1 0x40 MLOAD DUP1 DUP4 SUB DUP2 PUSH0 DUP8 GAS CALL ISZERO DUP1 ISZERO PUSH2 0x15EB JUMPI RETURNDATASIZE PUSH0 PUSH0 RETURNDATACOPY RETURNDATASIZE PUSH0 REVERT JUMPDEST POP POP POP POP PUSH1 0x40 MLOAD RETURNDATASIZE PUSH1 0x1F NOT PUSH1 0x1F DUP3 ADD AND DUP3 ADD DUP1 PUSH1 0x40 MSTORE POP DUP2 ADD SWAP1 PUSH2 0x160F SWAP2 SWAP1 PUSH2 0x2DBD JUMP JUMPDEST SWAP1 POP DUP1 PUSH2 0x1651 JUMPI PUSH1 0x40 MLOAD PUSH32 0x8C379A000000000000000000000000000000000000000000000000000000000 DUP2 MSTORE PUSH1 0x4 ADD PUSH2 0x1648 SWAP1 PUSH2 0x30F6 JUMP JUMPDEST PUSH1 0x40 MLOAD DUP1 SWAP2 SUB SWAP1 REVERT JUMPDEST PUSH1 0x40 MLOAD DUP1 PUSH1 0x60 ADD PUSH1 0x40 MSTORE DUP1 PUSH1 0x1 ISZERO ISZERO DUP2 MSTORE PUSH1 0x20 ADD PUSH1 0x2 SLOAD DUP2 MSTORE PUSH1 0x20 ADD PUSH0 ISZERO ISZERO DUP2 MSTORE POP PUSH1 0xB PUSH0 CALLER PUSH20 0xFFFFFFFFFFFFFFFFFFFFFFFFFFFFFFFFFFFFFFFF AND PUSH20 0xFFFFFFFFFFFFFFFFFFFFFFFFFFFFFFFFFFFFFFFF AND DUP2 MSTORE PUSH1 0x20 ADD SWAP1 DUP2 MSTORE PUSH1 0x20 ADD PUSH0 KECCAK256 PUSH0 DUP3 ADD MLOAD DUP2 PUSH0 ADD PUSH0 PUSH2 0x100 EXP DUP2 SLOAD DUP2 PUSH1 0xFF MUL NOT AND SWAP1 DUP4 ISZERO ISZERO MUL OR SWAP1 SSTORE POP PUSH1 0x20 DUP3 ADD MLOAD DUP2 PUSH1 0x1 ADD SSTORE PUSH1 0x40 DUP3 ADD MLOAD DUP2 PUSH1 0x2 ADD PUSH0 PUSH2 0x100 EXP DUP2 SLOAD DUP2 PUSH1 0xFF MUL NOT AND SWAP1 DUP4 ISZERO ISZERO MUL OR SWAP1 SSTORE POP SWAP1 POP POP PUSH1 0x9 CALLER SWAP1 DUP1 PUSH1 0x1 DUP2 SLOAD ADD DUP1 DUP3 SSTORE DUP1 SWAP2 POP POP PUSH1 0x1 SWAP1 SUB SWAP1 PUSH0 MSTORE PUSH1 0x20 PUSH0 KECCAK256 ADD PUSH0 SWAP1 SWAP2 SWAP1 SWAP2 SWAP1 SWAP2 PUSH2 0x100 EXP DUP2 SLOAD DUP2 PUSH20 0xFFFFFFFFFFFFFFFFFFFFFFFFFFFFFFFFFFFFFFFF MUL NOT AND SWAP1 DUP4 PUSH20 0xFFFFFFFFFFFFFFFFFFFFFFFFFFFFFFFFFFFFFFFF AND MUL OR SWAP1 SSTORE POP PUSH1 0x1 PUSH1 0x9 DUP1 SLOAD SWAP1 POP PUSH2 0x176B SWAP2 SWAP1 PUSH2 0x2F21 JUMP JUMPDEST PUSH1 0xA PUSH0 CALLER PUSH20 0xFFFFFFFFFFFFFFFFFFFFFFFFFFFFFFFFFFFFFFFF AND PUSH20 0xFFFFFFFFFFFFFFFFFFFFFFFFFFFFFFFFFFFFFFFF AND DUP2 MSTORE PUSH1 0x20 ADD SWAP1 DUP2 MSTORE PUSH1 0x20 ADD PUSH0 KECCAK256 DUP2 SWAP1 SSTORE POP CALLER PUSH20 0xFFFFFFFFFFFFFFFFFFFFFFFFFFFFFFFFFFFFFFFF AND PUSH32 0x302E82B0B7908CFAC0232EEB6A83332CBF587D0CB58EAA7BA72F884C149910FA PUSH1 0x2 SLOAD PUSH1 0x40 MLOAD PUSH2 0x17F4 SWAP2 SWAP1 PUSH2 0x231B JUMP JUMPDEST PUSH1 0x40 MLOAD DUP1 SWAP2 SUB SWAP1 LOG2 POP JUMP JUMPDEST PUSH1 0x5 SLOAD DUP2 JUMP JUMPDEST PUSH0 PUSH1 0x8 PUSH0 DUP5 DUP2 MSTORE PUSH1 0x20 ADD SWAP1 DUP2 MSTORE PUSH1 0x20 ADD PUSH0 KECCAK256 SWAP1 POP PUSH1 0x1 PUSH1 0x4 DUP2 GT ISZERO PUSH2 0x182D JUMPI PUSH2 0x182C PUSH2 0x26FA JUMP JUMPDEST JUMPDEST DUP2 PUSH1 0x4 ADD PUSH0 SWAP1 SLOAD SWAP1 PUSH2 0x100 EXP SWAP1 DIV PUSH1 0xFF AND PUSH1 0x4 DUP2 GT ISZERO PUSH2 0x1850 JUMPI PUSH2 0x184F PUSH2 0x26FA JUMP JUMPDEST JUMPDEST EQ PUSH2 0x1890 JUMPI PUSH1 0x40 MLOAD PUSH32 0x8C379A000000000000000000000000000000000000000000000000000000000 DUP2 MSTORE PUSH1 0x4 ADD PUSH2 0x1887 SWAP1 PUSH2 0x288F JUMP JUMPDEST PUSH1 0x40 MLOAD DUP1 SWAP2 SUB SWAP1 REVERT JUMPDEST DUP1 PUSH1 0xC ADD SLOAD TIMESTAMP GT ISZERO PUSH2 0x18D7 JUMPI PUSH1 0x40 MLOAD PUSH32 0x8C379A000000000000000000000000000000000000000000000000000000000 DUP2 MSTORE PUSH1 0x4 ADD PUSH2 0x18CE SWAP1 PUSH2 0x315E JUMP JUMPDEST PUSH1 0x40 MLOAD DUP1 SWAP2 SUB SWAP1 REVERT JUMPDEST PUSH2 0x18E1 DUP2 CALLER PUSH2 0x1FA7 JUMP JUMPDEST PUSH2 0x1920 JUMPI PUSH1 0x40 MLOAD PUSH32 0x8C379A000000000000000000000000000000000000000000000000000000000 DUP2 MSTORE PUSH1 0x4 ADD PUSH2 0x1917 SWAP1 PUSH2 0x29C7 JUMP JUMPDEST PUSH1 0x40 MLOAD DUP1 SWAP2 SUB SWAP1 REVERT JUMPDEST PUSH0 PUSH0 SHL DUP2 PUSH1 0x7 ADD PUSH0 CALLER PUSH20 0xFFFFFFFFFFFFFFFFFFFFFFFFFFFFFFFFFFFFFFFF AND PUSH20 0xFFFFFFFFFFFFFFFFFFFFFFFFFFFFFFFFFFFFFFFF AND DUP2 MSTORE PUSH1 0x20 ADD SWAP1 DUP2 MSTORE PUSH1 0x20 ADD PUSH0 KECCAK256 SLOAD EQ PUSH2 0x19A3 JUMPI PUSH1 0x40 MLOAD PUSH32 0x8C379A000000000000000000000000000000000000000000000000000000000 DUP2 MSTORE PUSH1 0x4 ADD PUSH2 0x199A SWAP1 PUSH2 0x31C6 JUMP JUMPDEST PUSH1 0x40 MLOAD DUP1 SWAP2 SUB SWAP1 REVERT JUMPDEST DUP2 DUP2 PUSH1 0x7 ADD PUSH0 CALLER PUSH20 0xFFFFFFFFFFFFFFFFFFFFFFFFFFFFFFFFFFFFFFFF AND PUSH20 0xFFFFFFFFFFFFFFFFFFFFFFFFFFFFFFFFFFFFFFFF AND DUP2 MSTORE PUSH1 0x20 ADD SWAP1 DUP2 MSTORE PUSH1 0x20 ADD PUSH0 KECCAK256 DUP2 SWAP1 SSTORE POP CALLER PUSH20 0xFFFFFFFFFFFFFFFFFFFFFFFFFFFFFFFFFFFFFFFF AND DUP4 PUSH32 0x3834A2C8EA101E1468B529270D35FBFF0A12DE32A5A7E5729B8B4DAD6FB32C01 PUSH1 0x40 MLOAD PUSH1 0x40 MLOAD DUP1 SWAP2 SUB SWAP1 LOG3 POP POP POP JUMP JUMPDEST PUSH32 0x0 DUP2 JUMP JUMPDEST PUSH0 PUSH20 0xFFFFFFFFFFFFFFFFFFFFFFFFFFFFFFFFFFFFFFFF AND DUP4 PUSH20 0xFFFFFFFFFFFFFFFFFFFFFFFFFFFFFFFFFFFFFFFF AND EQ ISZERO DUP1 ISZERO PUSH2 0x1ABC JUMPI POP CALLER PUSH20 0xFFFFFFFFFFFFFFFFFFFFFFFFFFFFFFFFFFFFFFFF AND DUP4 PUSH20 0xFFFFFFFFFFFFFFFFFFFFFFFFFFFFFFFFFFFFFFFF AND EQ ISZERO JUMPDEST PUSH2 0x1AFB JUMPI PUSH1 0x40 MLOAD PUSH32 0x8C379A000000000000000000000000000000000000000000000000000000000 DUP2 MSTORE PUSH1 0x4 ADD PUSH2 0x1AF2 SWAP1 PUSH2 0x322E JUMP JUMPDEST PUSH1 0x40 MLOAD DUP1 SWAP2 SUB SWAP1 REVERT JUMPDEST PUSH1 0x3 SLOAD PUSH1 0x9 DUP1 SLOAD SWAP1 POP LT ISZERO PUSH2 0x1B45 JUMPI PUSH1 0x40 MLOAD PUSH32 0x8C379A000000000000000000000000000000000000000000000000000000000 DUP2 MSTORE PUSH1 0x4 ADD PUSH2 0x1B3C SWAP1 PUSH2 0x3296 JUMP JUMPDEST PUSH1 0x40 MLOAD DUP1 SWAP2 SUB SWAP1 REVERT JUMPDEST PUSH0 PUSH32 0x0 PUSH20 0xFFFFFFFFFFFFFFFFFFFFFFFFFFFFFFFFFFFFFFFF AND PUSH4 0x23B872DD CALLER ADDRESS PUSH1 0x1 SLOAD PUSH1 0x40 MLOAD DUP5 PUSH4 0xFFFFFFFF AND PUSH1 0xE0 SHL DUP2 MSTORE PUSH1 0x4 ADD PUSH2 0x1BA5 SWAP4 SWAP3 SWAP2 SWAP1 PUSH2 0x3051 JUMP JUMPDEST PUSH1 0x20 PUSH1 0x40 MLOAD DUP1 DUP4 SUB DUP2 PUSH0 DUP8 GAS CALL ISZERO DUP1 ISZERO PUSH2 0x1BC1 JUMPI RETURNDATASIZE PUSH0 PUSH0 RETURNDATACOPY RETURNDATASIZE PUSH0 REVERT JUMPDEST POP POP POP POP PUSH1 0x40 MLOAD RETURNDATASIZE PUSH1 0x1F NOT PUSH1 0x1F DUP3 ADD AND DUP3 ADD DUP1 PUSH1 0x40 MSTORE POP DUP2 ADD SWAP1 PUSH2 0x1BE5 SWAP2 SWAP1 PUSH2 0x2DBD JUMP JUMPDEST SWAP1 POP DUP1 PUSH2 0x1C27 JUMPI PUSH1 0x40 MLOAD PUSH32 0x8C379A000000000000000000000000000000000000000000000000000000000 DUP2 MSTORE PUSH1 0x4 ADD PUSH2 0x1C1E SWAP1 PUSH2 0x3324 JUMP JUMPDEST PUSH1 0x40 MLOAD DUP1 SWAP2 SUB SWAP1 REVERT JUMPDEST PUSH0 PUSH1 0x7 PUSH0 DUP2 SLOAD DUP1 SWAP3 SWAP2 SWAP1 PUSH2 0x1C3A SWAP1 PUSH2 0x2C00 JUMP JUMPDEST SWAP2 SWAP1 POP SSTORE SWAP1 POP PUSH0 PUSH1 0x8 PUSH0 DUP4 DUP2 MSTORE PUSH1 0x20 ADD SWAP1 DUP2 MSTORE PUSH1 0x20 ADD PUSH0 KECCAK256 SWAP1 POP DUP2 DUP2 PUSH0 ADD DUP2 SWAP1 SSTORE POP CALLER DUP2 PUSH1 0x1 ADD PUSH0 PUSH2 0x100 EXP DUP2 SLOAD DUP2 PUSH20 0xFFFFFFFFFFFFFFFFFFFFFFFFFFFFFFFFFFFFFFFF MUL NOT AND SWAP1 DUP4 PUSH20 0xFFFFFFFFFFFFFFFFFFFFFFFFFFFFFFFFFFFFFFFF AND MUL OR SWAP1 SSTORE POP DUP6 DUP2 PUSH1 0x2 ADD PUSH0 PUSH2 0x100 EXP DUP2 SLOAD DUP2 PUSH20 0xFFFFFFFFFFFFFFFFFFFFFFFFFFFFFFFFFFFFFFFF MUL NOT AND SWAP1 DUP4 PUSH20 0xFFFFFFFFFFFFFFFFFFFFFFFFFFFFFFFFFFFFFFFF AND MUL OR SWAP1 SSTORE POP DUP5 DUP5 DUP3 PUSH1 0x3 ADD SWAP2 DUP3 PUSH2 0x1CF3 SWAP3 SWAP2 SWAP1 PUSH2 0x356D JUMP JUMPDEST POP PUSH1 0x1 DUP2 PUSH1 0x4 ADD PUSH0 PUSH2 0x100 EXP DUP2 SLOAD DUP2 PUSH1 0xFF MUL NOT AND SWAP1 DUP4 PUSH1 0x4 DUP2 GT ISZERO PUSH2 0x1D1B JUMPI PUSH2 0x1D1A PUSH2 0x26FA JUMP JUMPDEST JUMPDEST MUL OR SWAP1 SSTORE POP PUSH1 0x1 SLOAD DUP2 PUSH1 0x5 ADD DUP2 SWAP1 SSTORE POP TIMESTAMP DUP2 PUSH1 0xB ADD DUP2 SWAP1 SSTORE POP PUSH1 0x4 SLOAD TIMESTAMP PUSH2 0x1D42 SWAP2 SWAP1 PUSH2 0x363A JUMP JUMPDEST DUP2 PUSH1 0xC ADD DUP2 SWAP1 SSTORE POP PUSH1 0x5 SLOAD DUP2 PUSH1 0xC ADD SLOAD PUSH2 0x1D5C SWAP2 SWAP1 PUSH2 0x363A JUMP JUMPDEST DUP2 PUSH1 0xD ADD DUP2 SWAP1 SSTORE POP PUSH2 0x1D6D DUP3 PUSH2 0x20F8 JUMP JUMPDEST DUP6 PUSH20 0xFFFFFFFFFFFFFFFFFFFFFFFFFFFFFFFFFFFFFFFF AND CALLER PUSH20 0xFFFFFFFFFFFFFFFFFFFFFFFFFFFFFFFFFFFFFFFF AND DUP4 PUSH32 0x5C5F5F5C62D8082BC010726F98DB2630D9DA2B426A6717BD67BFBD9E8E179638 PUSH1 0x1 SLOAD PUSH1 0x40 MLOAD PUSH2 0x1DCD SWAP2 SWAP1 PUSH2 0x231B JUMP JUMPDEST PUSH1 0x40 MLOAD DUP1 SWAP2 SUB SWAP1 LOG4 POP POP POP POP POP POP JUMP JUMPDEST PUSH1 0xB PUSH1 0x20 MSTORE DUP1 PUSH0 MSTORE PUSH1 0x40 PUSH0 KECCAK256 PUSH0 SWAP2 POP SWAP1 POP DUP1 PUSH0 ADD PUSH0 SWAP1 SLOAD SWAP1 PUSH2 0x100 EXP SWAP1 DIV PUSH1 0xFF AND SWAP1 DUP1 PUSH1 0x1 ADD SLOAD SWAP1 DUP1 PUSH1 0x2 ADD PUSH0 SWAP1 SLOAD SWAP1 PUSH2 0x100 EXP SWAP1 DIV PUSH1 0xFF AND SWAP1 POP DUP4 JUMP JUMPDEST PUSH1 0x2 SLOAD DUP2 JUMP JUMPDEST PUSH1 0x8 PUSH1 0x20 MSTORE DUP1 PUSH0 MSTORE PUSH1 0x40 PUSH0 KECCAK256 PUSH0 SWAP2 POP SWAP1 POP DUP1 PUSH0 ADD SLOAD SWAP1 DUP1 PUSH1 0x1 ADD PUSH0 SWAP1 SLOAD SWAP1 PUSH2 0x100 EXP SWAP1 DIV PUSH20 0xFFFFFFFFFFFFFFFFFFFFFFFFFFFFFFFFFFFFFFFF AND SWAP1 DUP1 PUSH1 0x2 ADD PUSH0 SWAP1 SLOAD SWAP1 PUSH2 0x100 EXP SWAP1 DIV PUSH20 0xFFFFFFFFFFFFFFFFFFFFFFFFFFFFFFFFFFFFFFFF AND SWAP1 DUP1 PUSH1 0x3 ADD DUP1 SLOAD PUSH2 0x1E90 SWAP1 PUSH2 0x33A6 JUMP JUMPDEST DUP1 PUSH1 0x1F ADD PUSH1 0x20 DUP1 SWAP2 DIV MUL PUSH1 0x20 ADD PUSH1 0x40 MLOAD SWAP1 DUP2 ADD PUSH1 0x40 MSTORE DUP1 SWAP3 SWAP2 SWAP1 DUP2 DUP2 MSTORE PUSH1 0x20 ADD DUP3 DUP1 SLOAD PUSH2 0x1EBC SWAP1 PUSH2 0x33A6 JUMP JUMPDEST DUP1 ISZERO PUSH2 0x1F07 JUMPI DUP1 PUSH1 0x1F LT PUSH2 0x1EDE JUMPI PUSH2 0x100 DUP1 DUP4 SLOAD DIV MUL DUP4 MSTORE SWAP2 PUSH1 0x20 ADD SWAP2 PUSH2 0x1F07 JUMP JUMPDEST DUP3 ADD SWAP2 SWAP1 PUSH0 MSTORE PUSH1 0x20 PUSH0 KECCAK256 SWAP1 JUMPDEST DUP2 SLOAD DUP2 MSTORE SWAP1 PUSH1 0x1 ADD SWAP1 PUSH1 0x20 ADD DUP1 DUP4 GT PUSH2 0x1EEA JUMPI DUP3 SWAP1 SUB PUSH1 0x1F AND DUP3 ADD SWAP2 JUMPDEST POP POP POP POP POP SWAP1 DUP1 PUSH1 0x4 ADD PUSH0 SWAP1 SLOAD SWAP1 PUSH2 0x100 EXP SWAP1 DIV PUSH1 0xFF AND SWAP1 DUP1 PUSH1 0x5 ADD SLOAD SWAP1 DUP1 PUSH1 0x9 ADD SLOAD SWAP1 DUP1 PUSH1 0xA ADD SLOAD SWAP1 DUP1 PUSH1 0xB ADD SLOAD SWAP1 DUP1 PUSH1 0xC ADD SLOAD SWAP1 DUP1 PUSH1 0xD ADD SLOAD SWAP1 DUP1 PUSH1 0xE ADD PUSH0 SWAP1 SLOAD SWAP1 PUSH2 0x100 EXP SWAP1 DIV PUSH20 0xFFFFFFFFFFFFFFFFFFFFFFFFFFFFFFFFFFFFFFFF AND SWAP1 POP DUP13 JUMP JUMPDEST PUSH1 0x9 DUP2 DUP2 SLOAD DUP2 LT PUSH2 0x1F7B JUMPI PUSH0 DUP1 REVERT JUMPDEST SWAP1 PUSH0 MSTORE PUSH1 0x20 PUSH0 KECCAK256 ADD PUSH0 SWAP2 POP SLOAD SWAP1 PUSH2 0x100 EXP SWAP1 DIV PUSH20 0xFFFFFFFFFFFFFFFFFFFFFFFFFFFFFFFFFFFFFFFF AND DUP2 JUMP JUMPDEST PUSH0 PUSH0 PUSH0 SWAP1 POP JUMPDEST DUP4 PUSH1 0x6 ADD DUP1 SLOAD SWAP1 POP DUP2 LT ISZERO PUSH2 0x2043 JUMPI DUP3 PUSH20 0xFFFFFFFFFFFFFFFFFFFFFFFFFFFFFFFFFFFFFFFF AND DUP5 PUSH1 0x6 ADD DUP3 DUP2 SLOAD DUP2 LT PUSH2 0x1FE9 JUMPI PUSH2 0x1FE8 PUSH2 0x2D3F JUMP JUMPDEST JUMPDEST SWAP1 PUSH0 MSTORE PUSH1 0x20 PUSH0 KECCAK256 ADD PUSH0 SWAP1 SLOAD SWAP1 PUSH2 0x100 EXP SWAP1 DIV PUSH20 0xFFFFFFFFFFFFFFFFFFFFFFFFFFFFFFFFFFFFFFFF AND PUSH20 0xFFFFFFFFFFFFFFFFFFFFFFFFFFFFFFFFFFFFFFFF AND SUB PUSH2 0x2036 JUMPI PUSH1 0x1 SWAP2 POP POP PUSH2 0x2048 JUMP JUMPDEST DUP1 DUP1 PUSH1 0x1 ADD SWAP2 POP POP PUSH2 0x1FAD JUMP JUMPDEST POP PUSH0 SWAP1 POP JUMPDEST SWAP3 SWAP2 POP POP JUMP JUMPDEST PUSH1 0x2 PUSH0 SLOAD SUB PUSH2 0x2092 JUMPI PUSH1 0x40 MLOAD PUSH32 0x8C379A000000000000000000000000000000000000000000000000000000000 DUP2 MSTORE PUSH1 0x4 ADD PUSH2 0x2089 SWAP1 PUSH2 0x36B7 JUMP JUMPDEST PUSH1 0x40 MLOAD DUP1 SWAP2 SUB SWAP1 REVERT JUMPDEST PUSH1 0x2 PUSH0 DUP2 SWAP1 SSTORE POP JUMP JUMPDEST PUSH0 DUP2 DUP4 PUSH2 0x20A8 SWAP2 SWAP1 PUSH2 0x36D5 JUMP JUMPDEST SWAP1 POP SWAP3 SWAP2 POP POP JUMP JUMPDEST PUSH0 DUP2 DUP4 PUSH2 0x20BD SWAP2 SWAP1 PUSH2 0x3743 JUMP JUMPDEST SWAP1 POP SWAP3 SWAP2 POP POP JUMP JUMPDEST PUSH0 DUP2 DUP4 PUSH2 0x20D2 SWAP2 SWAP1 PUSH2 0x2F21 JUMP JUMPDEST SWAP1 POP SWAP3 SWAP2 POP POP JUMP JUMPDEST PUSH0 DUP2 DUP4 PUSH2 0x20E7 SWAP2 SWAP1 PUSH2 0x363A JUMP JUMPDEST SWAP1 POP SWAP3 SWAP2 POP POP JUMP JUMPDEST PUSH1 0x1 PUSH0 DUP2 SWAP1 SSTORE POP JUMP JUMPDEST PUSH0 PUSH1 0x8 PUSH0 DUP4 DUP2 MSTORE PUSH1 0x20 ADD SWAP1 DUP2 MSTORE PUSH1 0x20 ADD PUSH0 KECCAK256 SWAP1 POP PUSH0 PUSH1 0x9 DUP1 SLOAD DUP1 PUSH1 0x20 MUL PUSH1 0x20 ADD PUSH1 0x40 MLOAD SWAP1 DUP2 ADD PUSH1 0x40 MSTORE DUP1 SWAP3 SWAP2 SWAP1 DUP2 DUP2 MSTORE PUSH1 0x20 ADD DUP3 DUP1 SLOAD DUP1 ISZERO PUSH2 0x218C JUMPI PUSH1 0x20 MUL DUP3 ADD SWAP2 SWAP1 PUSH0 MSTORE PUSH1 0x20 PUSH0 KECCAK256 SWAP1 JUMPDEST DUP2 PUSH0 SWAP1 SLOAD SWAP1 PUSH2 0x100 EXP SWAP1 DIV PUSH20 0xFFFFFFFFFFFFFFFFFFFFFFFFFFFFFFFFFFFFFFFF AND PUSH20 0xFFFFFFFFFFFFFFFFFFFFFFFFFFFFFFFFFFFFFFFF AND DUP2 MSTORE PUSH1 0x20 ADD SWAP1 PUSH1 0x1 ADD SWAP1 DUP1 DUP4 GT PUSH2 0x2143 JUMPI JUMPDEST POP POP POP POP POP SWAP1 POP PUSH0 DUP2 MLOAD SWAP1 POP PUSH0 PUSH0 SWAP1 POP JUMPDEST PUSH1 0x3 SLOAD DUP2 LT ISZERO PUSH2 0x22FC JUMPI PUSH0 TIMESTAMP PREVRANDAO DUP8 DUP5 PUSH1 0x40 MLOAD PUSH1 0x20 ADD PUSH2 0x21BF SWAP5 SWAP4 SWAP3 SWAP2 SWAP1 PUSH2 0x3793 JUMP JUMPDEST PUSH1 0x40 MLOAD PUSH1 0x20 DUP2 DUP4 SUB SUB DUP2 MSTORE SWAP1 PUSH1 0x40 MSTORE DUP1 MLOAD SWAP1 PUSH1 0x20 ADD KECCAK256 PUSH0 SHR SWAP1 POP PUSH0 DUP4 DUP3 PUSH2 0x21E6 SWAP2 SWAP1 PUSH2 0x37E0 JUMP JUMPDEST SWAP1 POP PUSH0 DUP6 DUP3 DUP2 MLOAD DUP2 LT PUSH2 0x21FC JUMPI PUSH2 0x21FB PUSH2 0x2D3F JUMP JUMPDEST JUMPDEST PUSH1 0x20 MUL PUSH1 0x20 ADD ADD MLOAD SWAP1 POP PUSH2 0x2210 DUP8 DUP3 PUSH2 0x1FA7 JUMP JUMPDEST ISZERO PUSH2 0x222B JUMPI DUP4 DUP1 PUSH2 0x2220 SWAP1 PUSH2 0x3810 JUMP JUMPDEST SWAP5 POP POP POP POP POP PUSH2 0x22E9 JUMP JUMPDEST DUP7 PUSH1 0x6 ADD DUP2 SWAP1 DUP1 PUSH1 0x1 DUP2 SLOAD ADD DUP1 DUP3 SSTORE DUP1 SWAP2 POP POP PUSH1 0x1 SWAP1 SUB SWAP1 PUSH0 MSTORE PUSH1 0x20 PUSH0 KECCAK256 ADD PUSH0 SWAP1 SWAP2 SWAP1 SWAP2 SWAP1 SWAP2 PUSH2 0x100 EXP DUP2 SLOAD DUP2 PUSH20 0xFFFFFFFFFFFFFFFFFFFFFFFFFFFFFFFFFFFFFFFF MUL NOT AND SWAP1 DUP4 PUSH20 0xFFFFFFFFFFFFFFFFFFFFFFFFFFFFFFFFFFFFFFFF AND MUL OR SWAP1 SSTORE POP PUSH1 0x1 PUSH1 0xB PUSH0 DUP4 PUSH20 0xFFFFFFFFFFFFFFFFFFFFFFFFFFFFFFFFFFFFFFFF AND PUSH20 0xFFFFFFFFFFFFFFFFFFFFFFFFFFFFFFFFFFFFFFFF AND DUP2 MSTORE PUSH1 0x20 ADD SWAP1 DUP2 MSTORE PUSH1 0x20 ADD PUSH0 KECCAK256 PUSH1 0x2 ADD PUSH0 PUSH2 0x100 EXP DUP2 SLOAD DUP2 PUSH1 0xFF MUL NOT AND SWAP1 DUP4 ISZERO ISZERO MUL OR SWAP1 SSTORE POP POP POP POP JUMPDEST DUP1 DUP1 PUSH2 0x22F4 SWAP1 PUSH2 0x2C00 JUMP JUMPDEST SWAP2 POP POP PUSH2 0x219D JUMP JUMPDEST POP POP POP POP POP JUMP JUMPDEST PUSH0 DUP2 SWAP1 POP SWAP2 SWAP1 POP JUMP JUMPDEST PUSH2 0x2315 DUP2 PUSH2 0x2303 JUMP JUMPDEST DUP3 MSTORE POP POP JUMP JUMPDEST PUSH0 PUSH1 0x20 DUP3 ADD SWAP1 POP PUSH2 0x232E PUSH0 DUP4 ADD DUP5 PUSH2 0x230C JUMP JUMPDEST SWAP3 SWAP2 POP POP JUMP JUMPDEST PUSH0 PUSH0 REVERT JUMPDEST PUSH0 PUSH0 REVERT JUMPDEST PUSH2 0x2345 DUP2 PUSH2 0x2303 JUMP JUMPDEST DUP2 EQ PUSH2 0x234F JUMPI PUSH0 PUSH0 REVERT JUMPDEST POP JUMP JUMPDEST PUSH0 DUP2 CALLDATALOAD SWAP1 POP PUSH2 0x2360 DUP2 PUSH2 0x233C JUMP JUMPDEST SWAP3 SWAP2 POP POP JUMP JUMPDEST PUSH1 0x3 DUP2 LT PUSH2 0x2372 JUMPI PUSH0 PUSH0 REVERT JUMPDEST POP JUMP JUMPDEST PUSH0 DUP2 CALLDATALOAD SWAP1 POP PUSH2 0x2383 DUP2 PUSH2 0x2366 JUMP JUMPDEST SWAP3 SWAP2 POP POP JUMP JUMPDEST PUSH0 DUP2 SWAP1 POP SWAP2 SWAP1 POP JUMP JUMPDEST PUSH2 0x239B DUP2 PUSH2 0x2389 JUMP JUMPDEST DUP2 EQ PUSH2 0x23A5 JUMPI PUSH0 PUSH0 REVERT JUMPDEST POP JUMP JUMPDEST PUSH0 DUP2 CALLDATALOAD SWAP1 POP PUSH2 0x23B6 DUP2 PUSH2 0x2392 JUMP JUMPDEST SWAP3 SWAP2 POP POP JUMP JUMPDEST PUSH0 PUSH0 PUSH0 PUSH1 0x60 DUP5 DUP7 SUB SLT ISZERO PUSH2 0x23D3 JUMPI PUSH2 0x23D2 PUSH2 0x2334 JUMP JUMPDEST JUMPDEST PUSH0 PUSH2 0x23E0 DUP7 DUP3 DUP8 ADD PUSH2 0x2352 JUMP JUMPDEST SWAP4 POP POP PUSH1 0x20 PUSH2 0x23F1 DUP7 DUP3 DUP8 ADD PUSH2 0x2375 JUMP JUMPDEST SWAP3 POP POP PUSH1 0x40 PUSH2 0x2402 DUP7 DUP3 DUP8 ADD PUSH2 0x23A8 JUMP JUMPDEST SWAP2 POP POP SWAP3 POP SWAP3 POP SWAP3 JUMP JUMPDEST PUSH0 PUSH1 0x20 DUP3 DUP5 SUB SLT ISZERO PUSH2 0x2421 JUMPI PUSH2 0x2420 PUSH2 0x2334 JUMP JUMPDEST JUMPDEST PUSH0 PUSH2 0x242E DUP5 DUP3 DUP6 ADD PUSH2 0x2352 JUMP JUMPDEST SWAP2 POP POP SWAP3 SWAP2 POP POP JUMP JUMPDEST PUSH0 PUSH0 PUSH1 0x40 DUP4 DUP6 SUB SLT ISZERO PUSH2 0x244D JUMPI PUSH2 0x244C PUSH2 0x2334 JUMP JUMPDEST JUMPDEST PUSH0 PUSH2 0x245A DUP6 DUP3 DUP7 ADD PUSH2 0x2352 JUMP JUMPDEST SWAP3 POP POP PUSH1 0x20 PUSH2 0x246B DUP6 DUP3 DUP7 ADD PUSH2 0x23A8 JUMP JUMPDEST SWAP2 POP POP SWAP3 POP SWAP3 SWAP1 POP JUMP JUMPDEST PUSH0 PUSH20 0xFFFFFFFFFFFFFFFFFFFFFFFFFFFFFFFFFFFFFFFF DUP3 AND SWAP1 POP SWAP2 SWAP1 POP JUMP JUMPDEST PUSH0 DUP2 SWAP1 POP SWAP2 SWAP1 POP JUMP JUMPDEST PUSH0 PUSH2 0x24B7 PUSH2 0x24B2 PUSH2 0x24AD DUP5 PUSH2 0x2475 JUMP JUMPDEST PUSH2 0x2494 JUMP JUMPDEST PUSH2 0x2475 JUMP JUMPDEST SWAP1 POP SWAP2 SWAP1 POP JUMP JUMPDEST PUSH0 PUSH2 0x24C8 DUP3 PUSH2 0x249D JUMP JUMPDEST SWAP1 POP SWAP2 SWAP1 POP JUMP JUMPDEST PUSH0 PUSH2 0x24D9 DUP3 PUSH2 0x24BE JUMP JUMPDEST SWAP1 POP SWAP2 SWAP1 POP JUMP JUMPDEST PUSH2 0x24E9 DUP2 PUSH2 0x24CF JUMP JUMPDEST DUP3 MSTORE POP POP JUMP JUMPDEST PUSH0 PUSH1 0x20 DUP3 ADD SWAP1 POP PUSH2 0x2502 PUSH0 DUP4 ADD DUP5 PUSH2 0x24E0 JUMP JUMPDEST SWAP3 SWAP2 POP POP JUMP JUMPDEST PUSH0 PUSH2 0x2512 DUP3 PUSH2 0x2475 JUMP JUMPDEST SWAP1 POP SWAP2 SWAP1 POP JUMP JUMPDEST PUSH2 0x2522 DUP2 PUSH2 0x2508 JUMP JUMPDEST DUP2 EQ PUSH2 0x252C JUMPI PUSH0 PUSH0 REVERT JUMPDEST POP JUMP JUMPDEST PUSH0 DUP2 CALLDATALOAD SWAP1 POP PUSH2 0x253D DUP2 PUSH2 0x2519 JUMP JUMPDEST SWAP3 SWAP2 POP POP JUMP JUMPDEST PUSH0 PUSH0 REVERT JUMPDEST PUSH0 PUSH0 REVERT JUMPDEST PUSH0 PUSH0 REVERT JUMPDEST PUSH0 PUSH0 DUP4 PUSH1 0x1F DUP5 ADD SLT PUSH2 0x2564 JUMPI PUSH2 0x2563 PUSH2 0x2543 JUMP JUMPDEST JUMPDEST DUP3 CALLDATALOAD SWAP1 POP PUSH8 0xFFFFFFFFFFFFFFFF DUP2 GT ISZERO PUSH2 0x2581 JUMPI PUSH2 0x2580 PUSH2 0x2547 JUMP JUMPDEST JUMPDEST PUSH1 0x20 DUP4 ADD SWAP2 POP DUP4 PUSH1 0x1 DUP3 MUL DUP4 ADD GT ISZERO PUSH2 0x259D JUMPI PUSH2 0x259C PUSH2 0x254B JUMP JUMPDEST JUMPDEST SWAP3 POP SWAP3 SWAP1 POP JUMP JUMPDEST PUSH0 PUSH0 PUSH0 PUSH1 0x40 DUP5 DUP7 SUB SLT ISZERO PUSH2 0x25BB JUMPI PUSH2 0x25BA PUSH2 0x2334 JUMP JUMPDEST JUMPDEST PUSH0 PUSH2 0x25C8 DUP7 DUP3 DUP8 ADD PUSH2 0x252F JUMP JUMPDEST SWAP4 POP POP PUSH1 0x20 DUP5 ADD CALLDATALOAD PUSH8 0xFFFFFFFFFFFFFFFF DUP2 GT ISZERO PUSH2 0x25E9 JUMPI PUSH2 0x25E8 PUSH2 0x2338 JUMP JUMPDEST JUMPDEST PUSH2 0x25F5 DUP7 DUP3 DUP8 ADD PUSH2 0x254F JUMP JUMPDEST SWAP3 POP SWAP3 POP POP SWAP3 POP SWAP3 POP SWAP3 JUMP JUMPDEST PUSH0 PUSH1 0x20 DUP3 DUP5 SUB SLT ISZERO PUSH2 0x2616 JUMPI PUSH2 0x2615 PUSH2 0x2334 JUMP JUMPDEST JUMPDEST PUSH0 PUSH2 0x2623 DUP5 DUP3 DUP6 ADD PUSH2 0x252F JUMP JUMPDEST SWAP2 POP POP SWAP3 SWAP2 POP POP JUMP JUMPDEST PUSH0 DUP2 ISZERO ISZERO SWAP1 POP SWAP2 SWAP1 POP JUMP JUMPDEST PUSH2 0x2640 DUP2 PUSH2 0x262C JUMP JUMPDEST DUP3 MSTORE POP POP JUMP JUMPDEST PUSH0 PUSH1 0x60 DUP3 ADD SWAP1 POP PUSH2 0x2659 PUSH0 DUP4 ADD DUP7 PUSH2 0x2637 JUMP JUMPDEST PUSH2 0x2666 PUSH1 0x20 DUP4 ADD DUP6 PUSH2 0x230C JUMP JUMPDEST PUSH2 0x2673 PUSH1 0x40 DUP4 ADD DUP5 PUSH2 0x2637 JUMP JUMPDEST SWAP5 SWAP4 POP POP POP POP JUMP JUMPDEST PUSH2 0x2684 DUP2 PUSH2 0x2508 JUMP JUMPDEST DUP3 MSTORE POP POP JUMP JUMPDEST PUSH0 DUP2 MLOAD SWAP1 POP SWAP2 SWAP1 POP JUMP JUMPDEST PUSH0 DUP3 DUP3 MSTORE PUSH1 0x20 DUP3 ADD SWAP1 POP SWAP3 SWAP2 POP POP JUMP JUMPDEST DUP3 DUP2 DUP4 MCOPY PUSH0 DUP4 DUP4 ADD MSTORE POP POP POP JUMP JUMPDEST PUSH0 PUSH1 0x1F NOT PUSH1 0x1F DUP4 ADD AND SWAP1 POP SWAP2 SWAP1 POP JUMP JUMPDEST PUSH0 PUSH2 0x26CC DUP3 PUSH2 0x268A JUMP JUMPDEST PUSH2 0x26D6 DUP2 DUP6 PUSH2 0x2694 JUMP JUMPDEST SWAP4 POP PUSH2 0x26E6 DUP2 DUP6 PUSH1 0x20 DUP7 ADD PUSH2 0x26A4 JUMP JUMPDEST PUSH2 0x26EF DUP2 PUSH2 0x26B2 JUMP JUMPDEST DUP5 ADD SWAP2 POP POP SWAP3 SWAP2 POP POP JUMP JUMPDEST PUSH32 0x4E487B7100000000000000000000000000000000000000000000000000000000 PUSH0 MSTORE PUSH1 0x21 PUSH1 0x4 MSTORE PUSH1 0x24 PUSH0 REVERT JUMPDEST PUSH1 0x5 DUP2 LT PUSH2 0x2738 JUMPI PUSH2 0x2737 PUSH2 0x26FA JUMP JUMPDEST JUMPDEST POP JUMP JUMPDEST PUSH0 DUP2 SWAP1 POP PUSH2 0x2748 DUP3 PUSH2 0x2727 JUMP JUMPDEST SWAP2 SWAP1 POP JUMP JUMPDEST PUSH0 PUSH2 0x2757 DUP3 PUSH2 0x273B JUMP JUMPDEST SWAP1 POP SWAP2 SWAP1 POP JUMP JUMPDEST PUSH2 0x2767 DUP2 PUSH2 0x274D JUMP JUMPDEST DUP3 MSTORE POP POP JUMP JUMPDEST PUSH0 PUSH2 0x180 DUP3 ADD SWAP1 POP PUSH2 0x2781 PUSH0 DUP4 ADD DUP16 PUSH2 0x230C JUMP JUMPDEST PUSH2 0x278E PUSH1 0x20 DUP4 ADD DUP15 PUSH2 0x267B JUMP JUMPDEST PUSH2 0x279B PUSH1 0x40 DUP4 ADD DUP14 PUSH2 0x267B JUMP JUMPDEST DUP2 DUP2 SUB PUSH1 0x60 DUP4 ADD MSTORE PUSH2 0x27AD DUP2 DUP13 PUSH2 0x26C2 JUMP JUMPDEST SWAP1 POP PUSH2 0x27BC PUSH1 0x80 DUP4 ADD DUP12 PUSH2 0x275E JUMP JUMPDEST PUSH2 0x27C9 PUSH1 0xA0 DUP4 ADD DUP11 PUSH2 0x230C JUMP JUMPDEST PUSH2 0x27D6 PUSH1 0xC0 DUP4 ADD DUP10 PUSH2 0x230C JUMP JUMPDEST PUSH2 0x27E3 PUSH1 0xE0 DUP4 ADD DUP9 PUSH2 0x230C JUMP JUMPDEST PUSH2 0x27F1 PUSH2 0x100 DUP4 ADD DUP8 PUSH2 0x230C JUMP JUMPDEST PUSH2 0x27FF PUSH2 0x120 DUP4 ADD DUP7 PUSH2 0x230C JUMP JUMPDEST PUSH2 0x280D PUSH2 0x140 DUP4 ADD DUP6 PUSH2 0x230C JUMP JUMPDEST PUSH2 0x281B PUSH2 0x160 DUP4 ADD DUP5 PUSH2 0x267B JUMP JUMPDEST SWAP14 SWAP13 POP POP POP POP POP POP POP POP POP POP POP POP POP JUMP JUMPDEST PUSH0 PUSH1 0x20 DUP3 ADD SWAP1 POP PUSH2 0x283F PUSH0 DUP4 ADD DUP5 PUSH2 0x267B JUMP JUMPDEST SWAP3 SWAP2 POP POP JUMP JUMPDEST PUSH32 0x4E6F7420696E20766F74696E6720706861736500000000000000000000000000 PUSH0 DUP3 ADD MSTORE POP JUMP JUMPDEST PUSH0 PUSH2 0x2879 PUSH1 0x13 DUP4 PUSH2 0x2694 JUMP JUMPDEST SWAP2 POP PUSH2 0x2884 DUP3 PUSH2 0x2845 JUMP JUMPDEST PUSH1 0x20 DUP3 ADD SWAP1 POP SWAP2 SWAP1 POP JUMP JUMPDEST PUSH0 PUSH1 0x20 DUP3 ADD SWAP1 POP DUP2 DUP2 SUB PUSH0 DUP4 ADD MSTORE PUSH2 0x28A6 DUP2 PUSH2 0x286D JUMP JUMPDEST SWAP1 POP SWAP2 SWAP1 POP JUMP JUMPDEST PUSH32 0x436F6D6D6974207068617365206E6F7420656E64656420796574000000000000 PUSH0 DUP3 ADD MSTORE POP JUMP JUMPDEST PUSH0 PUSH2 0x28E1 PUSH1 0x1A DUP4 PUSH2 0x2694 JUMP JUMPDEST SWAP2 POP PUSH2 0x28EC DUP3 PUSH2 0x28AD JUMP JUMPDEST PUSH1 0x20 DUP3 ADD SWAP1 POP SWAP2 SWAP1 POP JUMP JUMPDEST PUSH0 PUSH1 0x20 DUP3 ADD SWAP1 POP DUP2 DUP2 SUB PUSH0 DUP4 ADD MSTORE PUSH2 0x290E DUP2 PUSH2 0x28D5 JUMP JUMPDEST SWAP1 POP SWAP2 SWAP1 POP JUMP JUMPDEST PUSH32 0x52657665616C20706861736520656E6465640000000000000000000000000000 PUSH0 DUP3 ADD MSTORE POP JUMP JUMPDEST PUSH0 PUSH2 0x2949 PUSH1 0x12 DUP4 PUSH2 0x2694 JUMP JUMPDEST SWAP2 POP PUSH2 0x2954 DUP3 PUSH2 0x2915 JUMP JUMPDEST PUSH1 0x20 DUP3 ADD SWAP1 POP SWAP2 SWAP1 POP JUMP JUMPDEST PUSH0 PUSH1 0x20 DUP3 ADD SWAP1 POP DUP2 DUP2 SUB PUSH0 DUP4 ADD MSTORE PUSH2 0x2976 DUP2 PUSH2 0x293D JUMP JUMPDEST SWAP1 POP SWAP2 SWAP1 POP JUMP JUMPDEST PUSH32 0x4E6F742061206A75726F7220666F722074686973206361736500000000000000 PUSH0 DUP3 ADD MSTORE POP JUMP JUMPDEST PUSH0 PUSH2 0x29B1 PUSH1 0x19 DUP4 PUSH2 0x2694 JUMP JUMPDEST SWAP2 POP PUSH2 0x29BC DUP3 PUSH2 0x297D JUMP JUMPDEST PUSH1 0x20 DUP3 ADD SWAP1 POP SWAP2 SWAP1 POP JUMP JUMPDEST PUSH0 PUSH1 0x20 DUP3 ADD SWAP1 POP DUP2 DUP2 SUB PUSH0 DUP4 ADD MSTORE PUSH2 0x29DE DUP2 PUSH2 0x29A5 JUMP JUMPDEST SWAP1 POP SWAP2 SWAP1 POP JUMP JUMPDEST PUSH32 0x446964206E6F7420636F6D6D6974000000000000000000000000000000000000 PUSH0 DUP3 ADD MSTORE POP JUMP JUMPDEST PUSH0 PUSH2 0x2A19 PUSH1 0xE DUP4 PUSH2 0x2694 JUMP JUMPDEST SWAP2 POP PUSH2 0x2A24 DUP3 PUSH2 0x29E5 JUMP JUMPDEST PUSH1 0x20 DUP3 ADD SWAP1 POP SWAP2 SWAP1 POP JUMP JUMPDEST PUSH0 PUSH1 0x20 DUP3 ADD SWAP1 POP DUP2 DUP2 SUB PUSH0 DUP4 ADD MSTORE PUSH2 0x2A46 DUP2 PUSH2 0x2A0D JUMP JUMPDEST SWAP1 POP SWAP2 SWAP1 POP JUMP JUMPDEST PUSH32 0x416C72656164792072657665616C656400000000000000000000000000000000 PUSH0 DUP3 ADD MSTORE POP JUMP JUMPDEST PUSH0 PUSH2 0x2A81 PUSH1 0x10 DUP4 PUSH2 0x2694 JUMP JUMPDEST SWAP2 POP PUSH2 0x2A8C DUP3 PUSH2 0x2A4D JUMP JUMPDEST PUSH1 0x20 DUP3 ADD SWAP1 POP SWAP2 SWAP1 POP JUMP JUMPDEST PUSH0 PUSH1 0x20 DUP3 ADD SWAP1 POP DUP2 DUP2 SUB PUSH0 DUP4 ADD MSTORE PUSH2 0x2AAE DUP2 PUSH2 0x2A75 JUMP JUMPDEST SWAP1 POP SWAP2 SWAP1 POP JUMP JUMPDEST PUSH1 0x3 DUP2 LT PUSH2 0x2AC6 JUMPI PUSH2 0x2AC5 PUSH2 0x26FA JUMP JUMPDEST JUMPDEST POP JUMP JUMPDEST PUSH0 DUP2 SWAP1 POP PUSH2 0x2AD6 DUP3 PUSH2 0x2AB5 JUMP JUMPDEST SWAP2 SWAP1 POP JUMP JUMPDEST PUSH0 PUSH2 0x2AE5 DUP3 PUSH2 0x2AC9 JUMP JUMPDEST SWAP1 POP SWAP2 SWAP1 POP JUMP JUMPDEST PUSH0 DUP2 PUSH1 0xF8 SHL SWAP1 POP SWAP2 SWAP1 POP JUMP JUMPDEST PUSH0 PUSH2 0x2B02 DUP3 PUSH2 0x2AEC JUMP JUMPDEST SWAP1 POP SWAP2 SWAP1 POP JUMP JUMPDEST PUSH2 0x2B1A PUSH2 0x2B15 DUP3 PUSH2 0x2ADB JUMP JUMPDEST PUSH2 0x2AF8 JUMP JUMPDEST DUP3 MSTORE POP POP JUMP JUMPDEST PUSH0 DUP2 SWAP1 POP SWAP2 SWAP1 POP JUMP JUMPDEST PUSH2 0x2B3A PUSH2 0x2B35 DUP3 PUSH2 0x2389 JUMP JUMPDEST PUSH2 0x2B20 JUMP JUMPDEST DUP3 MSTORE POP POP JUMP JUMPDEST PUSH0 PUSH2 0x2B4B DUP3 DUP6 PUSH2 0x2B09 JUMP JUMPDEST PUSH1 0x1 DUP3 ADD SWAP2 POP PUSH2 0x2B5B DUP3 DUP5 PUSH2 0x2B29 JUMP JUMPDEST PUSH1 0x20 DUP3 ADD SWAP2 POP DUP2 SWAP1 POP SWAP4 SWAP3 POP POP POP JUMP JUMPDEST PUSH32 0x566F746520646F6573206E6F74206D6174636820636F6D6D6974000000000000 PUSH0 DUP3 ADD MSTORE POP JUMP JUMPDEST PUSH0 PUSH2 0x2B9F PUSH1 0x1A DUP4 PUSH2 0x2694 JUMP JUMPDEST SWAP2 POP PUSH2 0x2BAA DUP3 PUSH2 0x2B6B JUMP JUMPDEST PUSH1 0x20 DUP3 ADD SWAP1 POP SWAP2 SWAP1 POP JUMP JUMPDEST PUSH0 PUSH1 0x20 DUP3 ADD SWAP1 POP DUP2 DUP2 SUB PUSH0 DUP4 ADD MSTORE PUSH2 0x2BCC DUP2 PUSH2 0x2B93 JUMP JUMPDEST SWAP1 POP SWAP2 SWAP1 POP JUMP JUMPDEST PUSH32 0x4E487B7100000000000000000000000000000000000000000000000000000000 PUSH0 MSTORE PUSH1 0x11 PUSH1 0x4 MSTORE PUSH1 0x24 PUSH0 REVERT JUMPDEST PUSH0 PUSH2 0x2C0A DUP3 PUSH2 0x2303 JUMP JUMPDEST SWAP2 POP PUSH32 0xFFFFFFFFFFFFFFFFFFFFFFFFFFFFFFFFFFFFFFFFFFFFFFFFFFFFFFFFFFFFFFFF DUP3 SUB PUSH2 0x2C3C JUMPI PUSH2 0x2C3B PUSH2 0x2BD3 JUMP JUMPDEST JUMPDEST PUSH1 0x1 DUP3 ADD SWAP1 POP SWAP2 SWAP1 POP JUMP JUMPDEST PUSH2 0x2C50 DUP2 PUSH2 0x2ADB JUMP JUMPDEST DUP3 MSTORE POP POP JUMP JUMPDEST PUSH0 PUSH1 0x20 DUP3 ADD SWAP1 POP PUSH2 0x2C69 PUSH0 DUP4 ADD DUP5 PUSH2 0x2C47 JUMP JUMPDEST SWAP3 SWAP2 POP POP JUMP JUMPDEST PUSH32 0x43617365206E6F7420726561647920666F722076657264696374000000000000 PUSH0 DUP3 ADD MSTORE POP JUMP JUMPDEST PUSH0 PUSH2 0x2CA3 PUSH1 0x1A DUP4 PUSH2 0x2694 JUMP JUMPDEST SWAP2 POP PUSH2 0x2CAE DUP3 PUSH2 0x2C6F JUMP JUMPDEST PUSH1 0x20 DUP3 ADD SWAP1 POP SWAP2 SWAP1 POP JUMP JUMPDEST PUSH0 PUSH1 0x20 DUP3 ADD SWAP1 POP DUP2 DUP2 SUB PUSH0 DUP4 ADD MSTORE PUSH2 0x2CD0 DUP2 PUSH2 0x2C97 JUMP JUMPDEST SWAP1 POP SWAP2 SWAP1 POP JUMP JUMPDEST PUSH32 0x52657665616C207068617365206E6F7420656E64656420796574000000000000 PUSH0 DUP3 ADD MSTORE POP JUMP JUMPDEST PUSH0 PUSH2 0x2D0B PUSH1 0x1A DUP4 PUSH2 0x2694 JUMP JUMPDEST SWAP2 POP PUSH2 0x2D16 DUP3 PUSH2 0x2CD7 JUMP JUMPDEST PUSH1 0x20 DUP3 ADD SWAP1 POP SWAP2 SWAP1 POP JUMP JUMPDEST PUSH0 PUSH1 0x20 DUP3 ADD SWAP1 POP DUP2 DUP2 SUB PUSH0 DUP4 ADD MSTORE PUSH2 0x2D38 DUP2 PUSH2 0x2CFF JUMP JUMPDEST SWAP1 POP SWAP2 SWAP1 POP JUMP JUMPDEST PUSH32 0x4E487B7100000000000000000000000000000000000000000000000000000000 PUSH0 MSTORE PUSH1 0x32 PUSH1 0x4 MSTORE PUSH1 0x24 PUSH0 REVERT JUMPDEST PUSH0 PUSH1 0x40 DUP3 ADD SWAP1 POP PUSH2 0x2D7F PUSH0 DUP4 ADD DUP6 PUSH2 0x267B JUMP JUMPDEST PUSH2 0x2D8C PUSH1 0x20 DUP4 ADD DUP5 PUSH2 0x230C JUMP JUMPDEST SWAP4 SWAP3 POP POP POP JUMP JUMPDEST PUSH2 0x2D9C DUP2 PUSH2 0x262C JUMP JUMPDEST DUP2 EQ PUSH2 0x2DA6 JUMPI PUSH0 PUSH0 REVERT JUMPDEST POP JUMP JUMPDEST PUSH0 DUP2 MLOAD SWAP1 POP PUSH2 0x2DB7 DUP2 PUSH2 0x2D93 JUMP JUMPDEST SWAP3 SWAP2 POP POP JUMP JUMPDEST PUSH0 PUSH1 0x20 DUP3 DUP5 SUB SLT ISZERO PUSH2 0x2DD2 JUMPI PUSH2 0x2DD1 PUSH2 0x2334 JUMP JUMPDEST JUMPDEST PUSH0 PUSH2 0x2DDF DUP5 DUP3 DUP6 ADD PUSH2 0x2DA9 JUMP JUMPDEST SWAP2 POP POP SWAP3 SWAP2 POP POP JUMP JUMPDEST PUSH0 PUSH1 0x80 DUP3 ADD SWAP1 POP PUSH2 0x2DFB PUSH0 DUP4 ADD DUP8 PUSH2 0x267B JUMP JUMPDEST PUSH2 0x2E08 PUSH1 0x20 DUP4 ADD DUP7 PUSH2 0x230C JUMP JUMPDEST PUSH2 0x2E15 PUSH1 0x40 DUP4 ADD DUP6 PUSH2 0x230C JUMP JUMPDEST PUSH2 0x2E22 PUSH1 0x60 DUP4 ADD DUP5 PUSH2 0x230C JUMP JUMPDEST SWAP6 SWAP5 POP POP POP POP POP JUMP JUMPDEST PUSH32 0x4E6F7420612072656769737465726564206A75726F7200000000000000000000 PUSH0 DUP3 ADD MSTORE POP JUMP JUMPDEST PUSH0 PUSH2 0x2E5F PUSH1 0x16 DUP4 PUSH2 0x2694 JUMP JUMPDEST SWAP2 POP PUSH2 0x2E6A DUP3 PUSH2 0x2E2B JUMP JUMPDEST PUSH1 0x20 DUP3 ADD SWAP1 POP SWAP2 SWAP1 POP JUMP JUMPDEST PUSH0 PUSH1 0x20 DUP3 ADD SWAP1 POP DUP2 DUP2 SUB PUSH0 DUP4 ADD MSTORE PUSH2 0x2E8C DUP2 PUSH2 0x2E53 JUMP JUMPDEST SWAP1 POP SWAP2 SWAP1 POP JUMP JUMPDEST PUSH32 0x43616E6E6F7420756E7265676973746572207768696C652073657276696E6720 PUSH0 DUP3 ADD MSTORE PUSH32 0x6F6E206120636173650000000000000000000000000000000000000000000000 PUSH1 0x20 DUP3 ADD MSTORE POP JUMP JUMPDEST PUSH0 PUSH2 0x2EED PUSH1 0x29 DUP4 PUSH2 0x2694 JUMP JUMPDEST SWAP2 POP PUSH2 0x2EF8 DUP3 PUSH2 0x2E93 JUMP JUMPDEST PUSH1 0x40 DUP3 ADD SWAP1 POP SWAP2 SWAP1 POP JUMP JUMPDEST PUSH0 PUSH1 0x20 DUP3 ADD SWAP1 POP DUP2 DUP2 SUB PUSH0 DUP4 ADD MSTORE PUSH2 0x2F1A DUP2 PUSH2 0x2EE1 JUMP JUMPDEST SWAP1 POP SWAP2 SWAP1 POP JUMP JUMPDEST PUSH0 PUSH2 0x2F2B DUP3 PUSH2 0x2303 JUMP JUMPDEST SWAP2 POP PUSH2 0x2F36 DUP4 PUSH2 0x2303 JUMP JUMPDEST SWAP3 POP DUP3 DUP3 SUB SWAP1 POP DUP2 DUP2 GT ISZERO PUSH2 0x2F4E JUMPI PUSH2 0x2F4D PUSH2 0x2BD3 JUMP JUMPDEST JUMPDEST SWAP3 SWAP2 POP POP JUMP JUMPDEST PUSH32 0x4E487B7100000000000000000000000000000000000000000000000000000000 PUSH0 MSTORE PUSH1 0x31 PUSH1 0x4 MSTORE PUSH1 0x24 PUSH0 REVERT JUMPDEST PUSH32 0x546F6B656E207472616E73666572206661696C65640000000000000000000000 PUSH0 DUP3 ADD MSTORE POP JUMP JUMPDEST PUSH0 PUSH2 0x2FB5 PUSH1 0x15 DUP4 PUSH2 0x2694 JUMP JUMPDEST SWAP2 POP PUSH2 0x2FC0 DUP3 PUSH2 0x2F81 JUMP JUMPDEST PUSH1 0x20 DUP3 ADD SWAP1 POP SWAP2 SWAP1 POP JUMP JUMPDEST PUSH0 PUSH1 0x20 DUP3 ADD SWAP1 POP DUP2 DUP2 SUB PUSH0 DUP4 ADD MSTORE PUSH2 0x2FE2 DUP2 PUSH2 0x2FA9 JUMP JUMPDEST SWAP1 POP SWAP2 SWAP1 POP JUMP JUMPDEST PUSH32 0x416C726561647920726567697374657265640000000000000000000000000000 PUSH0 DUP3 ADD MSTORE POP JUMP JUMPDEST PUSH0 PUSH2 0x301D PUSH1 0x12 DUP4 PUSH2 0x2694 JUMP JUMPDEST SWAP2 POP PUSH2 0x3028 DUP3 PUSH2 0x2FE9 JUMP JUMPDEST PUSH1 0x20 DUP3 ADD SWAP1 POP SWAP2 SWAP1 POP JUMP JUMPDEST PUSH0 PUSH1 0x20 DUP3 ADD SWAP1 POP DUP2 DUP2 SUB PUSH0 DUP4 ADD MSTORE PUSH2 0x304A DUP2 PUSH2 0x3011 JUMP JUMPDEST SWAP1 POP SWAP2 SWAP1 POP JUMP JUMPDEST PUSH0 PUSH1 0x60 DUP3 ADD SWAP1 POP PUSH2 0x3064 PUSH0 DUP4 ADD DUP7 PUSH2 0x267B JUMP JUMPDEST PUSH2 0x3071 PUSH1 0x20 DUP4 ADD DUP6 PUSH2 0x267B JUMP JUMPDEST PUSH2 0x307E PUSH1 0x40 DUP4 ADD DUP5 PUSH2 0x230C JUMP JUMPDEST SWAP5 SWAP4 POP POP POP POP JUMP JUMPDEST PUSH32 0x546F6B656E207472616E73666572206661696C65642E2044696420796F752061 PUSH0 DUP3 ADD MSTORE PUSH32 0x7070726F76653F00000000000000000000000000000000000000000000000000 PUSH1 0x20 DUP3 ADD MSTORE POP JUMP JUMPDEST PUSH0 PUSH2 0x30E0 PUSH1 0x27 DUP4 PUSH2 0x2694 JUMP JUMPDEST SWAP2 POP PUSH2 0x30EB DUP3 PUSH2 0x3086 JUMP JUMPDEST PUSH1 0x40 DUP3 ADD SWAP1 POP SWAP2 SWAP1 POP JUMP JUMPDEST PUSH0 PUSH1 0x20 DUP3 ADD SWAP1 POP DUP2 DUP2 SUB PUSH0 DUP4 ADD MSTORE PUSH2 0x310D DUP2 PUSH2 0x30D4 JUMP JUMPDEST SWAP1 POP SWAP2 SWAP1 POP JUMP JUMPDEST PUSH32 0x436F6D6D697420706861736520656E6465640000000000000000000000000000 PUSH0 DUP3 ADD MSTORE POP JUMP JUMPDEST PUSH0 PUSH2 0x3148 PUSH1 0x12 DUP4 PUSH2 0x2694 JUMP JUMPDEST SWAP2 POP PUSH2 0x3153 DUP3 PUSH2 0x3114 JUMP JUMPDEST PUSH1 0x20 DUP3 ADD SWAP1 POP SWAP2 SWAP1 POP JUMP JUMPDEST PUSH0 PUSH1 0x20 DUP3 ADD SWAP1 POP DUP2 DUP2 SUB PUSH0 DUP4 ADD MSTORE PUSH2 0x3175 DUP2 PUSH2 0x313C JUMP JUMPDEST SWAP1 POP SWAP2 SWAP1 POP JUMP JUMPDEST PUSH32 0x416C726561647920636F6D6D6974746564000000000000000000000000000000 PUSH0 DUP3 ADD MSTORE POP JUMP JUMPDEST PUSH0 PUSH2 0x31B0 PUSH1 0x11 DUP4 PUSH2 0x2694 JUMP JUMPDEST SWAP2 POP PUSH2 0x31BB DUP3 PUSH2 0x317C JUMP JUMPDEST PUSH1 0x20 DUP3 ADD SWAP1 POP SWAP2 SWAP1 POP JUMP JUMPDEST PUSH0 PUSH1 0x20 DUP3 ADD SWAP1 POP DUP2 DUP2 SUB PUSH0 DUP4 ADD MSTORE PUSH2 0x31DD DUP2 PUSH2 0x31A4 JUMP JUMPDEST SWAP1 POP SWAP2 SWAP1 POP JUMP JUMPDEST PUSH32 0x496E76616C696420646566656E64616E74000000000000000000000000000000 PUSH0 DUP3 ADD MSTORE POP JUMP JUMPDEST PUSH0 PUSH2 0x3218 PUSH1 0x11 DUP4 PUSH2 0x2694 JUMP JUMPDEST SWAP2 POP PUSH2 0x3223 DUP3 PUSH2 0x31E4 JUMP JUMPDEST PUSH1 0x20 DUP3 ADD SWAP1 POP SWAP2 SWAP1 POP JUMP JUMPDEST PUSH0 PUSH1 0x20 DUP3 ADD SWAP1 POP DUP2 DUP2 SUB PUSH0 DUP4 ADD MSTORE PUSH2 0x3245 DUP2 PUSH2 0x320C JUMP JUMPDEST SWAP1 POP SWAP2 SWAP1 POP JUMP JUMPDEST PUSH32 0x4E6F7420656E6F75676820617661696C61626C65206A75726F72730000000000 PUSH0 DUP3 ADD MSTORE POP JUMP JUMPDEST PUSH0 PUSH2 0x3280 PUSH1 0x1B DUP4 PUSH2 0x2694 JUMP JUMPDEST SWAP2 POP PUSH2 0x328B DUP3 PUSH2 0x324C JUMP JUMPDEST PUSH1 0x20 DUP3 ADD SWAP1 POP SWAP2 SWAP1 POP JUMP JUMPDEST PUSH0 PUSH1 0x20 DUP3 ADD SWAP1 POP DUP2 DUP2 SUB PUSH0 DUP4 ADD MSTORE PUSH2 0x32AD DUP2 PUSH2 0x3274 JUMP JUMPDEST SWAP1 POP SWAP2 SWAP1 POP JUMP JUMPDEST PUSH32 0x46696C696E6720666565207472616E73666572206661696C65642E2044696420 PUSH0 DUP3 ADD MSTORE PUSH32 0x796F7520617070726F76653F0000000000000000000000000000000000000000 PUSH1 0x20 DUP3 ADD MSTORE POP JUMP JUMPDEST PUSH0 PUSH2 0x330E PUSH1 0x2C DUP4 PUSH2 0x2694 JUMP JUMPDEST SWAP2 POP PUSH2 0x3319 DUP3 PUSH2 0x32B4 JUMP JUMPDEST PUSH1 0x40 DUP3 ADD SWAP1 POP SWAP2 SWAP1 POP JUMP JUMPDEST PUSH0 PUSH1 0x20 DUP3 ADD SWAP1 POP DUP2 DUP2 SUB PUSH0 DUP4 ADD MSTORE PUSH2 0x333B DUP2 PUSH2 0x3302 JUMP JUMPDEST SWAP1 POP SWAP2 SWAP1 POP JUMP JUMPDEST PUSH0 DUP3 SWAP1 POP SWAP3 SWAP2 POP POP JUMP JUMPDEST PUSH32 0x4E487B7100000000000000000000000000000000000000000000000000000000 PUSH0 MSTORE PUSH1 0x41 PUSH1 0x4 MSTORE PUSH1 0x24 PUSH0 REVERT JUMPDEST PUSH32 0x4E487B7100000000000000000000000000000000000000000000000000000000 PUSH0 MSTORE PUSH1 0x22 PUSH1 0x4 MSTORE PUSH1 0x24 PUSH0 REVERT JUMPDEST PUSH0 PUSH1 0x2 DUP3 DIV SWAP1 POP PUSH1 0x1 DUP3 AND DUP1 PUSH2 0x33BD JUMPI PUSH1 0x7F DUP3 AND SWAP2 POP JUMPDEST PUSH1 0x20 DUP3 LT DUP2 SUB PUSH2 0x33D0 JUMPI PUSH2 0x33CF PUSH2 0x3379 JUMP JUMPDEST JUMPDEST POP SWAP2 SWAP1 POP JUMP JUMPDEST PUSH0 DUP2 SWAP1 POP DUP2 PUSH0 MSTORE PUSH1 0x20 PUSH0 KECCAK256 SWAP1 POP SWAP2 SWAP1 POP JUMP JUMPDEST PUSH0 PUSH1 0x20 PUSH1 0x1F DUP4 ADD DIV SWAP1 POP SWAP2 SWAP1 POP JUMP JUMPDEST PUSH0 DUP3 DUP3 SHL SWAP1 POP SWAP3 SWAP2 POP POP JUMP JUMPDEST PUSH0 PUSH1 0x8 DUP4 MUL PUSH2 0x3432 PUSH32 0xFFFFFFFFFFFFFFFFFFFFFFFFFFFFFFFFFFFFFFFFFFFFFFFFFFFFFFFFFFFFFFFF DUP3 PUSH2 0x33F7 JUMP JUMPDEST PUSH2 0x343C DUP7 DUP4 PUSH2 0x33F7 JUMP JUMPDEST SWAP6 POP DUP1 NOT DUP5 AND SWAP4 POP DUP1 DUP7 AND DUP5 OR SWAP3 POP POP POP SWAP4 SWAP3 POP POP POP JUMP JUMPDEST PUSH0 PUSH2 0x346E PUSH2 0x3469 PUSH2 0x3464 DUP5 PUSH2 0x2303 JUMP JUMPDEST PUSH2 0x2494 JUMP JUMPDEST PUSH2 0x2303 JUMP JUMPDEST SWAP1 POP SWAP2 SWAP1 POP JUMP JUMPDEST PUSH0 DUP2 SWAP1 POP SWAP2 SWAP1 POP JUMP JUMPDEST PUSH2 0x3487 DUP4 PUSH2 0x3454 JUMP JUMPDEST PUSH2 0x349B PUSH2 0x3493 DUP3 PUSH2 0x3475 JUMP JUMPDEST DUP5 DUP5 SLOAD PUSH2 0x3403 JUMP JUMPDEST DUP3 SSTORE POP POP POP POP JUMP JUMPDEST PUSH0 PUSH0 SWAP1 POP SWAP1 JUMP JUMPDEST PUSH2 0x34B2 PUSH2 0x34A3 JUMP JUMPDEST PUSH2 0x34BD DUP2 DUP5 DUP5 PUSH2 0x347E JUMP JUMPDEST POP POP POP JUMP JUMPDEST JUMPDEST DUP2 DUP2 LT ISZERO PUSH2 0x34E0 JUMPI PUSH2 0x34D5 PUSH0 DUP3 PUSH2 0x34AA JUMP JUMPDEST PUSH1 0x1 DUP2 ADD SWAP1 POP PUSH2 0x34C3 JUMP JUMPDEST POP POP JUMP JUMPDEST PUSH1 0x1F DUP3 GT ISZERO PUSH2 0x3525 JUMPI PUSH2 0x34F6 DUP2 PUSH2 0x33D6 JUMP JUMPDEST PUSH2 0x34FF DUP5 PUSH2 0x33E8 JUMP JUMPDEST DUP2 ADD PUSH1 0x20 DUP6 LT ISZERO PUSH2 0x350E JUMPI DUP2 SWAP1 POP JUMPDEST PUSH2 0x3522 PUSH2 0x351A DUP6 PUSH2 0x33E8 JUMP JUMPDEST DUP4 ADD DUP3 PUSH2 0x34C2 JUMP JUMPDEST POP POP JUMPDEST POP POP POP JUMP JUMPDEST PUSH0 DUP3 DUP3 SHR SWAP1 POP SWAP3 SWAP2 POP POP JUMP JUMPDEST PUSH0 PUSH2 0x3545 PUSH0 NOT DUP5 PUSH1 0x8 MUL PUSH2 0x352A JUMP JUMPDEST NOT DUP1 DUP4 AND SWAP2 POP POP SWAP3 SWAP2 POP POP JUMP JUMPDEST PUSH0 PUSH2 0x355D DUP4 DUP4 PUSH2 0x3536 JUMP JUMPDEST SWAP2 POP DUP3 PUSH1 0x2 MUL DUP3 OR SWAP1 POP SWAP3 SWAP2 POP POP JUMP JUMPDEST PUSH2 0x3577 DUP4 DUP4 PUSH2 0x3342 JUMP JUMPDEST PUSH8 0xFFFFFFFFFFFFFFFF DUP2 GT ISZERO PUSH2 0x3590 JUMPI PUSH2 0x358F PUSH2 0x334C JUMP JUMPDEST JUMPDEST PUSH2 0x359A DUP3 SLOAD PUSH2 0x33A6 JUMP JUMPDEST PUSH2 0x35A5 DUP3 DUP3 DUP6 PUSH2 0x34E4 JUMP JUMPDEST PUSH0 PUSH1 0x1F DUP4 GT PUSH1 0x1 DUP2 EQ PUSH2 0x35D2 JUMPI PUSH0 DUP5 ISZERO PUSH2 0x35C0 JUMPI DUP3 DUP8 ADD CALLDATALOAD SWAP1 POP JUMPDEST PUSH2 0x35CA DUP6 DUP3 PUSH2 0x3552 JUMP JUMPDEST DUP7 SSTORE POP PUSH2 0x3631 JUMP JUMPDEST PUSH1 0x1F NOT DUP5 AND PUSH2 0x35E0 DUP7 PUSH2 0x33D6 JUMP JUMPDEST PUSH0 JUMPDEST DUP3 DUP2 LT ISZERO PUSH2 0x3607 JUMPI DUP5 DUP10 ADD CALLDATALOAD DUP3 SSTORE PUSH1 0x1 DUP3 ADD SWAP2 POP PUSH1 0x20 DUP6 ADD SWAP5 POP PUSH1 0x20 DUP2 ADD SWAP1 POP PUSH2 0x35E2 JUMP JUMPDEST DUP7 DUP4 LT ISZERO PUSH2 0x3624 JUMPI DUP5 DUP10 ADD CALLDATALOAD PUSH2 0x3620 PUSH1 0x1F DUP10 AND DUP3 PUSH2 0x3536 JUMP JUMPDEST DUP4 SSTORE POP JUMPDEST PUSH1 0x1 PUSH1 0x2 DUP9 MUL ADD DUP9 SSTORE POP POP POP JUMPDEST POP POP POP POP POP POP POP JUMP JUMPDEST PUSH0 PUSH2 0x3644 DUP3 PUSH2 0x2303 JUMP JUMPDEST SWAP2 POP PUSH2 0x364F DUP4 PUSH2 0x2303 JUMP JUMPDEST SWAP3 POP DUP3 DUP3 ADD SWAP1 POP DUP1 DUP3 GT ISZERO PUSH2 0x3667 JUMPI PUSH2 0x3666 PUSH2 0x2BD3 JUMP JUMPDEST JUMPDEST SWAP3 SWAP2 POP POP JUMP JUMPDEST PUSH32 0x5265656E7472616E637947756172643A207265656E7472616E742063616C6C00 PUSH0 DUP3 ADD MSTORE POP JUMP JUMPDEST PUSH0 PUSH2 0x36A1 PUSH1 0x1F DUP4 PUSH2 0x2694 JUMP JUMPDEST SWAP2 POP PUSH2 0x36AC DUP3 PUSH2 0x366D JUMP JUMPDEST PUSH1 0x20 DUP3 ADD SWAP1 POP SWAP2 SWAP1 POP JUMP JUMPDEST PUSH0 PUSH1 0x20 DUP3 ADD SWAP1 POP DUP2 DUP2 SUB PUSH0 DUP4 ADD MSTORE PUSH2 0x36CE DUP2 PUSH2 0x3695 JUMP JUMPDEST SWAP1 POP SWAP2 SWAP1 POP JUMP JUMPDEST PUSH0 PUSH2 0x36DF DUP3 PUSH2 0x2303 JUMP JUMPDEST SWAP2 POP PUSH2 0x36EA DUP4 PUSH2 0x2303 JUMP JUMPDEST SWAP3 POP DUP3 DUP3 MUL PUSH2 0x36F8 DUP2 PUSH2 0x2303 JUMP JUMPDEST SWAP2 POP DUP3 DUP3 DIV DUP5 EQ DUP4 ISZERO OR PUSH2 0x370F JUMPI PUSH2 0x370E PUSH2 0x2BD3 JUMP JUMPDEST JUMPDEST POP SWAP3 SWAP2 POP POP JUMP JUMPDEST PUSH32 0x4E487B7100000000000000000000000000000000000000000000000000000000 PUSH0 MSTORE PUSH1 0x12 PUSH1 0x4 MSTORE PUSH1 0x24 PUSH0 REVERT JUMPDEST PUSH0 PUSH2 0x374D DUP3 PUSH2 0x2303 JUMP JUMPDEST SWAP2 POP PUSH2 0x3758 DUP4 PUSH2 0x2303 JUMP JUMPDEST SWAP3 POP DUP3 PUSH2 0x3768 JUMPI PUSH2 0x3767 PUSH2 0x3716 JUMP JUMPDEST JUMPDEST DUP3 DUP3 DIV SWAP1 POP SWAP3 SWAP2 POP POP JUMP JUMPDEST PUSH0 DUP2 SWAP1 POP SWAP2 SWAP1 POP JUMP JUMPDEST PUSH2 0x378D PUSH2 0x3788 DUP3 PUSH2 0x2303 JUMP JUMPDEST PUSH2 0x3773 JUMP JUMPDEST DUP3 MSTORE POP POP JUMP JUMPDEST PUSH0 PUSH2 0x379E DUP3 DUP8 PUSH2 0x377C JUMP JUMPDEST PUSH1 0x20 DUP3 ADD SWAP2 POP PUSH2 0x37AE DUP3 DUP7 PUSH2 0x377C JUMP JUMPDEST PUSH1 0x20 DUP3 ADD SWAP2 POP PUSH2 0x37BE DUP3 DUP6 PUSH2 0x377C JUMP JUMPDEST PUSH1 0x20 DUP3 ADD SWAP2 POP PUSH2 0x37CE DUP3 DUP5 PUSH2 0x377C JUMP JUMPDEST PUSH1 0x20 DUP3 ADD SWAP2 POP DUP2 SWAP1 POP SWAP6 SWAP5 POP POP POP POP POP JUMP JUMPDEST PUSH0 PUSH2 0x37EA DUP3 PUSH2 0x2303 JUMP JUMPDEST SWAP2 POP PUSH2 0x37F5 DUP4 PUSH2 0x2303 JUMP JUMPDEST SWAP3 POP DUP3 PUSH2 0x3805 JUMPI PUSH2 0x3804 PUSH2 0x3716 JUMP JUMPDEST JUMPDEST DUP3 DUP3 MOD SWAP1 POP SWAP3 SWAP2 POP POP JUMP JUMPDEST PUSH0 PUSH2 0x381A DUP3 PUSH2 0x2303 JUMP JUMPDEST SWAP2 POP PUSH0 DUP3 SUB PUSH2 0x382C JUMPI PUSH2 0x382B PUSH2 0x2BD3 JUMP JUMPDEST JUMPDEST PUSH1 0x1 DUP3 SUB SWAP1 POP SWAP2 SWAP1 POP JUMP INVALID LOG2 PUSH5 0x6970667358 0x22 SLT KECCAK256 SWAP3 PUSH25 0x898CB611B8F503FEF56C772CE44A250A5A7CE53005CBC708E5 RETF REVERT 0x21 CALLDATACOPY 0xA6 PUSH5 0x736F6C6343 STOP ADDMOD 0x1E STOP CALLER "
				},
				"gasEstimates": {
					"creation": {
						"codeDepositCost": "2889000",
						"executionCost": "infinite",
						"totalCost": "infinite"
					},
					"external": {
						"cases(uint256)": "infinite",
						"commitDuration()": "2514",
						"commitVote(uint256,bytes32)": "infinite",
						"createCase(address,string)": "infinite",
						"executeVerdict(uint256)": "infinite",
						"filingFeeAmount()": "2515",
						"jurorPenaltyRate()": "2449",
						"jurorPool(uint256)": "5054",
						"jurorStakeAmount()": "2491",
						"jurorsInfo(address)": "infinite",
						"jurySize()": "2470",
						"juryToken()": "infinite",
						"nextCaseId()": "2492",
						"registerAsJuror()": "infinite",
						"revealDuration()": "2470",
						"revealVote(uint256,uint8,bytes32)": "infinite",
						"unregisterAsJuror()": "infinite"
					},
					"internal": {
						"_assignJurors(uint256)": "infinite",
						"_isJurorForCase(struct DeciCourt.Case storage pointer,address)": "infinite"
					}
				},
				"methodIdentifiers": {
					"cases(uint256)": "f09790dd",
					"commitDuration()": "6f833811",
					"commitVote(uint256,bytes32)": "9da69180",
					"createCase(address,string)": "a2febe29",
					"executeVerdict(uint256)": "1c204d0e",
					"filingFeeAmount()": "232e0c87",
					"jurorPenaltyRate()": "059a184c",
					"jurorPool(uint256)": "f643d3d7",
					"jurorStakeAmount()": "d496c455",
					"jurorsInfo(address)": "b55796f3",
					"jurySize()": "536c8c15",
					"juryToken()": "9eacb5b9",
					"nextCaseId()": "6350eae8",
					"registerAsJuror()": "71929ad5",
					"revealDuration()": "886a6de1",
					"revealVote(uint256,uint8,bytes32)": "0b05b14f",
					"unregisterAsJuror()": "43bbdd3f"
				}
			},
			"storageLayout": {
				"storage": [
					{
						"astId": 10,
						"contract": "DeciCourt.sol:DeciCourt",
						"label": "_status",
						"offset": 0,
						"slot": "0",
						"type": "t_uint256"
					},
					{
						"astId": 571,
						"contract": "DeciCourt.sol:DeciCourt",
						"label": "filingFeeAmount",
						"offset": 0,
						"slot": "1",
						"type": "t_uint256"
					},
					{
						"astId": 573,
						"contract": "DeciCourt.sol:DeciCourt",
						"label": "jurorStakeAmount",
						"offset": 0,
						"slot": "2",
						"type": "t_uint256"
					},
					{
						"astId": 575,
						"contract": "DeciCourt.sol:DeciCourt",
						"label": "jurySize",
						"offset": 0,
						"slot": "3",
						"type": "t_uint256"
					},
					{
						"astId": 577,
						"contract": "DeciCourt.sol:DeciCourt",
						"label": "commitDuration",
						"offset": 0,
						"slot": "4",
						"type": "t_uint256"
					},
					{
						"astId": 579,
						"contract": "DeciCourt.sol:DeciCourt",
						"label": "revealDuration",
						"offset": 0,
						"slot": "5",
						"type": "t_uint256"
					},
					{
						"astId": 581,
						"contract": "DeciCourt.sol:DeciCourt",
						"label": "jurorPenaltyRate",
						"offset": 0,
						"slot": "6",
						"type": "t_uint256"
					},
					{
						"astId": 583,
						"contract": "DeciCourt.sol:DeciCourt",
						"label": "nextCaseId",
						"offset": 0,
						"slot": "7",
						"type": "t_uint256"
					},
					{
						"astId": 588,
						"contract": "DeciCourt.sol:DeciCourt",
						"label": "cases",
						"offset": 0,
						"slot": "8",
						"type": "t_mapping(t_uint256,t_struct(Case)559_storage)"
					},
					{
						"astId": 591,
						"contract": "DeciCourt.sol:DeciCourt",
						"label": "jurorPool",
						"offset": 0,
						"slot": "9",
						"type": "t_array(t_address)dyn_storage"
					},
					{
						"astId": 595,
						"contract": "DeciCourt.sol:DeciCourt",
						"label": "jurorPoolIndex",
						"offset": 0,
						"slot": "10",
						"type": "t_mapping(t_address,t_uint256)"
					},
					{
						"astId": 600,
						"contract": "DeciCourt.sol:DeciCourt",
						"label": "jurorsInfo",
						"offset": 0,
						"slot": "11",
						"type": "t_mapping(t_address,t_struct(JurorInfo)566_storage)"
					}
				],
				"types": {
					"t_address": {
						"encoding": "inplace",
						"label": "address",
						"numberOfBytes": "20"
					},
					"t_array(t_address)dyn_storage": {
						"base": "t_address",
						"encoding": "dynamic_array",
						"label": "address[]",
						"numberOfBytes": "32"
					},
					"t_bool": {
						"encoding": "inplace",
						"label": "bool",
						"numberOfBytes": "1"
					},
					"t_bytes32": {
						"encoding": "inplace",
						"label": "bytes32",
						"numberOfBytes": "32"
					},
					"t_enum(CaseStatus)517": {
						"encoding": "inplace",
						"label": "enum DeciCourt.CaseStatus",
						"numberOfBytes": "1"
					},
					"t_enum(VoteOption)521": {
						"encoding": "inplace",
						"label": "enum DeciCourt.VoteOption",
						"numberOfBytes": "1"
					},
					"t_mapping(t_address,t_bytes32)": {
						"encoding": "mapping",
						"key": "t_address",
						"label": "mapping(address => bytes32)",
						"numberOfBytes": "32",
						"value": "t_bytes32"
					},
					"t_mapping(t_address,t_enum(VoteOption)521)": {
						"encoding": "mapping",
						"key": "t_address",
						"label": "mapping(address => enum DeciCourt.VoteOption)",
						"numberOfBytes": "32",
						"value": "t_enum(VoteOption)521"
					},
					"t_mapping(t_address,t_struct(JurorInfo)566_storage)": {
						"encoding": "mapping",
						"key": "t_address",
						"label": "mapping(address => struct DeciCourt.JurorInfo)",
						"numberOfBytes": "32",
						"value": "t_struct(JurorInfo)566_storage"
					},
					"t_mapping(t_address,t_uint256)": {
						"encoding": "mapping",
						"key": "t_address",
						"label": "mapping(address => uint256)",
						"numberOfBytes": "32",
						"value": "t_uint256"
					},
					"t_mapping(t_uint256,t_struct(Case)559_storage)": {
						"encoding": "mapping",
						"key": "t_uint256",
						"label": "mapping(uint256 => struct DeciCourt.Case)",
						"numberOfBytes": "32",
						"value": "t_struct(Case)559_storage"
					},
					"t_string_storage": {
						"encoding": "bytes",
						"label": "string",
						"numberOfBytes": "32"
					},
					"t_struct(Case)559_storage": {
						"encoding": "inplace",
						"label": "struct DeciCourt.Case",
						"members": [
							{
								"astId": 523,
								"contract": "DeciCourt.sol:DeciCourt",
								"label": "id",
								"offset": 0,
								"slot": "0",
								"type": "t_uint256"
							},
							{
								"astId": 525,
								"contract": "DeciCourt.sol:DeciCourt",
								"label": "plaintiff",
								"offset": 0,
								"slot": "1",
								"type": "t_address"
							},
							{
								"astId": 527,
								"contract": "DeciCourt.sol:DeciCourt",
								"label": "defendant",
								"offset": 0,
								"slot": "2",
								"type": "t_address"
							},
							{
								"astId": 529,
								"contract": "DeciCourt.sol:DeciCourt",
								"label": "evidenceCID",
								"offset": 0,
								"slot": "3",
								"type": "t_string_storage"
							},
							{
								"astId": 532,
								"contract": "DeciCourt.sol:DeciCourt",
								"label": "status",
								"offset": 0,
								"slot": "4",
								"type": "t_enum(CaseStatus)517"
							},
							{
								"astId": 534,
								"contract": "DeciCourt.sol:DeciCourt",
								"label": "filingFee",
								"offset": 0,
								"slot": "5",
								"type": "t_uint256"
							},
							{
								"astId": 537,
								"contract": "DeciCourt.sol:DeciCourt",
								"label": "jurors",
								"offset": 0,
								"slot": "6",
								"type": "t_array(t_address)dyn_storage"
							},
							{
								"astId": 541,
								"contract": "DeciCourt.sol:DeciCourt",
								"label": "committedVotes",
								"offset": 0,
								"slot": "7",
								"type": "t_mapping(t_address,t_bytes32)"
							},
							{
								"astId": 546,
								"contract": "DeciCourt.sol:DeciCourt",
								"label": "revealedVotes",
								"offset": 0,
								"slot": "8",
								"type": "t_mapping(t_address,t_enum(VoteOption)521)"
							},
							{
								"astId": 548,
								"contract": "DeciCourt.sol:DeciCourt",
								"label": "plaintiffVoteCount",
								"offset": 0,
								"slot": "9",
								"type": "t_uint256"
							},
							{
								"astId": 550,
								"contract": "DeciCourt.sol:DeciCourt",
								"label": "defendantVoteCount",
								"offset": 0,
								"slot": "10",
								"type": "t_uint256"
							},
							{
								"astId": 552,
								"contract": "DeciCourt.sol:DeciCourt",
								"label": "creationTime",
								"offset": 0,
								"slot": "11",
								"type": "t_uint256"
							},
							{
								"astId": 554,
								"contract": "DeciCourt.sol:DeciCourt",
								"label": "commitDeadline",
								"offset": 0,
								"slot": "12",
								"type": "t_uint256"
							},
							{
								"astId": 556,
								"contract": "DeciCourt.sol:DeciCourt",
								"label": "revealDeadline",
								"offset": 0,
								"slot": "13",
								"type": "t_uint256"
							},
							{
								"astId": 558,
								"contract": "DeciCourt.sol:DeciCourt",
								"label": "winner",
								"offset": 0,
								"slot": "14",
								"type": "t_address"
							}
						],
						"numberOfBytes": "480"
					},
					"t_struct(JurorInfo)566_storage": {
						"encoding": "inplace",
						"label": "struct DeciCourt.JurorInfo",
						"members": [
							{
								"astId": 561,
								"contract": "DeciCourt.sol:DeciCourt",
								"label": "isRegistered",
								"offset": 0,
								"slot": "0",
								"type": "t_bool"
							},
							{
								"astId": 563,
								"contract": "DeciCourt.sol:DeciCourt",
								"label": "stakedAmount",
								"offset": 0,
								"slot": "1",
								"type": "t_uint256"
							},
							{
								"astId": 565,
								"contract": "DeciCourt.sol:DeciCourt",
								"label": "isServing",
								"offset": 0,
								"slot": "2",
								"type": "t_bool"
							}
						],
						"numberOfBytes": "96"
					},
					"t_uint256": {
						"encoding": "inplace",
						"label": "uint256",
						"numberOfBytes": "32"
					}
				}
			},
			"userdoc": {
				"kind": "user",
				"methods": {},
				"version": 1
			}
		}
	}
}